{
	"contracts/Bridge.sol": {
		"Bridge": {
			"abi": [
				{
					"inputs": [
						{
							"internalType": "address",
							"name": "_owner",
							"type": "address"
						},
						{
							"internalType": "address",
							"name": "_lzEndpoint",
							"type": "address"
						},
						{
							"internalType": "uint16",
							"name": "_feeBasisPoints",
							"type": "uint16"
						}
					],
					"stateMutability": "nonpayable",
					"type": "constructor"
				},
				{
					"inputs": [],
					"name": "InvalidDelegate",
					"type": "error"
				},
				{
					"inputs": [],
					"name": "InvalidEndpointCall",
					"type": "error"
				},
				{
					"inputs": [],
					"name": "LzTokenUnavailable",
					"type": "error"
				},
				{
					"inputs": [
						{
							"internalType": "uint32",
							"name": "eid",
							"type": "uint32"
						}
					],
					"name": "NoPeer",
					"type": "error"
				},
				{
					"inputs": [
						{
							"internalType": "uint256",
							"name": "msgValue",
							"type": "uint256"
						}
					],
					"name": "NotEnoughNative",
					"type": "error"
				},
				{
					"inputs": [
						{
							"internalType": "address",
							"name": "addr",
							"type": "address"
						}
					],
					"name": "OnlyEndpoint",
					"type": "error"
				},
				{
					"inputs": [
						{
							"internalType": "uint32",
							"name": "eid",
							"type": "uint32"
						},
						{
							"internalType": "bytes32",
							"name": "sender",
							"type": "bytes32"
						}
					],
					"name": "OnlyPeer",
					"type": "error"
				},
				{
					"inputs": [
						{
							"internalType": "address",
							"name": "owner",
							"type": "address"
						}
					],
					"name": "OwnableInvalidOwner",
					"type": "error"
				},
				{
					"inputs": [
						{
							"internalType": "address",
							"name": "account",
							"type": "address"
						}
					],
					"name": "OwnableUnauthorizedAccount",
					"type": "error"
				},
				{
					"inputs": [
						{
							"internalType": "address",
							"name": "token",
							"type": "address"
						}
					],
					"name": "SafeERC20FailedOperation",
					"type": "error"
				},
				{
					"anonymous": false,
					"inputs": [
						{
							"indexed": true,
							"internalType": "address",
							"name": "previousOwner",
							"type": "address"
						},
						{
							"indexed": true,
							"internalType": "address",
							"name": "newOwner",
							"type": "address"
						}
					],
					"name": "OwnershipTransferred",
					"type": "event"
				},
				{
					"anonymous": false,
					"inputs": [
						{
							"indexed": false,
							"internalType": "uint32",
							"name": "eid",
							"type": "uint32"
						},
						{
							"indexed": false,
							"internalType": "bytes32",
							"name": "peer",
							"type": "bytes32"
						}
					],
					"name": "PeerSet",
					"type": "event"
				},
				{
					"anonymous": false,
					"inputs": [
						{
							"indexed": true,
							"internalType": "string",
							"name": "symbol",
							"type": "string"
						},
						{
							"indexed": true,
							"internalType": "address",
							"name": "tokenAddress",
							"type": "address"
						}
					],
					"name": "TokenAdded",
					"type": "event"
				},
				{
					"anonymous": false,
					"inputs": [
						{
							"indexed": true,
							"internalType": "string",
							"name": "symbol",
							"type": "string"
						}
					],
					"name": "TokenRemoved",
					"type": "event"
				},
				{
					"anonymous": false,
					"inputs": [
						{
							"indexed": true,
							"internalType": "address",
							"name": "sender",
							"type": "address"
						},
						{
							"indexed": true,
							"internalType": "address",
							"name": "token",
							"type": "address"
						},
						{
							"indexed": true,
							"internalType": "uint256",
							"name": "amount",
							"type": "uint256"
						},
						{
							"indexed": false,
							"internalType": "address",
							"name": "receiver",
							"type": "address"
						},
						{
							"indexed": false,
							"internalType": "uint256",
							"name": "fee",
							"type": "uint256"
						},
						{
							"indexed": false,
							"internalType": "uint16",
							"name": "targetChainId",
							"type": "uint16"
						}
					],
					"name": "TokensBridged",
					"type": "event"
				},
				{
					"anonymous": false,
					"inputs": [
						{
							"indexed": true,
							"internalType": "address",
							"name": "receiver",
							"type": "address"
						},
						{
							"indexed": true,
							"internalType": "address",
							"name": "token",
							"type": "address"
						},
						{
							"indexed": true,
							"internalType": "uint256",
							"name": "amount",
							"type": "uint256"
						}
					],
					"name": "TokensReleased",
					"type": "event"
				},
				{
					"inputs": [
						{
							"internalType": "string",
							"name": "_symbol",
							"type": "string"
						},
						{
							"internalType": "address",
							"name": "_address",
							"type": "address"
						}
					],
					"name": "addSupportedToken",
					"outputs": [],
					"stateMutability": "nonpayable",
					"type": "function"
				},
				{
					"inputs": [
						{
							"components": [
								{
									"internalType": "uint32",
									"name": "srcEid",
									"type": "uint32"
								},
								{
									"internalType": "bytes32",
									"name": "sender",
									"type": "bytes32"
								},
								{
									"internalType": "uint64",
									"name": "nonce",
									"type": "uint64"
								}
							],
							"internalType": "struct Origin",
							"name": "origin",
							"type": "tuple"
						}
					],
					"name": "allowInitializePath",
					"outputs": [
						{
							"internalType": "bool",
							"name": "",
							"type": "bool"
						}
					],
					"stateMutability": "view",
					"type": "function"
				},
				{
					"inputs": [
						{
							"internalType": "string",
							"name": "symbol",
							"type": "string"
						},
						{
							"internalType": "uint256",
							"name": "amount",
							"type": "uint256"
						},
						{
							"internalType": "address",
							"name": "receiver",
							"type": "address"
						},
						{
							"internalType": "uint16",
							"name": "targetChainId",
							"type": "uint16"
						},
						{
							"internalType": "bytes",
							"name": "_options",
							"type": "bytes"
						}
					],
					"name": "bridgeTokens",
					"outputs": [
						{
							"components": [
								{
									"internalType": "bytes32",
									"name": "guid",
									"type": "bytes32"
								},
								{
									"internalType": "uint64",
									"name": "nonce",
									"type": "uint64"
								},
								{
									"components": [
										{
											"internalType": "uint256",
											"name": "nativeFee",
											"type": "uint256"
										},
										{
											"internalType": "uint256",
											"name": "lzTokenFee",
											"type": "uint256"
										}
									],
									"internalType": "struct MessagingFee",
									"name": "fee",
									"type": "tuple"
								}
							],
							"internalType": "struct MessagingReceipt",
							"name": "receipt",
							"type": "tuple"
						}
					],
					"stateMutability": "payable",
					"type": "function"
				},
				{
					"inputs": [],
					"name": "endpoint",
					"outputs": [
						{
							"internalType": "contract ILayerZeroEndpointV2",
							"name": "",
							"type": "address"
						}
					],
					"stateMutability": "view",
					"type": "function"
				},
				{
					"inputs": [],
					"name": "feeBasisPoints",
					"outputs": [
						{
							"internalType": "uint16",
							"name": "",
							"type": "uint16"
						}
					],
					"stateMutability": "view",
					"type": "function"
				},
				{
					"inputs": [
						{
							"components": [
								{
									"internalType": "uint32",
									"name": "srcEid",
									"type": "uint32"
								},
								{
									"internalType": "bytes32",
									"name": "sender",
									"type": "bytes32"
								},
								{
									"internalType": "uint64",
									"name": "nonce",
									"type": "uint64"
								}
							],
							"internalType": "struct Origin",
							"name": "",
							"type": "tuple"
						},
						{
							"internalType": "bytes",
							"name": "",
							"type": "bytes"
						},
						{
							"internalType": "address",
							"name": "_sender",
							"type": "address"
						}
					],
					"name": "isComposeMsgSender",
					"outputs": [
						{
							"internalType": "bool",
							"name": "",
							"type": "bool"
						}
					],
					"stateMutability": "view",
					"type": "function"
				},
				{
					"inputs": [
						{
							"components": [
								{
									"internalType": "uint32",
									"name": "srcEid",
									"type": "uint32"
								},
								{
									"internalType": "bytes32",
									"name": "sender",
									"type": "bytes32"
								},
								{
									"internalType": "uint64",
									"name": "nonce",
									"type": "uint64"
								}
							],
							"internalType": "struct Origin",
							"name": "_origin",
							"type": "tuple"
						},
						{
							"internalType": "bytes32",
							"name": "_guid",
							"type": "bytes32"
						},
						{
							"internalType": "bytes",
							"name": "_message",
							"type": "bytes"
						},
						{
							"internalType": "address",
							"name": "_executor",
							"type": "address"
						},
						{
							"internalType": "bytes",
							"name": "_extraData",
							"type": "bytes"
						}
					],
					"name": "lzReceive",
					"outputs": [],
					"stateMutability": "payable",
					"type": "function"
				},
				{
					"inputs": [
						{
							"internalType": "uint32",
							"name": "",
							"type": "uint32"
						},
						{
							"internalType": "bytes32",
							"name": "",
							"type": "bytes32"
						}
					],
					"name": "nextNonce",
					"outputs": [
						{
							"internalType": "uint64",
							"name": "nonce",
							"type": "uint64"
						}
					],
					"stateMutability": "view",
					"type": "function"
				},
				{
					"inputs": [],
					"name": "oAppVersion",
					"outputs": [
						{
							"internalType": "uint64",
							"name": "senderVersion",
							"type": "uint64"
						},
						{
							"internalType": "uint64",
							"name": "receiverVersion",
							"type": "uint64"
						}
					],
					"stateMutability": "pure",
					"type": "function"
				},
				{
					"inputs": [],
					"name": "owner",
					"outputs": [
						{
							"internalType": "address",
							"name": "",
							"type": "address"
						}
					],
					"stateMutability": "view",
					"type": "function"
				},
				{
					"inputs": [
						{
							"internalType": "uint32",
							"name": "eid",
							"type": "uint32"
						}
					],
					"name": "peers",
					"outputs": [
						{
							"internalType": "bytes32",
							"name": "peer",
							"type": "bytes32"
						}
					],
					"stateMutability": "view",
					"type": "function"
				},
				{
					"inputs": [
						{
							"internalType": "address",
							"name": "tokenAddress",
							"type": "address"
						},
						{
							"internalType": "uint256",
							"name": "amount",
							"type": "uint256"
						}
					],
					"name": "recoverERC20",
					"outputs": [],
					"stateMutability": "nonpayable",
					"type": "function"
				},
				{
					"inputs": [],
					"name": "recoverNative",
					"outputs": [],
					"stateMutability": "nonpayable",
					"type": "function"
				},
				{
					"inputs": [
						{
							"internalType": "string",
							"name": "_symbol",
							"type": "string"
						}
					],
					"name": "removeSupportedToken",
					"outputs": [],
					"stateMutability": "nonpayable",
					"type": "function"
				},
				{
					"inputs": [],
					"name": "renounceOwnership",
					"outputs": [],
					"stateMutability": "nonpayable",
					"type": "function"
				},
				{
					"inputs": [
						{
							"internalType": "address",
							"name": "_delegate",
							"type": "address"
						}
					],
					"name": "setDelegate",
					"outputs": [],
					"stateMutability": "nonpayable",
					"type": "function"
				},
				{
					"inputs": [
						{
							"internalType": "uint32",
							"name": "_eid",
							"type": "uint32"
						},
						{
							"internalType": "bytes32",
							"name": "_peer",
							"type": "bytes32"
						}
					],
					"name": "setPeer",
					"outputs": [],
					"stateMutability": "nonpayable",
					"type": "function"
				},
				{
					"inputs": [
						{
							"internalType": "string",
							"name": "",
							"type": "string"
						}
					],
					"name": "supportedTokens",
					"outputs": [
						{
							"internalType": "address",
							"name": "",
							"type": "address"
						}
					],
					"stateMutability": "view",
					"type": "function"
				},
				{
					"inputs": [
						{
							"internalType": "address",
							"name": "newOwner",
							"type": "address"
						}
					],
					"name": "transferOwnership",
					"outputs": [],
					"stateMutability": "nonpayable",
					"type": "function"
				},
				{
					"inputs": [
						{
							"internalType": "uint16",
							"name": "_feeBasisPoints",
							"type": "uint16"
						}
					],
					"name": "updateFee",
					"outputs": [],
					"stateMutability": "nonpayable",
					"type": "function"
				}
			],
			"devdoc": {
				"errors": {
					"OwnableInvalidOwner(address)": [
						{
							"details": "The owner is not a valid owner account. (eg. `address(0)`)"
						}
					],
					"OwnableUnauthorizedAccount(address)": [
						{
							"details": "The caller account is not authorized to perform an operation."
						}
					],
					"SafeERC20FailedOperation(address)": [
						{
							"details": "An operation with an ERC-20 token failed."
						}
					]
				},
				"kind": "dev",
				"methods": {
					"allowInitializePath((uint32,bytes32,uint64))": {
						"details": "This indicates to the endpoint that the OApp has enabled msgs for this particular path to be received.This defaults to assuming if a peer has been set, its initialized. Can be overridden by the OApp if there is other logic to determine this.",
						"params": {
							"origin": "The origin information containing the source endpoint and sender address."
						},
						"returns": {
							"_0": "Whether the path has been initialized."
						}
					},
					"isComposeMsgSender((uint32,bytes32,uint64),bytes,address)": {
						"details": "_origin The origin information containing the source endpoint and sender address.  - srcEid: The source chain endpoint ID.  - sender: The sender address on the src chain.  - nonce: The nonce of the message._message The lzReceive payload.Applications can optionally choose to implement separate composeMsg senders that are NOT the bridging layer.The default sender IS the OAppReceiver implementer.",
						"params": {
							"_sender": "The sender address."
						},
						"returns": {
							"_0": "isSender Is a valid sender."
						}
					},
					"lzReceive((uint32,bytes32,uint64),bytes32,bytes,address,bytes)": {
						"details": "Entry point for receiving messages or packets from the endpoint.Entry point for receiving msg/packet from the LayerZero endpoint.",
						"params": {
							"_executor": "The address of the executor for the received message.",
							"_extraData": "Additional arbitrary data provided by the corresponding executor.",
							"_guid": "The unique identifier for the received LayerZero message.",
							"_message": "The payload of the received message.",
							"_origin": "The origin information containing the source endpoint and sender address.  - srcEid: The source chain endpoint ID.  - sender: The sender address on the src chain.  - nonce: The nonce of the message."
						}
					},
					"nextNonce(uint32,bytes32)": {
						"details": "_srcEid The source endpoint ID._sender The sender address.The path nonce starts from 1. If 0 is returned it means that there is NO nonce ordered enforcement.Is required by the off-chain executor to determine the OApp expects msg execution is ordered.This is also enforced by the OApp.By default this is NOT enabled. ie. nextNonce is hardcoded to return 0.",
						"returns": {
							"nonce": "The next nonce."
						}
					},
					"oAppVersion()": {
						"returns": {
							"receiverVersion": "The version of the OAppReceiver.sol implementation.",
							"senderVersion": "The version of the OAppSender.sol implementation."
						}
					},
					"owner()": {
						"details": "Returns the address of the current owner."
					},
					"renounceOwnership()": {
						"details": "Leaves the contract without owner. It will not be possible to call `onlyOwner` functions. Can only be called by the current owner. NOTE: Renouncing ownership will leave the contract without an owner, thereby disabling any functionality that is only available to the owner."
					},
					"setDelegate(address)": {
						"details": "Only the owner/admin of the OApp can call this function.Provides the ability for a delegate to set configs, on behalf of the OApp, directly on the Endpoint contract.",
						"params": {
							"_delegate": "The address of the delegate to be set."
						}
					},
					"setPeer(uint32,bytes32)": {
						"details": "Only the owner/admin of the OApp can call this function.Indicates that the peer is trusted to send LayerZero messages to this OApp.Set this to bytes32(0) to remove the peer address.Peer is a bytes32 to accommodate non-evm chains.",
						"params": {
							"_eid": "The endpoint ID.",
							"_peer": "The address of the peer to be associated with the corresponding endpoint."
						}
					},
					"transferOwnership(address)": {
						"details": "Transfers ownership of the contract to a new account (`newOwner`). Can only be called by the current owner."
					}
				},
				"version": 1
			},
			"evm": {
				"assembly": "    /* \"contracts/Bridge.sol\":226:3421  contract Bridge is Ownable, OApp {... */\n  mstore(0x40, 0xa0)\n    /* \"contracts/Bridge.sol\":785:949  constructor(address _owner, address _lzEndpoint, uint16 _feeBasisPoints) Ownable(_owner) OApp(_lzEndpoint, _owner) {... */\n  callvalue\n  dup1\n  iszero\n  tag_1\n  jumpi\n  0x00\n  dup1\n  revert\ntag_1:\n  pop\n  mload(0x40)\n  sub(codesize, bytecodeSize)\n  dup1\n  bytecodeSize\n  dup4\n  codecopy\n  dup2\n  dup2\n  add\n  0x40\n  mstore\n  dup2\n  add\n  swap1\n  tag_2\n  swap2\n  swap1\n  tag_3\n  jump\t// in\ntag_2:\n    /* \"contracts/Bridge.sol\":879:890  _lzEndpoint */\n  dup2\n    /* \"contracts/Bridge.sol\":892:898  _owner */\n  dup4\n    /* \"@layerzerolabs/oapp-evm/contracts/oapp/OApp.sol\":1024:1033  _endpoint */\n  dup2\n    /* \"@layerzerolabs/oapp-evm/contracts/oapp/OApp.sol\":1035:1044  _delegate */\n  dup2\n    /* \"contracts/Bridge.sol\":866:872  _owner */\n  dup7\n    /* \"@openzeppelin/contracts/access/Ownable.sol\":1297:1298  0 */\n  0x00\n    /* \"@openzeppelin/contracts/access/Ownable.sol\":1273:1299  initialOwner == address(0) */\n  0xffffffffffffffffffffffffffffffffffffffff\n  and\n    /* \"@openzeppelin/contracts/access/Ownable.sol\":1273:1285  initialOwner */\n  dup2\n    /* \"@openzeppelin/contracts/access/Ownable.sol\":1273:1299  initialOwner == address(0) */\n  0xffffffffffffffffffffffffffffffffffffffff\n  and\n  sub\n    /* \"@openzeppelin/contracts/access/Ownable.sol\":1269:1364  if (initialOwner == address(0)) {... */\n  tag_9\n  jumpi\n    /* \"@openzeppelin/contracts/access/Ownable.sol\":1350:1351  0 */\n  0x00\n    /* \"@openzeppelin/contracts/access/Ownable.sol\":1322:1353  OwnableInvalidOwner(address(0)) */\n  mload(0x40)\n  0x1e4fbdf700000000000000000000000000000000000000000000000000000000\n  dup2\n  mstore\n  0x04\n  add\n  tag_10\n  swap2\n  swap1\n  tag_11\n  jump\t// in\ntag_10:\n  mload(0x40)\n  dup1\n  swap2\n  sub\n  swap1\n  revert\n    /* \"@openzeppelin/contracts/access/Ownable.sol\":1269:1364  if (initialOwner == address(0)) {... */\ntag_9:\n    /* \"@openzeppelin/contracts/access/Ownable.sol\":1373:1405  _transferOwnership(initialOwner) */\n  tag_12\n    /* \"@openzeppelin/contracts/access/Ownable.sol\":1392:1404  initialOwner */\n  dup2\n    /* \"@openzeppelin/contracts/access/Ownable.sol\":1373:1391  _transferOwnership */\n  shl(0x20, tag_13)\n    /* \"@openzeppelin/contracts/access/Ownable.sol\":1373:1405  _transferOwnership(initialOwner) */\n  0x20\n  shr\n  jump\t// in\ntag_12:\n    /* \"@openzeppelin/contracts/access/Ownable.sol\":1225:1412  constructor(address initialOwner) {... */\n  pop\n    /* \"@layerzerolabs/oapp-evm/contracts/oapp/OAppCore.sol\":1079:1088  _endpoint */\n  dup2\n    /* \"@layerzerolabs/oapp-evm/contracts/oapp/OAppCore.sol\":1047:1089  endpoint = ILayerZeroEndpointV2(_endpoint) */\n  0xffffffffffffffffffffffffffffffffffffffff\n  and\n  0x80\n  dup2\n  0xffffffffffffffffffffffffffffffffffffffff\n  and\n  dup2\n  mstore\n  pop\n  pop\n    /* \"@layerzerolabs/oapp-evm/contracts/oapp/OAppCore.sol\":1125:1126  0 */\n  0x00\n    /* \"@layerzerolabs/oapp-evm/contracts/oapp/OAppCore.sol\":1104:1127  _delegate == address(0) */\n  0xffffffffffffffffffffffffffffffffffffffff\n  and\n    /* \"@layerzerolabs/oapp-evm/contracts/oapp/OAppCore.sol\":1104:1113  _delegate */\n  dup2\n    /* \"@layerzerolabs/oapp-evm/contracts/oapp/OAppCore.sol\":1104:1127  _delegate == address(0) */\n  0xffffffffffffffffffffffffffffffffffffffff\n  and\n  sub\n    /* \"@layerzerolabs/oapp-evm/contracts/oapp/OAppCore.sol\":1100:1153  if (_delegate == address(0)) revert InvalidDelegate() */\n  tag_15\n  jumpi\n    /* \"@layerzerolabs/oapp-evm/contracts/oapp/OAppCore.sol\":1136:1153  InvalidDelegate() */\n  mload(0x40)\n  0xb586360400000000000000000000000000000000000000000000000000000000\n  dup2\n  mstore\n  0x04\n  add\n  mload(0x40)\n  dup1\n  swap2\n  sub\n  swap1\n  revert\n    /* \"@layerzerolabs/oapp-evm/contracts/oapp/OAppCore.sol\":1100:1153  if (_delegate == address(0)) revert InvalidDelegate() */\ntag_15:\n    /* \"@layerzerolabs/oapp-evm/contracts/oapp/OAppCore.sol\":1163:1171  endpoint */\n  mload(0x80)\n    /* \"@layerzerolabs/oapp-evm/contracts/oapp/OAppCore.sol\":1163:1183  endpoint.setDelegate */\n  0xffffffffffffffffffffffffffffffffffffffff\n  and\n  0xca5eb5e1\n    /* \"@layerzerolabs/oapp-evm/contracts/oapp/OAppCore.sol\":1184:1193  _delegate */\n  dup3\n    /* \"@layerzerolabs/oapp-evm/contracts/oapp/OAppCore.sol\":1163:1194  endpoint.setDelegate(_delegate) */\n  mload(0x40)\n  dup3\n  0xffffffff\n  and\n  0xe0\n  shl\n  dup2\n  mstore\n  0x04\n  add\n  tag_16\n  swap2\n  swap1\n  tag_11\n  jump\t// in\ntag_16:\n  0x00\n  mload(0x40)\n  dup1\n  dup4\n  sub\n  dup2\n  0x00\n  dup8\n  dup1\n  extcodesize\n  iszero\n  dup1\n  iszero\n  tag_17\n  jumpi\n  0x00\n  dup1\n  revert\ntag_17:\n  pop\n  gas\n  call\n  iszero\n  dup1\n  iszero\n  tag_19\n  jumpi\n  returndatasize\n  0x00\n  dup1\n  returndatacopy\n  revert(0x00, returndatasize)\ntag_19:\n  pop\n  pop\n  pop\n  pop\n    /* \"@layerzerolabs/oapp-evm/contracts/oapp/OAppCore.sol\":987:1201  constructor(address _endpoint, address _delegate) {... */\n  pop\n  pop\n    /* \"@layerzerolabs/oapp-evm/contracts/oapp/OApp.sol\":965:1048  constructor(address _endpoint, address _delegate) OAppCore(_endpoint, _delegate) {} */\n  pop\n  pop\n    /* \"contracts/Bridge.sol\":927:942  _feeBasisPoints */\n  dup1\n    /* \"contracts/Bridge.sol\":910:924  feeBasisPoints */\n  0x03\n  0x00\n    /* \"contracts/Bridge.sol\":910:942  feeBasisPoints = _feeBasisPoints */\n  0x0100\n  exp\n  dup2\n  sload\n  dup2\n  0xffff\n  mul\n  not\n  and\n  swap1\n  dup4\n  0xffff\n  and\n  mul\n  or\n  swap1\n  sstore\n  pop\n    /* \"contracts/Bridge.sol\":785:949  constructor(address _owner, address _lzEndpoint, uint16 _feeBasisPoints) Ownable(_owner) OApp(_lzEndpoint, _owner) {... */\n  pop\n  pop\n  pop\n    /* \"contracts/Bridge.sol\":226:3421  contract Bridge is Ownable, OApp {... */\n  jump(tag_22)\n    /* \"@openzeppelin/contracts/access/Ownable.sol\":2912:3099  function _transferOwnership(address newOwner) internal virtual {... */\ntag_13:\n    /* \"@openzeppelin/contracts/access/Ownable.sol\":2985:3001  address oldOwner */\n  0x00\n    /* \"@openzeppelin/contracts/access/Ownable.sol\":3004:3010  _owner */\n  dup1\n  0x00\n  swap1\n  sload\n  swap1\n  0x0100\n  exp\n  swap1\n  div\n  0xffffffffffffffffffffffffffffffffffffffff\n  and\n    /* \"@openzeppelin/contracts/access/Ownable.sol\":2985:3010  address oldOwner = _owner */\n  swap1\n  pop\n    /* \"@openzeppelin/contracts/access/Ownable.sol\":3029:3037  newOwner */\n  dup2\n    /* \"@openzeppelin/contracts/access/Ownable.sol\":3020:3026  _owner */\n  0x00\n  dup1\n    /* \"@openzeppelin/contracts/access/Ownable.sol\":3020:3037  _owner = newOwner */\n  0x0100\n  exp\n  dup2\n  sload\n  dup2\n  0xffffffffffffffffffffffffffffffffffffffff\n  mul\n  not\n  and\n  swap1\n  dup4\n  0xffffffffffffffffffffffffffffffffffffffff\n  and\n  mul\n  or\n  swap1\n  sstore\n  pop\n    /* \"@openzeppelin/contracts/access/Ownable.sol\":3083:3091  newOwner */\n  dup2\n    /* \"@openzeppelin/contracts/access/Ownable.sol\":3052:3092  OwnershipTransferred(oldOwner, newOwner) */\n  0xffffffffffffffffffffffffffffffffffffffff\n  and\n    /* \"@openzeppelin/contracts/access/Ownable.sol\":3073:3081  oldOwner */\n  dup2\n    /* \"@openzeppelin/contracts/access/Ownable.sol\":3052:3092  OwnershipTransferred(oldOwner, newOwner) */\n  0xffffffffffffffffffffffffffffffffffffffff\n  and\n  0x8be0079c531659141344cd1fd0a4f28419497f9722a3daafe3b4186f6b6457e0\n  mload(0x40)\n  mload(0x40)\n  dup1\n  swap2\n  sub\n  swap1\n  log3\n    /* \"@openzeppelin/contracts/access/Ownable.sol\":2975:3099  {... */\n  pop\n    /* \"@openzeppelin/contracts/access/Ownable.sol\":2912:3099  function _transferOwnership(address newOwner) internal virtual {... */\n  pop\n  jump\t// out\n    /* \"#utility.yul\":88:205   */\ntag_25:\n    /* \"#utility.yul\":197:198   */\n  0x00\n    /* \"#utility.yul\":194:195   */\n  dup1\n    /* \"#utility.yul\":187:199   */\n  revert\n    /* \"#utility.yul\":334:460   */\ntag_27:\n    /* \"#utility.yul\":371:378   */\n  0x00\n    /* \"#utility.yul\":411:453   */\n  0xffffffffffffffffffffffffffffffffffffffff\n    /* \"#utility.yul\":404:409   */\n  dup3\n    /* \"#utility.yul\":400:454   */\n  and\n    /* \"#utility.yul\":389:454   */\n  swap1\n  pop\n    /* \"#utility.yul\":334:460   */\n  swap2\n  swap1\n  pop\n  jump\t// out\n    /* \"#utility.yul\":466:562   */\ntag_28:\n    /* \"#utility.yul\":503:510   */\n  0x00\n    /* \"#utility.yul\":532:556   */\n  tag_41\n    /* \"#utility.yul\":550:555   */\n  dup3\n    /* \"#utility.yul\":532:556   */\n  tag_27\n  jump\t// in\ntag_41:\n    /* \"#utility.yul\":521:556   */\n  swap1\n  pop\n    /* \"#utility.yul\":466:562   */\n  swap2\n  swap1\n  pop\n  jump\t// out\n    /* \"#utility.yul\":568:690   */\ntag_29:\n    /* \"#utility.yul\":641:665   */\n  tag_43\n    /* \"#utility.yul\":659:664   */\n  dup2\n    /* \"#utility.yul\":641:665   */\n  tag_28\n  jump\t// in\ntag_43:\n    /* \"#utility.yul\":634:639   */\n  dup2\n    /* \"#utility.yul\":631:666   */\n  eq\n    /* \"#utility.yul\":621:684   */\n  tag_44\n  jumpi\n    /* \"#utility.yul\":680:681   */\n  0x00\n    /* \"#utility.yul\":677:678   */\n  dup1\n    /* \"#utility.yul\":670:682   */\n  revert\n    /* \"#utility.yul\":621:684   */\ntag_44:\n    /* \"#utility.yul\":568:690   */\n  pop\n  jump\t// out\n    /* \"#utility.yul\":696:839   */\ntag_30:\n    /* \"#utility.yul\":753:758   */\n  0x00\n    /* \"#utility.yul\":784:790   */\n  dup2\n    /* \"#utility.yul\":778:791   */\n  mload\n    /* \"#utility.yul\":769:791   */\n  swap1\n  pop\n    /* \"#utility.yul\":800:833   */\n  tag_46\n    /* \"#utility.yul\":827:832   */\n  dup2\n    /* \"#utility.yul\":800:833   */\n  tag_29\n  jump\t// in\ntag_46:\n    /* \"#utility.yul\":696:839   */\n  swap3\n  swap2\n  pop\n  pop\n  jump\t// out\n    /* \"#utility.yul\":845:934   */\ntag_31:\n    /* \"#utility.yul\":881:888   */\n  0x00\n    /* \"#utility.yul\":921:927   */\n  0xffff\n    /* \"#utility.yul\":914:919   */\n  dup3\n    /* \"#utility.yul\":910:928   */\n  and\n    /* \"#utility.yul\":899:928   */\n  swap1\n  pop\n    /* \"#utility.yul\":845:934   */\n  swap2\n  swap1\n  pop\n  jump\t// out\n    /* \"#utility.yul\":940:1060   */\ntag_32:\n    /* \"#utility.yul\":1012:1035   */\n  tag_49\n    /* \"#utility.yul\":1029:1034   */\n  dup2\n    /* \"#utility.yul\":1012:1035   */\n  tag_31\n  jump\t// in\ntag_49:\n    /* \"#utility.yul\":1005:1010   */\n  dup2\n    /* \"#utility.yul\":1002:1036   */\n  eq\n    /* \"#utility.yul\":992:1054   */\n  tag_50\n  jumpi\n    /* \"#utility.yul\":1050:1051   */\n  0x00\n    /* \"#utility.yul\":1047:1048   */\n  dup1\n    /* \"#utility.yul\":1040:1052   */\n  revert\n    /* \"#utility.yul\":992:1054   */\ntag_50:\n    /* \"#utility.yul\":940:1060   */\n  pop\n  jump\t// out\n    /* \"#utility.yul\":1066:1207   */\ntag_33:\n    /* \"#utility.yul\":1122:1127   */\n  0x00\n    /* \"#utility.yul\":1153:1159   */\n  dup2\n    /* \"#utility.yul\":1147:1160   */\n  mload\n    /* \"#utility.yul\":1138:1160   */\n  swap1\n  pop\n    /* \"#utility.yul\":1169:1201   */\n  tag_52\n    /* \"#utility.yul\":1195:1200   */\n  dup2\n    /* \"#utility.yul\":1169:1201   */\n  tag_32\n  jump\t// in\ntag_52:\n    /* \"#utility.yul\":1066:1207   */\n  swap3\n  swap2\n  pop\n  pop\n  jump\t// out\n    /* \"#utility.yul\":1213:1874   */\ntag_3:\n    /* \"#utility.yul\":1300:1306   */\n  0x00\n    /* \"#utility.yul\":1308:1314   */\n  dup1\n    /* \"#utility.yul\":1316:1322   */\n  0x00\n    /* \"#utility.yul\":1365:1367   */\n  0x60\n    /* \"#utility.yul\":1353:1362   */\n  dup5\n    /* \"#utility.yul\":1344:1351   */\n  dup7\n    /* \"#utility.yul\":1340:1363   */\n  sub\n    /* \"#utility.yul\":1336:1368   */\n  slt\n    /* \"#utility.yul\":1333:1452   */\n  iszero\n  tag_54\n  jumpi\n    /* \"#utility.yul\":1371:1450   */\n  tag_55\n  tag_25\n  jump\t// in\ntag_55:\n    /* \"#utility.yul\":1333:1452   */\ntag_54:\n    /* \"#utility.yul\":1491:1492   */\n  0x00\n    /* \"#utility.yul\":1516:1580   */\n  tag_56\n    /* \"#utility.yul\":1572:1579   */\n  dup7\n    /* \"#utility.yul\":1563:1569   */\n  dup3\n    /* \"#utility.yul\":1552:1561   */\n  dup8\n    /* \"#utility.yul\":1548:1570   */\n  add\n    /* \"#utility.yul\":1516:1580   */\n  tag_30\n  jump\t// in\ntag_56:\n    /* \"#utility.yul\":1506:1580   */\n  swap4\n  pop\n    /* \"#utility.yul\":1462:1590   */\n  pop\n    /* \"#utility.yul\":1629:1631   */\n  0x20\n    /* \"#utility.yul\":1655:1719   */\n  tag_57\n    /* \"#utility.yul\":1711:1718   */\n  dup7\n    /* \"#utility.yul\":1702:1708   */\n  dup3\n    /* \"#utility.yul\":1691:1700   */\n  dup8\n    /* \"#utility.yul\":1687:1709   */\n  add\n    /* \"#utility.yul\":1655:1719   */\n  tag_30\n  jump\t// in\ntag_57:\n    /* \"#utility.yul\":1645:1719   */\n  swap3\n  pop\n    /* \"#utility.yul\":1600:1729   */\n  pop\n    /* \"#utility.yul\":1768:1770   */\n  0x40\n    /* \"#utility.yul\":1794:1857   */\n  tag_58\n    /* \"#utility.yul\":1849:1856   */\n  dup7\n    /* \"#utility.yul\":1840:1846   */\n  dup3\n    /* \"#utility.yul\":1829:1838   */\n  dup8\n    /* \"#utility.yul\":1825:1847   */\n  add\n    /* \"#utility.yul\":1794:1857   */\n  tag_33\n  jump\t// in\ntag_58:\n    /* \"#utility.yul\":1784:1857   */\n  swap2\n  pop\n    /* \"#utility.yul\":1739:1867   */\n  pop\n    /* \"#utility.yul\":1213:1874   */\n  swap3\n  pop\n  swap3\n  pop\n  swap3\n  jump\t// out\n    /* \"#utility.yul\":1880:1998   */\ntag_34:\n    /* \"#utility.yul\":1967:1991   */\n  tag_60\n    /* \"#utility.yul\":1985:1990   */\n  dup2\n    /* \"#utility.yul\":1967:1991   */\n  tag_28\n  jump\t// in\ntag_60:\n    /* \"#utility.yul\":1962:1965   */\n  dup3\n    /* \"#utility.yul\":1955:1992   */\n  mstore\n    /* \"#utility.yul\":1880:1998   */\n  pop\n  pop\n  jump\t// out\n    /* \"#utility.yul\":2004:2226   */\ntag_11:\n    /* \"#utility.yul\":2097:2101   */\n  0x00\n    /* \"#utility.yul\":2135:2137   */\n  0x20\n    /* \"#utility.yul\":2124:2133   */\n  dup3\n    /* \"#utility.yul\":2120:2138   */\n  add\n    /* \"#utility.yul\":2112:2138   */\n  swap1\n  pop\n    /* \"#utility.yul\":2148:2219   */\n  tag_62\n    /* \"#utility.yul\":2216:2217   */\n  0x00\n    /* \"#utility.yul\":2205:2214   */\n  dup4\n    /* \"#utility.yul\":2201:2218   */\n  add\n    /* \"#utility.yul\":2192:2198   */\n  dup5\n    /* \"#utility.yul\":2148:2219   */\n  tag_34\n  jump\t// in\ntag_62:\n    /* \"#utility.yul\":2004:2226   */\n  swap3\n  swap2\n  pop\n  pop\n  jump\t// out\n    /* \"contracts/Bridge.sol\":226:3421  contract Bridge is Ownable, OApp {... */\ntag_22:\n  mload(0x80)\n  codecopy(0x00, dataOffset(sub_0), dataSize(sub_0))\n  0x00\n  assignImmutable(\"0xef80077fd7ee005d1b0377e3e959eb59d0ca83c4839422f862a3540a66a91fb5\")\n  return(0x00, dataSize(sub_0))\nstop\n\nsub_0: assembly {\n        /* \"contracts/Bridge.sol\":226:3421  contract Bridge is Ownable, OApp {... */\n      mstore(0x40, 0x80)\n      jumpi(tag_1, lt(calldatasize, 0x04))\n      shr(0xe0, calldataload(0x00))\n      dup1\n      0x8980f11f\n      gt\n      tag_22\n      jumpi\n      dup1\n      0xbb0b6a53\n      gt\n      tag_23\n      jumpi\n      dup1\n      0xbb0b6a53\n      eq\n      tag_17\n      jumpi\n      dup1\n      0xca5eb5e1\n      eq\n      tag_18\n      jumpi\n      dup1\n      0xed88ed6c\n      eq\n      tag_19\n      jumpi\n      dup1\n      0xf2fde38b\n      eq\n      tag_20\n      jumpi\n      dup1\n      0xff7bd03d\n      eq\n      tag_21\n      jumpi\n      jump(tag_1)\n    tag_23:\n      dup1\n      0x8980f11f\n      eq\n      tag_12\n      jumpi\n      dup1\n      0x89919cdd\n      eq\n      tag_13\n      jumpi\n      dup1\n      0x8da5cb5b\n      eq\n      tag_14\n      jumpi\n      dup1\n      0x92543a8a\n      eq\n      tag_15\n      jumpi\n      dup1\n      0xb8606eef\n      eq\n      tag_16\n      jumpi\n      jump(tag_1)\n    tag_22:\n      dup1\n      0x5e280f11\n      gt\n      tag_24\n      jumpi\n      dup1\n      0x5e280f11\n      eq\n      tag_7\n      jumpi\n      dup1\n      0x6c29eb06\n      eq\n      tag_8\n      jumpi\n      dup1\n      0x715018a6\n      eq\n      tag_9\n      jumpi\n      dup1\n      0x7d25a05e\n      eq\n      tag_10\n      jumpi\n      dup1\n      0x82413eac\n      eq\n      tag_11\n      jumpi\n      jump(tag_1)\n    tag_24:\n      dup1\n      0x13137d65\n      eq\n      tag_2\n      jumpi\n      dup1\n      0x17442b70\n      eq\n      tag_3\n      jumpi\n      dup1\n      0x2c6cda93\n      eq\n      tag_4\n      jumpi\n      dup1\n      0x3400288b\n      eq\n      tag_5\n      jumpi\n      dup1\n      0x5a54db86\n      eq\n      tag_6\n      jumpi\n    tag_1:\n      0x00\n      dup1\n      revert\n        /* \"@layerzerolabs/oapp-evm/contracts/oapp/OAppReceiver.sol\":4368:5076  function lzReceive(... */\n    tag_2:\n      tag_25\n      0x04\n      dup1\n      calldatasize\n      sub\n      dup2\n      add\n      swap1\n      tag_26\n      swap2\n      swap1\n      tag_27\n      jump\t// in\n    tag_26:\n      tag_28\n      jump\t// in\n    tag_25:\n      stop\n        /* \"@layerzerolabs/oapp-evm/contracts/oapp/OApp.sol\":1287:1522  function oAppVersion()... */\n    tag_3:\n      callvalue\n      dup1\n      iszero\n      tag_29\n      jumpi\n      0x00\n      dup1\n      revert\n    tag_29:\n      pop\n      tag_30\n      tag_31\n      jump\t// in\n    tag_30:\n      mload(0x40)\n      tag_32\n      swap3\n      swap2\n      swap1\n      tag_33\n      jump\t// in\n    tag_32:\n      mload(0x40)\n      dup1\n      swap2\n      sub\n      swap1\n      return\n        /* \"contracts/Bridge.sol\":1390:1566  function updateFee(uint16 _feeBasisPoints) external onlyOwner {... */\n    tag_4:\n      callvalue\n      dup1\n      iszero\n      tag_34\n      jumpi\n      0x00\n      dup1\n      revert\n    tag_34:\n      pop\n      tag_35\n      0x04\n      dup1\n      calldatasize\n      sub\n      dup2\n      add\n      swap1\n      tag_36\n      swap2\n      swap1\n      tag_37\n      jump\t// in\n    tag_36:\n      tag_38\n      jump\t// in\n    tag_35:\n      stop\n        /* \"@layerzerolabs/oapp-evm/contracts/oapp/OAppCore.sol\":1724:1832  function setPeer(uint32 _eid, bytes32 _peer) public virtual onlyOwner {... */\n    tag_5:\n      callvalue\n      dup1\n      iszero\n      tag_39\n      jumpi\n      0x00\n      dup1\n      revert\n    tag_39:\n      pop\n      tag_40\n      0x04\n      dup1\n      calldatasize\n      sub\n      dup2\n      add\n      swap1\n      tag_41\n      swap2\n      swap1\n      tag_42\n      jump\t// in\n    tag_41:\n      tag_43\n      jump\t// in\n    tag_40:\n      stop\n        /* \"contracts/Bridge.sol\":3310:3419  function recoverNative() external onlyOwner {... */\n    tag_6:\n      callvalue\n      dup1\n      iszero\n      tag_44\n      jumpi\n      0x00\n      dup1\n      revert\n    tag_44:\n      pop\n      tag_45\n      tag_46\n      jump\t// in\n    tag_45:\n      stop\n        /* \"@layerzerolabs/oapp-evm/contracts/oapp/OAppCore.sol\":446:492  ILayerZeroEndpointV2 public immutable endpoint */\n    tag_7:\n      callvalue\n      dup1\n      iszero\n      tag_47\n      jumpi\n      0x00\n      dup1\n      revert\n    tag_47:\n      pop\n      tag_48\n      tag_49\n      jump\t// in\n    tag_48:\n      mload(0x40)\n      tag_50\n      swap2\n      swap1\n      tag_51\n      jump\t// in\n    tag_50:\n      mload(0x40)\n      dup1\n      swap2\n      sub\n      swap1\n      return\n        /* \"contracts/Bridge.sol\":1572:2489  function bridgeTokens(... */\n    tag_8:\n      tag_52\n      0x04\n      dup1\n      calldatasize\n      sub\n      dup2\n      add\n      swap1\n      tag_53\n      swap2\n      swap1\n      tag_54\n      jump\t// in\n    tag_53:\n      tag_55\n      jump\t// in\n    tag_52:\n      mload(0x40)\n      tag_56\n      swap2\n      swap1\n      tag_57\n      jump\t// in\n    tag_56:\n      mload(0x40)\n      dup1\n      swap2\n      sub\n      swap1\n      return\n        /* \"@openzeppelin/contracts/access/Ownable.sol\":2293:2394  function renounceOwnership() public virtual onlyOwner {... */\n    tag_9:\n      callvalue\n      dup1\n      iszero\n      tag_58\n      jumpi\n      0x00\n      dup1\n      revert\n    tag_58:\n      pop\n      tag_59\n      tag_60\n      jump\t// in\n    tag_59:\n      stop\n        /* \"@layerzerolabs/oapp-evm/contracts/oapp/OAppReceiver.sol\":3507:3635  function nextNonce(uint32 /*_srcEid*/, bytes32 /*_sender*/) public view virtual returns (uint64 nonce) {... */\n    tag_10:\n      callvalue\n      dup1\n      iszero\n      tag_61\n      jumpi\n      0x00\n      dup1\n      revert\n    tag_61:\n      pop\n      tag_62\n      0x04\n      dup1\n      calldatasize\n      sub\n      dup2\n      add\n      swap1\n      tag_63\n      swap2\n      swap1\n      tag_42\n      jump\t// in\n    tag_63:\n      tag_64\n      jump\t// in\n    tag_62:\n      mload(0x40)\n      tag_65\n      swap2\n      swap1\n      tag_66\n      jump\t// in\n    tag_65:\n      mload(0x40)\n      dup1\n      swap2\n      sub\n      swap1\n      return\n        /* \"@layerzerolabs/oapp-evm/contracts/oapp/OAppReceiver.sol\":2013:2229  function isComposeMsgSender(... */\n    tag_11:\n      callvalue\n      dup1\n      iszero\n      tag_67\n      jumpi\n      0x00\n      dup1\n      revert\n    tag_67:\n      pop\n      tag_68\n      0x04\n      dup1\n      calldatasize\n      sub\n      dup2\n      add\n      swap1\n      tag_69\n      swap2\n      swap1\n      tag_70\n      jump\t// in\n    tag_69:\n      tag_71\n      jump\t// in\n    tag_68:\n      mload(0x40)\n      tag_72\n      swap2\n      swap1\n      tag_73\n      jump\t// in\n    tag_72:\n      mload(0x40)\n      dup1\n      swap2\n      sub\n      swap1\n      return\n        /* \"contracts/Bridge.sol\":3086:3228  function recoverERC20(address tokenAddress, uint256 amount) external onlyOwner {... */\n    tag_12:\n      callvalue\n      dup1\n      iszero\n      tag_74\n      jumpi\n      0x00\n      dup1\n      revert\n    tag_74:\n      pop\n      tag_75\n      0x04\n      dup1\n      calldatasize\n      sub\n      dup2\n      add\n      swap1\n      tag_76\n      swap2\n      swap1\n      tag_77\n      jump\t// in\n    tag_76:\n      tag_78\n      jump\t// in\n    tag_75:\n      stop\n        /* \"contracts/Bridge.sol\":265:314  mapping(string => address) public supportedTokens */\n    tag_13:\n      callvalue\n      dup1\n      iszero\n      tag_79\n      jumpi\n      0x00\n      dup1\n      revert\n    tag_79:\n      pop\n      tag_80\n      0x04\n      dup1\n      calldatasize\n      sub\n      dup2\n      add\n      swap1\n      tag_81\n      swap2\n      swap1\n      tag_82\n      jump\t// in\n    tag_81:\n      tag_83\n      jump\t// in\n    tag_80:\n      mload(0x40)\n      tag_84\n      swap2\n      swap1\n      tag_85\n      jump\t// in\n    tag_84:\n      mload(0x40)\n      dup1\n      swap2\n      sub\n      swap1\n      return\n        /* \"@openzeppelin/contracts/access/Ownable.sol\":1638:1723  function owner() public view virtual returns (address) {... */\n    tag_14:\n      callvalue\n      dup1\n      iszero\n      tag_86\n      jumpi\n      0x00\n      dup1\n      revert\n    tag_86:\n      pop\n      tag_87\n      tag_88\n      jump\t// in\n    tag_87:\n      mload(0x40)\n      tag_89\n      swap2\n      swap1\n      tag_85\n      jump\t// in\n    tag_89:\n      mload(0x40)\n      dup1\n      swap2\n      sub\n      swap1\n      return\n        /* \"contracts/Bridge.sol\":1146:1384  function removeSupportedToken(string calldata _symbol) external onlyOwner {... */\n    tag_15:\n      callvalue\n      dup1\n      iszero\n      tag_90\n      jumpi\n      0x00\n      dup1\n      revert\n    tag_90:\n      pop\n      tag_91\n      0x04\n      dup1\n      calldatasize\n      sub\n      dup2\n      add\n      swap1\n      tag_92\n      swap2\n      swap1\n      tag_93\n      jump\t// in\n    tag_92:\n      tag_94\n      jump\t// in\n    tag_91:\n      stop\n        /* \"contracts/Bridge.sol\":379:407  uint16 public feeBasisPoints */\n    tag_16:\n      callvalue\n      dup1\n      iszero\n      tag_95\n      jumpi\n      0x00\n      dup1\n      revert\n    tag_95:\n      pop\n      tag_96\n      tag_97\n      jump\t// in\n    tag_96:\n      mload(0x40)\n      tag_98\n      swap2\n      swap1\n      tag_99\n      jump\t// in\n    tag_98:\n      mload(0x40)\n      dup1\n      swap2\n      sub\n      swap1\n      return\n        /* \"@layerzerolabs/oapp-evm/contracts/oapp/OAppCore.sol\":569:617  mapping(uint32 eid => bytes32 peer) public peers */\n    tag_17:\n      callvalue\n      dup1\n      iszero\n      tag_100\n      jumpi\n      0x00\n      dup1\n      revert\n    tag_100:\n      pop\n      tag_101\n      0x04\n      dup1\n      calldatasize\n      sub\n      dup2\n      add\n      swap1\n      tag_102\n      swap2\n      swap1\n      tag_103\n      jump\t// in\n    tag_102:\n      tag_104\n      jump\t// in\n    tag_101:\n      mload(0x40)\n      tag_105\n      swap2\n      swap1\n      tag_106\n      jump\t// in\n    tag_105:\n      mload(0x40)\n      dup1\n      swap2\n      sub\n      swap1\n      return\n        /* \"@layerzerolabs/oapp-evm/contracts/oapp/OAppCore.sol\":3252:3357  function setDelegate(address _delegate) public onlyOwner {... */\n    tag_18:\n      callvalue\n      dup1\n      iszero\n      tag_107\n      jumpi\n      0x00\n      dup1\n      revert\n    tag_107:\n      pop\n      tag_108\n      0x04\n      dup1\n      calldatasize\n      sub\n      dup2\n      add\n      swap1\n      tag_109\n      swap2\n      swap1\n      tag_110\n      jump\t// in\n    tag_109:\n      tag_111\n      jump\t// in\n    tag_108:\n      stop\n        /* \"contracts/Bridge.sol\":955:1140  function addSupportedToken(string calldata _symbol, address _address) external onlyOwner {... */\n    tag_19:\n      callvalue\n      dup1\n      iszero\n      tag_112\n      jumpi\n      0x00\n      dup1\n      revert\n    tag_112:\n      pop\n      tag_113\n      0x04\n      dup1\n      calldatasize\n      sub\n      dup2\n      add\n      swap1\n      tag_114\n      swap2\n      swap1\n      tag_115\n      jump\t// in\n    tag_114:\n      tag_116\n      jump\t// in\n    tag_113:\n      stop\n        /* \"@openzeppelin/contracts/access/Ownable.sol\":2543:2758  function transferOwnership(address newOwner) public virtual onlyOwner {... */\n    tag_20:\n      callvalue\n      dup1\n      iszero\n      tag_117\n      jumpi\n      0x00\n      dup1\n      revert\n    tag_117:\n      pop\n      tag_118\n      0x04\n      dup1\n      calldatasize\n      sub\n      dup2\n      add\n      swap1\n      tag_119\n      swap2\n      swap1\n      tag_110\n      jump\t// in\n    tag_119:\n      tag_120\n      jump\t// in\n    tag_118:\n      stop\n        /* \"@layerzerolabs/oapp-evm/contracts/oapp/OAppReceiver.sol\":2771:2920  function allowInitializePath(Origin calldata origin) public view virtual returns (bool) {... */\n    tag_21:\n      callvalue\n      dup1\n      iszero\n      tag_121\n      jumpi\n      0x00\n      dup1\n      revert\n    tag_121:\n      pop\n      tag_122\n      0x04\n      dup1\n      calldatasize\n      sub\n      dup2\n      add\n      swap1\n      tag_123\n      swap2\n      swap1\n      tag_124\n      jump\t// in\n    tag_123:\n      tag_125\n      jump\t// in\n    tag_122:\n      mload(0x40)\n      tag_126\n      swap2\n      swap1\n      tag_73\n      jump\t// in\n    tag_126:\n      mload(0x40)\n      dup1\n      swap2\n      sub\n      swap1\n      return\n        /* \"@layerzerolabs/oapp-evm/contracts/oapp/OAppReceiver.sol\":4368:5076  function lzReceive(... */\n    tag_28:\n        /* \"@layerzerolabs/oapp-evm/contracts/oapp/OAppReceiver.sol\":4694:4704  msg.sender */\n      caller\n        /* \"@layerzerolabs/oapp-evm/contracts/oapp/OAppReceiver.sol\":4673:4704  address(endpoint) != msg.sender */\n      0xffffffffffffffffffffffffffffffffffffffff\n      and\n        /* \"@layerzerolabs/oapp-evm/contracts/oapp/OAppReceiver.sol\":4681:4689  endpoint */\n      immutable(\"0xef80077fd7ee005d1b0377e3e959eb59d0ca83c4839422f862a3540a66a91fb5\")\n        /* \"@layerzerolabs/oapp-evm/contracts/oapp/OAppReceiver.sol\":4673:4704  address(endpoint) != msg.sender */\n      0xffffffffffffffffffffffffffffffffffffffff\n      and\n      eq\n        /* \"@layerzerolabs/oapp-evm/contracts/oapp/OAppReceiver.sol\":4669:4737  if (address(endpoint) != msg.sender) revert OnlyEndpoint(msg.sender) */\n      tag_128\n      jumpi\n        /* \"@layerzerolabs/oapp-evm/contracts/oapp/OAppReceiver.sol\":4726:4736  msg.sender */\n      caller\n        /* \"@layerzerolabs/oapp-evm/contracts/oapp/OAppReceiver.sol\":4713:4737  OnlyEndpoint(msg.sender) */\n      mload(0x40)\n      0x91ac5e4f00000000000000000000000000000000000000000000000000000000\n      dup2\n      mstore\n      0x04\n      add\n      tag_129\n      swap2\n      swap1\n      tag_85\n      jump\t// in\n    tag_129:\n      mload(0x40)\n      dup1\n      swap2\n      sub\n      swap1\n      revert\n        /* \"@layerzerolabs/oapp-evm/contracts/oapp/OAppReceiver.sol\":4669:4737  if (address(endpoint) != msg.sender) revert OnlyEndpoint(msg.sender) */\n    tag_128:\n        /* \"@layerzerolabs/oapp-evm/contracts/oapp/OAppReceiver.sol\":4873:4880  _origin */\n      dup7\n        /* \"@layerzerolabs/oapp-evm/contracts/oapp/OAppReceiver.sol\":4873:4887  _origin.sender */\n      0x20\n      add\n      calldataload\n        /* \"@layerzerolabs/oapp-evm/contracts/oapp/OAppReceiver.sol\":4837:4869  _getPeerOrRevert(_origin.srcEid) */\n      tag_130\n        /* \"@layerzerolabs/oapp-evm/contracts/oapp/OAppReceiver.sol\":4854:4861  _origin */\n      dup9\n        /* \"@layerzerolabs/oapp-evm/contracts/oapp/OAppReceiver.sol\":4854:4868  _origin.srcEid */\n      0x00\n      add\n      0x20\n      dup2\n      add\n      swap1\n      tag_131\n      swap2\n      swap1\n      tag_103\n      jump\t// in\n    tag_131:\n        /* \"@layerzerolabs/oapp-evm/contracts/oapp/OAppReceiver.sol\":4837:4853  _getPeerOrRevert */\n      tag_132\n        /* \"@layerzerolabs/oapp-evm/contracts/oapp/OAppReceiver.sol\":4837:4869  _getPeerOrRevert(_origin.srcEid) */\n      jump\t// in\n    tag_130:\n        /* \"@layerzerolabs/oapp-evm/contracts/oapp/OAppReceiver.sol\":4837:4887  _getPeerOrRevert(_origin.srcEid) != _origin.sender */\n      eq\n        /* \"@layerzerolabs/oapp-evm/contracts/oapp/OAppReceiver.sol\":4833:4936  if (_getPeerOrRevert(_origin.srcEid) != _origin.sender) revert OnlyPeer(_origin.srcEid, _origin.sender) */\n      tag_133\n      jumpi\n        /* \"@layerzerolabs/oapp-evm/contracts/oapp/OAppReceiver.sol\":4905:4912  _origin */\n      dup7\n        /* \"@layerzerolabs/oapp-evm/contracts/oapp/OAppReceiver.sol\":4905:4919  _origin.srcEid */\n      0x00\n      add\n      0x20\n      dup2\n      add\n      swap1\n      tag_134\n      swap2\n      swap1\n      tag_103\n      jump\t// in\n    tag_134:\n        /* \"@layerzerolabs/oapp-evm/contracts/oapp/OAppReceiver.sol\":4921:4928  _origin */\n      dup8\n        /* \"@layerzerolabs/oapp-evm/contracts/oapp/OAppReceiver.sol\":4921:4935  _origin.sender */\n      0x20\n      add\n      calldataload\n        /* \"@layerzerolabs/oapp-evm/contracts/oapp/OAppReceiver.sol\":4896:4936  OnlyPeer(_origin.srcEid, _origin.sender) */\n      mload(0x40)\n      0xc26bebcc00000000000000000000000000000000000000000000000000000000\n      dup2\n      mstore\n      0x04\n      add\n      tag_135\n      swap3\n      swap2\n      swap1\n      tag_136\n      jump\t// in\n    tag_135:\n      mload(0x40)\n      dup1\n      swap2\n      sub\n      swap1\n      revert\n        /* \"@layerzerolabs/oapp-evm/contracts/oapp/OAppReceiver.sol\":4833:4936  if (_getPeerOrRevert(_origin.srcEid) != _origin.sender) revert OnlyPeer(_origin.srcEid, _origin.sender) */\n    tag_133:\n        /* \"@layerzerolabs/oapp-evm/contracts/oapp/OAppReceiver.sol\":5010:5069  _lzReceive(_origin, _guid, _message, _executor, _extraData) */\n      tag_137\n        /* \"@layerzerolabs/oapp-evm/contracts/oapp/OAppReceiver.sol\":5021:5028  _origin */\n      dup8\n        /* \"@layerzerolabs/oapp-evm/contracts/oapp/OAppReceiver.sol\":5030:5035  _guid */\n      dup8\n        /* \"@layerzerolabs/oapp-evm/contracts/oapp/OAppReceiver.sol\":5037:5045  _message */\n      dup8\n      dup8\n        /* \"@layerzerolabs/oapp-evm/contracts/oapp/OAppReceiver.sol\":5047:5056  _executor */\n      dup8\n        /* \"@layerzerolabs/oapp-evm/contracts/oapp/OAppReceiver.sol\":5058:5068  _extraData */\n      dup8\n      dup8\n        /* \"@layerzerolabs/oapp-evm/contracts/oapp/OAppReceiver.sol\":5010:5020  _lzReceive */\n      tag_138\n        /* \"@layerzerolabs/oapp-evm/contracts/oapp/OAppReceiver.sol\":5010:5069  _lzReceive(_origin, _guid, _message, _executor, _extraData) */\n      jump\t// in\n    tag_137:\n        /* \"@layerzerolabs/oapp-evm/contracts/oapp/OAppReceiver.sol\":4368:5076  function lzReceive(... */\n      pop\n      pop\n      pop\n      pop\n      pop\n      pop\n      pop\n      jump\t// out\n        /* \"@layerzerolabs/oapp-evm/contracts/oapp/OApp.sol\":1287:1522  function oAppVersion()... */\n    tag_31:\n        /* \"@layerzerolabs/oapp-evm/contracts/oapp/OApp.sol\":1414:1434  uint64 senderVersion */\n      0x00\n        /* \"@layerzerolabs/oapp-evm/contracts/oapp/OApp.sol\":1436:1458  uint64 receiverVersion */\n      dup1\n        /* \"@layerzerolabs/oapp-evm/contracts/oapp/OAppSender.sol\":843:844  1 */\n      0x01\n        /* \"@layerzerolabs/oapp-evm/contracts/oapp/OAppReceiver.sol\":678:679  2 */\n      0x02\n        /* \"@layerzerolabs/oapp-evm/contracts/oapp/OApp.sol\":1474:1515  return (SENDER_VERSION, RECEIVER_VERSION) */\n      swap2\n      pop\n      swap2\n      pop\n        /* \"@layerzerolabs/oapp-evm/contracts/oapp/OApp.sol\":1287:1522  function oAppVersion()... */\n      swap1\n      swap2\n      jump\t// out\n        /* \"contracts/Bridge.sol\":1390:1566  function updateFee(uint16 _feeBasisPoints) external onlyOwner {... */\n    tag_38:\n        /* \"@openzeppelin/contracts/access/Ownable.sol\":1531:1544  _checkOwner() */\n      tag_141\n        /* \"@openzeppelin/contracts/access/Ownable.sol\":1531:1542  _checkOwner */\n      tag_142\n        /* \"@openzeppelin/contracts/access/Ownable.sol\":1531:1544  _checkOwner() */\n      jump\t// in\n    tag_141:\n        /* \"contracts/Bridge.sol\":1489:1492  100 */\n      0x64\n        /* \"contracts/Bridge.sol\":1470:1485  _feeBasisPoints */\n      dup2\n        /* \"contracts/Bridge.sol\":1470:1492  _feeBasisPoints <= 100 */\n      0xffff\n      and\n      gt\n      iszero\n        /* \"contracts/Bridge.sol\":1462:1517  require(_feeBasisPoints <= 100, \"Fee cannot exceed 1%\") */\n      tag_144\n      jumpi\n      mload(0x40)\n      0x08c379a000000000000000000000000000000000000000000000000000000000\n      dup2\n      mstore\n      0x04\n      add\n      tag_145\n      swap1\n      tag_146\n      jump\t// in\n    tag_145:\n      mload(0x40)\n      dup1\n      swap2\n      sub\n      swap1\n      revert\n    tag_144:\n        /* \"contracts/Bridge.sol\":1544:1559  _feeBasisPoints */\n      dup1\n        /* \"contracts/Bridge.sol\":1527:1541  feeBasisPoints */\n      0x03\n      0x00\n        /* \"contracts/Bridge.sol\":1527:1559  feeBasisPoints = _feeBasisPoints */\n      0x0100\n      exp\n      dup2\n      sload\n      dup2\n      0xffff\n      mul\n      not\n      and\n      swap1\n      dup4\n      0xffff\n      and\n      mul\n      or\n      swap1\n      sstore\n      pop\n        /* \"contracts/Bridge.sol\":1390:1566  function updateFee(uint16 _feeBasisPoints) external onlyOwner {... */\n      pop\n      jump\t// out\n        /* \"@layerzerolabs/oapp-evm/contracts/oapp/OAppCore.sol\":1724:1832  function setPeer(uint32 _eid, bytes32 _peer) public virtual onlyOwner {... */\n    tag_43:\n        /* \"@openzeppelin/contracts/access/Ownable.sol\":1531:1544  _checkOwner() */\n      tag_148\n        /* \"@openzeppelin/contracts/access/Ownable.sol\":1531:1542  _checkOwner */\n      tag_142\n        /* \"@openzeppelin/contracts/access/Ownable.sol\":1531:1544  _checkOwner() */\n      jump\t// in\n    tag_148:\n        /* \"@layerzerolabs/oapp-evm/contracts/oapp/OAppCore.sol\":1804:1825  _setPeer(_eid, _peer) */\n      tag_150\n        /* \"@layerzerolabs/oapp-evm/contracts/oapp/OAppCore.sol\":1813:1817  _eid */\n      dup3\n        /* \"@layerzerolabs/oapp-evm/contracts/oapp/OAppCore.sol\":1819:1824  _peer */\n      dup3\n        /* \"@layerzerolabs/oapp-evm/contracts/oapp/OAppCore.sol\":1804:1812  _setPeer */\n      tag_151\n        /* \"@layerzerolabs/oapp-evm/contracts/oapp/OAppCore.sol\":1804:1825  _setPeer(_eid, _peer) */\n      jump\t// in\n    tag_150:\n        /* \"@layerzerolabs/oapp-evm/contracts/oapp/OAppCore.sol\":1724:1832  function setPeer(uint32 _eid, bytes32 _peer) public virtual onlyOwner {... */\n      pop\n      pop\n      jump\t// out\n        /* \"contracts/Bridge.sol\":3310:3419  function recoverNative() external onlyOwner {... */\n    tag_46:\n        /* \"@openzeppelin/contracts/access/Ownable.sol\":1531:1544  _checkOwner() */\n      tag_153\n        /* \"@openzeppelin/contracts/access/Ownable.sol\":1531:1542  _checkOwner */\n      tag_142\n        /* \"@openzeppelin/contracts/access/Ownable.sol\":1531:1544  _checkOwner() */\n      jump\t// in\n    tag_153:\n        /* \"contracts/Bridge.sol\":3372:3379  owner() */\n      tag_155\n        /* \"contracts/Bridge.sol\":3372:3377  owner */\n      tag_88\n        /* \"contracts/Bridge.sol\":3372:3379  owner() */\n      jump\t// in\n    tag_155:\n        /* \"contracts/Bridge.sol\":3364:3389  payable(owner()).transfer */\n      0xffffffffffffffffffffffffffffffffffffffff\n      and\n        /* \"contracts/Bridge.sol\":3364:3412  payable(owner()).transfer(address(this).balance) */\n      0x08fc\n        /* \"contracts/Bridge.sol\":3390:3411  address(this).balance */\n      selfbalance\n        /* \"contracts/Bridge.sol\":3364:3412  payable(owner()).transfer(address(this).balance) */\n      swap1\n      dup2\n      iszero\n      mul\n      swap1\n      mload(0x40)\n      0x00\n      mload(0x40)\n      dup1\n      dup4\n      sub\n      dup2\n      dup6\n      dup9\n      dup9\n      call\n      swap4\n      pop\n      pop\n      pop\n      pop\n      iszero\n      dup1\n      iszero\n      tag_157\n      jumpi\n      returndatasize\n      0x00\n      dup1\n      returndatacopy\n      revert(0x00, returndatasize)\n    tag_157:\n      pop\n        /* \"contracts/Bridge.sol\":3310:3419  function recoverNative() external onlyOwner {... */\n      jump\t// out\n        /* \"@layerzerolabs/oapp-evm/contracts/oapp/OAppCore.sol\":446:492  ILayerZeroEndpointV2 public immutable endpoint */\n    tag_49:\n      immutable(\"0xef80077fd7ee005d1b0377e3e959eb59d0ca83c4839422f862a3540a66a91fb5\")\n      dup2\n      jump\t// out\n        /* \"contracts/Bridge.sol\":1572:2489  function bridgeTokens(... */\n    tag_55:\n        /* \"contracts/Bridge.sol\":1773:1804  MessagingReceipt memory receipt */\n      tag_158\n      tag_159\n      jump\t// in\n    tag_158:\n        /* \"contracts/Bridge.sol\":1844:1845  0 */\n      0x00\n        /* \"contracts/Bridge.sol\":1824:1846  receiver != address(0) */\n      0xffffffffffffffffffffffffffffffffffffffff\n      and\n        /* \"contracts/Bridge.sol\":1824:1832  receiver */\n      dup6\n        /* \"contracts/Bridge.sol\":1824:1846  receiver != address(0) */\n      0xffffffffffffffffffffffffffffffffffffffff\n      and\n      sub\n        /* \"contracts/Bridge.sol\":1816:1875  require(receiver != address(0), \"Invalid receiver address\") */\n      tag_161\n      jumpi\n      mload(0x40)\n      0x08c379a000000000000000000000000000000000000000000000000000000000\n      dup2\n      mstore\n      0x04\n      add\n      tag_162\n      swap1\n      tag_163\n      jump\t// in\n    tag_162:\n      mload(0x40)\n      dup1\n      swap2\n      sub\n      swap1\n      revert\n    tag_161:\n        /* \"contracts/Bridge.sol\":1928:1929  0 */\n      0x00\n        /* \"contracts/Bridge.sol\":1893:1930  supportedTokens[symbol] != address(0) */\n      0xffffffffffffffffffffffffffffffffffffffff\n      and\n        /* \"contracts/Bridge.sol\":1893:1908  supportedTokens */\n      0x02\n        /* \"contracts/Bridge.sol\":1909:1915  symbol */\n      dup10\n      dup10\n        /* \"contracts/Bridge.sol\":1893:1916  supportedTokens[symbol] */\n      mload(0x40)\n      tag_164\n      swap3\n      swap2\n      swap1\n      tag_165\n      jump\t// in\n    tag_164:\n      swap1\n      dup2\n      mstore\n      0x20\n      add\n      mload(0x40)\n      dup1\n      swap2\n      sub\n      swap1\n      keccak256\n      0x00\n      swap1\n      sload\n      swap1\n      0x0100\n      exp\n      swap1\n      div\n      0xffffffffffffffffffffffffffffffffffffffff\n      and\n        /* \"contracts/Bridge.sol\":1893:1930  supportedTokens[symbol] != address(0) */\n      0xffffffffffffffffffffffffffffffffffffffff\n      and\n      sub\n        /* \"contracts/Bridge.sol\":1885:1954  require(supportedTokens[symbol] != address(0), \"Token not supported\") */\n      tag_166\n      jumpi\n      mload(0x40)\n      0x08c379a000000000000000000000000000000000000000000000000000000000\n      dup2\n      mstore\n      0x04\n      add\n      tag_167\n      swap1\n      tag_168\n      jump\t// in\n    tag_167:\n      mload(0x40)\n      dup1\n      swap2\n      sub\n      swap1\n      revert\n    tag_166:\n        /* \"contracts/Bridge.sol\":1979:1994  supportedTokens */\n      0x02\n        /* \"contracts/Bridge.sol\":1995:2001  symbol */\n      dup9\n      dup9\n        /* \"contracts/Bridge.sol\":1979:2002  supportedTokens[symbol] */\n      mload(0x40)\n      tag_169\n      swap3\n      swap2\n      swap1\n      tag_165\n      jump\t// in\n    tag_169:\n      swap1\n      dup2\n      mstore\n      0x20\n      add\n      mload(0x40)\n      dup1\n      swap2\n      sub\n      swap1\n      keccak256\n      0x00\n      swap1\n      sload\n      swap1\n      0x0100\n      exp\n      swap1\n      div\n      0xffffffffffffffffffffffffffffffffffffffff\n      and\n        /* \"contracts/Bridge.sol\":1972:2016  IERC20(supportedTokens[symbol]).transferFrom */\n      0xffffffffffffffffffffffffffffffffffffffff\n      and\n      0x23b872dd\n        /* \"contracts/Bridge.sol\":2017:2027  msg.sender */\n      caller\n        /* \"contracts/Bridge.sol\":2037:2041  this */\n      address\n        /* \"contracts/Bridge.sol\":2044:2050  amount */\n      dup10\n        /* \"contracts/Bridge.sol\":1972:2051  IERC20(supportedTokens[symbol]).transferFrom(msg.sender, address(this), amount) */\n      mload(0x40)\n      dup5\n      0xffffffff\n      and\n      0xe0\n      shl\n      dup2\n      mstore\n      0x04\n      add\n      tag_170\n      swap4\n      swap3\n      swap2\n      swap1\n      tag_171\n      jump\t// in\n    tag_170:\n      0x20\n      mload(0x40)\n      dup1\n      dup4\n      sub\n      dup2\n      0x00\n      dup8\n      gas\n      call\n      iszero\n      dup1\n      iszero\n      tag_173\n      jumpi\n      returndatasize\n      0x00\n      dup1\n      returndatacopy\n      revert(0x00, returndatasize)\n    tag_173:\n      pop\n      pop\n      pop\n      pop\n      mload(0x40)\n      returndatasize\n      not(0x1f)\n      0x1f\n      dup3\n      add\n      and\n      dup3\n      add\n      dup1\n      0x40\n      mstore\n      pop\n      dup2\n      add\n      swap1\n      tag_174\n      swap2\n      swap1\n      tag_175\n      jump\t// in\n    tag_174:\n        /* \"contracts/Bridge.sol\":1964:2077  require(IERC20(supportedTokens[symbol]).transferFrom(msg.sender, address(this), amount), \"Token transfer failed\") */\n      tag_176\n      jumpi\n      mload(0x40)\n      0x08c379a000000000000000000000000000000000000000000000000000000000\n      dup2\n      mstore\n      0x04\n      add\n      tag_177\n      swap1\n      tag_178\n      jump\t// in\n    tag_177:\n      mload(0x40)\n      dup1\n      swap2\n      sub\n      swap1\n      revert\n    tag_176:\n        /* \"contracts/Bridge.sol\":2088:2099  uint256 fee */\n      0x00\n        /* \"contracts/Bridge.sol\":2130:2135  10000 */\n      0x2710\n        /* \"contracts/Bridge.sol\":2112:2126  feeBasisPoints */\n      0x03\n      0x00\n      swap1\n      sload\n      swap1\n      0x0100\n      exp\n      swap1\n      div\n      0xffff\n      and\n        /* \"contracts/Bridge.sol\":2103:2126  amount * feeBasisPoints */\n      0xffff\n      and\n        /* \"contracts/Bridge.sol\":2103:2109  amount */\n      dup9\n        /* \"contracts/Bridge.sol\":2103:2126  amount * feeBasisPoints */\n      tag_179\n      swap2\n      swap1\n      tag_180\n      jump\t// in\n    tag_179:\n        /* \"contracts/Bridge.sol\":2102:2135  (amount * feeBasisPoints) / 10000 */\n      tag_181\n      swap2\n      swap1\n      tag_182\n      jump\t// in\n    tag_181:\n        /* \"contracts/Bridge.sol\":2088:2135  uint256 fee = (amount * feeBasisPoints) / 10000 */\n      swap1\n      pop\n        /* \"contracts/Bridge.sol\":2145:2167  uint256 amountAfterFee */\n      0x00\n        /* \"contracts/Bridge.sol\":2179:2182  fee */\n      dup2\n        /* \"contracts/Bridge.sol\":2170:2176  amount */\n      dup9\n        /* \"contracts/Bridge.sol\":2170:2182  amount - fee */\n      tag_183\n      swap2\n      swap1\n      tag_184\n      jump\t// in\n    tag_183:\n        /* \"contracts/Bridge.sol\":2145:2182  uint256 amountAfterFee = amount - fee */\n      swap1\n      pop\n        /* \"contracts/Bridge.sol\":2193:2213  bytes memory payload */\n      0x00\n        /* \"contracts/Bridge.sol\":2227:2235  receiver */\n      dup8\n        /* \"contracts/Bridge.sol\":2237:2243  symbol */\n      dup12\n      dup12\n        /* \"contracts/Bridge.sol\":2245:2259  amountAfterFee */\n      dup5\n        /* \"contracts/Bridge.sol\":2216:2260  abi.encode(receiver, symbol, amountAfterFee) */\n      add(0x20, mload(0x40))\n      tag_185\n      swap5\n      swap4\n      swap3\n      swap2\n      swap1\n      tag_186\n      jump\t// in\n    tag_185:\n      mload(0x40)\n      0x20\n      dup2\n      dup4\n      sub\n      sub\n      dup2\n      mstore\n      swap1\n      0x40\n      mstore\n        /* \"contracts/Bridge.sol\":2193:2260  bytes memory payload = abi.encode(receiver, symbol, amountAfterFee) */\n      swap1\n      pop\n        /* \"contracts/Bridge.sol\":2281:2371  _lzSend(targetChainId, payload, _options, MessagingFee(msg.value, 0), payable(msg.sender)) */\n      tag_187\n        /* \"contracts/Bridge.sol\":2289:2302  targetChainId */\n      dup8\n        /* \"contracts/Bridge.sol\":2281:2371  _lzSend(targetChainId, payload, _options, MessagingFee(msg.value, 0), payable(msg.sender)) */\n      0xffff\n      and\n        /* \"contracts/Bridge.sol\":2304:2311  payload */\n      dup3\n        /* \"contracts/Bridge.sol\":2313:2321  _options */\n      dup9\n      dup9\n        /* \"contracts/Bridge.sol\":2281:2371  _lzSend(targetChainId, payload, _options, MessagingFee(msg.value, 0), payable(msg.sender)) */\n      dup1\n      dup1\n      0x1f\n      add\n      0x20\n      dup1\n      swap2\n      div\n      mul\n      0x20\n      add\n      mload(0x40)\n      swap1\n      dup2\n      add\n      0x40\n      mstore\n      dup1\n      swap4\n      swap3\n      swap2\n      swap1\n      dup2\n      dup2\n      mstore\n      0x20\n      add\n      dup4\n      dup4\n      dup1\n      dup3\n      dup5\n      calldatacopy\n      0x00\n      dup2\n      dup5\n      add\n      mstore\n      not(0x1f)\n      0x1f\n      dup3\n      add\n      and\n      swap1\n      pop\n      dup1\n      dup4\n      add\n      swap3\n      pop\n      pop\n      pop\n      pop\n      pop\n      pop\n      pop\n        /* \"contracts/Bridge.sol\":2323:2349  MessagingFee(msg.value, 0) */\n      mload(0x40)\n      dup1\n      0x40\n      add\n      0x40\n      mstore\n      dup1\n        /* \"contracts/Bridge.sol\":2336:2345  msg.value */\n      callvalue\n        /* \"contracts/Bridge.sol\":2323:2349  MessagingFee(msg.value, 0) */\n      dup2\n      mstore\n      0x20\n      add\n        /* \"contracts/Bridge.sol\":2347:2348  0 */\n      0x00\n        /* \"contracts/Bridge.sol\":2323:2349  MessagingFee(msg.value, 0) */\n      dup2\n      mstore\n      pop\n        /* \"contracts/Bridge.sol\":2359:2369  msg.sender */\n      caller\n        /* \"contracts/Bridge.sol\":2281:2288  _lzSend */\n      tag_188\n        /* \"contracts/Bridge.sol\":2281:2371  _lzSend(targetChainId, payload, _options, MessagingFee(msg.value, 0), payable(msg.sender)) */\n      jump\t// in\n    tag_187:\n        /* \"contracts/Bridge.sol\":2271:2371  receipt = _lzSend(targetChainId, payload, _options, MessagingFee(msg.value, 0), payable(msg.sender)) */\n      swap4\n      pop\n        /* \"contracts/Bridge.sol\":2437:2451  amountAfterFee */\n      dup2\n        /* \"contracts/Bridge.sol\":2412:2427  supportedTokens */\n      0x02\n        /* \"contracts/Bridge.sol\":2428:2434  symbol */\n      dup13\n      dup13\n        /* \"contracts/Bridge.sol\":2412:2435  supportedTokens[symbol] */\n      mload(0x40)\n      tag_189\n      swap3\n      swap2\n      swap1\n      tag_165\n      jump\t// in\n    tag_189:\n      swap1\n      dup2\n      mstore\n      0x20\n      add\n      mload(0x40)\n      dup1\n      swap2\n      sub\n      swap1\n      keccak256\n      0x00\n      swap1\n      sload\n      swap1\n      0x0100\n      exp\n      swap1\n      div\n      0xffffffffffffffffffffffffffffffffffffffff\n      and\n        /* \"contracts/Bridge.sol\":2386:2482  TokensBridged(msg.sender, supportedTokens[symbol], amountAfterFee, receiver, fee, targetChainId) */\n      0xffffffffffffffffffffffffffffffffffffffff\n      and\n        /* \"contracts/Bridge.sol\":2400:2410  msg.sender */\n      caller\n        /* \"contracts/Bridge.sol\":2386:2482  TokensBridged(msg.sender, supportedTokens[symbol], amountAfterFee, receiver, fee, targetChainId) */\n      0xffffffffffffffffffffffffffffffffffffffff\n      and\n      0x9aa0bd7524636a05d600ed870d6bbbf0a6fe436b4c0b4dfb5cfe417be427bac1\n        /* \"contracts/Bridge.sol\":2453:2461  receiver */\n      dup12\n        /* \"contracts/Bridge.sol\":2463:2466  fee */\n      dup8\n        /* \"contracts/Bridge.sol\":2468:2481  targetChainId */\n      dup13\n        /* \"contracts/Bridge.sol\":2386:2482  TokensBridged(msg.sender, supportedTokens[symbol], amountAfterFee, receiver, fee, targetChainId) */\n      mload(0x40)\n      tag_190\n      swap4\n      swap3\n      swap2\n      swap1\n      tag_191\n      jump\t// in\n    tag_190:\n      mload(0x40)\n      dup1\n      swap2\n      sub\n      swap1\n      log4\n        /* \"contracts/Bridge.sol\":1806:2489  {... */\n      pop\n      pop\n      pop\n        /* \"contracts/Bridge.sol\":1572:2489  function bridgeTokens(... */\n      swap8\n      swap7\n      pop\n      pop\n      pop\n      pop\n      pop\n      pop\n      pop\n      jump\t// out\n        /* \"@openzeppelin/contracts/access/Ownable.sol\":2293:2394  function renounceOwnership() public virtual onlyOwner {... */\n    tag_60:\n        /* \"@openzeppelin/contracts/access/Ownable.sol\":1531:1544  _checkOwner() */\n      tag_193\n        /* \"@openzeppelin/contracts/access/Ownable.sol\":1531:1542  _checkOwner */\n      tag_142\n        /* \"@openzeppelin/contracts/access/Ownable.sol\":1531:1544  _checkOwner() */\n      jump\t// in\n    tag_193:\n        /* \"@openzeppelin/contracts/access/Ownable.sol\":2357:2387  _transferOwnership(address(0)) */\n      tag_195\n        /* \"@openzeppelin/contracts/access/Ownable.sol\":2384:2385  0 */\n      0x00\n        /* \"@openzeppelin/contracts/access/Ownable.sol\":2357:2375  _transferOwnership */\n      tag_196\n        /* \"@openzeppelin/contracts/access/Ownable.sol\":2357:2387  _transferOwnership(address(0)) */\n      jump\t// in\n    tag_195:\n        /* \"@openzeppelin/contracts/access/Ownable.sol\":2293:2394  function renounceOwnership() public virtual onlyOwner {... */\n      jump\t// out\n        /* \"@layerzerolabs/oapp-evm/contracts/oapp/OAppReceiver.sol\":3507:3635  function nextNonce(uint32 /*_srcEid*/, bytes32 /*_sender*/) public view virtual returns (uint64 nonce) {... */\n    tag_64:\n        /* \"@layerzerolabs/oapp-evm/contracts/oapp/OAppReceiver.sol\":3596:3608  uint64 nonce */\n      0x00\n        /* \"@layerzerolabs/oapp-evm/contracts/oapp/OAppReceiver.sol\":3507:3635  function nextNonce(uint32 /*_srcEid*/, bytes32 /*_sender*/) public view virtual returns (uint64 nonce) {... */\n      swap3\n      swap2\n      pop\n      pop\n      jump\t// out\n        /* \"@layerzerolabs/oapp-evm/contracts/oapp/OAppReceiver.sol\":2013:2229  function isComposeMsgSender(... */\n    tag_71:\n        /* \"@layerzerolabs/oapp-evm/contracts/oapp/OAppReceiver.sol\":2175:2179  bool */\n      0x00\n        /* \"@layerzerolabs/oapp-evm/contracts/oapp/OAppReceiver.sol\":2217:2221  this */\n      address\n        /* \"@layerzerolabs/oapp-evm/contracts/oapp/OAppReceiver.sol\":2198:2222  _sender == address(this) */\n      0xffffffffffffffffffffffffffffffffffffffff\n      and\n        /* \"@layerzerolabs/oapp-evm/contracts/oapp/OAppReceiver.sol\":2198:2205  _sender */\n      dup3\n        /* \"@layerzerolabs/oapp-evm/contracts/oapp/OAppReceiver.sol\":2198:2222  _sender == address(this) */\n      0xffffffffffffffffffffffffffffffffffffffff\n      and\n      eq\n        /* \"@layerzerolabs/oapp-evm/contracts/oapp/OAppReceiver.sol\":2191:2222  return _sender == address(this) */\n      swap1\n      pop\n        /* \"@layerzerolabs/oapp-evm/contracts/oapp/OAppReceiver.sol\":2013:2229  function isComposeMsgSender(... */\n      swap5\n      swap4\n      pop\n      pop\n      pop\n      pop\n      jump\t// out\n        /* \"contracts/Bridge.sol\":3086:3228  function recoverERC20(address tokenAddress, uint256 amount) external onlyOwner {... */\n    tag_78:\n        /* \"@openzeppelin/contracts/access/Ownable.sol\":1531:1544  _checkOwner() */\n      tag_200\n        /* \"@openzeppelin/contracts/access/Ownable.sol\":1531:1542  _checkOwner */\n      tag_142\n        /* \"@openzeppelin/contracts/access/Ownable.sol\":1531:1544  _checkOwner() */\n      jump\t// in\n    tag_200:\n        /* \"contracts/Bridge.sol\":3182:3194  tokenAddress */\n      dup2\n        /* \"contracts/Bridge.sol\":3175:3204  IERC20(tokenAddress).transfer */\n      0xffffffffffffffffffffffffffffffffffffffff\n      and\n      0xa9059cbb\n        /* \"contracts/Bridge.sol\":3205:3212  owner() */\n      tag_202\n        /* \"contracts/Bridge.sol\":3205:3210  owner */\n      tag_88\n        /* \"contracts/Bridge.sol\":3205:3212  owner() */\n      jump\t// in\n    tag_202:\n        /* \"contracts/Bridge.sol\":3214:3220  amount */\n      dup4\n        /* \"contracts/Bridge.sol\":3175:3221  IERC20(tokenAddress).transfer(owner(), amount) */\n      mload(0x40)\n      dup4\n      0xffffffff\n      and\n      0xe0\n      shl\n      dup2\n      mstore\n      0x04\n      add\n      tag_203\n      swap3\n      swap2\n      swap1\n      tag_204\n      jump\t// in\n    tag_203:\n      0x20\n      mload(0x40)\n      dup1\n      dup4\n      sub\n      dup2\n      0x00\n      dup8\n      gas\n      call\n      iszero\n      dup1\n      iszero\n      tag_206\n      jumpi\n      returndatasize\n      0x00\n      dup1\n      returndatacopy\n      revert(0x00, returndatasize)\n    tag_206:\n      pop\n      pop\n      pop\n      pop\n      mload(0x40)\n      returndatasize\n      not(0x1f)\n      0x1f\n      dup3\n      add\n      and\n      dup3\n      add\n      dup1\n      0x40\n      mstore\n      pop\n      dup2\n      add\n      swap1\n      tag_207\n      swap2\n      swap1\n      tag_175\n      jump\t// in\n    tag_207:\n      pop\n        /* \"contracts/Bridge.sol\":3086:3228  function recoverERC20(address tokenAddress, uint256 amount) external onlyOwner {... */\n      pop\n      pop\n      jump\t// out\n        /* \"contracts/Bridge.sol\":265:314  mapping(string => address) public supportedTokens */\n    tag_83:\n      0x02\n      dup2\n      dup1\n      mload\n      0x20\n      dup2\n      add\n      dup3\n      add\n      dup1\n      mload\n      dup5\n      dup3\n      mstore\n      0x20\n      dup4\n      add\n      0x20\n      dup6\n      add\n      keccak256\n      dup2\n      dup4\n      mstore\n      dup1\n      swap6\n      pop\n      pop\n      pop\n      pop\n      pop\n      pop\n      0x00\n      swap2\n      pop\n      sload\n      swap1\n      0x0100\n      exp\n      swap1\n      div\n      0xffffffffffffffffffffffffffffffffffffffff\n      and\n      dup2\n      jump\t// out\n        /* \"@openzeppelin/contracts/access/Ownable.sol\":1638:1723  function owner() public view virtual returns (address) {... */\n    tag_88:\n        /* \"@openzeppelin/contracts/access/Ownable.sol\":1684:1691  address */\n      0x00\n        /* \"@openzeppelin/contracts/access/Ownable.sol\":1710:1716  _owner */\n      dup1\n      0x00\n      swap1\n      sload\n      swap1\n      0x0100\n      exp\n      swap1\n      div\n      0xffffffffffffffffffffffffffffffffffffffff\n      and\n        /* \"@openzeppelin/contracts/access/Ownable.sol\":1703:1716  return _owner */\n      swap1\n      pop\n        /* \"@openzeppelin/contracts/access/Ownable.sol\":1638:1723  function owner() public view virtual returns (address) {... */\n      swap1\n      jump\t// out\n        /* \"contracts/Bridge.sol\":1146:1384  function removeSupportedToken(string calldata _symbol) external onlyOwner {... */\n    tag_94:\n        /* \"@openzeppelin/contracts/access/Ownable.sol\":1531:1544  _checkOwner() */\n      tag_210\n        /* \"@openzeppelin/contracts/access/Ownable.sol\":1531:1542  _checkOwner */\n      tag_142\n        /* \"@openzeppelin/contracts/access/Ownable.sol\":1531:1544  _checkOwner() */\n      jump\t// in\n    tag_210:\n        /* \"contracts/Bridge.sol\":1274:1275  0 */\n      0x00\n        /* \"contracts/Bridge.sol\":1238:1276  supportedTokens[_symbol] != address(0) */\n      0xffffffffffffffffffffffffffffffffffffffff\n      and\n        /* \"contracts/Bridge.sol\":1238:1253  supportedTokens */\n      0x02\n        /* \"contracts/Bridge.sol\":1254:1261  _symbol */\n      dup4\n      dup4\n        /* \"contracts/Bridge.sol\":1238:1262  supportedTokens[_symbol] */\n      mload(0x40)\n      tag_212\n      swap3\n      swap2\n      swap1\n      tag_165\n      jump\t// in\n    tag_212:\n      swap1\n      dup2\n      mstore\n      0x20\n      add\n      mload(0x40)\n      dup1\n      swap2\n      sub\n      swap1\n      keccak256\n      0x00\n      swap1\n      sload\n      swap1\n      0x0100\n      exp\n      swap1\n      div\n      0xffffffffffffffffffffffffffffffffffffffff\n      and\n        /* \"contracts/Bridge.sol\":1238:1276  supportedTokens[_symbol] != address(0) */\n      0xffffffffffffffffffffffffffffffffffffffff\n      and\n      sub\n        /* \"contracts/Bridge.sol\":1230:1300  require(supportedTokens[_symbol] != address(0), \"Token not supported\") */\n      tag_213\n      jumpi\n      mload(0x40)\n      0x08c379a000000000000000000000000000000000000000000000000000000000\n      dup2\n      mstore\n      0x04\n      add\n      tag_214\n      swap1\n      tag_168\n      jump\t// in\n    tag_214:\n      mload(0x40)\n      dup1\n      swap2\n      sub\n      swap1\n      revert\n    tag_213:\n        /* \"contracts/Bridge.sol\":1317:1332  supportedTokens */\n      0x02\n        /* \"contracts/Bridge.sol\":1333:1340  _symbol */\n      dup3\n      dup3\n        /* \"contracts/Bridge.sol\":1317:1341  supportedTokens[_symbol] */\n      mload(0x40)\n      tag_215\n      swap3\n      swap2\n      swap1\n      tag_165\n      jump\t// in\n    tag_215:\n      swap1\n      dup2\n      mstore\n      0x20\n      add\n      mload(0x40)\n      dup1\n      swap2\n      sub\n      swap1\n      keccak256\n      0x00\n        /* \"contracts/Bridge.sol\":1310:1341  delete supportedTokens[_symbol] */\n      0x0100\n      exp\n      dup2\n      sload\n      swap1\n      0xffffffffffffffffffffffffffffffffffffffff\n      mul\n      not\n      and\n      swap1\n      sstore\n        /* \"contracts/Bridge.sol\":1369:1376  _symbol */\n      dup2\n      dup2\n        /* \"contracts/Bridge.sol\":1356:1377  TokenRemoved(_symbol) */\n      mload(0x40)\n      tag_216\n      swap3\n      swap2\n      swap1\n      tag_165\n      jump\t// in\n    tag_216:\n      mload(0x40)\n      dup1\n      swap2\n      sub\n      swap1\n      keccak256\n      0xcdd02d37d444f381ccea186dcdaf556989dcdeeebafc5cd307fe5e7609cd88c3\n      mload(0x40)\n      mload(0x40)\n      dup1\n      swap2\n      sub\n      swap1\n      log2\n        /* \"contracts/Bridge.sol\":1146:1384  function removeSupportedToken(string calldata _symbol) external onlyOwner {... */\n      pop\n      pop\n      jump\t// out\n        /* \"contracts/Bridge.sol\":379:407  uint16 public feeBasisPoints */\n    tag_97:\n      0x03\n      0x00\n      swap1\n      sload\n      swap1\n      0x0100\n      exp\n      swap1\n      div\n      0xffff\n      and\n      dup2\n      jump\t// out\n        /* \"@layerzerolabs/oapp-evm/contracts/oapp/OAppCore.sol\":569:617  mapping(uint32 eid => bytes32 peer) public peers */\n    tag_104:\n      mstore(0x20, 0x01)\n      dup1\n      0x00\n      mstore\n      keccak256(0x00, 0x40)\n      0x00\n      swap2\n      pop\n      swap1\n      pop\n      sload\n      dup2\n      jump\t// out\n        /* \"@layerzerolabs/oapp-evm/contracts/oapp/OAppCore.sol\":3252:3357  function setDelegate(address _delegate) public onlyOwner {... */\n    tag_111:\n        /* \"@openzeppelin/contracts/access/Ownable.sol\":1531:1544  _checkOwner() */\n      tag_218\n        /* \"@openzeppelin/contracts/access/Ownable.sol\":1531:1542  _checkOwner */\n      tag_142\n        /* \"@openzeppelin/contracts/access/Ownable.sol\":1531:1544  _checkOwner() */\n      jump\t// in\n    tag_218:\n        /* \"@layerzerolabs/oapp-evm/contracts/oapp/OAppCore.sol\":3319:3327  endpoint */\n      immutable(\"0xef80077fd7ee005d1b0377e3e959eb59d0ca83c4839422f862a3540a66a91fb5\")\n        /* \"@layerzerolabs/oapp-evm/contracts/oapp/OAppCore.sol\":3319:3339  endpoint.setDelegate */\n      0xffffffffffffffffffffffffffffffffffffffff\n      and\n      0xca5eb5e1\n        /* \"@layerzerolabs/oapp-evm/contracts/oapp/OAppCore.sol\":3340:3349  _delegate */\n      dup3\n        /* \"@layerzerolabs/oapp-evm/contracts/oapp/OAppCore.sol\":3319:3350  endpoint.setDelegate(_delegate) */\n      mload(0x40)\n      dup3\n      0xffffffff\n      and\n      0xe0\n      shl\n      dup2\n      mstore\n      0x04\n      add\n      tag_220\n      swap2\n      swap1\n      tag_85\n      jump\t// in\n    tag_220:\n      0x00\n      mload(0x40)\n      dup1\n      dup4\n      sub\n      dup2\n      0x00\n      dup8\n      dup1\n      extcodesize\n      iszero\n      dup1\n      iszero\n      tag_221\n      jumpi\n      0x00\n      dup1\n      revert\n    tag_221:\n      pop\n      gas\n      call\n      iszero\n      dup1\n      iszero\n      tag_223\n      jumpi\n      returndatasize\n      0x00\n      dup1\n      returndatacopy\n      revert(0x00, returndatasize)\n    tag_223:\n      pop\n      pop\n      pop\n      pop\n        /* \"@layerzerolabs/oapp-evm/contracts/oapp/OAppCore.sol\":3252:3357  function setDelegate(address _delegate) public onlyOwner {... */\n      pop\n      jump\t// out\n        /* \"contracts/Bridge.sol\":955:1140  function addSupportedToken(string calldata _symbol, address _address) external onlyOwner {... */\n    tag_116:\n        /* \"@openzeppelin/contracts/access/Ownable.sol\":1531:1544  _checkOwner() */\n      tag_225\n        /* \"@openzeppelin/contracts/access/Ownable.sol\":1531:1542  _checkOwner */\n      tag_142\n        /* \"@openzeppelin/contracts/access/Ownable.sol\":1531:1544  _checkOwner() */\n      jump\t// in\n    tag_225:\n        /* \"contracts/Bridge.sol\":1081:1089  _address */\n      dup1\n        /* \"contracts/Bridge.sol\":1054:1069  supportedTokens */\n      0x02\n        /* \"contracts/Bridge.sol\":1070:1077  _symbol */\n      dup5\n      dup5\n        /* \"contracts/Bridge.sol\":1054:1078  supportedTokens[_symbol] */\n      mload(0x40)\n      tag_227\n      swap3\n      swap2\n      swap1\n      tag_165\n      jump\t// in\n    tag_227:\n      swap1\n      dup2\n      mstore\n      0x20\n      add\n      mload(0x40)\n      dup1\n      swap2\n      sub\n      swap1\n      keccak256\n      0x00\n        /* \"contracts/Bridge.sol\":1054:1089  supportedTokens[_symbol] = _address */\n      0x0100\n      exp\n      dup2\n      sload\n      dup2\n      0xffffffffffffffffffffffffffffffffffffffff\n      mul\n      not\n      and\n      swap1\n      dup4\n      0xffffffffffffffffffffffffffffffffffffffff\n      and\n      mul\n      or\n      swap1\n      sstore\n      pop\n        /* \"contracts/Bridge.sol\":1124:1132  _address */\n      dup1\n        /* \"contracts/Bridge.sol\":1104:1133  TokenAdded(_symbol, _address) */\n      0xffffffffffffffffffffffffffffffffffffffff\n      and\n        /* \"contracts/Bridge.sol\":1115:1122  _symbol */\n      dup4\n      dup4\n        /* \"contracts/Bridge.sol\":1104:1133  TokenAdded(_symbol, _address) */\n      mload(0x40)\n      tag_228\n      swap3\n      swap2\n      swap1\n      tag_165\n      jump\t// in\n    tag_228:\n      mload(0x40)\n      dup1\n      swap2\n      sub\n      swap1\n      keccak256\n      0x6d97a31531bdb3c43d920bc996ec8b9fd7733f5f55a81cd74700f88631fc6032\n      mload(0x40)\n      mload(0x40)\n      dup1\n      swap2\n      sub\n      swap1\n      log3\n        /* \"contracts/Bridge.sol\":955:1140  function addSupportedToken(string calldata _symbol, address _address) external onlyOwner {... */\n      pop\n      pop\n      pop\n      jump\t// out\n        /* \"@openzeppelin/contracts/access/Ownable.sol\":2543:2758  function transferOwnership(address newOwner) public virtual onlyOwner {... */\n    tag_120:\n        /* \"@openzeppelin/contracts/access/Ownable.sol\":1531:1544  _checkOwner() */\n      tag_230\n        /* \"@openzeppelin/contracts/access/Ownable.sol\":1531:1542  _checkOwner */\n      tag_142\n        /* \"@openzeppelin/contracts/access/Ownable.sol\":1531:1544  _checkOwner() */\n      jump\t// in\n    tag_230:\n        /* \"@openzeppelin/contracts/access/Ownable.sol\":2647:2648  0 */\n      0x00\n        /* \"@openzeppelin/contracts/access/Ownable.sol\":2627:2649  newOwner == address(0) */\n      0xffffffffffffffffffffffffffffffffffffffff\n      and\n        /* \"@openzeppelin/contracts/access/Ownable.sol\":2627:2635  newOwner */\n      dup2\n        /* \"@openzeppelin/contracts/access/Ownable.sol\":2627:2649  newOwner == address(0) */\n      0xffffffffffffffffffffffffffffffffffffffff\n      and\n      sub\n        /* \"@openzeppelin/contracts/access/Ownable.sol\":2623:2714  if (newOwner == address(0)) {... */\n      tag_232\n      jumpi\n        /* \"@openzeppelin/contracts/access/Ownable.sol\":2700:2701  0 */\n      0x00\n        /* \"@openzeppelin/contracts/access/Ownable.sol\":2672:2703  OwnableInvalidOwner(address(0)) */\n      mload(0x40)\n      0x1e4fbdf700000000000000000000000000000000000000000000000000000000\n      dup2\n      mstore\n      0x04\n      add\n      tag_233\n      swap2\n      swap1\n      tag_85\n      jump\t// in\n    tag_233:\n      mload(0x40)\n      dup1\n      swap2\n      sub\n      swap1\n      revert\n        /* \"@openzeppelin/contracts/access/Ownable.sol\":2623:2714  if (newOwner == address(0)) {... */\n    tag_232:\n        /* \"@openzeppelin/contracts/access/Ownable.sol\":2723:2751  _transferOwnership(newOwner) */\n      tag_234\n        /* \"@openzeppelin/contracts/access/Ownable.sol\":2742:2750  newOwner */\n      dup2\n        /* \"@openzeppelin/contracts/access/Ownable.sol\":2723:2741  _transferOwnership */\n      tag_196\n        /* \"@openzeppelin/contracts/access/Ownable.sol\":2723:2751  _transferOwnership(newOwner) */\n      jump\t// in\n    tag_234:\n        /* \"@openzeppelin/contracts/access/Ownable.sol\":2543:2758  function transferOwnership(address newOwner) public virtual onlyOwner {... */\n      pop\n      jump\t// out\n        /* \"@layerzerolabs/oapp-evm/contracts/oapp/OAppReceiver.sol\":2771:2920  function allowInitializePath(Origin calldata origin) public view virtual returns (bool) {... */\n    tag_125:\n        /* \"@layerzerolabs/oapp-evm/contracts/oapp/OAppReceiver.sol\":2853:2857  bool */\n      0x00\n        /* \"@layerzerolabs/oapp-evm/contracts/oapp/OAppReceiver.sol\":2900:2906  origin */\n      dup2\n        /* \"@layerzerolabs/oapp-evm/contracts/oapp/OAppReceiver.sol\":2900:2913  origin.sender */\n      0x20\n      add\n      calldataload\n        /* \"@layerzerolabs/oapp-evm/contracts/oapp/OAppReceiver.sol\":2876:2881  peers */\n      0x01\n        /* \"@layerzerolabs/oapp-evm/contracts/oapp/OAppReceiver.sol\":2876:2896  peers[origin.srcEid] */\n      0x00\n        /* \"@layerzerolabs/oapp-evm/contracts/oapp/OAppReceiver.sol\":2882:2888  origin */\n      dup5\n        /* \"@layerzerolabs/oapp-evm/contracts/oapp/OAppReceiver.sol\":2882:2895  origin.srcEid */\n      0x00\n      add\n      0x20\n      dup2\n      add\n      swap1\n      tag_236\n      swap2\n      swap1\n      tag_103\n      jump\t// in\n    tag_236:\n        /* \"@layerzerolabs/oapp-evm/contracts/oapp/OAppReceiver.sol\":2876:2896  peers[origin.srcEid] */\n      0xffffffff\n      and\n      0xffffffff\n      and\n      dup2\n      mstore\n      0x20\n      add\n      swap1\n      dup2\n      mstore\n      0x20\n      add\n      0x00\n      keccak256\n      sload\n        /* \"@layerzerolabs/oapp-evm/contracts/oapp/OAppReceiver.sol\":2876:2913  peers[origin.srcEid] == origin.sender */\n      eq\n        /* \"@layerzerolabs/oapp-evm/contracts/oapp/OAppReceiver.sol\":2869:2913  return peers[origin.srcEid] == origin.sender */\n      swap1\n      pop\n        /* \"@layerzerolabs/oapp-evm/contracts/oapp/OAppReceiver.sol\":2771:2920  function allowInitializePath(Origin calldata origin) public view virtual returns (bool) {... */\n      swap2\n      swap1\n      pop\n      jump\t// out\n        /* \"@layerzerolabs/oapp-evm/contracts/oapp/OAppCore.sol\":2718:2914  function _getPeerOrRevert(uint32 _eid) internal view virtual returns (bytes32) {... */\n    tag_132:\n        /* \"@layerzerolabs/oapp-evm/contracts/oapp/OAppCore.sol\":2788:2795  bytes32 */\n      0x00\n        /* \"@layerzerolabs/oapp-evm/contracts/oapp/OAppCore.sol\":2807:2819  bytes32 peer */\n      dup1\n        /* \"@layerzerolabs/oapp-evm/contracts/oapp/OAppCore.sol\":2822:2827  peers */\n      0x01\n        /* \"@layerzerolabs/oapp-evm/contracts/oapp/OAppCore.sol\":2822:2833  peers[_eid] */\n      0x00\n        /* \"@layerzerolabs/oapp-evm/contracts/oapp/OAppCore.sol\":2828:2832  _eid */\n      dup5\n        /* \"@layerzerolabs/oapp-evm/contracts/oapp/OAppCore.sol\":2822:2833  peers[_eid] */\n      0xffffffff\n      and\n      0xffffffff\n      and\n      dup2\n      mstore\n      0x20\n      add\n      swap1\n      dup2\n      mstore\n      0x20\n      add\n      0x00\n      keccak256\n      sload\n        /* \"@layerzerolabs/oapp-evm/contracts/oapp/OAppCore.sol\":2807:2833  bytes32 peer = peers[_eid] */\n      swap1\n      pop\n        /* \"@layerzerolabs/oapp-evm/contracts/oapp/OAppCore.sol\":2863:2864  0 */\n      0x00\n        /* \"@layerzerolabs/oapp-evm/contracts/oapp/OAppCore.sol\":2855:2865  bytes32(0) */\n      dup1\n      shl\n        /* \"@layerzerolabs/oapp-evm/contracts/oapp/OAppCore.sol\":2847:2851  peer */\n      dup2\n        /* \"@layerzerolabs/oapp-evm/contracts/oapp/OAppCore.sol\":2847:2865  peer == bytes32(0) */\n      sub\n        /* \"@layerzerolabs/oapp-evm/contracts/oapp/OAppCore.sol\":2843:2886  if (peer == bytes32(0)) revert NoPeer(_eid) */\n      tag_238\n      jumpi\n        /* \"@layerzerolabs/oapp-evm/contracts/oapp/OAppCore.sol\":2881:2885  _eid */\n      dup3\n        /* \"@layerzerolabs/oapp-evm/contracts/oapp/OAppCore.sol\":2874:2886  NoPeer(_eid) */\n      mload(0x40)\n      0xf6ff4fb700000000000000000000000000000000000000000000000000000000\n      dup2\n      mstore\n      0x04\n      add\n      tag_239\n      swap2\n      swap1\n      tag_240\n      jump\t// in\n    tag_239:\n      mload(0x40)\n      dup1\n      swap2\n      sub\n      swap1\n      revert\n        /* \"@layerzerolabs/oapp-evm/contracts/oapp/OAppCore.sol\":2843:2886  if (peer == bytes32(0)) revert NoPeer(_eid) */\n    tag_238:\n        /* \"@layerzerolabs/oapp-evm/contracts/oapp/OAppCore.sol\":2903:2907  peer */\n      dup1\n        /* \"@layerzerolabs/oapp-evm/contracts/oapp/OAppCore.sol\":2896:2907  return peer */\n      swap2\n      pop\n      pop\n        /* \"@layerzerolabs/oapp-evm/contracts/oapp/OAppCore.sol\":2718:2914  function _getPeerOrRevert(uint32 _eid) internal view virtual returns (bytes32) {... */\n      swap2\n      swap1\n      pop\n      jump\t// out\n        /* \"contracts/Bridge.sol\":2495:3030  function _lzReceive(... */\n    tag_138:\n        /* \"contracts/Bridge.sol\":2665:2681  address receiver */\n      0x00\n        /* \"contracts/Bridge.sol\":2683:2703  string memory symbol */\n      dup1\n        /* \"contracts/Bridge.sol\":2705:2719  uint256 amount */\n      0x00\n        /* \"contracts/Bridge.sol\":2734:2741  payload */\n      dup8\n      dup8\n        /* \"contracts/Bridge.sol\":2723:2770  abi.decode(payload, (address, string, uint256)) */\n      dup2\n      add\n      swap1\n      tag_242\n      swap2\n      swap1\n      tag_243\n      jump\t// in\n    tag_242:\n        /* \"contracts/Bridge.sol\":2664:2770  (address receiver, string memory symbol, uint256 amount) = abi.decode(payload, (address, string, uint256)) */\n      swap3\n      pop\n      swap3\n      pop\n      swap3\n      pop\n        /* \"contracts/Bridge.sol\":2823:2824  0 */\n      0x00\n        /* \"contracts/Bridge.sol\":2788:2825  supportedTokens[symbol] != address(0) */\n      0xffffffffffffffffffffffffffffffffffffffff\n      and\n        /* \"contracts/Bridge.sol\":2788:2803  supportedTokens */\n      0x02\n        /* \"contracts/Bridge.sol\":2804:2810  symbol */\n      dup4\n        /* \"contracts/Bridge.sol\":2788:2811  supportedTokens[symbol] */\n      mload(0x40)\n      tag_244\n      swap2\n      swap1\n      tag_245\n      jump\t// in\n    tag_244:\n      swap1\n      dup2\n      mstore\n      0x20\n      add\n      mload(0x40)\n      dup1\n      swap2\n      sub\n      swap1\n      keccak256\n      0x00\n      swap1\n      sload\n      swap1\n      0x0100\n      exp\n      swap1\n      div\n      0xffffffffffffffffffffffffffffffffffffffff\n      and\n        /* \"contracts/Bridge.sol\":2788:2825  supportedTokens[symbol] != address(0) */\n      0xffffffffffffffffffffffffffffffffffffffff\n      and\n      sub\n        /* \"contracts/Bridge.sol\":2780:2849  require(supportedTokens[symbol] != address(0), \"Token not supported\") */\n      tag_246\n      jumpi\n      mload(0x40)\n      0x08c379a000000000000000000000000000000000000000000000000000000000\n      dup2\n      mstore\n      0x04\n      add\n      tag_247\n      swap1\n      tag_168\n      jump\t// in\n    tag_247:\n      mload(0x40)\n      dup1\n      swap2\n      sub\n      swap1\n      revert\n    tag_246:\n        /* \"contracts/Bridge.sol\":2874:2889  supportedTokens */\n      0x02\n        /* \"contracts/Bridge.sol\":2890:2896  symbol */\n      dup3\n        /* \"contracts/Bridge.sol\":2874:2897  supportedTokens[symbol] */\n      mload(0x40)\n      tag_248\n      swap2\n      swap1\n      tag_245\n      jump\t// in\n    tag_248:\n      swap1\n      dup2\n      mstore\n      0x20\n      add\n      mload(0x40)\n      dup1\n      swap2\n      sub\n      swap1\n      keccak256\n      0x00\n      swap1\n      sload\n      swap1\n      0x0100\n      exp\n      swap1\n      div\n      0xffffffffffffffffffffffffffffffffffffffff\n      and\n        /* \"contracts/Bridge.sol\":2867:2907  IERC20(supportedTokens[symbol]).transfer */\n      0xffffffffffffffffffffffffffffffffffffffff\n      and\n      0xa9059cbb\n        /* \"contracts/Bridge.sol\":2908:2916  receiver */\n      dup5\n        /* \"contracts/Bridge.sol\":2918:2924  amount */\n      dup4\n        /* \"contracts/Bridge.sol\":2867:2925  IERC20(supportedTokens[symbol]).transfer(receiver, amount) */\n      mload(0x40)\n      dup4\n      0xffffffff\n      and\n      0xe0\n      shl\n      dup2\n      mstore\n      0x04\n      add\n      tag_249\n      swap3\n      swap2\n      swap1\n      tag_204\n      jump\t// in\n    tag_249:\n      0x20\n      mload(0x40)\n      dup1\n      dup4\n      sub\n      dup2\n      0x00\n      dup8\n      gas\n      call\n      iszero\n      dup1\n      iszero\n      tag_251\n      jumpi\n      returndatasize\n      0x00\n      dup1\n      returndatacopy\n      revert(0x00, returndatasize)\n    tag_251:\n      pop\n      pop\n      pop\n      pop\n      mload(0x40)\n      returndatasize\n      not(0x1f)\n      0x1f\n      dup3\n      add\n      and\n      dup3\n      add\n      dup1\n      0x40\n      mstore\n      pop\n      dup2\n      add\n      swap1\n      tag_252\n      swap2\n      swap1\n      tag_175\n      jump\t// in\n    tag_252:\n        /* \"contracts/Bridge.sol\":2859:2951  require(IERC20(supportedTokens[symbol]).transfer(receiver, amount), \"Token transfer failed\") */\n      tag_253\n      jumpi\n      mload(0x40)\n      0x08c379a000000000000000000000000000000000000000000000000000000000\n      dup2\n      mstore\n      0x04\n      add\n      tag_254\n      swap1\n      tag_178\n      jump\t// in\n    tag_254:\n      mload(0x40)\n      dup1\n      swap2\n      sub\n      swap1\n      revert\n    tag_253:\n        /* \"contracts/Bridge.sol\":3016:3022  amount */\n      dup1\n        /* \"contracts/Bridge.sol\":2991:3006  supportedTokens */\n      0x02\n        /* \"contracts/Bridge.sol\":3007:3013  symbol */\n      dup4\n        /* \"contracts/Bridge.sol\":2991:3014  supportedTokens[symbol] */\n      mload(0x40)\n      tag_255\n      swap2\n      swap1\n      tag_245\n      jump\t// in\n    tag_255:\n      swap1\n      dup2\n      mstore\n      0x20\n      add\n      mload(0x40)\n      dup1\n      swap2\n      sub\n      swap1\n      keccak256\n      0x00\n      swap1\n      sload\n      swap1\n      0x0100\n      exp\n      swap1\n      div\n      0xffffffffffffffffffffffffffffffffffffffff\n      and\n        /* \"contracts/Bridge.sol\":2966:3023  TokensReleased(receiver, supportedTokens[symbol], amount) */\n      0xffffffffffffffffffffffffffffffffffffffff\n      and\n        /* \"contracts/Bridge.sol\":2981:2989  receiver */\n      dup5\n        /* \"contracts/Bridge.sol\":2966:3023  TokensReleased(receiver, supportedTokens[symbol], amount) */\n      0xffffffffffffffffffffffffffffffffffffffff\n      and\n      0x3737f2a73c794dafe53d8aeea06810a9ebcf7167401b259406960e088e03f830\n      mload(0x40)\n      mload(0x40)\n      dup1\n      swap2\n      sub\n      swap1\n      log4\n        /* \"contracts/Bridge.sol\":2654:3030  {... */\n      pop\n      pop\n      pop\n        /* \"contracts/Bridge.sol\":2495:3030  function _lzReceive(... */\n      pop\n      pop\n      pop\n      pop\n      pop\n      pop\n      pop\n      jump\t// out\n        /* \"@openzeppelin/contracts/access/Ownable.sol\":1796:1958  function _checkOwner() internal view virtual {... */\n    tag_142:\n        /* \"@openzeppelin/contracts/access/Ownable.sol\":1866:1878  _msgSender() */\n      tag_257\n        /* \"@openzeppelin/contracts/access/Ownable.sol\":1866:1876  _msgSender */\n      tag_258\n        /* \"@openzeppelin/contracts/access/Ownable.sol\":1866:1878  _msgSender() */\n      jump\t// in\n    tag_257:\n        /* \"@openzeppelin/contracts/access/Ownable.sol\":1855:1878  owner() != _msgSender() */\n      0xffffffffffffffffffffffffffffffffffffffff\n      and\n        /* \"@openzeppelin/contracts/access/Ownable.sol\":1855:1862  owner() */\n      tag_259\n        /* \"@openzeppelin/contracts/access/Ownable.sol\":1855:1860  owner */\n      tag_88\n        /* \"@openzeppelin/contracts/access/Ownable.sol\":1855:1862  owner() */\n      jump\t// in\n    tag_259:\n        /* \"@openzeppelin/contracts/access/Ownable.sol\":1855:1878  owner() != _msgSender() */\n      0xffffffffffffffffffffffffffffffffffffffff\n      and\n      eq\n        /* \"@openzeppelin/contracts/access/Ownable.sol\":1851:1952  if (owner() != _msgSender()) {... */\n      tag_260\n      jumpi\n        /* \"@openzeppelin/contracts/access/Ownable.sol\":1928:1940  _msgSender() */\n      tag_261\n        /* \"@openzeppelin/contracts/access/Ownable.sol\":1928:1938  _msgSender */\n      tag_258\n        /* \"@openzeppelin/contracts/access/Ownable.sol\":1928:1940  _msgSender() */\n      jump\t// in\n    tag_261:\n        /* \"@openzeppelin/contracts/access/Ownable.sol\":1901:1941  OwnableUnauthorizedAccount(_msgSender()) */\n      mload(0x40)\n      0x118cdaa700000000000000000000000000000000000000000000000000000000\n      dup2\n      mstore\n      0x04\n      add\n      tag_262\n      swap2\n      swap1\n      tag_85\n      jump\t// in\n    tag_262:\n      mload(0x40)\n      dup1\n      swap2\n      sub\n      swap1\n      revert\n        /* \"@openzeppelin/contracts/access/Ownable.sol\":1851:1952  if (owner() != _msgSender()) {... */\n    tag_260:\n        /* \"@openzeppelin/contracts/access/Ownable.sol\":1796:1958  function _checkOwner() internal view virtual {... */\n      jump\t// out\n        /* \"@layerzerolabs/oapp-evm/contracts/oapp/OAppCore.sol\":2286:2420  function _setPeer(uint32 _eid, bytes32 _peer) internal virtual {... */\n    tag_151:\n        /* \"@layerzerolabs/oapp-evm/contracts/oapp/OAppCore.sol\":2373:2378  _peer */\n      dup1\n        /* \"@layerzerolabs/oapp-evm/contracts/oapp/OAppCore.sol\":2359:2364  peers */\n      0x01\n        /* \"@layerzerolabs/oapp-evm/contracts/oapp/OAppCore.sol\":2359:2370  peers[_eid] */\n      0x00\n        /* \"@layerzerolabs/oapp-evm/contracts/oapp/OAppCore.sol\":2365:2369  _eid */\n      dup5\n        /* \"@layerzerolabs/oapp-evm/contracts/oapp/OAppCore.sol\":2359:2370  peers[_eid] */\n      0xffffffff\n      and\n      0xffffffff\n      and\n      dup2\n      mstore\n      0x20\n      add\n      swap1\n      dup2\n      mstore\n      0x20\n      add\n      0x00\n      keccak256\n        /* \"@layerzerolabs/oapp-evm/contracts/oapp/OAppCore.sol\":2359:2378  peers[_eid] = _peer */\n      dup2\n      swap1\n      sstore\n      pop\n        /* \"@layerzerolabs/oapp-evm/contracts/oapp/OAppCore.sol\":2393:2413  PeerSet(_eid, _peer) */\n      0x238399d427b947898edb290f5ff0f9109849b1c3ba196a42e35f00c50a54b98b\n        /* \"@layerzerolabs/oapp-evm/contracts/oapp/OAppCore.sol\":2401:2405  _eid */\n      dup3\n        /* \"@layerzerolabs/oapp-evm/contracts/oapp/OAppCore.sol\":2407:2412  _peer */\n      dup3\n        /* \"@layerzerolabs/oapp-evm/contracts/oapp/OAppCore.sol\":2393:2413  PeerSet(_eid, _peer) */\n      mload(0x40)\n      tag_264\n      swap3\n      swap2\n      swap1\n      tag_136\n      jump\t// in\n    tag_264:\n      mload(0x40)\n      dup1\n      swap2\n      sub\n      swap1\n      log1\n        /* \"@layerzerolabs/oapp-evm/contracts/oapp/OAppCore.sol\":2286:2420  function _setPeer(uint32 _eid, bytes32 _peer) internal virtual {... */\n      pop\n      pop\n      jump\t// out\n        /* \"@layerzerolabs/oapp-evm/contracts/oapp/OAppSender.sol\":3188:3954  function _lzSend(... */\n    tag_188:\n        /* \"@layerzerolabs/oapp-evm/contracts/oapp/OAppSender.sol\":3389:3420  MessagingReceipt memory receipt */\n      tag_265\n      tag_159\n      jump\t// in\n    tag_265:\n        /* \"@layerzerolabs/oapp-evm/contracts/oapp/OAppSender.sol\":3554:3574  uint256 messageValue */\n      0x00\n        /* \"@layerzerolabs/oapp-evm/contracts/oapp/OAppSender.sol\":3577:3603  _payNative(_fee.nativeFee) */\n      tag_267\n        /* \"@layerzerolabs/oapp-evm/contracts/oapp/OAppSender.sol\":3588:3592  _fee */\n      dup5\n        /* \"@layerzerolabs/oapp-evm/contracts/oapp/OAppSender.sol\":3588:3602  _fee.nativeFee */\n      0x00\n      add\n      mload\n        /* \"@layerzerolabs/oapp-evm/contracts/oapp/OAppSender.sol\":3577:3587  _payNative */\n      tag_268\n        /* \"@layerzerolabs/oapp-evm/contracts/oapp/OAppSender.sol\":3577:3603  _payNative(_fee.nativeFee) */\n      jump\t// in\n    tag_267:\n        /* \"@layerzerolabs/oapp-evm/contracts/oapp/OAppSender.sol\":3554:3603  uint256 messageValue = _payNative(_fee.nativeFee) */\n      swap1\n      pop\n        /* \"@layerzerolabs/oapp-evm/contracts/oapp/OAppSender.sol\":3635:3636  0 */\n      0x00\n        /* \"@layerzerolabs/oapp-evm/contracts/oapp/OAppSender.sol\":3617:3621  _fee */\n      dup5\n        /* \"@layerzerolabs/oapp-evm/contracts/oapp/OAppSender.sol\":3617:3632  _fee.lzTokenFee */\n      0x20\n      add\n      mload\n        /* \"@layerzerolabs/oapp-evm/contracts/oapp/OAppSender.sol\":3617:3636  _fee.lzTokenFee > 0 */\n      gt\n        /* \"@layerzerolabs/oapp-evm/contracts/oapp/OAppSender.sol\":3613:3666  if (_fee.lzTokenFee > 0) _payLzToken(_fee.lzTokenFee) */\n      iszero\n      tag_269\n      jumpi\n        /* \"@layerzerolabs/oapp-evm/contracts/oapp/OAppSender.sol\":3638:3666  _payLzToken(_fee.lzTokenFee) */\n      tag_270\n        /* \"@layerzerolabs/oapp-evm/contracts/oapp/OAppSender.sol\":3650:3654  _fee */\n      dup5\n        /* \"@layerzerolabs/oapp-evm/contracts/oapp/OAppSender.sol\":3650:3665  _fee.lzTokenFee */\n      0x20\n      add\n      mload\n        /* \"@layerzerolabs/oapp-evm/contracts/oapp/OAppSender.sol\":3638:3649  _payLzToken */\n      tag_271\n        /* \"@layerzerolabs/oapp-evm/contracts/oapp/OAppSender.sol\":3638:3666  _payLzToken(_fee.lzTokenFee) */\n      jump\t// in\n    tag_270:\n        /* \"@layerzerolabs/oapp-evm/contracts/oapp/OAppSender.sol\":3613:3666  if (_fee.lzTokenFee > 0) _payLzToken(_fee.lzTokenFee) */\n    tag_269:\n        /* \"@layerzerolabs/oapp-evm/contracts/oapp/OAppSender.sol\":3755:3763  endpoint */\n      immutable(\"0xef80077fd7ee005d1b0377e3e959eb59d0ca83c4839422f862a3540a66a91fb5\")\n        /* \"@layerzerolabs/oapp-evm/contracts/oapp/OAppSender.sol\":3755:3768  endpoint.send */\n      0xffffffffffffffffffffffffffffffffffffffff\n      and\n      0x2637a450\n        /* \"@layerzerolabs/oapp-evm/contracts/oapp/OAppSender.sol\":3777:3789  messageValue */\n      dup3\n        /* \"@layerzerolabs/oapp-evm/contracts/oapp/OAppSender.sol\":3809:3901  MessagingParams(_dstEid, _getPeerOrRevert(_dstEid), _message, _options, _fee.lzTokenFee > 0) */\n      mload(0x40)\n      dup1\n      0xa0\n      add\n      0x40\n      mstore\n      dup1\n        /* \"@layerzerolabs/oapp-evm/contracts/oapp/OAppSender.sol\":3825:3832  _dstEid */\n      dup12\n        /* \"@layerzerolabs/oapp-evm/contracts/oapp/OAppSender.sol\":3809:3901  MessagingParams(_dstEid, _getPeerOrRevert(_dstEid), _message, _options, _fee.lzTokenFee > 0) */\n      0xffffffff\n      and\n      dup2\n      mstore\n      0x20\n      add\n        /* \"@layerzerolabs/oapp-evm/contracts/oapp/OAppSender.sol\":3834:3859  _getPeerOrRevert(_dstEid) */\n      tag_272\n        /* \"@layerzerolabs/oapp-evm/contracts/oapp/OAppSender.sol\":3851:3858  _dstEid */\n      dup13\n        /* \"@layerzerolabs/oapp-evm/contracts/oapp/OAppSender.sol\":3834:3850  _getPeerOrRevert */\n      tag_132\n        /* \"@layerzerolabs/oapp-evm/contracts/oapp/OAppSender.sol\":3834:3859  _getPeerOrRevert(_dstEid) */\n      jump\t// in\n    tag_272:\n        /* \"@layerzerolabs/oapp-evm/contracts/oapp/OAppSender.sol\":3809:3901  MessagingParams(_dstEid, _getPeerOrRevert(_dstEid), _message, _options, _fee.lzTokenFee > 0) */\n      dup2\n      mstore\n      0x20\n      add\n        /* \"@layerzerolabs/oapp-evm/contracts/oapp/OAppSender.sol\":3861:3869  _message */\n      dup11\n        /* \"@layerzerolabs/oapp-evm/contracts/oapp/OAppSender.sol\":3809:3901  MessagingParams(_dstEid, _getPeerOrRevert(_dstEid), _message, _options, _fee.lzTokenFee > 0) */\n      dup2\n      mstore\n      0x20\n      add\n        /* \"@layerzerolabs/oapp-evm/contracts/oapp/OAppSender.sol\":3871:3879  _options */\n      dup10\n        /* \"@layerzerolabs/oapp-evm/contracts/oapp/OAppSender.sol\":3809:3901  MessagingParams(_dstEid, _getPeerOrRevert(_dstEid), _message, _options, _fee.lzTokenFee > 0) */\n      dup2\n      mstore\n      0x20\n      add\n        /* \"@layerzerolabs/oapp-evm/contracts/oapp/OAppSender.sol\":3899:3900  0 */\n      0x00\n        /* \"@layerzerolabs/oapp-evm/contracts/oapp/OAppSender.sol\":3881:3885  _fee */\n      dup10\n        /* \"@layerzerolabs/oapp-evm/contracts/oapp/OAppSender.sol\":3881:3896  _fee.lzTokenFee */\n      0x20\n      add\n      mload\n        /* \"@layerzerolabs/oapp-evm/contracts/oapp/OAppSender.sol\":3881:3900  _fee.lzTokenFee > 0 */\n      gt\n        /* \"@layerzerolabs/oapp-evm/contracts/oapp/OAppSender.sol\":3809:3901  MessagingParams(_dstEid, _getPeerOrRevert(_dstEid), _message, _options, _fee.lzTokenFee > 0) */\n      iszero\n      iszero\n      dup2\n      mstore\n      pop\n        /* \"@layerzerolabs/oapp-evm/contracts/oapp/OAppSender.sol\":3919:3933  _refundAddress */\n      dup7\n        /* \"@layerzerolabs/oapp-evm/contracts/oapp/OAppSender.sol\":3755:3947  endpoint.send{ value: messageValue }(... */\n      mload(0x40)\n      dup5\n      0xffffffff\n      and\n      0xe0\n      shl\n      dup2\n      mstore\n      0x04\n      add\n      tag_273\n      swap3\n      swap2\n      swap1\n      tag_274\n      jump\t// in\n    tag_273:\n      0x80\n      mload(0x40)\n      dup1\n      dup4\n      sub\n      dup2\n      dup6\n      dup9\n      gas\n      call\n      iszero\n      dup1\n      iszero\n      tag_276\n      jumpi\n      returndatasize\n      0x00\n      dup1\n      returndatacopy\n      revert(0x00, returndatasize)\n    tag_276:\n      pop\n      pop\n      pop\n      pop\n      pop\n      mload(0x40)\n      returndatasize\n      not(0x1f)\n      0x1f\n      dup3\n      add\n      and\n      dup3\n      add\n      dup1\n      0x40\n      mstore\n      pop\n      dup2\n      add\n      swap1\n      tag_277\n      swap2\n      swap1\n      tag_278\n      jump\t// in\n    tag_277:\n        /* \"@layerzerolabs/oapp-evm/contracts/oapp/OAppSender.sol\":3677:3947  return... */\n      swap2\n      pop\n      pop\n        /* \"@layerzerolabs/oapp-evm/contracts/oapp/OAppSender.sol\":3188:3954  function _lzSend(... */\n      swap6\n      swap5\n      pop\n      pop\n      pop\n      pop\n      pop\n      jump\t// out\n        /* \"@openzeppelin/contracts/access/Ownable.sol\":2912:3099  function _transferOwnership(address newOwner) internal virtual {... */\n    tag_196:\n        /* \"@openzeppelin/contracts/access/Ownable.sol\":2985:3001  address oldOwner */\n      0x00\n        /* \"@openzeppelin/contracts/access/Ownable.sol\":3004:3010  _owner */\n      dup1\n      0x00\n      swap1\n      sload\n      swap1\n      0x0100\n      exp\n      swap1\n      div\n      0xffffffffffffffffffffffffffffffffffffffff\n      and\n        /* \"@openzeppelin/contracts/access/Ownable.sol\":2985:3010  address oldOwner = _owner */\n      swap1\n      pop\n        /* \"@openzeppelin/contracts/access/Ownable.sol\":3029:3037  newOwner */\n      dup2\n        /* \"@openzeppelin/contracts/access/Ownable.sol\":3020:3026  _owner */\n      0x00\n      dup1\n        /* \"@openzeppelin/contracts/access/Ownable.sol\":3020:3037  _owner = newOwner */\n      0x0100\n      exp\n      dup2\n      sload\n      dup2\n      0xffffffffffffffffffffffffffffffffffffffff\n      mul\n      not\n      and\n      swap1\n      dup4\n      0xffffffffffffffffffffffffffffffffffffffff\n      and\n      mul\n      or\n      swap1\n      sstore\n      pop\n        /* \"@openzeppelin/contracts/access/Ownable.sol\":3083:3091  newOwner */\n      dup2\n        /* \"@openzeppelin/contracts/access/Ownable.sol\":3052:3092  OwnershipTransferred(oldOwner, newOwner) */\n      0xffffffffffffffffffffffffffffffffffffffff\n      and\n        /* \"@openzeppelin/contracts/access/Ownable.sol\":3073:3081  oldOwner */\n      dup2\n        /* \"@openzeppelin/contracts/access/Ownable.sol\":3052:3092  OwnershipTransferred(oldOwner, newOwner) */\n      0xffffffffffffffffffffffffffffffffffffffff\n      and\n      0x8be0079c531659141344cd1fd0a4f28419497f9722a3daafe3b4186f6b6457e0\n      mload(0x40)\n      mload(0x40)\n      dup1\n      swap2\n      sub\n      swap1\n      log3\n        /* \"@openzeppelin/contracts/access/Ownable.sol\":2975:3099  {... */\n      pop\n        /* \"@openzeppelin/contracts/access/Ownable.sol\":2912:3099  function _transferOwnership(address newOwner) internal virtual {... */\n      pop\n      jump\t// out\n        /* \"@openzeppelin/contracts/utils/Context.sol\":656:752  function _msgSender() internal view virtual returns (address) {... */\n    tag_258:\n        /* \"@openzeppelin/contracts/utils/Context.sol\":709:716  address */\n      0x00\n        /* \"@openzeppelin/contracts/utils/Context.sol\":735:745  msg.sender */\n      caller\n        /* \"@openzeppelin/contracts/utils/Context.sol\":728:745  return msg.sender */\n      swap1\n      pop\n        /* \"@openzeppelin/contracts/utils/Context.sol\":656:752  function _msgSender() internal view virtual returns (address) {... */\n      swap1\n      jump\t// out\n        /* \"@layerzerolabs/oapp-evm/contracts/oapp/OAppSender.sol\":4650:4841  function _payNative(uint256 _nativeFee) internal virtual returns (uint256 nativeFee) {... */\n    tag_268:\n        /* \"@layerzerolabs/oapp-evm/contracts/oapp/OAppSender.sol\":4716:4733  uint256 nativeFee */\n      0x00\n        /* \"@layerzerolabs/oapp-evm/contracts/oapp/OAppSender.sol\":4762:4772  _nativeFee */\n      dup2\n        /* \"@layerzerolabs/oapp-evm/contracts/oapp/OAppSender.sol\":4749:4758  msg.value */\n      callvalue\n        /* \"@layerzerolabs/oapp-evm/contracts/oapp/OAppSender.sol\":4749:4772  msg.value != _nativeFee */\n      eq\n        /* \"@layerzerolabs/oapp-evm/contracts/oapp/OAppSender.sol\":4745:4807  if (msg.value != _nativeFee) revert NotEnoughNative(msg.value) */\n      tag_282\n      jumpi\n        /* \"@layerzerolabs/oapp-evm/contracts/oapp/OAppSender.sol\":4797:4806  msg.value */\n      callvalue\n        /* \"@layerzerolabs/oapp-evm/contracts/oapp/OAppSender.sol\":4781:4807  NotEnoughNative(msg.value) */\n      mload(0x40)\n      0x9f70412000000000000000000000000000000000000000000000000000000000\n      dup2\n      mstore\n      0x04\n      add\n      tag_283\n      swap2\n      swap1\n      tag_284\n      jump\t// in\n    tag_283:\n      mload(0x40)\n      dup1\n      swap2\n      sub\n      swap1\n      revert\n        /* \"@layerzerolabs/oapp-evm/contracts/oapp/OAppSender.sol\":4745:4807  if (msg.value != _nativeFee) revert NotEnoughNative(msg.value) */\n    tag_282:\n        /* \"@layerzerolabs/oapp-evm/contracts/oapp/OAppSender.sol\":4824:4834  _nativeFee */\n      dup2\n        /* \"@layerzerolabs/oapp-evm/contracts/oapp/OAppSender.sol\":4817:4834  return _nativeFee */\n      swap1\n      pop\n        /* \"@layerzerolabs/oapp-evm/contracts/oapp/OAppSender.sol\":4650:4841  function _payNative(uint256 _nativeFee) internal virtual returns (uint256 nativeFee) {... */\n      swap2\n      swap1\n      pop\n      jump\t// out\n        /* \"@layerzerolabs/oapp-evm/contracts/oapp/OAppSender.sol\":5218:5628  function _payLzToken(uint256 _lzTokenFee) internal virtual {... */\n    tag_271:\n        /* \"@layerzerolabs/oapp-evm/contracts/oapp/OAppSender.sol\":5371:5386  address lzToken */\n      0x00\n        /* \"@layerzerolabs/oapp-evm/contracts/oapp/OAppSender.sol\":5389:5397  endpoint */\n      immutable(\"0xef80077fd7ee005d1b0377e3e959eb59d0ca83c4839422f862a3540a66a91fb5\")\n        /* \"@layerzerolabs/oapp-evm/contracts/oapp/OAppSender.sol\":5389:5405  endpoint.lzToken */\n      0xffffffffffffffffffffffffffffffffffffffff\n      and\n      0xe4fe1d94\n        /* \"@layerzerolabs/oapp-evm/contracts/oapp/OAppSender.sol\":5389:5407  endpoint.lzToken() */\n      mload(0x40)\n      dup2\n      0xffffffff\n      and\n      0xe0\n      shl\n      dup2\n      mstore\n      0x04\n      add\n      0x20\n      mload(0x40)\n      dup1\n      dup4\n      sub\n      dup2\n      dup7\n      gas\n      staticcall\n      iszero\n      dup1\n      iszero\n      tag_287\n      jumpi\n      returndatasize\n      0x00\n      dup1\n      returndatacopy\n      revert(0x00, returndatasize)\n    tag_287:\n      pop\n      pop\n      pop\n      pop\n      mload(0x40)\n      returndatasize\n      not(0x1f)\n      0x1f\n      dup3\n      add\n      and\n      dup3\n      add\n      dup1\n      0x40\n      mstore\n      pop\n      dup2\n      add\n      swap1\n      tag_288\n      swap2\n      swap1\n      tag_289\n      jump\t// in\n    tag_288:\n        /* \"@layerzerolabs/oapp-evm/contracts/oapp/OAppSender.sol\":5371:5407  address lzToken = endpoint.lzToken() */\n      swap1\n      pop\n        /* \"@layerzerolabs/oapp-evm/contracts/oapp/OAppSender.sol\":5440:5441  0 */\n      0x00\n        /* \"@layerzerolabs/oapp-evm/contracts/oapp/OAppSender.sol\":5421:5442  lzToken == address(0) */\n      0xffffffffffffffffffffffffffffffffffffffff\n      and\n        /* \"@layerzerolabs/oapp-evm/contracts/oapp/OAppSender.sol\":5421:5428  lzToken */\n      dup2\n        /* \"@layerzerolabs/oapp-evm/contracts/oapp/OAppSender.sol\":5421:5442  lzToken == address(0) */\n      0xffffffffffffffffffffffffffffffffffffffff\n      and\n      sub\n        /* \"@layerzerolabs/oapp-evm/contracts/oapp/OAppSender.sol\":5417:5471  if (lzToken == address(0)) revert LzTokenUnavailable() */\n      tag_290\n      jumpi\n        /* \"@layerzerolabs/oapp-evm/contracts/oapp/OAppSender.sol\":5451:5471  LzTokenUnavailable() */\n      mload(0x40)\n      0x5373352a00000000000000000000000000000000000000000000000000000000\n      dup2\n      mstore\n      0x04\n      add\n      mload(0x40)\n      dup1\n      swap2\n      sub\n      swap1\n      revert\n        /* \"@layerzerolabs/oapp-evm/contracts/oapp/OAppSender.sol\":5417:5471  if (lzToken == address(0)) revert LzTokenUnavailable() */\n    tag_290:\n        /* \"@layerzerolabs/oapp-evm/contracts/oapp/OAppSender.sol\":5545:5621  IERC20(lzToken).safeTransferFrom(msg.sender, address(endpoint), _lzTokenFee) */\n      tag_291\n        /* \"@layerzerolabs/oapp-evm/contracts/oapp/OAppSender.sol\":5578:5588  msg.sender */\n      caller\n        /* \"@layerzerolabs/oapp-evm/contracts/oapp/OAppSender.sol\":5598:5606  endpoint */\n      immutable(\"0xef80077fd7ee005d1b0377e3e959eb59d0ca83c4839422f862a3540a66a91fb5\")\n        /* \"@layerzerolabs/oapp-evm/contracts/oapp/OAppSender.sol\":5609:5620  _lzTokenFee */\n      dup5\n        /* \"@layerzerolabs/oapp-evm/contracts/oapp/OAppSender.sol\":5552:5559  lzToken */\n      dup5\n        /* \"@layerzerolabs/oapp-evm/contracts/oapp/OAppSender.sol\":5545:5577  IERC20(lzToken).safeTransferFrom */\n      0xffffffffffffffffffffffffffffffffffffffff\n      and\n      tag_292\n      swap1\n        /* \"@layerzerolabs/oapp-evm/contracts/oapp/OAppSender.sol\":5545:5621  IERC20(lzToken).safeTransferFrom(msg.sender, address(endpoint), _lzTokenFee) */\n      swap4\n      swap3\n      swap2\n      swap1\n      0xffffffff\n      and\n      jump\t// in\n    tag_291:\n        /* \"@layerzerolabs/oapp-evm/contracts/oapp/OAppSender.sol\":5277:5628  {... */\n      pop\n        /* \"@layerzerolabs/oapp-evm/contracts/oapp/OAppSender.sol\":5218:5628  function _payLzToken(uint256 _lzTokenFee) internal virtual {... */\n      pop\n      jump\t// out\n        /* \"@openzeppelin/contracts/token/ERC20/utils/SafeERC20.sol\":1670:1858  function safeTransferFrom(IERC20 token, address from, address to, uint256 value) internal {... */\n    tag_292:\n        /* \"@openzeppelin/contracts/token/ERC20/utils/SafeERC20.sol\":1770:1851  _callOptionalReturn(token, abi.encodeCall(token.transferFrom, (from, to, value))) */\n      tag_294\n        /* \"@openzeppelin/contracts/token/ERC20/utils/SafeERC20.sol\":1790:1795  token */\n      dup5\n        /* \"@openzeppelin/contracts/token/ERC20/utils/SafeERC20.sol\":1812:1817  token */\n      dup6\n        /* \"@openzeppelin/contracts/token/ERC20/utils/SafeERC20.sol\":1812:1830  token.transferFrom */\n      0xffffffffffffffffffffffffffffffffffffffff\n      and\n      0x23b872dd\n        /* \"@openzeppelin/contracts/token/ERC20/utils/SafeERC20.sol\":1833:1837  from */\n      dup7\n        /* \"@openzeppelin/contracts/token/ERC20/utils/SafeERC20.sol\":1839:1841  to */\n      dup7\n        /* \"@openzeppelin/contracts/token/ERC20/utils/SafeERC20.sol\":1843:1848  value */\n      dup7\n        /* \"@openzeppelin/contracts/token/ERC20/utils/SafeERC20.sol\":1797:1850  abi.encodeCall(token.transferFrom, (from, to, value)) */\n      add(0x24, mload(0x40))\n      tag_295\n      swap4\n      swap3\n      swap2\n      swap1\n      tag_171\n      jump\t// in\n    tag_295:\n      mload(0x40)\n      0x20\n      dup2\n      dup4\n      sub\n      sub\n      dup2\n      mstore\n      swap1\n      0x40\n      mstore\n      swap2\n      pop\n      0xe0\n      shl\n      0x20\n      dup3\n      add\n      dup1\n      mload\n      0xffffffffffffffffffffffffffffffffffffffffffffffffffffffff\n      dup4\n      dup2\n      dup4\n      and\n      or\n      dup4\n      mstore\n      pop\n      pop\n      pop\n      pop\n        /* \"@openzeppelin/contracts/token/ERC20/utils/SafeERC20.sol\":1770:1789  _callOptionalReturn */\n      tag_296\n        /* \"@openzeppelin/contracts/token/ERC20/utils/SafeERC20.sol\":1770:1851  _callOptionalReturn(token, abi.encodeCall(token.transferFrom, (from, to, value))) */\n      jump\t// in\n    tag_294:\n        /* \"@openzeppelin/contracts/token/ERC20/utils/SafeERC20.sol\":1670:1858  function safeTransferFrom(IERC20 token, address from, address to, uint256 value) internal {... */\n      pop\n      pop\n      pop\n      pop\n      jump\t// out\n        /* \"@openzeppelin/contracts/token/ERC20/utils/SafeERC20.sol\":7738:8458  function _callOptionalReturn(IERC20 token, bytes memory data) private {... */\n    tag_296:\n        /* \"@openzeppelin/contracts/token/ERC20/utils/SafeERC20.sol\":7818:7836  uint256 returnSize */\n      0x00\n        /* \"@openzeppelin/contracts/token/ERC20/utils/SafeERC20.sol\":7846:7865  uint256 returnValue */\n      dup1\n        /* \"@openzeppelin/contracts/token/ERC20/utils/SafeERC20.sol\":7984:7988  0x20 */\n      0x20\n        /* \"@openzeppelin/contracts/token/ERC20/utils/SafeERC20.sol\":7981:7982  0 */\n      0x00\n        /* \"@openzeppelin/contracts/token/ERC20/utils/SafeERC20.sol\":7974:7978  data */\n      dup5\n        /* \"@openzeppelin/contracts/token/ERC20/utils/SafeERC20.sol\":7968:7979  mload(data) */\n      mload\n        /* \"@openzeppelin/contracts/token/ERC20/utils/SafeERC20.sol\":7961:7965  0x20 */\n      0x20\n        /* \"@openzeppelin/contracts/token/ERC20/utils/SafeERC20.sol\":7955:7959  data */\n      dup7\n        /* \"@openzeppelin/contracts/token/ERC20/utils/SafeERC20.sol\":7951:7966  add(data, 0x20) */\n      add\n        /* \"@openzeppelin/contracts/token/ERC20/utils/SafeERC20.sol\":7948:7949  0 */\n      0x00\n        /* \"@openzeppelin/contracts/token/ERC20/utils/SafeERC20.sol\":7941:7946  token */\n      dup9\n        /* \"@openzeppelin/contracts/token/ERC20/utils/SafeERC20.sol\":7934:7939  gas() */\n      gas\n        /* \"@openzeppelin/contracts/token/ERC20/utils/SafeERC20.sol\":7929:7989  call(gas(), token, 0, add(data, 0x20), mload(data), 0, 0x20) */\n      call\n        /* \"@openzeppelin/contracts/token/ERC20/utils/SafeERC20.sol\":8041:8048  success */\n      dup1\n        /* \"@openzeppelin/contracts/token/ERC20/utils/SafeERC20.sol\":8031:8207  if iszero(success) {... */\n      tag_298\n      jumpi\n        /* \"@openzeppelin/contracts/token/ERC20/utils/SafeERC20.sol\":8085:8089  0x40 */\n      0x40\n        /* \"@openzeppelin/contracts/token/ERC20/utils/SafeERC20.sol\":8079:8090  mload(0x40) */\n      mload\n        /* \"@openzeppelin/contracts/token/ERC20/utils/SafeERC20.sol\":8130:8146  returndatasize() */\n      returndatasize\n        /* \"@openzeppelin/contracts/token/ERC20/utils/SafeERC20.sol\":8127:8128  0 */\n      0x00\n        /* \"@openzeppelin/contracts/token/ERC20/utils/SafeERC20.sol\":8122:8125  ptr */\n      dup3\n        /* \"@openzeppelin/contracts/token/ERC20/utils/SafeERC20.sol\":8107:8147  returndatacopy(ptr, 0, returndatasize()) */\n      returndatacopy\n        /* \"@openzeppelin/contracts/token/ERC20/utils/SafeERC20.sol\":8176:8192  returndatasize() */\n      returndatasize\n        /* \"@openzeppelin/contracts/token/ERC20/utils/SafeERC20.sol\":8171:8174  ptr */\n      dup2\n        /* \"@openzeppelin/contracts/token/ERC20/utils/SafeERC20.sol\":8164:8193  revert(ptr, returndatasize()) */\n      revert\n        /* \"@openzeppelin/contracts/token/ERC20/utils/SafeERC20.sol\":8031:8207  if iszero(success) {... */\n    tag_298:\n        /* \"@openzeppelin/contracts/token/ERC20/utils/SafeERC20.sol\":8234:8250  returndatasize() */\n      returndatasize\n        /* \"@openzeppelin/contracts/token/ERC20/utils/SafeERC20.sol\":8220:8250  returnSize := returndatasize() */\n      swap3\n      pop\n        /* \"@openzeppelin/contracts/token/ERC20/utils/SafeERC20.sol\":8284:8285  0 */\n      0x00\n        /* \"@openzeppelin/contracts/token/ERC20/utils/SafeERC20.sol\":8278:8286  mload(0) */\n      mload\n        /* \"@openzeppelin/contracts/token/ERC20/utils/SafeERC20.sol\":8263:8286  returnValue := mload(0) */\n      swap2\n      pop\n        /* \"@openzeppelin/contracts/token/ERC20/utils/SafeERC20.sol\":7900:8296  {... */\n      pop\n        /* \"@openzeppelin/contracts/token/ERC20/utils/SafeERC20.sol\":8324:8325  0 */\n      0x00\n        /* \"@openzeppelin/contracts/token/ERC20/utils/SafeERC20.sol\":8310:8320  returnSize */\n      dup3\n        /* \"@openzeppelin/contracts/token/ERC20/utils/SafeERC20.sol\":8310:8325  returnSize == 0 */\n      eq\n        /* \"@openzeppelin/contracts/token/ERC20/utils/SafeERC20.sol\":8310:8378  returnSize == 0 ? address(token).code.length == 0 : returnValue != 1 */\n      tag_299\n      jumpi\n        /* \"@openzeppelin/contracts/token/ERC20/utils/SafeERC20.sol\":8377:8378  1 */\n      0x01\n        /* \"@openzeppelin/contracts/token/ERC20/utils/SafeERC20.sol\":8362:8373  returnValue */\n      dup2\n        /* \"@openzeppelin/contracts/token/ERC20/utils/SafeERC20.sol\":8362:8378  returnValue != 1 */\n      eq\n      iszero\n        /* \"@openzeppelin/contracts/token/ERC20/utils/SafeERC20.sol\":8310:8378  returnSize == 0 ? address(token).code.length == 0 : returnValue != 1 */\n      jump(tag_300)\n    tag_299:\n        /* \"@openzeppelin/contracts/token/ERC20/utils/SafeERC20.sol\":8358:8359  0 */\n      0x00\n        /* \"@openzeppelin/contracts/token/ERC20/utils/SafeERC20.sol\":8336:8341  token */\n      dup5\n        /* \"@openzeppelin/contracts/token/ERC20/utils/SafeERC20.sol\":8328:8354  address(token).code.length */\n      0xffffffffffffffffffffffffffffffffffffffff\n      and\n      extcodesize\n        /* \"@openzeppelin/contracts/token/ERC20/utils/SafeERC20.sol\":8328:8359  address(token).code.length == 0 */\n      eq\n        /* \"@openzeppelin/contracts/token/ERC20/utils/SafeERC20.sol\":8310:8378  returnSize == 0 ? address(token).code.length == 0 : returnValue != 1 */\n    tag_300:\n        /* \"@openzeppelin/contracts/token/ERC20/utils/SafeERC20.sol\":8306:8452  if (returnSize == 0 ? address(token).code.length == 0 : returnValue != 1) {... */\n      iszero\n      tag_301\n      jumpi\n        /* \"@openzeppelin/contracts/token/ERC20/utils/SafeERC20.sol\":8434:8439  token */\n      dup4\n        /* \"@openzeppelin/contracts/token/ERC20/utils/SafeERC20.sol\":8401:8441  SafeERC20FailedOperation(address(token)) */\n      mload(0x40)\n      0x5274afe700000000000000000000000000000000000000000000000000000000\n      dup2\n      mstore\n      0x04\n      add\n      tag_302\n      swap2\n      swap1\n      tag_85\n      jump\t// in\n    tag_302:\n      mload(0x40)\n      dup1\n      swap2\n      sub\n      swap1\n      revert\n        /* \"@openzeppelin/contracts/token/ERC20/utils/SafeERC20.sol\":8306:8452  if (returnSize == 0 ? address(token).code.length == 0 : returnValue != 1) {... */\n    tag_301:\n        /* \"@openzeppelin/contracts/token/ERC20/utils/SafeERC20.sol\":7808:8458  {... */\n      pop\n      pop\n        /* \"@openzeppelin/contracts/token/ERC20/utils/SafeERC20.sol\":7738:8458  function _callOptionalReturn(IERC20 token, bytes memory data) private {... */\n      pop\n      pop\n      jump\t// out\n    tag_159:\n      mload(0x40)\n      dup1\n      0x60\n      add\n      0x40\n      mstore\n      dup1\n      0x00\n      dup1\n      not\n      and\n      dup2\n      mstore\n      0x20\n      add\n      and(0xffffffffffffffff, 0x00)\n      dup2\n      mstore\n      0x20\n      add\n      tag_303\n      tag_304\n      jump\t// in\n    tag_303:\n      dup2\n      mstore\n      pop\n      swap1\n      jump\t// out\n    tag_304:\n      mload(0x40)\n      dup1\n      0x40\n      add\n      0x40\n      mstore\n      dup1\n      0x00\n      dup2\n      mstore\n      0x20\n      add\n      0x00\n      dup2\n      mstore\n      pop\n      swap1\n      jump\t// out\n        /* \"#utility.yul\":7:82   */\n    tag_305:\n        /* \"#utility.yul\":40:46   */\n      0x00\n        /* \"#utility.yul\":73:75   */\n      0x40\n        /* \"#utility.yul\":67:76   */\n      mload\n        /* \"#utility.yul\":57:76   */\n      swap1\n      pop\n        /* \"#utility.yul\":7:82   */\n      swap1\n      jump\t// out\n        /* \"#utility.yul\":88:205   */\n    tag_306:\n        /* \"#utility.yul\":197:198   */\n      0x00\n        /* \"#utility.yul\":194:195   */\n      dup1\n        /* \"#utility.yul\":187:199   */\n      revert\n        /* \"#utility.yul\":211:328   */\n    tag_307:\n        /* \"#utility.yul\":320:321   */\n      0x00\n        /* \"#utility.yul\":317:318   */\n      dup1\n        /* \"#utility.yul\":310:322   */\n      revert\n        /* \"#utility.yul\":334:451   */\n    tag_308:\n        /* \"#utility.yul\":443:444   */\n      0x00\n        /* \"#utility.yul\":440:441   */\n      dup1\n        /* \"#utility.yul\":433:445   */\n      revert\n        /* \"#utility.yul\":478:706   */\n    tag_309:\n        /* \"#utility.yul\":548:553   */\n      0x00\n        /* \"#utility.yul\":589:591   */\n      0x60\n        /* \"#utility.yul\":580:586   */\n      dup3\n        /* \"#utility.yul\":575:578   */\n      dup5\n        /* \"#utility.yul\":571:587   */\n      sub\n        /* \"#utility.yul\":567:592   */\n      slt\n        /* \"#utility.yul\":564:676   */\n      iszero\n      tag_402\n      jumpi\n        /* \"#utility.yul\":595:674   */\n      tag_403\n      tag_308\n      jump\t// in\n    tag_403:\n        /* \"#utility.yul\":564:676   */\n    tag_402:\n        /* \"#utility.yul\":694:700   */\n      dup2\n        /* \"#utility.yul\":685:700   */\n      swap1\n      pop\n        /* \"#utility.yul\":478:706   */\n      swap3\n      swap2\n      pop\n      pop\n      jump\t// out\n        /* \"#utility.yul\":712:789   */\n    tag_310:\n        /* \"#utility.yul\":749:756   */\n      0x00\n        /* \"#utility.yul\":778:783   */\n      dup2\n        /* \"#utility.yul\":767:783   */\n      swap1\n      pop\n        /* \"#utility.yul\":712:789   */\n      swap2\n      swap1\n      pop\n      jump\t// out\n        /* \"#utility.yul\":795:917   */\n    tag_311:\n        /* \"#utility.yul\":868:892   */\n      tag_406\n        /* \"#utility.yul\":886:891   */\n      dup2\n        /* \"#utility.yul\":868:892   */\n      tag_310\n      jump\t// in\n    tag_406:\n        /* \"#utility.yul\":861:866   */\n      dup2\n        /* \"#utility.yul\":858:893   */\n      eq\n        /* \"#utility.yul\":848:911   */\n      tag_407\n      jumpi\n        /* \"#utility.yul\":907:908   */\n      0x00\n        /* \"#utility.yul\":904:905   */\n      dup1\n        /* \"#utility.yul\":897:909   */\n      revert\n        /* \"#utility.yul\":848:911   */\n    tag_407:\n        /* \"#utility.yul\":795:917   */\n      pop\n      jump\t// out\n        /* \"#utility.yul\":923:1062   */\n    tag_312:\n        /* \"#utility.yul\":969:974   */\n      0x00\n        /* \"#utility.yul\":1007:1013   */\n      dup2\n        /* \"#utility.yul\":994:1014   */\n      calldataload\n        /* \"#utility.yul\":985:1014   */\n      swap1\n      pop\n        /* \"#utility.yul\":1023:1056   */\n      tag_409\n        /* \"#utility.yul\":1050:1055   */\n      dup2\n        /* \"#utility.yul\":1023:1056   */\n      tag_311\n      jump\t// in\n    tag_409:\n        /* \"#utility.yul\":923:1062   */\n      swap3\n      swap2\n      pop\n      pop\n      jump\t// out\n        /* \"#utility.yul\":1068:1185   */\n    tag_313:\n        /* \"#utility.yul\":1177:1178   */\n      0x00\n        /* \"#utility.yul\":1174:1175   */\n      dup1\n        /* \"#utility.yul\":1167:1179   */\n      revert\n        /* \"#utility.yul\":1191:1308   */\n    tag_314:\n        /* \"#utility.yul\":1300:1301   */\n      0x00\n        /* \"#utility.yul\":1297:1298   */\n      dup1\n        /* \"#utility.yul\":1290:1302   */\n      revert\n        /* \"#utility.yul\":1314:1431   */\n    tag_315:\n        /* \"#utility.yul\":1423:1424   */\n      0x00\n        /* \"#utility.yul\":1420:1421   */\n      dup1\n        /* \"#utility.yul\":1413:1425   */\n      revert\n        /* \"#utility.yul\":1450:2002   */\n    tag_316:\n        /* \"#utility.yul\":1507:1515   */\n      0x00\n        /* \"#utility.yul\":1517:1523   */\n      dup1\n        /* \"#utility.yul\":1567:1570   */\n      dup4\n        /* \"#utility.yul\":1560:1564   */\n      0x1f\n        /* \"#utility.yul\":1552:1558   */\n      dup5\n        /* \"#utility.yul\":1548:1565   */\n      add\n        /* \"#utility.yul\":1544:1571   */\n      slt\n        /* \"#utility.yul\":1534:1656   */\n      tag_414\n      jumpi\n        /* \"#utility.yul\":1575:1654   */\n      tag_415\n      tag_313\n      jump\t// in\n    tag_415:\n        /* \"#utility.yul\":1534:1656   */\n    tag_414:\n        /* \"#utility.yul\":1688:1694   */\n      dup3\n        /* \"#utility.yul\":1675:1695   */\n      calldataload\n        /* \"#utility.yul\":1665:1695   */\n      swap1\n      pop\n        /* \"#utility.yul\":1718:1736   */\n      0xffffffffffffffff\n        /* \"#utility.yul\":1710:1716   */\n      dup2\n        /* \"#utility.yul\":1707:1737   */\n      gt\n        /* \"#utility.yul\":1704:1821   */\n      iszero\n      tag_416\n      jumpi\n        /* \"#utility.yul\":1740:1819   */\n      tag_417\n      tag_314\n      jump\t// in\n    tag_417:\n        /* \"#utility.yul\":1704:1821   */\n    tag_416:\n        /* \"#utility.yul\":1854:1858   */\n      0x20\n        /* \"#utility.yul\":1846:1852   */\n      dup4\n        /* \"#utility.yul\":1842:1859   */\n      add\n        /* \"#utility.yul\":1830:1859   */\n      swap2\n      pop\n        /* \"#utility.yul\":1908:1911   */\n      dup4\n        /* \"#utility.yul\":1900:1904   */\n      0x01\n        /* \"#utility.yul\":1892:1898   */\n      dup3\n        /* \"#utility.yul\":1888:1905   */\n      mul\n        /* \"#utility.yul\":1878:1886   */\n      dup4\n        /* \"#utility.yul\":1874:1906   */\n      add\n        /* \"#utility.yul\":1871:1912   */\n      gt\n        /* \"#utility.yul\":1868:1996   */\n      iszero\n      tag_418\n      jumpi\n        /* \"#utility.yul\":1915:1994   */\n      tag_419\n      tag_315\n      jump\t// in\n    tag_419:\n        /* \"#utility.yul\":1868:1996   */\n    tag_418:\n        /* \"#utility.yul\":1450:2002   */\n      swap3\n      pop\n      swap3\n      swap1\n      pop\n      jump\t// out\n        /* \"#utility.yul\":2008:2134   */\n    tag_317:\n        /* \"#utility.yul\":2045:2052   */\n      0x00\n        /* \"#utility.yul\":2085:2127   */\n      0xffffffffffffffffffffffffffffffffffffffff\n        /* \"#utility.yul\":2078:2083   */\n      dup3\n        /* \"#utility.yul\":2074:2128   */\n      and\n        /* \"#utility.yul\":2063:2128   */\n      swap1\n      pop\n        /* \"#utility.yul\":2008:2134   */\n      swap2\n      swap1\n      pop\n      jump\t// out\n        /* \"#utility.yul\":2140:2236   */\n    tag_318:\n        /* \"#utility.yul\":2177:2184   */\n      0x00\n        /* \"#utility.yul\":2206:2230   */\n      tag_422\n        /* \"#utility.yul\":2224:2229   */\n      dup3\n        /* \"#utility.yul\":2206:2230   */\n      tag_317\n      jump\t// in\n    tag_422:\n        /* \"#utility.yul\":2195:2230   */\n      swap1\n      pop\n        /* \"#utility.yul\":2140:2236   */\n      swap2\n      swap1\n      pop\n      jump\t// out\n        /* \"#utility.yul\":2242:2364   */\n    tag_319:\n        /* \"#utility.yul\":2315:2339   */\n      tag_424\n        /* \"#utility.yul\":2333:2338   */\n      dup2\n        /* \"#utility.yul\":2315:2339   */\n      tag_318\n      jump\t// in\n    tag_424:\n        /* \"#utility.yul\":2308:2313   */\n      dup2\n        /* \"#utility.yul\":2305:2340   */\n      eq\n        /* \"#utility.yul\":2295:2358   */\n      tag_425\n      jumpi\n        /* \"#utility.yul\":2354:2355   */\n      0x00\n        /* \"#utility.yul\":2351:2352   */\n      dup1\n        /* \"#utility.yul\":2344:2356   */\n      revert\n        /* \"#utility.yul\":2295:2358   */\n    tag_425:\n        /* \"#utility.yul\":2242:2364   */\n      pop\n      jump\t// out\n        /* \"#utility.yul\":2370:2509   */\n    tag_320:\n        /* \"#utility.yul\":2416:2421   */\n      0x00\n        /* \"#utility.yul\":2454:2460   */\n      dup2\n        /* \"#utility.yul\":2441:2461   */\n      calldataload\n        /* \"#utility.yul\":2432:2461   */\n      swap1\n      pop\n        /* \"#utility.yul\":2470:2503   */\n      tag_427\n        /* \"#utility.yul\":2497:2502   */\n      dup2\n        /* \"#utility.yul\":2470:2503   */\n      tag_319\n      jump\t// in\n    tag_427:\n        /* \"#utility.yul\":2370:2509   */\n      swap3\n      swap2\n      pop\n      pop\n      jump\t// out\n        /* \"#utility.yul\":2515:3872   */\n    tag_27:\n        /* \"#utility.yul\":2656:2662   */\n      0x00\n        /* \"#utility.yul\":2664:2670   */\n      dup1\n        /* \"#utility.yul\":2672:2678   */\n      0x00\n        /* \"#utility.yul\":2680:2686   */\n      dup1\n        /* \"#utility.yul\":2688:2694   */\n      0x00\n        /* \"#utility.yul\":2696:2702   */\n      dup1\n        /* \"#utility.yul\":2704:2710   */\n      0x00\n        /* \"#utility.yul\":2753:2756   */\n      0xe0\n        /* \"#utility.yul\":2741:2750   */\n      dup9\n        /* \"#utility.yul\":2732:2739   */\n      dup11\n        /* \"#utility.yul\":2728:2751   */\n      sub\n        /* \"#utility.yul\":2724:2757   */\n      slt\n        /* \"#utility.yul\":2721:2841   */\n      iszero\n      tag_429\n      jumpi\n        /* \"#utility.yul\":2760:2839   */\n      tag_430\n      tag_306\n      jump\t// in\n    tag_430:\n        /* \"#utility.yul\":2721:2841   */\n    tag_429:\n        /* \"#utility.yul\":2880:2881   */\n      0x00\n        /* \"#utility.yul\":2905:2982   */\n      tag_431\n        /* \"#utility.yul\":2974:2981   */\n      dup11\n        /* \"#utility.yul\":2965:2971   */\n      dup3\n        /* \"#utility.yul\":2954:2963   */\n      dup12\n        /* \"#utility.yul\":2950:2972   */\n      add\n        /* \"#utility.yul\":2905:2982   */\n      tag_309\n      jump\t// in\n    tag_431:\n        /* \"#utility.yul\":2895:2982   */\n      swap8\n      pop\n        /* \"#utility.yul\":2851:2992   */\n      pop\n        /* \"#utility.yul\":3031:3033   */\n      0x60\n        /* \"#utility.yul\":3057:3110   */\n      tag_432\n        /* \"#utility.yul\":3102:3109   */\n      dup11\n        /* \"#utility.yul\":3093:3099   */\n      dup3\n        /* \"#utility.yul\":3082:3091   */\n      dup12\n        /* \"#utility.yul\":3078:3100   */\n      add\n        /* \"#utility.yul\":3057:3110   */\n      tag_312\n      jump\t// in\n    tag_432:\n        /* \"#utility.yul\":3047:3110   */\n      swap7\n      pop\n        /* \"#utility.yul\":3002:3120   */\n      pop\n        /* \"#utility.yul\":3187:3190   */\n      0x80\n        /* \"#utility.yul\":3176:3185   */\n      dup9\n        /* \"#utility.yul\":3172:3191   */\n      add\n        /* \"#utility.yul\":3159:3192   */\n      calldataload\n        /* \"#utility.yul\":3219:3237   */\n      0xffffffffffffffff\n        /* \"#utility.yul\":3211:3217   */\n      dup2\n        /* \"#utility.yul\":3208:3238   */\n      gt\n        /* \"#utility.yul\":3205:3322   */\n      iszero\n      tag_433\n      jumpi\n        /* \"#utility.yul\":3241:3320   */\n      tag_434\n      tag_307\n      jump\t// in\n    tag_434:\n        /* \"#utility.yul\":3205:3322   */\n    tag_433:\n        /* \"#utility.yul\":3354:3418   */\n      tag_435\n        /* \"#utility.yul\":3410:3417   */\n      dup11\n        /* \"#utility.yul\":3401:3407   */\n      dup3\n        /* \"#utility.yul\":3390:3399   */\n      dup12\n        /* \"#utility.yul\":3386:3408   */\n      add\n        /* \"#utility.yul\":3354:3418   */\n      tag_316\n      jump\t// in\n    tag_435:\n        /* \"#utility.yul\":3336:3418   */\n      swap6\n      pop\n      swap6\n      pop\n        /* \"#utility.yul\":3130:3428   */\n      pop\n        /* \"#utility.yul\":3467:3470   */\n      0xa0\n        /* \"#utility.yul\":3494:3547   */\n      tag_436\n        /* \"#utility.yul\":3539:3546   */\n      dup11\n        /* \"#utility.yul\":3530:3536   */\n      dup3\n        /* \"#utility.yul\":3519:3528   */\n      dup12\n        /* \"#utility.yul\":3515:3537   */\n      add\n        /* \"#utility.yul\":3494:3547   */\n      tag_320\n      jump\t// in\n    tag_436:\n        /* \"#utility.yul\":3484:3547   */\n      swap4\n      pop\n        /* \"#utility.yul\":3438:3557   */\n      pop\n        /* \"#utility.yul\":3624:3627   */\n      0xc0\n        /* \"#utility.yul\":3613:3622   */\n      dup9\n        /* \"#utility.yul\":3609:3628   */\n      add\n        /* \"#utility.yul\":3596:3629   */\n      calldataload\n        /* \"#utility.yul\":3656:3674   */\n      0xffffffffffffffff\n        /* \"#utility.yul\":3648:3654   */\n      dup2\n        /* \"#utility.yul\":3645:3675   */\n      gt\n        /* \"#utility.yul\":3642:3759   */\n      iszero\n      tag_437\n      jumpi\n        /* \"#utility.yul\":3678:3757   */\n      tag_438\n      tag_307\n      jump\t// in\n    tag_438:\n        /* \"#utility.yul\":3642:3759   */\n    tag_437:\n        /* \"#utility.yul\":3791:3855   */\n      tag_439\n        /* \"#utility.yul\":3847:3854   */\n      dup11\n        /* \"#utility.yul\":3838:3844   */\n      dup3\n        /* \"#utility.yul\":3827:3836   */\n      dup12\n        /* \"#utility.yul\":3823:3845   */\n      add\n        /* \"#utility.yul\":3791:3855   */\n      tag_316\n      jump\t// in\n    tag_439:\n        /* \"#utility.yul\":3773:3855   */\n      swap3\n      pop\n      swap3\n      pop\n        /* \"#utility.yul\":3567:3865   */\n      pop\n        /* \"#utility.yul\":2515:3872   */\n      swap3\n      swap6\n      swap9\n      swap2\n      swap5\n      swap8\n      pop\n      swap3\n      swap6\n      pop\n      jump\t// out\n        /* \"#utility.yul\":3878:3979   */\n    tag_321:\n        /* \"#utility.yul\":3914:3921   */\n      0x00\n        /* \"#utility.yul\":3954:3972   */\n      0xffffffffffffffff\n        /* \"#utility.yul\":3947:3952   */\n      dup3\n        /* \"#utility.yul\":3943:3973   */\n      and\n        /* \"#utility.yul\":3932:3973   */\n      swap1\n      pop\n        /* \"#utility.yul\":3878:3979   */\n      swap2\n      swap1\n      pop\n      jump\t// out\n        /* \"#utility.yul\":3985:4100   */\n    tag_322:\n        /* \"#utility.yul\":4070:4093   */\n      tag_442\n        /* \"#utility.yul\":4087:4092   */\n      dup2\n        /* \"#utility.yul\":4070:4093   */\n      tag_321\n      jump\t// in\n    tag_442:\n        /* \"#utility.yul\":4065:4068   */\n      dup3\n        /* \"#utility.yul\":4058:4094   */\n      mstore\n        /* \"#utility.yul\":3985:4100   */\n      pop\n      pop\n      jump\t// out\n        /* \"#utility.yul\":4106:4430   */\n    tag_33:\n        /* \"#utility.yul\":4223:4227   */\n      0x00\n        /* \"#utility.yul\":4261:4263   */\n      0x40\n        /* \"#utility.yul\":4250:4259   */\n      dup3\n        /* \"#utility.yul\":4246:4264   */\n      add\n        /* \"#utility.yul\":4238:4264   */\n      swap1\n      pop\n        /* \"#utility.yul\":4274:4343   */\n      tag_444\n        /* \"#utility.yul\":4340:4341   */\n      0x00\n        /* \"#utility.yul\":4329:4338   */\n      dup4\n        /* \"#utility.yul\":4325:4342   */\n      add\n        /* \"#utility.yul\":4316:4322   */\n      dup6\n        /* \"#utility.yul\":4274:4343   */\n      tag_322\n      jump\t// in\n    tag_444:\n        /* \"#utility.yul\":4353:4423   */\n      tag_445\n        /* \"#utility.yul\":4419:4421   */\n      0x20\n        /* \"#utility.yul\":4408:4417   */\n      dup4\n        /* \"#utility.yul\":4404:4422   */\n      add\n        /* \"#utility.yul\":4395:4401   */\n      dup5\n        /* \"#utility.yul\":4353:4423   */\n      tag_322\n      jump\t// in\n    tag_445:\n        /* \"#utility.yul\":4106:4430   */\n      swap4\n      swap3\n      pop\n      pop\n      pop\n      jump\t// out\n        /* \"#utility.yul\":4436:4525   */\n    tag_323:\n        /* \"#utility.yul\":4472:4479   */\n      0x00\n        /* \"#utility.yul\":4512:4518   */\n      0xffff\n        /* \"#utility.yul\":4505:4510   */\n      dup3\n        /* \"#utility.yul\":4501:4519   */\n      and\n        /* \"#utility.yul\":4490:4519   */\n      swap1\n      pop\n        /* \"#utility.yul\":4436:4525   */\n      swap2\n      swap1\n      pop\n      jump\t// out\n        /* \"#utility.yul\":4531:4651   */\n    tag_324:\n        /* \"#utility.yul\":4603:4626   */\n      tag_448\n        /* \"#utility.yul\":4620:4625   */\n      dup2\n        /* \"#utility.yul\":4603:4626   */\n      tag_323\n      jump\t// in\n    tag_448:\n        /* \"#utility.yul\":4596:4601   */\n      dup2\n        /* \"#utility.yul\":4593:4627   */\n      eq\n        /* \"#utility.yul\":4583:4645   */\n      tag_449\n      jumpi\n        /* \"#utility.yul\":4641:4642   */\n      0x00\n        /* \"#utility.yul\":4638:4639   */\n      dup1\n        /* \"#utility.yul\":4631:4643   */\n      revert\n        /* \"#utility.yul\":4583:4645   */\n    tag_449:\n        /* \"#utility.yul\":4531:4651   */\n      pop\n      jump\t// out\n        /* \"#utility.yul\":4657:4794   */\n    tag_325:\n        /* \"#utility.yul\":4702:4707   */\n      0x00\n        /* \"#utility.yul\":4740:4746   */\n      dup2\n        /* \"#utility.yul\":4727:4747   */\n      calldataload\n        /* \"#utility.yul\":4718:4747   */\n      swap1\n      pop\n        /* \"#utility.yul\":4756:4788   */\n      tag_451\n        /* \"#utility.yul\":4782:4787   */\n      dup2\n        /* \"#utility.yul\":4756:4788   */\n      tag_324\n      jump\t// in\n    tag_451:\n        /* \"#utility.yul\":4657:4794   */\n      swap3\n      swap2\n      pop\n      pop\n      jump\t// out\n        /* \"#utility.yul\":4800:5127   */\n    tag_37:\n        /* \"#utility.yul\":4858:4864   */\n      0x00\n        /* \"#utility.yul\":4907:4909   */\n      0x20\n        /* \"#utility.yul\":4895:4904   */\n      dup3\n        /* \"#utility.yul\":4886:4893   */\n      dup5\n        /* \"#utility.yul\":4882:4905   */\n      sub\n        /* \"#utility.yul\":4878:4910   */\n      slt\n        /* \"#utility.yul\":4875:4994   */\n      iszero\n      tag_453\n      jumpi\n        /* \"#utility.yul\":4913:4992   */\n      tag_454\n      tag_306\n      jump\t// in\n    tag_454:\n        /* \"#utility.yul\":4875:4994   */\n    tag_453:\n        /* \"#utility.yul\":5033:5034   */\n      0x00\n        /* \"#utility.yul\":5058:5110   */\n      tag_455\n        /* \"#utility.yul\":5102:5109   */\n      dup5\n        /* \"#utility.yul\":5093:5099   */\n      dup3\n        /* \"#utility.yul\":5082:5091   */\n      dup6\n        /* \"#utility.yul\":5078:5100   */\n      add\n        /* \"#utility.yul\":5058:5110   */\n      tag_325\n      jump\t// in\n    tag_455:\n        /* \"#utility.yul\":5048:5110   */\n      swap2\n      pop\n        /* \"#utility.yul\":5004:5120   */\n      pop\n        /* \"#utility.yul\":4800:5127   */\n      swap3\n      swap2\n      pop\n      pop\n      jump\t// out\n        /* \"#utility.yul\":5133:5226   */\n    tag_326:\n        /* \"#utility.yul\":5169:5176   */\n      0x00\n        /* \"#utility.yul\":5209:5219   */\n      0xffffffff\n        /* \"#utility.yul\":5202:5207   */\n      dup3\n        /* \"#utility.yul\":5198:5220   */\n      and\n        /* \"#utility.yul\":5187:5220   */\n      swap1\n      pop\n        /* \"#utility.yul\":5133:5226   */\n      swap2\n      swap1\n      pop\n      jump\t// out\n        /* \"#utility.yul\":5232:5352   */\n    tag_327:\n        /* \"#utility.yul\":5304:5327   */\n      tag_458\n        /* \"#utility.yul\":5321:5326   */\n      dup2\n        /* \"#utility.yul\":5304:5327   */\n      tag_326\n      jump\t// in\n    tag_458:\n        /* \"#utility.yul\":5297:5302   */\n      dup2\n        /* \"#utility.yul\":5294:5328   */\n      eq\n        /* \"#utility.yul\":5284:5346   */\n      tag_459\n      jumpi\n        /* \"#utility.yul\":5342:5343   */\n      0x00\n        /* \"#utility.yul\":5339:5340   */\n      dup1\n        /* \"#utility.yul\":5332:5344   */\n      revert\n        /* \"#utility.yul\":5284:5346   */\n    tag_459:\n        /* \"#utility.yul\":5232:5352   */\n      pop\n      jump\t// out\n        /* \"#utility.yul\":5358:5495   */\n    tag_328:\n        /* \"#utility.yul\":5403:5408   */\n      0x00\n        /* \"#utility.yul\":5441:5447   */\n      dup2\n        /* \"#utility.yul\":5428:5448   */\n      calldataload\n        /* \"#utility.yul\":5419:5448   */\n      swap1\n      pop\n        /* \"#utility.yul\":5457:5489   */\n      tag_461\n        /* \"#utility.yul\":5483:5488   */\n      dup2\n        /* \"#utility.yul\":5457:5489   */\n      tag_327\n      jump\t// in\n    tag_461:\n        /* \"#utility.yul\":5358:5495   */\n      swap3\n      swap2\n      pop\n      pop\n      jump\t// out\n        /* \"#utility.yul\":5501:5973   */\n    tag_42:\n        /* \"#utility.yul\":5568:5574   */\n      0x00\n        /* \"#utility.yul\":5576:5582   */\n      dup1\n        /* \"#utility.yul\":5625:5627   */\n      0x40\n        /* \"#utility.yul\":5613:5622   */\n      dup4\n        /* \"#utility.yul\":5604:5611   */\n      dup6\n        /* \"#utility.yul\":5600:5623   */\n      sub\n        /* \"#utility.yul\":5596:5628   */\n      slt\n        /* \"#utility.yul\":5593:5712   */\n      iszero\n      tag_463\n      jumpi\n        /* \"#utility.yul\":5631:5710   */\n      tag_464\n      tag_306\n      jump\t// in\n    tag_464:\n        /* \"#utility.yul\":5593:5712   */\n    tag_463:\n        /* \"#utility.yul\":5751:5752   */\n      0x00\n        /* \"#utility.yul\":5776:5828   */\n      tag_465\n        /* \"#utility.yul\":5820:5827   */\n      dup6\n        /* \"#utility.yul\":5811:5817   */\n      dup3\n        /* \"#utility.yul\":5800:5809   */\n      dup7\n        /* \"#utility.yul\":5796:5818   */\n      add\n        /* \"#utility.yul\":5776:5828   */\n      tag_328\n      jump\t// in\n    tag_465:\n        /* \"#utility.yul\":5766:5828   */\n      swap3\n      pop\n        /* \"#utility.yul\":5722:5838   */\n      pop\n        /* \"#utility.yul\":5877:5879   */\n      0x20\n        /* \"#utility.yul\":5903:5956   */\n      tag_466\n        /* \"#utility.yul\":5948:5955   */\n      dup6\n        /* \"#utility.yul\":5939:5945   */\n      dup3\n        /* \"#utility.yul\":5928:5937   */\n      dup7\n        /* \"#utility.yul\":5924:5946   */\n      add\n        /* \"#utility.yul\":5903:5956   */\n      tag_312\n      jump\t// in\n    tag_466:\n        /* \"#utility.yul\":5893:5956   */\n      swap2\n      pop\n        /* \"#utility.yul\":5848:5966   */\n      pop\n        /* \"#utility.yul\":5501:5973   */\n      swap3\n      pop\n      swap3\n      swap1\n      pop\n      jump\t// out\n        /* \"#utility.yul\":5979:6039   */\n    tag_329:\n        /* \"#utility.yul\":6007:6010   */\n      0x00\n        /* \"#utility.yul\":6028:6033   */\n      dup2\n        /* \"#utility.yul\":6021:6033   */\n      swap1\n      pop\n        /* \"#utility.yul\":5979:6039   */\n      swap2\n      swap1\n      pop\n      jump\t// out\n        /* \"#utility.yul\":6045:6187   */\n    tag_330:\n        /* \"#utility.yul\":6095:6104   */\n      0x00\n        /* \"#utility.yul\":6128:6181   */\n      tag_469\n        /* \"#utility.yul\":6146:6180   */\n      tag_470\n        /* \"#utility.yul\":6155:6179   */\n      tag_471\n        /* \"#utility.yul\":6173:6178   */\n      dup5\n        /* \"#utility.yul\":6155:6179   */\n      tag_317\n      jump\t// in\n    tag_471:\n        /* \"#utility.yul\":6146:6180   */\n      tag_329\n      jump\t// in\n    tag_470:\n        /* \"#utility.yul\":6128:6181   */\n      tag_317\n      jump\t// in\n    tag_469:\n        /* \"#utility.yul\":6115:6181   */\n      swap1\n      pop\n        /* \"#utility.yul\":6045:6187   */\n      swap2\n      swap1\n      pop\n      jump\t// out\n        /* \"#utility.yul\":6193:6319   */\n    tag_331:\n        /* \"#utility.yul\":6243:6252   */\n      0x00\n        /* \"#utility.yul\":6276:6313   */\n      tag_473\n        /* \"#utility.yul\":6307:6312   */\n      dup3\n        /* \"#utility.yul\":6276:6313   */\n      tag_330\n      jump\t// in\n    tag_473:\n        /* \"#utility.yul\":6263:6313   */\n      swap1\n      pop\n        /* \"#utility.yul\":6193:6319   */\n      swap2\n      swap1\n      pop\n      jump\t// out\n        /* \"#utility.yul\":6325:6479   */\n    tag_332:\n        /* \"#utility.yul\":6403:6412   */\n      0x00\n        /* \"#utility.yul\":6436:6473   */\n      tag_475\n        /* \"#utility.yul\":6467:6472   */\n      dup3\n        /* \"#utility.yul\":6436:6473   */\n      tag_331\n      jump\t// in\n    tag_475:\n        /* \"#utility.yul\":6423:6473   */\n      swap1\n      pop\n        /* \"#utility.yul\":6325:6479   */\n      swap2\n      swap1\n      pop\n      jump\t// out\n        /* \"#utility.yul\":6485:6672   */\n    tag_333:\n        /* \"#utility.yul\":6600:6665   */\n      tag_477\n        /* \"#utility.yul\":6659:6664   */\n      dup2\n        /* \"#utility.yul\":6600:6665   */\n      tag_332\n      jump\t// in\n    tag_477:\n        /* \"#utility.yul\":6595:6598   */\n      dup3\n        /* \"#utility.yul\":6588:6666   */\n      mstore\n        /* \"#utility.yul\":6485:6672   */\n      pop\n      pop\n      jump\t// out\n        /* \"#utility.yul\":6678:6956   */\n    tag_51:\n        /* \"#utility.yul\":6799:6803   */\n      0x00\n        /* \"#utility.yul\":6837:6839   */\n      0x20\n        /* \"#utility.yul\":6826:6835   */\n      dup3\n        /* \"#utility.yul\":6822:6840   */\n      add\n        /* \"#utility.yul\":6814:6840   */\n      swap1\n      pop\n        /* \"#utility.yul\":6850:6949   */\n      tag_479\n        /* \"#utility.yul\":6946:6947   */\n      0x00\n        /* \"#utility.yul\":6935:6944   */\n      dup4\n        /* \"#utility.yul\":6931:6948   */\n      add\n        /* \"#utility.yul\":6922:6928   */\n      dup5\n        /* \"#utility.yul\":6850:6949   */\n      tag_333\n      jump\t// in\n    tag_479:\n        /* \"#utility.yul\":6678:6956   */\n      swap3\n      swap2\n      pop\n      pop\n      jump\t// out\n        /* \"#utility.yul\":6976:7529   */\n    tag_334:\n        /* \"#utility.yul\":7034:7042   */\n      0x00\n        /* \"#utility.yul\":7044:7050   */\n      dup1\n        /* \"#utility.yul\":7094:7097   */\n      dup4\n        /* \"#utility.yul\":7087:7091   */\n      0x1f\n        /* \"#utility.yul\":7079:7085   */\n      dup5\n        /* \"#utility.yul\":7075:7092   */\n      add\n        /* \"#utility.yul\":7071:7098   */\n      slt\n        /* \"#utility.yul\":7061:7183   */\n      tag_481\n      jumpi\n        /* \"#utility.yul\":7102:7181   */\n      tag_482\n      tag_313\n      jump\t// in\n    tag_482:\n        /* \"#utility.yul\":7061:7183   */\n    tag_481:\n        /* \"#utility.yul\":7215:7221   */\n      dup3\n        /* \"#utility.yul\":7202:7222   */\n      calldataload\n        /* \"#utility.yul\":7192:7222   */\n      swap1\n      pop\n        /* \"#utility.yul\":7245:7263   */\n      0xffffffffffffffff\n        /* \"#utility.yul\":7237:7243   */\n      dup2\n        /* \"#utility.yul\":7234:7264   */\n      gt\n        /* \"#utility.yul\":7231:7348   */\n      iszero\n      tag_483\n      jumpi\n        /* \"#utility.yul\":7267:7346   */\n      tag_484\n      tag_314\n      jump\t// in\n    tag_484:\n        /* \"#utility.yul\":7231:7348   */\n    tag_483:\n        /* \"#utility.yul\":7381:7385   */\n      0x20\n        /* \"#utility.yul\":7373:7379   */\n      dup4\n        /* \"#utility.yul\":7369:7386   */\n      add\n        /* \"#utility.yul\":7357:7386   */\n      swap2\n      pop\n        /* \"#utility.yul\":7435:7438   */\n      dup4\n        /* \"#utility.yul\":7427:7431   */\n      0x01\n        /* \"#utility.yul\":7419:7425   */\n      dup3\n        /* \"#utility.yul\":7415:7432   */\n      mul\n        /* \"#utility.yul\":7405:7413   */\n      dup4\n        /* \"#utility.yul\":7401:7433   */\n      add\n        /* \"#utility.yul\":7398:7439   */\n      gt\n        /* \"#utility.yul\":7395:7523   */\n      iszero\n      tag_485\n      jumpi\n        /* \"#utility.yul\":7442:7521   */\n      tag_486\n      tag_315\n      jump\t// in\n    tag_486:\n        /* \"#utility.yul\":7395:7523   */\n    tag_485:\n        /* \"#utility.yul\":6976:7529   */\n      swap3\n      pop\n      swap3\n      swap1\n      pop\n      jump\t// out\n        /* \"#utility.yul\":7535:7612   */\n    tag_335:\n        /* \"#utility.yul\":7572:7579   */\n      0x00\n        /* \"#utility.yul\":7601:7606   */\n      dup2\n        /* \"#utility.yul\":7590:7606   */\n      swap1\n      pop\n        /* \"#utility.yul\":7535:7612   */\n      swap2\n      swap1\n      pop\n      jump\t// out\n        /* \"#utility.yul\":7618:7740   */\n    tag_336:\n        /* \"#utility.yul\":7691:7715   */\n      tag_489\n        /* \"#utility.yul\":7709:7714   */\n      dup2\n        /* \"#utility.yul\":7691:7715   */\n      tag_335\n      jump\t// in\n    tag_489:\n        /* \"#utility.yul\":7684:7689   */\n      dup2\n        /* \"#utility.yul\":7681:7716   */\n      eq\n        /* \"#utility.yul\":7671:7734   */\n      tag_490\n      jumpi\n        /* \"#utility.yul\":7730:7731   */\n      0x00\n        /* \"#utility.yul\":7727:7728   */\n      dup1\n        /* \"#utility.yul\":7720:7732   */\n      revert\n        /* \"#utility.yul\":7671:7734   */\n    tag_490:\n        /* \"#utility.yul\":7618:7740   */\n      pop\n      jump\t// out\n        /* \"#utility.yul\":7746:7885   */\n    tag_337:\n        /* \"#utility.yul\":7792:7797   */\n      0x00\n        /* \"#utility.yul\":7830:7836   */\n      dup2\n        /* \"#utility.yul\":7817:7837   */\n      calldataload\n        /* \"#utility.yul\":7808:7837   */\n      swap1\n      pop\n        /* \"#utility.yul\":7846:7879   */\n      tag_492\n        /* \"#utility.yul\":7873:7878   */\n      dup2\n        /* \"#utility.yul\":7846:7879   */\n      tag_336\n      jump\t// in\n    tag_492:\n        /* \"#utility.yul\":7746:7885   */\n      swap3\n      swap2\n      pop\n      pop\n      jump\t// out\n        /* \"#utility.yul\":7891:9198   */\n    tag_54:\n        /* \"#utility.yul\":8008:8014   */\n      0x00\n        /* \"#utility.yul\":8016:8022   */\n      dup1\n        /* \"#utility.yul\":8024:8030   */\n      0x00\n        /* \"#utility.yul\":8032:8038   */\n      dup1\n        /* \"#utility.yul\":8040:8046   */\n      0x00\n        /* \"#utility.yul\":8048:8054   */\n      dup1\n        /* \"#utility.yul\":8056:8062   */\n      0x00\n        /* \"#utility.yul\":8105:8108   */\n      0xa0\n        /* \"#utility.yul\":8093:8102   */\n      dup9\n        /* \"#utility.yul\":8084:8091   */\n      dup11\n        /* \"#utility.yul\":8080:8103   */\n      sub\n        /* \"#utility.yul\":8076:8109   */\n      slt\n        /* \"#utility.yul\":8073:8193   */\n      iszero\n      tag_494\n      jumpi\n        /* \"#utility.yul\":8112:8191   */\n      tag_495\n      tag_306\n      jump\t// in\n    tag_495:\n        /* \"#utility.yul\":8073:8193   */\n    tag_494:\n        /* \"#utility.yul\":8260:8261   */\n      0x00\n        /* \"#utility.yul\":8249:8258   */\n      dup9\n        /* \"#utility.yul\":8245:8262   */\n      add\n        /* \"#utility.yul\":8232:8263   */\n      calldataload\n        /* \"#utility.yul\":8290:8308   */\n      0xffffffffffffffff\n        /* \"#utility.yul\":8282:8288   */\n      dup2\n        /* \"#utility.yul\":8279:8309   */\n      gt\n        /* \"#utility.yul\":8276:8393   */\n      iszero\n      tag_496\n      jumpi\n        /* \"#utility.yul\":8312:8391   */\n      tag_497\n      tag_307\n      jump\t// in\n    tag_497:\n        /* \"#utility.yul\":8276:8393   */\n    tag_496:\n        /* \"#utility.yul\":8425:8490   */\n      tag_498\n        /* \"#utility.yul\":8482:8489   */\n      dup11\n        /* \"#utility.yul\":8473:8479   */\n      dup3\n        /* \"#utility.yul\":8462:8471   */\n      dup12\n        /* \"#utility.yul\":8458:8480   */\n      add\n        /* \"#utility.yul\":8425:8490   */\n      tag_334\n      jump\t// in\n    tag_498:\n        /* \"#utility.yul\":8407:8490   */\n      swap8\n      pop\n      swap8\n      pop\n        /* \"#utility.yul\":8203:8500   */\n      pop\n        /* \"#utility.yul\":8539:8541   */\n      0x20\n        /* \"#utility.yul\":8565:8618   */\n      tag_499\n        /* \"#utility.yul\":8610:8617   */\n      dup11\n        /* \"#utility.yul\":8601:8607   */\n      dup3\n        /* \"#utility.yul\":8590:8599   */\n      dup12\n        /* \"#utility.yul\":8586:8608   */\n      add\n        /* \"#utility.yul\":8565:8618   */\n      tag_337\n      jump\t// in\n    tag_499:\n        /* \"#utility.yul\":8555:8618   */\n      swap6\n      pop\n        /* \"#utility.yul\":8510:8628   */\n      pop\n        /* \"#utility.yul\":8667:8669   */\n      0x40\n        /* \"#utility.yul\":8693:8746   */\n      tag_500\n        /* \"#utility.yul\":8738:8745   */\n      dup11\n        /* \"#utility.yul\":8729:8735   */\n      dup3\n        /* \"#utility.yul\":8718:8727   */\n      dup12\n        /* \"#utility.yul\":8714:8736   */\n      add\n        /* \"#utility.yul\":8693:8746   */\n      tag_320\n      jump\t// in\n    tag_500:\n        /* \"#utility.yul\":8683:8746   */\n      swap5\n      pop\n        /* \"#utility.yul\":8638:8756   */\n      pop\n        /* \"#utility.yul\":8795:8797   */\n      0x60\n        /* \"#utility.yul\":8821:8873   */\n      tag_501\n        /* \"#utility.yul\":8865:8872   */\n      dup11\n        /* \"#utility.yul\":8856:8862   */\n      dup3\n        /* \"#utility.yul\":8845:8854   */\n      dup12\n        /* \"#utility.yul\":8841:8863   */\n      add\n        /* \"#utility.yul\":8821:8873   */\n      tag_325\n      jump\t// in\n    tag_501:\n        /* \"#utility.yul\":8811:8873   */\n      swap4\n      pop\n        /* \"#utility.yul\":8766:8883   */\n      pop\n        /* \"#utility.yul\":8950:8953   */\n      0x80\n        /* \"#utility.yul\":8939:8948   */\n      dup9\n        /* \"#utility.yul\":8935:8954   */\n      add\n        /* \"#utility.yul\":8922:8955   */\n      calldataload\n        /* \"#utility.yul\":8982:9000   */\n      0xffffffffffffffff\n        /* \"#utility.yul\":8974:8980   */\n      dup2\n        /* \"#utility.yul\":8971:9001   */\n      gt\n        /* \"#utility.yul\":8968:9085   */\n      iszero\n      tag_502\n      jumpi\n        /* \"#utility.yul\":9004:9083   */\n      tag_503\n      tag_307\n      jump\t// in\n    tag_503:\n        /* \"#utility.yul\":8968:9085   */\n    tag_502:\n        /* \"#utility.yul\":9117:9181   */\n      tag_504\n        /* \"#utility.yul\":9173:9180   */\n      dup11\n        /* \"#utility.yul\":9164:9170   */\n      dup3\n        /* \"#utility.yul\":9153:9162   */\n      dup12\n        /* \"#utility.yul\":9149:9171   */\n      add\n        /* \"#utility.yul\":9117:9181   */\n      tag_316\n      jump\t// in\n    tag_504:\n        /* \"#utility.yul\":9099:9181   */\n      swap3\n      pop\n      swap3\n      pop\n        /* \"#utility.yul\":8893:9191   */\n      pop\n        /* \"#utility.yul\":7891:9198   */\n      swap3\n      swap6\n      swap9\n      swap2\n      swap5\n      swap8\n      pop\n      swap3\n      swap6\n      pop\n      jump\t// out\n        /* \"#utility.yul\":9204:9312   */\n    tag_338:\n        /* \"#utility.yul\":9281:9305   */\n      tag_506\n        /* \"#utility.yul\":9299:9304   */\n      dup2\n        /* \"#utility.yul\":9281:9305   */\n      tag_310\n      jump\t// in\n    tag_506:\n        /* \"#utility.yul\":9276:9279   */\n      dup3\n        /* \"#utility.yul\":9269:9306   */\n      mstore\n        /* \"#utility.yul\":9204:9312   */\n      pop\n      pop\n      jump\t// out\n        /* \"#utility.yul\":9318:9423   */\n    tag_339:\n        /* \"#utility.yul\":9393:9416   */\n      tag_508\n        /* \"#utility.yul\":9410:9415   */\n      dup2\n        /* \"#utility.yul\":9393:9416   */\n      tag_321\n      jump\t// in\n    tag_508:\n        /* \"#utility.yul\":9388:9391   */\n      dup3\n        /* \"#utility.yul\":9381:9417   */\n      mstore\n        /* \"#utility.yul\":9318:9423   */\n      pop\n      pop\n      jump\t// out\n        /* \"#utility.yul\":9429:9537   */\n    tag_340:\n        /* \"#utility.yul\":9506:9530   */\n      tag_510\n        /* \"#utility.yul\":9524:9529   */\n      dup2\n        /* \"#utility.yul\":9506:9530   */\n      tag_335\n      jump\t// in\n    tag_510:\n        /* \"#utility.yul\":9501:9504   */\n      dup3\n        /* \"#utility.yul\":9494:9531   */\n      mstore\n        /* \"#utility.yul\":9429:9537   */\n      pop\n      pop\n      jump\t// out\n        /* \"#utility.yul\":9593:10107   */\n    tag_341:\n        /* \"#utility.yul\":9736:9740   */\n      0x40\n        /* \"#utility.yul\":9731:9734   */\n      dup3\n        /* \"#utility.yul\":9727:9741   */\n      add\n        /* \"#utility.yul\":9828:9832   */\n      0x00\n        /* \"#utility.yul\":9821:9826   */\n      dup3\n        /* \"#utility.yul\":9817:9833   */\n      add\n        /* \"#utility.yul\":9811:9834   */\n      mload\n        /* \"#utility.yul\":9847:9910   */\n      tag_512\n        /* \"#utility.yul\":9904:9908   */\n      0x00\n        /* \"#utility.yul\":9899:9902   */\n      dup6\n        /* \"#utility.yul\":9895:9909   */\n      add\n        /* \"#utility.yul\":9881:9893   */\n      dup3\n        /* \"#utility.yul\":9847:9910   */\n      tag_340\n      jump\t// in\n    tag_512:\n        /* \"#utility.yul\":9751:9920   */\n      pop\n        /* \"#utility.yul\":10008:10012   */\n      0x20\n        /* \"#utility.yul\":10001:10006   */\n      dup3\n        /* \"#utility.yul\":9997:10013   */\n      add\n        /* \"#utility.yul\":9991:10014   */\n      mload\n        /* \"#utility.yul\":10027:10090   */\n      tag_513\n        /* \"#utility.yul\":10084:10088   */\n      0x20\n        /* \"#utility.yul\":10079:10082   */\n      dup6\n        /* \"#utility.yul\":10075:10089   */\n      add\n        /* \"#utility.yul\":10061:10073   */\n      dup3\n        /* \"#utility.yul\":10027:10090   */\n      tag_340\n      jump\t// in\n    tag_513:\n        /* \"#utility.yul\":9930:10100   */\n      pop\n        /* \"#utility.yul\":9705:10107   */\n      pop\n        /* \"#utility.yul\":9593:10107   */\n      pop\n      pop\n      jump\t// out\n        /* \"#utility.yul\":10171:10920   */\n    tag_342:\n        /* \"#utility.yul\":10332:10336   */\n      0x80\n        /* \"#utility.yul\":10327:10330   */\n      dup3\n        /* \"#utility.yul\":10323:10337   */\n      add\n        /* \"#utility.yul\":10419:10423   */\n      0x00\n        /* \"#utility.yul\":10412:10417   */\n      dup3\n        /* \"#utility.yul\":10408:10424   */\n      add\n        /* \"#utility.yul\":10402:10425   */\n      mload\n        /* \"#utility.yul\":10438:10501   */\n      tag_515\n        /* \"#utility.yul\":10495:10499   */\n      0x00\n        /* \"#utility.yul\":10490:10493   */\n      dup6\n        /* \"#utility.yul\":10486:10500   */\n      add\n        /* \"#utility.yul\":10472:10484   */\n      dup3\n        /* \"#utility.yul\":10438:10501   */\n      tag_338\n      jump\t// in\n    tag_515:\n        /* \"#utility.yul\":10347:10511   */\n      pop\n        /* \"#utility.yul\":10594:10598   */\n      0x20\n        /* \"#utility.yul\":10587:10592   */\n      dup3\n        /* \"#utility.yul\":10583:10599   */\n      add\n        /* \"#utility.yul\":10577:10600   */\n      mload\n        /* \"#utility.yul\":10613:10674   */\n      tag_516\n        /* \"#utility.yul\":10668:10672   */\n      0x20\n        /* \"#utility.yul\":10663:10666   */\n      dup6\n        /* \"#utility.yul\":10659:10673   */\n      add\n        /* \"#utility.yul\":10645:10657   */\n      dup3\n        /* \"#utility.yul\":10613:10674   */\n      tag_339\n      jump\t// in\n    tag_516:\n        /* \"#utility.yul\":10521:10684   */\n      pop\n        /* \"#utility.yul\":10765:10769   */\n      0x40\n        /* \"#utility.yul\":10758:10763   */\n      dup3\n        /* \"#utility.yul\":10754:10770   */\n      add\n        /* \"#utility.yul\":10748:10771   */\n      mload\n        /* \"#utility.yul\":10784:10903   */\n      tag_517\n        /* \"#utility.yul\":10897:10901   */\n      0x40\n        /* \"#utility.yul\":10892:10895   */\n      dup6\n        /* \"#utility.yul\":10888:10902   */\n      add\n        /* \"#utility.yul\":10874:10886   */\n      dup3\n        /* \"#utility.yul\":10784:10903   */\n      tag_341\n      jump\t// in\n    tag_517:\n        /* \"#utility.yul\":10694:10913   */\n      pop\n        /* \"#utility.yul\":10301:10920   */\n      pop\n        /* \"#utility.yul\":10171:10920   */\n      pop\n      pop\n      jump\t// out\n        /* \"#utility.yul\":10926:11277   */\n    tag_57:\n        /* \"#utility.yul\":11083:11087   */\n      0x00\n        /* \"#utility.yul\":11121:11124   */\n      0x80\n        /* \"#utility.yul\":11110:11119   */\n      dup3\n        /* \"#utility.yul\":11106:11125   */\n      add\n        /* \"#utility.yul\":11098:11125   */\n      swap1\n      pop\n        /* \"#utility.yul\":11135:11270   */\n      tag_519\n        /* \"#utility.yul\":11267:11268   */\n      0x00\n        /* \"#utility.yul\":11256:11265   */\n      dup4\n        /* \"#utility.yul\":11252:11269   */\n      add\n        /* \"#utility.yul\":11243:11249   */\n      dup5\n        /* \"#utility.yul\":11135:11270   */\n      tag_342\n      jump\t// in\n    tag_519:\n        /* \"#utility.yul\":10926:11277   */\n      swap3\n      swap2\n      pop\n      pop\n      jump\t// out\n        /* \"#utility.yul\":11283:11501   */\n    tag_66:\n        /* \"#utility.yul\":11374:11378   */\n      0x00\n        /* \"#utility.yul\":11412:11414   */\n      0x20\n        /* \"#utility.yul\":11401:11410   */\n      dup3\n        /* \"#utility.yul\":11397:11415   */\n      add\n        /* \"#utility.yul\":11389:11415   */\n      swap1\n      pop\n        /* \"#utility.yul\":11425:11494   */\n      tag_521\n        /* \"#utility.yul\":11491:11492   */\n      0x00\n        /* \"#utility.yul\":11480:11489   */\n      dup4\n        /* \"#utility.yul\":11476:11493   */\n      add\n        /* \"#utility.yul\":11467:11473   */\n      dup5\n        /* \"#utility.yul\":11425:11494   */\n      tag_322\n      jump\t// in\n    tag_521:\n        /* \"#utility.yul\":11283:11501   */\n      swap3\n      swap2\n      pop\n      pop\n      jump\t// out\n        /* \"#utility.yul\":11507:12374   */\n    tag_70:\n        /* \"#utility.yul\":11619:11625   */\n      0x00\n        /* \"#utility.yul\":11627:11633   */\n      dup1\n        /* \"#utility.yul\":11635:11641   */\n      0x00\n        /* \"#utility.yul\":11643:11649   */\n      dup1\n        /* \"#utility.yul\":11692:11695   */\n      0xa0\n        /* \"#utility.yul\":11680:11689   */\n      dup6\n        /* \"#utility.yul\":11671:11678   */\n      dup8\n        /* \"#utility.yul\":11667:11690   */\n      sub\n        /* \"#utility.yul\":11663:11696   */\n      slt\n        /* \"#utility.yul\":11660:11780   */\n      iszero\n      tag_523\n      jumpi\n        /* \"#utility.yul\":11699:11778   */\n      tag_524\n      tag_306\n      jump\t// in\n    tag_524:\n        /* \"#utility.yul\":11660:11780   */\n    tag_523:\n        /* \"#utility.yul\":11819:11820   */\n      0x00\n        /* \"#utility.yul\":11844:11921   */\n      tag_525\n        /* \"#utility.yul\":11913:11920   */\n      dup8\n        /* \"#utility.yul\":11904:11910   */\n      dup3\n        /* \"#utility.yul\":11893:11902   */\n      dup9\n        /* \"#utility.yul\":11889:11911   */\n      add\n        /* \"#utility.yul\":11844:11921   */\n      tag_309\n      jump\t// in\n    tag_525:\n        /* \"#utility.yul\":11834:11921   */\n      swap5\n      pop\n        /* \"#utility.yul\":11790:11931   */\n      pop\n        /* \"#utility.yul\":11998:12000   */\n      0x60\n        /* \"#utility.yul\":11987:11996   */\n      dup6\n        /* \"#utility.yul\":11983:12001   */\n      add\n        /* \"#utility.yul\":11970:12002   */\n      calldataload\n        /* \"#utility.yul\":12029:12047   */\n      0xffffffffffffffff\n        /* \"#utility.yul\":12021:12027   */\n      dup2\n        /* \"#utility.yul\":12018:12048   */\n      gt\n        /* \"#utility.yul\":12015:12132   */\n      iszero\n      tag_526\n      jumpi\n        /* \"#utility.yul\":12051:12130   */\n      tag_527\n      tag_307\n      jump\t// in\n    tag_527:\n        /* \"#utility.yul\":12015:12132   */\n    tag_526:\n        /* \"#utility.yul\":12164:12228   */\n      tag_528\n        /* \"#utility.yul\":12220:12227   */\n      dup8\n        /* \"#utility.yul\":12211:12217   */\n      dup3\n        /* \"#utility.yul\":12200:12209   */\n      dup9\n        /* \"#utility.yul\":12196:12218   */\n      add\n        /* \"#utility.yul\":12164:12228   */\n      tag_316\n      jump\t// in\n    tag_528:\n        /* \"#utility.yul\":12146:12228   */\n      swap4\n      pop\n      swap4\n      pop\n        /* \"#utility.yul\":11941:12238   */\n      pop\n        /* \"#utility.yul\":12277:12280   */\n      0x80\n        /* \"#utility.yul\":12304:12357   */\n      tag_529\n        /* \"#utility.yul\":12349:12356   */\n      dup8\n        /* \"#utility.yul\":12340:12346   */\n      dup3\n        /* \"#utility.yul\":12329:12338   */\n      dup9\n        /* \"#utility.yul\":12325:12347   */\n      add\n        /* \"#utility.yul\":12304:12357   */\n      tag_320\n      jump\t// in\n    tag_529:\n        /* \"#utility.yul\":12294:12357   */\n      swap2\n      pop\n        /* \"#utility.yul\":12248:12367   */\n      pop\n        /* \"#utility.yul\":11507:12374   */\n      swap3\n      swap6\n      swap2\n      swap5\n      pop\n      swap3\n      pop\n      jump\t// out\n        /* \"#utility.yul\":12380:12470   */\n    tag_343:\n        /* \"#utility.yul\":12414:12421   */\n      0x00\n        /* \"#utility.yul\":12457:12462   */\n      dup2\n        /* \"#utility.yul\":12450:12463   */\n      iszero\n        /* \"#utility.yul\":12443:12464   */\n      iszero\n        /* \"#utility.yul\":12432:12464   */\n      swap1\n      pop\n        /* \"#utility.yul\":12380:12470   */\n      swap2\n      swap1\n      pop\n      jump\t// out\n        /* \"#utility.yul\":12476:12585   */\n    tag_344:\n        /* \"#utility.yul\":12557:12578   */\n      tag_532\n        /* \"#utility.yul\":12572:12577   */\n      dup2\n        /* \"#utility.yul\":12557:12578   */\n      tag_343\n      jump\t// in\n    tag_532:\n        /* \"#utility.yul\":12552:12555   */\n      dup3\n        /* \"#utility.yul\":12545:12579   */\n      mstore\n        /* \"#utility.yul\":12476:12585   */\n      pop\n      pop\n      jump\t// out\n        /* \"#utility.yul\":12591:12801   */\n    tag_73:\n        /* \"#utility.yul\":12678:12682   */\n      0x00\n        /* \"#utility.yul\":12716:12718   */\n      0x20\n        /* \"#utility.yul\":12705:12714   */\n      dup3\n        /* \"#utility.yul\":12701:12719   */\n      add\n        /* \"#utility.yul\":12693:12719   */\n      swap1\n      pop\n        /* \"#utility.yul\":12729:12794   */\n      tag_534\n        /* \"#utility.yul\":12791:12792   */\n      0x00\n        /* \"#utility.yul\":12780:12789   */\n      dup4\n        /* \"#utility.yul\":12776:12793   */\n      add\n        /* \"#utility.yul\":12767:12773   */\n      dup5\n        /* \"#utility.yul\":12729:12794   */\n      tag_344\n      jump\t// in\n    tag_534:\n        /* \"#utility.yul\":12591:12801   */\n      swap3\n      swap2\n      pop\n      pop\n      jump\t// out\n        /* \"#utility.yul\":12807:13281   */\n    tag_77:\n        /* \"#utility.yul\":12875:12881   */\n      0x00\n        /* \"#utility.yul\":12883:12889   */\n      dup1\n        /* \"#utility.yul\":12932:12934   */\n      0x40\n        /* \"#utility.yul\":12920:12929   */\n      dup4\n        /* \"#utility.yul\":12911:12918   */\n      dup6\n        /* \"#utility.yul\":12907:12930   */\n      sub\n        /* \"#utility.yul\":12903:12935   */\n      slt\n        /* \"#utility.yul\":12900:13019   */\n      iszero\n      tag_536\n      jumpi\n        /* \"#utility.yul\":12938:13017   */\n      tag_537\n      tag_306\n      jump\t// in\n    tag_537:\n        /* \"#utility.yul\":12900:13019   */\n    tag_536:\n        /* \"#utility.yul\":13058:13059   */\n      0x00\n        /* \"#utility.yul\":13083:13136   */\n      tag_538\n        /* \"#utility.yul\":13128:13135   */\n      dup6\n        /* \"#utility.yul\":13119:13125   */\n      dup3\n        /* \"#utility.yul\":13108:13117   */\n      dup7\n        /* \"#utility.yul\":13104:13126   */\n      add\n        /* \"#utility.yul\":13083:13136   */\n      tag_320\n      jump\t// in\n    tag_538:\n        /* \"#utility.yul\":13073:13136   */\n      swap3\n      pop\n        /* \"#utility.yul\":13029:13146   */\n      pop\n        /* \"#utility.yul\":13185:13187   */\n      0x20\n        /* \"#utility.yul\":13211:13264   */\n      tag_539\n        /* \"#utility.yul\":13256:13263   */\n      dup6\n        /* \"#utility.yul\":13247:13253   */\n      dup3\n        /* \"#utility.yul\":13236:13245   */\n      dup7\n        /* \"#utility.yul\":13232:13254   */\n      add\n        /* \"#utility.yul\":13211:13264   */\n      tag_337\n      jump\t// in\n    tag_539:\n        /* \"#utility.yul\":13201:13264   */\n      swap2\n      pop\n        /* \"#utility.yul\":13156:13274   */\n      pop\n        /* \"#utility.yul\":12807:13281   */\n      swap3\n      pop\n      swap3\n      swap1\n      pop\n      jump\t// out\n        /* \"#utility.yul\":13287:13404   */\n    tag_345:\n        /* \"#utility.yul\":13396:13397   */\n      0x00\n        /* \"#utility.yul\":13393:13394   */\n      dup1\n        /* \"#utility.yul\":13386:13398   */\n      revert\n        /* \"#utility.yul\":13410:13512   */\n    tag_346:\n        /* \"#utility.yul\":13451:13457   */\n      0x00\n        /* \"#utility.yul\":13502:13504   */\n      0x1f\n        /* \"#utility.yul\":13498:13505   */\n      not\n        /* \"#utility.yul\":13493:13495   */\n      0x1f\n        /* \"#utility.yul\":13486:13491   */\n      dup4\n        /* \"#utility.yul\":13482:13496   */\n      add\n        /* \"#utility.yul\":13478:13506   */\n      and\n        /* \"#utility.yul\":13468:13506   */\n      swap1\n      pop\n        /* \"#utility.yul\":13410:13512   */\n      swap2\n      swap1\n      pop\n      jump\t// out\n        /* \"#utility.yul\":13518:13698   */\n    tag_347:\n        /* \"#utility.yul\":13566:13643   */\n      0x4e487b7100000000000000000000000000000000000000000000000000000000\n        /* \"#utility.yul\":13563:13564   */\n      0x00\n        /* \"#utility.yul\":13556:13644   */\n      mstore\n        /* \"#utility.yul\":13663:13667   */\n      0x41\n        /* \"#utility.yul\":13660:13661   */\n      0x04\n        /* \"#utility.yul\":13653:13668   */\n      mstore\n        /* \"#utility.yul\":13687:13691   */\n      0x24\n        /* \"#utility.yul\":13684:13685   */\n      0x00\n        /* \"#utility.yul\":13677:13692   */\n      revert\n        /* \"#utility.yul\":13704:13985   */\n    tag_348:\n        /* \"#utility.yul\":13787:13814   */\n      tag_544\n        /* \"#utility.yul\":13809:13813   */\n      dup3\n        /* \"#utility.yul\":13787:13814   */\n      tag_346\n      jump\t// in\n    tag_544:\n        /* \"#utility.yul\":13779:13785   */\n      dup2\n        /* \"#utility.yul\":13775:13815   */\n      add\n        /* \"#utility.yul\":13917:13923   */\n      dup2\n        /* \"#utility.yul\":13905:13915   */\n      dup2\n        /* \"#utility.yul\":13902:13924   */\n      lt\n        /* \"#utility.yul\":13881:13899   */\n      0xffffffffffffffff\n        /* \"#utility.yul\":13869:13879   */\n      dup3\n        /* \"#utility.yul\":13866:13900   */\n      gt\n        /* \"#utility.yul\":13863:13925   */\n      or\n        /* \"#utility.yul\":13860:13948   */\n      iszero\n      tag_545\n      jumpi\n        /* \"#utility.yul\":13928:13946   */\n      tag_546\n      tag_347\n      jump\t// in\n    tag_546:\n        /* \"#utility.yul\":13860:13948   */\n    tag_545:\n        /* \"#utility.yul\":13968:13978   */\n      dup1\n        /* \"#utility.yul\":13964:13966   */\n      0x40\n        /* \"#utility.yul\":13957:13979   */\n      mstore\n        /* \"#utility.yul\":13747:13985   */\n      pop\n        /* \"#utility.yul\":13704:13985   */\n      pop\n      pop\n      jump\t// out\n        /* \"#utility.yul\":13991:14120   */\n    tag_349:\n        /* \"#utility.yul\":14025:14031   */\n      0x00\n        /* \"#utility.yul\":14052:14072   */\n      tag_548\n      tag_305\n      jump\t// in\n    tag_548:\n        /* \"#utility.yul\":14042:14072   */\n      swap1\n      pop\n        /* \"#utility.yul\":14081:14114   */\n      tag_549\n        /* \"#utility.yul\":14109:14113   */\n      dup3\n        /* \"#utility.yul\":14101:14107   */\n      dup3\n        /* \"#utility.yul\":14081:14114   */\n      tag_348\n      jump\t// in\n    tag_549:\n        /* \"#utility.yul\":13991:14120   */\n      swap2\n      swap1\n      pop\n      jump\t// out\n        /* \"#utility.yul\":14126:14434   */\n    tag_350:\n        /* \"#utility.yul\":14188:14192   */\n      0x00\n        /* \"#utility.yul\":14278:14296   */\n      0xffffffffffffffff\n        /* \"#utility.yul\":14270:14276   */\n      dup3\n        /* \"#utility.yul\":14267:14297   */\n      gt\n        /* \"#utility.yul\":14264:14320   */\n      iszero\n      tag_551\n      jumpi\n        /* \"#utility.yul\":14300:14318   */\n      tag_552\n      tag_347\n      jump\t// in\n    tag_552:\n        /* \"#utility.yul\":14264:14320   */\n    tag_551:\n        /* \"#utility.yul\":14338:14367   */\n      tag_553\n        /* \"#utility.yul\":14360:14366   */\n      dup3\n        /* \"#utility.yul\":14338:14367   */\n      tag_346\n      jump\t// in\n    tag_553:\n        /* \"#utility.yul\":14330:14367   */\n      swap1\n      pop\n        /* \"#utility.yul\":14422:14426   */\n      0x20\n        /* \"#utility.yul\":14416:14420   */\n      dup2\n        /* \"#utility.yul\":14412:14427   */\n      add\n        /* \"#utility.yul\":14404:14427   */\n      swap1\n      pop\n        /* \"#utility.yul\":14126:14434   */\n      swap2\n      swap1\n      pop\n      jump\t// out\n        /* \"#utility.yul\":14440:14588   */\n    tag_351:\n        /* \"#utility.yul\":14538:14544   */\n      dup3\n        /* \"#utility.yul\":14533:14536   */\n      dup2\n        /* \"#utility.yul\":14528:14531   */\n      dup4\n        /* \"#utility.yul\":14515:14545   */\n      calldatacopy\n        /* \"#utility.yul\":14579:14580   */\n      0x00\n        /* \"#utility.yul\":14570:14576   */\n      dup4\n        /* \"#utility.yul\":14565:14568   */\n      dup4\n        /* \"#utility.yul\":14561:14577   */\n      add\n        /* \"#utility.yul\":14554:14581   */\n      mstore\n        /* \"#utility.yul\":14440:14588   */\n      pop\n      pop\n      pop\n      jump\t// out\n        /* \"#utility.yul\":14594:15019   */\n    tag_352:\n        /* \"#utility.yul\":14672:14677   */\n      0x00\n        /* \"#utility.yul\":14697:14763   */\n      tag_556\n        /* \"#utility.yul\":14713:14762   */\n      tag_557\n        /* \"#utility.yul\":14755:14761   */\n      dup5\n        /* \"#utility.yul\":14713:14762   */\n      tag_350\n      jump\t// in\n    tag_557:\n        /* \"#utility.yul\":14697:14763   */\n      tag_349\n      jump\t// in\n    tag_556:\n        /* \"#utility.yul\":14688:14763   */\n      swap1\n      pop\n        /* \"#utility.yul\":14786:14792   */\n      dup3\n        /* \"#utility.yul\":14779:14784   */\n      dup2\n        /* \"#utility.yul\":14772:14793   */\n      mstore\n        /* \"#utility.yul\":14824:14828   */\n      0x20\n        /* \"#utility.yul\":14817:14822   */\n      dup2\n        /* \"#utility.yul\":14813:14829   */\n      add\n        /* \"#utility.yul\":14862:14865   */\n      dup5\n        /* \"#utility.yul\":14853:14859   */\n      dup5\n        /* \"#utility.yul\":14848:14851   */\n      dup5\n        /* \"#utility.yul\":14844:14860   */\n      add\n        /* \"#utility.yul\":14841:14866   */\n      gt\n        /* \"#utility.yul\":14838:14950   */\n      iszero\n      tag_558\n      jumpi\n        /* \"#utility.yul\":14869:14948   */\n      tag_559\n      tag_345\n      jump\t// in\n    tag_559:\n        /* \"#utility.yul\":14838:14950   */\n    tag_558:\n        /* \"#utility.yul\":14959:15013   */\n      tag_560\n        /* \"#utility.yul\":15006:15012   */\n      dup5\n        /* \"#utility.yul\":15001:15004   */\n      dup3\n        /* \"#utility.yul\":14996:14999   */\n      dup6\n        /* \"#utility.yul\":14959:15013   */\n      tag_351\n      jump\t// in\n    tag_560:\n        /* \"#utility.yul\":14678:15019   */\n      pop\n        /* \"#utility.yul\":14594:15019   */\n      swap4\n      swap3\n      pop\n      pop\n      pop\n      jump\t// out\n        /* \"#utility.yul\":15039:15379   */\n    tag_353:\n        /* \"#utility.yul\":15095:15100   */\n      0x00\n        /* \"#utility.yul\":15144:15147   */\n      dup3\n        /* \"#utility.yul\":15137:15141   */\n      0x1f\n        /* \"#utility.yul\":15129:15135   */\n      dup4\n        /* \"#utility.yul\":15125:15142   */\n      add\n        /* \"#utility.yul\":15121:15148   */\n      slt\n        /* \"#utility.yul\":15111:15233   */\n      tag_562\n      jumpi\n        /* \"#utility.yul\":15152:15231   */\n      tag_563\n      tag_313\n      jump\t// in\n    tag_563:\n        /* \"#utility.yul\":15111:15233   */\n    tag_562:\n        /* \"#utility.yul\":15269:15275   */\n      dup2\n        /* \"#utility.yul\":15256:15276   */\n      calldataload\n        /* \"#utility.yul\":15294:15373   */\n      tag_564\n        /* \"#utility.yul\":15369:15372   */\n      dup5\n        /* \"#utility.yul\":15361:15367   */\n      dup3\n        /* \"#utility.yul\":15354:15358   */\n      0x20\n        /* \"#utility.yul\":15346:15352   */\n      dup7\n        /* \"#utility.yul\":15342:15359   */\n      add\n        /* \"#utility.yul\":15294:15373   */\n      tag_352\n      jump\t// in\n    tag_564:\n        /* \"#utility.yul\":15285:15373   */\n      swap2\n      pop\n        /* \"#utility.yul\":15101:15379   */\n      pop\n        /* \"#utility.yul\":15039:15379   */\n      swap3\n      swap2\n      pop\n      pop\n      jump\t// out\n        /* \"#utility.yul\":15385:15894   */\n    tag_82:\n        /* \"#utility.yul\":15454:15460   */\n      0x00\n        /* \"#utility.yul\":15503:15505   */\n      0x20\n        /* \"#utility.yul\":15491:15500   */\n      dup3\n        /* \"#utility.yul\":15482:15489   */\n      dup5\n        /* \"#utility.yul\":15478:15501   */\n      sub\n        /* \"#utility.yul\":15474:15506   */\n      slt\n        /* \"#utility.yul\":15471:15590   */\n      iszero\n      tag_566\n      jumpi\n        /* \"#utility.yul\":15509:15588   */\n      tag_567\n      tag_306\n      jump\t// in\n    tag_567:\n        /* \"#utility.yul\":15471:15590   */\n    tag_566:\n        /* \"#utility.yul\":15657:15658   */\n      0x00\n        /* \"#utility.yul\":15646:15655   */\n      dup3\n        /* \"#utility.yul\":15642:15659   */\n      add\n        /* \"#utility.yul\":15629:15660   */\n      calldataload\n        /* \"#utility.yul\":15687:15705   */\n      0xffffffffffffffff\n        /* \"#utility.yul\":15679:15685   */\n      dup2\n        /* \"#utility.yul\":15676:15706   */\n      gt\n        /* \"#utility.yul\":15673:15790   */\n      iszero\n      tag_568\n      jumpi\n        /* \"#utility.yul\":15709:15788   */\n      tag_569\n      tag_307\n      jump\t// in\n    tag_569:\n        /* \"#utility.yul\":15673:15790   */\n    tag_568:\n        /* \"#utility.yul\":15814:15877   */\n      tag_570\n        /* \"#utility.yul\":15869:15876   */\n      dup5\n        /* \"#utility.yul\":15860:15866   */\n      dup3\n        /* \"#utility.yul\":15849:15858   */\n      dup6\n        /* \"#utility.yul\":15845:15867   */\n      add\n        /* \"#utility.yul\":15814:15877   */\n      tag_353\n      jump\t// in\n    tag_570:\n        /* \"#utility.yul\":15804:15877   */\n      swap2\n      pop\n        /* \"#utility.yul\":15600:15887   */\n      pop\n        /* \"#utility.yul\":15385:15894   */\n      swap3\n      swap2\n      pop\n      pop\n      jump\t// out\n        /* \"#utility.yul\":15900:16018   */\n    tag_354:\n        /* \"#utility.yul\":15987:16011   */\n      tag_572\n        /* \"#utility.yul\":16005:16010   */\n      dup2\n        /* \"#utility.yul\":15987:16011   */\n      tag_318\n      jump\t// in\n    tag_572:\n        /* \"#utility.yul\":15982:15985   */\n      dup3\n        /* \"#utility.yul\":15975:16012   */\n      mstore\n        /* \"#utility.yul\":15900:16018   */\n      pop\n      pop\n      jump\t// out\n        /* \"#utility.yul\":16024:16246   */\n    tag_85:\n        /* \"#utility.yul\":16117:16121   */\n      0x00\n        /* \"#utility.yul\":16155:16157   */\n      0x20\n        /* \"#utility.yul\":16144:16153   */\n      dup3\n        /* \"#utility.yul\":16140:16158   */\n      add\n        /* \"#utility.yul\":16132:16158   */\n      swap1\n      pop\n        /* \"#utility.yul\":16168:16239   */\n      tag_574\n        /* \"#utility.yul\":16236:16237   */\n      0x00\n        /* \"#utility.yul\":16225:16234   */\n      dup4\n        /* \"#utility.yul\":16221:16238   */\n      add\n        /* \"#utility.yul\":16212:16218   */\n      dup5\n        /* \"#utility.yul\":16168:16239   */\n      tag_354\n      jump\t// in\n    tag_574:\n        /* \"#utility.yul\":16024:16246   */\n      swap3\n      swap2\n      pop\n      pop\n      jump\t// out\n        /* \"#utility.yul\":16252:16781   */\n    tag_93:\n        /* \"#utility.yul\":16323:16329   */\n      0x00\n        /* \"#utility.yul\":16331:16337   */\n      dup1\n        /* \"#utility.yul\":16380:16382   */\n      0x20\n        /* \"#utility.yul\":16368:16377   */\n      dup4\n        /* \"#utility.yul\":16359:16366   */\n      dup6\n        /* \"#utility.yul\":16355:16378   */\n      sub\n        /* \"#utility.yul\":16351:16383   */\n      slt\n        /* \"#utility.yul\":16348:16467   */\n      iszero\n      tag_576\n      jumpi\n        /* \"#utility.yul\":16386:16465   */\n      tag_577\n      tag_306\n      jump\t// in\n    tag_577:\n        /* \"#utility.yul\":16348:16467   */\n    tag_576:\n        /* \"#utility.yul\":16534:16535   */\n      0x00\n        /* \"#utility.yul\":16523:16532   */\n      dup4\n        /* \"#utility.yul\":16519:16536   */\n      add\n        /* \"#utility.yul\":16506:16537   */\n      calldataload\n        /* \"#utility.yul\":16564:16582   */\n      0xffffffffffffffff\n        /* \"#utility.yul\":16556:16562   */\n      dup2\n        /* \"#utility.yul\":16553:16583   */\n      gt\n        /* \"#utility.yul\":16550:16667   */\n      iszero\n      tag_578\n      jumpi\n        /* \"#utility.yul\":16586:16665   */\n      tag_579\n      tag_307\n      jump\t// in\n    tag_579:\n        /* \"#utility.yul\":16550:16667   */\n    tag_578:\n        /* \"#utility.yul\":16699:16764   */\n      tag_580\n        /* \"#utility.yul\":16756:16763   */\n      dup6\n        /* \"#utility.yul\":16747:16753   */\n      dup3\n        /* \"#utility.yul\":16736:16745   */\n      dup7\n        /* \"#utility.yul\":16732:16754   */\n      add\n        /* \"#utility.yul\":16699:16764   */\n      tag_334\n      jump\t// in\n    tag_580:\n        /* \"#utility.yul\":16681:16764   */\n      swap3\n      pop\n      swap3\n      pop\n        /* \"#utility.yul\":16477:16774   */\n      pop\n        /* \"#utility.yul\":16252:16781   */\n      swap3\n      pop\n      swap3\n      swap1\n      pop\n      jump\t// out\n        /* \"#utility.yul\":16787:16902   */\n    tag_355:\n        /* \"#utility.yul\":16872:16895   */\n      tag_582\n        /* \"#utility.yul\":16889:16894   */\n      dup2\n        /* \"#utility.yul\":16872:16895   */\n      tag_323\n      jump\t// in\n    tag_582:\n        /* \"#utility.yul\":16867:16870   */\n      dup3\n        /* \"#utility.yul\":16860:16896   */\n      mstore\n        /* \"#utility.yul\":16787:16902   */\n      pop\n      pop\n      jump\t// out\n        /* \"#utility.yul\":16908:17126   */\n    tag_99:\n        /* \"#utility.yul\":16999:17003   */\n      0x00\n        /* \"#utility.yul\":17037:17039   */\n      0x20\n        /* \"#utility.yul\":17026:17035   */\n      dup3\n        /* \"#utility.yul\":17022:17040   */\n      add\n        /* \"#utility.yul\":17014:17040   */\n      swap1\n      pop\n        /* \"#utility.yul\":17050:17119   */\n      tag_584\n        /* \"#utility.yul\":17116:17117   */\n      0x00\n        /* \"#utility.yul\":17105:17114   */\n      dup4\n        /* \"#utility.yul\":17101:17118   */\n      add\n        /* \"#utility.yul\":17092:17098   */\n      dup5\n        /* \"#utility.yul\":17050:17119   */\n      tag_355\n      jump\t// in\n    tag_584:\n        /* \"#utility.yul\":16908:17126   */\n      swap3\n      swap2\n      pop\n      pop\n      jump\t// out\n        /* \"#utility.yul\":17132:17459   */\n    tag_103:\n        /* \"#utility.yul\":17190:17196   */\n      0x00\n        /* \"#utility.yul\":17239:17241   */\n      0x20\n        /* \"#utility.yul\":17227:17236   */\n      dup3\n        /* \"#utility.yul\":17218:17225   */\n      dup5\n        /* \"#utility.yul\":17214:17237   */\n      sub\n        /* \"#utility.yul\":17210:17242   */\n      slt\n        /* \"#utility.yul\":17207:17326   */\n      iszero\n      tag_586\n      jumpi\n        /* \"#utility.yul\":17245:17324   */\n      tag_587\n      tag_306\n      jump\t// in\n    tag_587:\n        /* \"#utility.yul\":17207:17326   */\n    tag_586:\n        /* \"#utility.yul\":17365:17366   */\n      0x00\n        /* \"#utility.yul\":17390:17442   */\n      tag_588\n        /* \"#utility.yul\":17434:17441   */\n      dup5\n        /* \"#utility.yul\":17425:17431   */\n      dup3\n        /* \"#utility.yul\":17414:17423   */\n      dup6\n        /* \"#utility.yul\":17410:17432   */\n      add\n        /* \"#utility.yul\":17390:17442   */\n      tag_328\n      jump\t// in\n    tag_588:\n        /* \"#utility.yul\":17380:17442   */\n      swap2\n      pop\n        /* \"#utility.yul\":17336:17452   */\n      pop\n        /* \"#utility.yul\":17132:17459   */\n      swap3\n      swap2\n      pop\n      pop\n      jump\t// out\n        /* \"#utility.yul\":17465:17583   */\n    tag_356:\n        /* \"#utility.yul\":17552:17576   */\n      tag_590\n        /* \"#utility.yul\":17570:17575   */\n      dup2\n        /* \"#utility.yul\":17552:17576   */\n      tag_310\n      jump\t// in\n    tag_590:\n        /* \"#utility.yul\":17547:17550   */\n      dup3\n        /* \"#utility.yul\":17540:17577   */\n      mstore\n        /* \"#utility.yul\":17465:17583   */\n      pop\n      pop\n      jump\t// out\n        /* \"#utility.yul\":17589:17811   */\n    tag_106:\n        /* \"#utility.yul\":17682:17686   */\n      0x00\n        /* \"#utility.yul\":17720:17722   */\n      0x20\n        /* \"#utility.yul\":17709:17718   */\n      dup3\n        /* \"#utility.yul\":17705:17723   */\n      add\n        /* \"#utility.yul\":17697:17723   */\n      swap1\n      pop\n        /* \"#utility.yul\":17733:17804   */\n      tag_592\n        /* \"#utility.yul\":17801:17802   */\n      0x00\n        /* \"#utility.yul\":17790:17799   */\n      dup4\n        /* \"#utility.yul\":17786:17803   */\n      add\n        /* \"#utility.yul\":17777:17783   */\n      dup5\n        /* \"#utility.yul\":17733:17804   */\n      tag_356\n      jump\t// in\n    tag_592:\n        /* \"#utility.yul\":17589:17811   */\n      swap3\n      swap2\n      pop\n      pop\n      jump\t// out\n        /* \"#utility.yul\":17817:18146   */\n    tag_110:\n        /* \"#utility.yul\":17876:17882   */\n      0x00\n        /* \"#utility.yul\":17925:17927   */\n      0x20\n        /* \"#utility.yul\":17913:17922   */\n      dup3\n        /* \"#utility.yul\":17904:17911   */\n      dup5\n        /* \"#utility.yul\":17900:17923   */\n      sub\n        /* \"#utility.yul\":17896:17928   */\n      slt\n        /* \"#utility.yul\":17893:18012   */\n      iszero\n      tag_594\n      jumpi\n        /* \"#utility.yul\":17931:18010   */\n      tag_595\n      tag_306\n      jump\t// in\n    tag_595:\n        /* \"#utility.yul\":17893:18012   */\n    tag_594:\n        /* \"#utility.yul\":18051:18052   */\n      0x00\n        /* \"#utility.yul\":18076:18129   */\n      tag_596\n        /* \"#utility.yul\":18121:18128   */\n      dup5\n        /* \"#utility.yul\":18112:18118   */\n      dup3\n        /* \"#utility.yul\":18101:18110   */\n      dup6\n        /* \"#utility.yul\":18097:18119   */\n      add\n        /* \"#utility.yul\":18076:18129   */\n      tag_320\n      jump\t// in\n    tag_596:\n        /* \"#utility.yul\":18066:18129   */\n      swap2\n      pop\n        /* \"#utility.yul\":18022:18139   */\n      pop\n        /* \"#utility.yul\":17817:18146   */\n      swap3\n      swap2\n      pop\n      pop\n      jump\t// out\n        /* \"#utility.yul\":18152:18826   */\n    tag_115:\n        /* \"#utility.yul\":18232:18238   */\n      0x00\n        /* \"#utility.yul\":18240:18246   */\n      dup1\n        /* \"#utility.yul\":18248:18254   */\n      0x00\n        /* \"#utility.yul\":18297:18299   */\n      0x40\n        /* \"#utility.yul\":18285:18294   */\n      dup5\n        /* \"#utility.yul\":18276:18283   */\n      dup7\n        /* \"#utility.yul\":18272:18295   */\n      sub\n        /* \"#utility.yul\":18268:18300   */\n      slt\n        /* \"#utility.yul\":18265:18384   */\n      iszero\n      tag_598\n      jumpi\n        /* \"#utility.yul\":18303:18382   */\n      tag_599\n      tag_306\n      jump\t// in\n    tag_599:\n        /* \"#utility.yul\":18265:18384   */\n    tag_598:\n        /* \"#utility.yul\":18451:18452   */\n      0x00\n        /* \"#utility.yul\":18440:18449   */\n      dup5\n        /* \"#utility.yul\":18436:18453   */\n      add\n        /* \"#utility.yul\":18423:18454   */\n      calldataload\n        /* \"#utility.yul\":18481:18499   */\n      0xffffffffffffffff\n        /* \"#utility.yul\":18473:18479   */\n      dup2\n        /* \"#utility.yul\":18470:18500   */\n      gt\n        /* \"#utility.yul\":18467:18584   */\n      iszero\n      tag_600\n      jumpi\n        /* \"#utility.yul\":18503:18582   */\n      tag_601\n      tag_307\n      jump\t// in\n    tag_601:\n        /* \"#utility.yul\":18467:18584   */\n    tag_600:\n        /* \"#utility.yul\":18616:18681   */\n      tag_602\n        /* \"#utility.yul\":18673:18680   */\n      dup7\n        /* \"#utility.yul\":18664:18670   */\n      dup3\n        /* \"#utility.yul\":18653:18662   */\n      dup8\n        /* \"#utility.yul\":18649:18671   */\n      add\n        /* \"#utility.yul\":18616:18681   */\n      tag_334\n      jump\t// in\n    tag_602:\n        /* \"#utility.yul\":18598:18681   */\n      swap4\n      pop\n      swap4\n      pop\n        /* \"#utility.yul\":18394:18691   */\n      pop\n        /* \"#utility.yul\":18730:18732   */\n      0x20\n        /* \"#utility.yul\":18756:18809   */\n      tag_603\n        /* \"#utility.yul\":18801:18808   */\n      dup7\n        /* \"#utility.yul\":18792:18798   */\n      dup3\n        /* \"#utility.yul\":18781:18790   */\n      dup8\n        /* \"#utility.yul\":18777:18799   */\n      add\n        /* \"#utility.yul\":18756:18809   */\n      tag_320\n      jump\t// in\n    tag_603:\n        /* \"#utility.yul\":18746:18809   */\n      swap2\n      pop\n        /* \"#utility.yul\":18701:18819   */\n      pop\n        /* \"#utility.yul\":18152:18826   */\n      swap3\n      pop\n      swap3\n      pop\n      swap3\n      jump\t// out\n        /* \"#utility.yul\":18832:19209   */\n    tag_124:\n        /* \"#utility.yul\":18915:18921   */\n      0x00\n        /* \"#utility.yul\":18964:18966   */\n      0x60\n        /* \"#utility.yul\":18952:18961   */\n      dup3\n        /* \"#utility.yul\":18943:18950   */\n      dup5\n        /* \"#utility.yul\":18939:18962   */\n      sub\n        /* \"#utility.yul\":18935:18967   */\n      slt\n        /* \"#utility.yul\":18932:19051   */\n      iszero\n      tag_605\n      jumpi\n        /* \"#utility.yul\":18970:19049   */\n      tag_606\n      tag_306\n      jump\t// in\n    tag_606:\n        /* \"#utility.yul\":18932:19051   */\n    tag_605:\n        /* \"#utility.yul\":19090:19091   */\n      0x00\n        /* \"#utility.yul\":19115:19192   */\n      tag_607\n        /* \"#utility.yul\":19184:19191   */\n      dup5\n        /* \"#utility.yul\":19175:19181   */\n      dup3\n        /* \"#utility.yul\":19164:19173   */\n      dup6\n        /* \"#utility.yul\":19160:19182   */\n      add\n        /* \"#utility.yul\":19115:19192   */\n      tag_309\n      jump\t// in\n    tag_607:\n        /* \"#utility.yul\":19105:19192   */\n      swap2\n      pop\n        /* \"#utility.yul\":19061:19202   */\n      pop\n        /* \"#utility.yul\":18832:19209   */\n      swap3\n      swap2\n      pop\n      pop\n      jump\t// out\n        /* \"#utility.yul\":19215:19330   */\n    tag_357:\n        /* \"#utility.yul\":19300:19323   */\n      tag_609\n        /* \"#utility.yul\":19317:19322   */\n      dup2\n        /* \"#utility.yul\":19300:19323   */\n      tag_326\n      jump\t// in\n    tag_609:\n        /* \"#utility.yul\":19295:19298   */\n      dup3\n        /* \"#utility.yul\":19288:19324   */\n      mstore\n        /* \"#utility.yul\":19215:19330   */\n      pop\n      pop\n      jump\t// out\n        /* \"#utility.yul\":19336:19664   */\n    tag_136:\n        /* \"#utility.yul\":19455:19459   */\n      0x00\n        /* \"#utility.yul\":19493:19495   */\n      0x40\n        /* \"#utility.yul\":19482:19491   */\n      dup3\n        /* \"#utility.yul\":19478:19496   */\n      add\n        /* \"#utility.yul\":19470:19496   */\n      swap1\n      pop\n        /* \"#utility.yul\":19506:19575   */\n      tag_611\n        /* \"#utility.yul\":19572:19573   */\n      0x00\n        /* \"#utility.yul\":19561:19570   */\n      dup4\n        /* \"#utility.yul\":19557:19574   */\n      add\n        /* \"#utility.yul\":19548:19554   */\n      dup6\n        /* \"#utility.yul\":19506:19575   */\n      tag_357\n      jump\t// in\n    tag_611:\n        /* \"#utility.yul\":19585:19657   */\n      tag_612\n        /* \"#utility.yul\":19653:19655   */\n      0x20\n        /* \"#utility.yul\":19642:19651   */\n      dup4\n        /* \"#utility.yul\":19638:19656   */\n      add\n        /* \"#utility.yul\":19629:19635   */\n      dup5\n        /* \"#utility.yul\":19585:19657   */\n      tag_356\n      jump\t// in\n    tag_612:\n        /* \"#utility.yul\":19336:19664   */\n      swap4\n      swap3\n      pop\n      pop\n      pop\n      jump\t// out\n        /* \"#utility.yul\":19670:19839   */\n    tag_358:\n        /* \"#utility.yul\":19754:19765   */\n      0x00\n        /* \"#utility.yul\":19788:19794   */\n      dup3\n        /* \"#utility.yul\":19783:19786   */\n      dup3\n        /* \"#utility.yul\":19776:19795   */\n      mstore\n        /* \"#utility.yul\":19828:19832   */\n      0x20\n        /* \"#utility.yul\":19823:19826   */\n      dup3\n        /* \"#utility.yul\":19819:19833   */\n      add\n        /* \"#utility.yul\":19804:19833   */\n      swap1\n      pop\n        /* \"#utility.yul\":19670:19839   */\n      swap3\n      swap2\n      pop\n      pop\n      jump\t// out\n        /* \"#utility.yul\":19845:20015   */\n    tag_359:\n        /* \"#utility.yul\":19985:20007   */\n      0x4665652063616e6e6f7420657863656564203125000000000000000000000000\n        /* \"#utility.yul\":19981:19982   */\n      0x00\n        /* \"#utility.yul\":19973:19979   */\n      dup3\n        /* \"#utility.yul\":19969:19983   */\n      add\n        /* \"#utility.yul\":19962:20008   */\n      mstore\n        /* \"#utility.yul\":19845:20015   */\n      pop\n      jump\t// out\n        /* \"#utility.yul\":20021:20387   */\n    tag_360:\n        /* \"#utility.yul\":20163:20166   */\n      0x00\n        /* \"#utility.yul\":20184:20251   */\n      tag_616\n        /* \"#utility.yul\":20248:20250   */\n      0x14\n        /* \"#utility.yul\":20243:20246   */\n      dup4\n        /* \"#utility.yul\":20184:20251   */\n      tag_358\n      jump\t// in\n    tag_616:\n        /* \"#utility.yul\":20177:20251   */\n      swap2\n      pop\n        /* \"#utility.yul\":20260:20353   */\n      tag_617\n        /* \"#utility.yul\":20349:20352   */\n      dup3\n        /* \"#utility.yul\":20260:20353   */\n      tag_359\n      jump\t// in\n    tag_617:\n        /* \"#utility.yul\":20378:20380   */\n      0x20\n        /* \"#utility.yul\":20373:20376   */\n      dup3\n        /* \"#utility.yul\":20369:20381   */\n      add\n        /* \"#utility.yul\":20362:20381   */\n      swap1\n      pop\n        /* \"#utility.yul\":20021:20387   */\n      swap2\n      swap1\n      pop\n      jump\t// out\n        /* \"#utility.yul\":20393:20812   */\n    tag_146:\n        /* \"#utility.yul\":20559:20563   */\n      0x00\n        /* \"#utility.yul\":20597:20599   */\n      0x20\n        /* \"#utility.yul\":20586:20595   */\n      dup3\n        /* \"#utility.yul\":20582:20600   */\n      add\n        /* \"#utility.yul\":20574:20600   */\n      swap1\n      pop\n        /* \"#utility.yul\":20646:20655   */\n      dup2\n        /* \"#utility.yul\":20640:20644   */\n      dup2\n        /* \"#utility.yul\":20636:20656   */\n      sub\n        /* \"#utility.yul\":20632:20633   */\n      0x00\n        /* \"#utility.yul\":20621:20630   */\n      dup4\n        /* \"#utility.yul\":20617:20634   */\n      add\n        /* \"#utility.yul\":20610:20657   */\n      mstore\n        /* \"#utility.yul\":20674:20805   */\n      tag_619\n        /* \"#utility.yul\":20800:20804   */\n      dup2\n        /* \"#utility.yul\":20674:20805   */\n      tag_360\n      jump\t// in\n    tag_619:\n        /* \"#utility.yul\":20666:20805   */\n      swap1\n      pop\n        /* \"#utility.yul\":20393:20812   */\n      swap2\n      swap1\n      pop\n      jump\t// out\n        /* \"#utility.yul\":20818:20992   */\n    tag_361:\n        /* \"#utility.yul\":20958:20984   */\n      0x496e76616c696420726563656976657220616464726573730000000000000000\n        /* \"#utility.yul\":20954:20955   */\n      0x00\n        /* \"#utility.yul\":20946:20952   */\n      dup3\n        /* \"#utility.yul\":20942:20956   */\n      add\n        /* \"#utility.yul\":20935:20985   */\n      mstore\n        /* \"#utility.yul\":20818:20992   */\n      pop\n      jump\t// out\n        /* \"#utility.yul\":20998:21364   */\n    tag_362:\n        /* \"#utility.yul\":21140:21143   */\n      0x00\n        /* \"#utility.yul\":21161:21228   */\n      tag_622\n        /* \"#utility.yul\":21225:21227   */\n      0x18\n        /* \"#utility.yul\":21220:21223   */\n      dup4\n        /* \"#utility.yul\":21161:21228   */\n      tag_358\n      jump\t// in\n    tag_622:\n        /* \"#utility.yul\":21154:21228   */\n      swap2\n      pop\n        /* \"#utility.yul\":21237:21330   */\n      tag_623\n        /* \"#utility.yul\":21326:21329   */\n      dup3\n        /* \"#utility.yul\":21237:21330   */\n      tag_361\n      jump\t// in\n    tag_623:\n        /* \"#utility.yul\":21355:21357   */\n      0x20\n        /* \"#utility.yul\":21350:21353   */\n      dup3\n        /* \"#utility.yul\":21346:21358   */\n      add\n        /* \"#utility.yul\":21339:21358   */\n      swap1\n      pop\n        /* \"#utility.yul\":20998:21364   */\n      swap2\n      swap1\n      pop\n      jump\t// out\n        /* \"#utility.yul\":21370:21789   */\n    tag_163:\n        /* \"#utility.yul\":21536:21540   */\n      0x00\n        /* \"#utility.yul\":21574:21576   */\n      0x20\n        /* \"#utility.yul\":21563:21572   */\n      dup3\n        /* \"#utility.yul\":21559:21577   */\n      add\n        /* \"#utility.yul\":21551:21577   */\n      swap1\n      pop\n        /* \"#utility.yul\":21623:21632   */\n      dup2\n        /* \"#utility.yul\":21617:21621   */\n      dup2\n        /* \"#utility.yul\":21613:21633   */\n      sub\n        /* \"#utility.yul\":21609:21610   */\n      0x00\n        /* \"#utility.yul\":21598:21607   */\n      dup4\n        /* \"#utility.yul\":21594:21611   */\n      add\n        /* \"#utility.yul\":21587:21634   */\n      mstore\n        /* \"#utility.yul\":21651:21782   */\n      tag_625\n        /* \"#utility.yul\":21777:21781   */\n      dup2\n        /* \"#utility.yul\":21651:21782   */\n      tag_362\n      jump\t// in\n    tag_625:\n        /* \"#utility.yul\":21643:21782   */\n      swap1\n      pop\n        /* \"#utility.yul\":21370:21789   */\n      swap2\n      swap1\n      pop\n      jump\t// out\n        /* \"#utility.yul\":21795:21943   */\n    tag_363:\n        /* \"#utility.yul\":21897:21908   */\n      0x00\n        /* \"#utility.yul\":21934:21937   */\n      dup2\n        /* \"#utility.yul\":21919:21937   */\n      swap1\n      pop\n        /* \"#utility.yul\":21795:21943   */\n      swap3\n      swap2\n      pop\n      pop\n      jump\t// out\n        /* \"#utility.yul\":21973:22303   */\n    tag_364:\n        /* \"#utility.yul\":22089:22092   */\n      0x00\n        /* \"#utility.yul\":22110:22199   */\n      tag_628\n        /* \"#utility.yul\":22192:22198   */\n      dup4\n        /* \"#utility.yul\":22187:22190   */\n      dup6\n        /* \"#utility.yul\":22110:22199   */\n      tag_363\n      jump\t// in\n    tag_628:\n        /* \"#utility.yul\":22103:22199   */\n      swap4\n      pop\n        /* \"#utility.yul\":22209:22265   */\n      tag_629\n        /* \"#utility.yul\":22258:22264   */\n      dup4\n        /* \"#utility.yul\":22253:22256   */\n      dup6\n        /* \"#utility.yul\":22246:22251   */\n      dup5\n        /* \"#utility.yul\":22209:22265   */\n      tag_351\n      jump\t// in\n    tag_629:\n        /* \"#utility.yul\":22290:22296   */\n      dup3\n        /* \"#utility.yul\":22285:22288   */\n      dup5\n        /* \"#utility.yul\":22281:22297   */\n      add\n        /* \"#utility.yul\":22274:22297   */\n      swap1\n      pop\n        /* \"#utility.yul\":21973:22303   */\n      swap4\n      swap3\n      pop\n      pop\n      pop\n      jump\t// out\n        /* \"#utility.yul\":22309:22604   */\n    tag_165:\n        /* \"#utility.yul\":22451:22454   */\n      0x00\n        /* \"#utility.yul\":22473:22578   */\n      tag_631\n        /* \"#utility.yul\":22574:22577   */\n      dup3\n        /* \"#utility.yul\":22565:22571   */\n      dup5\n        /* \"#utility.yul\":22557:22563   */\n      dup7\n        /* \"#utility.yul\":22473:22578   */\n      tag_364\n      jump\t// in\n    tag_631:\n        /* \"#utility.yul\":22466:22578   */\n      swap2\n      pop\n        /* \"#utility.yul\":22595:22598   */\n      dup2\n        /* \"#utility.yul\":22588:22598   */\n      swap1\n      pop\n        /* \"#utility.yul\":22309:22604   */\n      swap4\n      swap3\n      pop\n      pop\n      pop\n      jump\t// out\n        /* \"#utility.yul\":22610:22779   */\n    tag_365:\n        /* \"#utility.yul\":22750:22771   */\n      0x546f6b656e206e6f7420737570706f7274656400000000000000000000000000\n        /* \"#utility.yul\":22746:22747   */\n      0x00\n        /* \"#utility.yul\":22738:22744   */\n      dup3\n        /* \"#utility.yul\":22734:22748   */\n      add\n        /* \"#utility.yul\":22727:22772   */\n      mstore\n        /* \"#utility.yul\":22610:22779   */\n      pop\n      jump\t// out\n        /* \"#utility.yul\":22785:23151   */\n    tag_366:\n        /* \"#utility.yul\":22927:22930   */\n      0x00\n        /* \"#utility.yul\":22948:23015   */\n      tag_634\n        /* \"#utility.yul\":23012:23014   */\n      0x13\n        /* \"#utility.yul\":23007:23010   */\n      dup4\n        /* \"#utility.yul\":22948:23015   */\n      tag_358\n      jump\t// in\n    tag_634:\n        /* \"#utility.yul\":22941:23015   */\n      swap2\n      pop\n        /* \"#utility.yul\":23024:23117   */\n      tag_635\n        /* \"#utility.yul\":23113:23116   */\n      dup3\n        /* \"#utility.yul\":23024:23117   */\n      tag_365\n      jump\t// in\n    tag_635:\n        /* \"#utility.yul\":23142:23144   */\n      0x20\n        /* \"#utility.yul\":23137:23140   */\n      dup3\n        /* \"#utility.yul\":23133:23145   */\n      add\n        /* \"#utility.yul\":23126:23145   */\n      swap1\n      pop\n        /* \"#utility.yul\":22785:23151   */\n      swap2\n      swap1\n      pop\n      jump\t// out\n        /* \"#utility.yul\":23157:23576   */\n    tag_168:\n        /* \"#utility.yul\":23323:23327   */\n      0x00\n        /* \"#utility.yul\":23361:23363   */\n      0x20\n        /* \"#utility.yul\":23350:23359   */\n      dup3\n        /* \"#utility.yul\":23346:23364   */\n      add\n        /* \"#utility.yul\":23338:23364   */\n      swap1\n      pop\n        /* \"#utility.yul\":23410:23419   */\n      dup2\n        /* \"#utility.yul\":23404:23408   */\n      dup2\n        /* \"#utility.yul\":23400:23420   */\n      sub\n        /* \"#utility.yul\":23396:23397   */\n      0x00\n        /* \"#utility.yul\":23385:23394   */\n      dup4\n        /* \"#utility.yul\":23381:23398   */\n      add\n        /* \"#utility.yul\":23374:23421   */\n      mstore\n        /* \"#utility.yul\":23438:23569   */\n      tag_637\n        /* \"#utility.yul\":23564:23568   */\n      dup2\n        /* \"#utility.yul\":23438:23569   */\n      tag_366\n      jump\t// in\n    tag_637:\n        /* \"#utility.yul\":23430:23569   */\n      swap1\n      pop\n        /* \"#utility.yul\":23157:23576   */\n      swap2\n      swap1\n      pop\n      jump\t// out\n        /* \"#utility.yul\":23582:23700   */\n    tag_367:\n        /* \"#utility.yul\":23669:23693   */\n      tag_639\n        /* \"#utility.yul\":23687:23692   */\n      dup2\n        /* \"#utility.yul\":23669:23693   */\n      tag_335\n      jump\t// in\n    tag_639:\n        /* \"#utility.yul\":23664:23667   */\n      dup3\n        /* \"#utility.yul\":23657:23694   */\n      mstore\n        /* \"#utility.yul\":23582:23700   */\n      pop\n      pop\n      jump\t// out\n        /* \"#utility.yul\":23706:24148   */\n    tag_171:\n        /* \"#utility.yul\":23855:23859   */\n      0x00\n        /* \"#utility.yul\":23893:23895   */\n      0x60\n        /* \"#utility.yul\":23882:23891   */\n      dup3\n        /* \"#utility.yul\":23878:23896   */\n      add\n        /* \"#utility.yul\":23870:23896   */\n      swap1\n      pop\n        /* \"#utility.yul\":23906:23977   */\n      tag_641\n        /* \"#utility.yul\":23974:23975   */\n      0x00\n        /* \"#utility.yul\":23963:23972   */\n      dup4\n        /* \"#utility.yul\":23959:23976   */\n      add\n        /* \"#utility.yul\":23950:23956   */\n      dup7\n        /* \"#utility.yul\":23906:23977   */\n      tag_354\n      jump\t// in\n    tag_641:\n        /* \"#utility.yul\":23987:24059   */\n      tag_642\n        /* \"#utility.yul\":24055:24057   */\n      0x20\n        /* \"#utility.yul\":24044:24053   */\n      dup4\n        /* \"#utility.yul\":24040:24058   */\n      add\n        /* \"#utility.yul\":24031:24037   */\n      dup6\n        /* \"#utility.yul\":23987:24059   */\n      tag_354\n      jump\t// in\n    tag_642:\n        /* \"#utility.yul\":24069:24141   */\n      tag_643\n        /* \"#utility.yul\":24137:24139   */\n      0x40\n        /* \"#utility.yul\":24126:24135   */\n      dup4\n        /* \"#utility.yul\":24122:24140   */\n      add\n        /* \"#utility.yul\":24113:24119   */\n      dup5\n        /* \"#utility.yul\":24069:24141   */\n      tag_367\n      jump\t// in\n    tag_643:\n        /* \"#utility.yul\":23706:24148   */\n      swap5\n      swap4\n      pop\n      pop\n      pop\n      pop\n      jump\t// out\n        /* \"#utility.yul\":24154:24270   */\n    tag_368:\n        /* \"#utility.yul\":24224:24245   */\n      tag_645\n        /* \"#utility.yul\":24239:24244   */\n      dup2\n        /* \"#utility.yul\":24224:24245   */\n      tag_343\n      jump\t// in\n    tag_645:\n        /* \"#utility.yul\":24217:24222   */\n      dup2\n        /* \"#utility.yul\":24214:24246   */\n      eq\n        /* \"#utility.yul\":24204:24264   */\n      tag_646\n      jumpi\n        /* \"#utility.yul\":24260:24261   */\n      0x00\n        /* \"#utility.yul\":24257:24258   */\n      dup1\n        /* \"#utility.yul\":24250:24262   */\n      revert\n        /* \"#utility.yul\":24204:24264   */\n    tag_646:\n        /* \"#utility.yul\":24154:24270   */\n      pop\n      jump\t// out\n        /* \"#utility.yul\":24276:24413   */\n    tag_369:\n        /* \"#utility.yul\":24330:24335   */\n      0x00\n        /* \"#utility.yul\":24361:24367   */\n      dup2\n        /* \"#utility.yul\":24355:24368   */\n      mload\n        /* \"#utility.yul\":24346:24368   */\n      swap1\n      pop\n        /* \"#utility.yul\":24377:24407   */\n      tag_648\n        /* \"#utility.yul\":24401:24406   */\n      dup2\n        /* \"#utility.yul\":24377:24407   */\n      tag_368\n      jump\t// in\n    tag_648:\n        /* \"#utility.yul\":24276:24413   */\n      swap3\n      swap2\n      pop\n      pop\n      jump\t// out\n        /* \"#utility.yul\":24419:24764   */\n    tag_175:\n        /* \"#utility.yul\":24486:24492   */\n      0x00\n        /* \"#utility.yul\":24535:24537   */\n      0x20\n        /* \"#utility.yul\":24523:24532   */\n      dup3\n        /* \"#utility.yul\":24514:24521   */\n      dup5\n        /* \"#utility.yul\":24510:24533   */\n      sub\n        /* \"#utility.yul\":24506:24538   */\n      slt\n        /* \"#utility.yul\":24503:24622   */\n      iszero\n      tag_650\n      jumpi\n        /* \"#utility.yul\":24541:24620   */\n      tag_651\n      tag_306\n      jump\t// in\n    tag_651:\n        /* \"#utility.yul\":24503:24622   */\n    tag_650:\n        /* \"#utility.yul\":24661:24662   */\n      0x00\n        /* \"#utility.yul\":24686:24747   */\n      tag_652\n        /* \"#utility.yul\":24739:24746   */\n      dup5\n        /* \"#utility.yul\":24730:24736   */\n      dup3\n        /* \"#utility.yul\":24719:24728   */\n      dup6\n        /* \"#utility.yul\":24715:24737   */\n      add\n        /* \"#utility.yul\":24686:24747   */\n      tag_369\n      jump\t// in\n    tag_652:\n        /* \"#utility.yul\":24676:24747   */\n      swap2\n      pop\n        /* \"#utility.yul\":24632:24757   */\n      pop\n        /* \"#utility.yul\":24419:24764   */\n      swap3\n      swap2\n      pop\n      pop\n      jump\t// out\n        /* \"#utility.yul\":24770:24941   */\n    tag_370:\n        /* \"#utility.yul\":24910:24933   */\n      0x546f6b656e207472616e73666572206661696c65640000000000000000000000\n        /* \"#utility.yul\":24906:24907   */\n      0x00\n        /* \"#utility.yul\":24898:24904   */\n      dup3\n        /* \"#utility.yul\":24894:24908   */\n      add\n        /* \"#utility.yul\":24887:24934   */\n      mstore\n        /* \"#utility.yul\":24770:24941   */\n      pop\n      jump\t// out\n        /* \"#utility.yul\":24947:25313   */\n    tag_371:\n        /* \"#utility.yul\":25089:25092   */\n      0x00\n        /* \"#utility.yul\":25110:25177   */\n      tag_655\n        /* \"#utility.yul\":25174:25176   */\n      0x15\n        /* \"#utility.yul\":25169:25172   */\n      dup4\n        /* \"#utility.yul\":25110:25177   */\n      tag_358\n      jump\t// in\n    tag_655:\n        /* \"#utility.yul\":25103:25177   */\n      swap2\n      pop\n        /* \"#utility.yul\":25186:25279   */\n      tag_656\n        /* \"#utility.yul\":25275:25278   */\n      dup3\n        /* \"#utility.yul\":25186:25279   */\n      tag_370\n      jump\t// in\n    tag_656:\n        /* \"#utility.yul\":25304:25306   */\n      0x20\n        /* \"#utility.yul\":25299:25302   */\n      dup3\n        /* \"#utility.yul\":25295:25307   */\n      add\n        /* \"#utility.yul\":25288:25307   */\n      swap1\n      pop\n        /* \"#utility.yul\":24947:25313   */\n      swap2\n      swap1\n      pop\n      jump\t// out\n        /* \"#utility.yul\":25319:25738   */\n    tag_178:\n        /* \"#utility.yul\":25485:25489   */\n      0x00\n        /* \"#utility.yul\":25523:25525   */\n      0x20\n        /* \"#utility.yul\":25512:25521   */\n      dup3\n        /* \"#utility.yul\":25508:25526   */\n      add\n        /* \"#utility.yul\":25500:25526   */\n      swap1\n      pop\n        /* \"#utility.yul\":25572:25581   */\n      dup2\n        /* \"#utility.yul\":25566:25570   */\n      dup2\n        /* \"#utility.yul\":25562:25582   */\n      sub\n        /* \"#utility.yul\":25558:25559   */\n      0x00\n        /* \"#utility.yul\":25547:25556   */\n      dup4\n        /* \"#utility.yul\":25543:25560   */\n      add\n        /* \"#utility.yul\":25536:25583   */\n      mstore\n        /* \"#utility.yul\":25600:25731   */\n      tag_658\n        /* \"#utility.yul\":25726:25730   */\n      dup2\n        /* \"#utility.yul\":25600:25731   */\n      tag_371\n      jump\t// in\n    tag_658:\n        /* \"#utility.yul\":25592:25731   */\n      swap1\n      pop\n        /* \"#utility.yul\":25319:25738   */\n      swap2\n      swap1\n      pop\n      jump\t// out\n        /* \"#utility.yul\":25744:25924   */\n    tag_372:\n        /* \"#utility.yul\":25792:25869   */\n      0x4e487b7100000000000000000000000000000000000000000000000000000000\n        /* \"#utility.yul\":25789:25790   */\n      0x00\n        /* \"#utility.yul\":25782:25870   */\n      mstore\n        /* \"#utility.yul\":25889:25893   */\n      0x11\n        /* \"#utility.yul\":25886:25887   */\n      0x04\n        /* \"#utility.yul\":25879:25894   */\n      mstore\n        /* \"#utility.yul\":25913:25917   */\n      0x24\n        /* \"#utility.yul\":25910:25911   */\n      0x00\n        /* \"#utility.yul\":25903:25918   */\n      revert\n        /* \"#utility.yul\":25930:26340   */\n    tag_180:\n        /* \"#utility.yul\":25970:25977   */\n      0x00\n        /* \"#utility.yul\":25993:26013   */\n      tag_661\n        /* \"#utility.yul\":26011:26012   */\n      dup3\n        /* \"#utility.yul\":25993:26013   */\n      tag_335\n      jump\t// in\n    tag_661:\n        /* \"#utility.yul\":25988:26013   */\n      swap2\n      pop\n        /* \"#utility.yul\":26027:26047   */\n      tag_662\n        /* \"#utility.yul\":26045:26046   */\n      dup4\n        /* \"#utility.yul\":26027:26047   */\n      tag_335\n      jump\t// in\n    tag_662:\n        /* \"#utility.yul\":26022:26047   */\n      swap3\n      pop\n        /* \"#utility.yul\":26082:26083   */\n      dup3\n        /* \"#utility.yul\":26079:26080   */\n      dup3\n        /* \"#utility.yul\":26075:26084   */\n      mul\n        /* \"#utility.yul\":26104:26134   */\n      tag_663\n        /* \"#utility.yul\":26122:26133   */\n      dup2\n        /* \"#utility.yul\":26104:26134   */\n      tag_335\n      jump\t// in\n    tag_663:\n        /* \"#utility.yul\":26093:26134   */\n      swap2\n      pop\n        /* \"#utility.yul\":26283:26284   */\n      dup3\n        /* \"#utility.yul\":26274:26281   */\n      dup3\n        /* \"#utility.yul\":26270:26285   */\n      div\n        /* \"#utility.yul\":26267:26268   */\n      dup5\n        /* \"#utility.yul\":26264:26286   */\n      eq\n        /* \"#utility.yul\":26244:26245   */\n      dup4\n        /* \"#utility.yul\":26237:26246   */\n      iszero\n        /* \"#utility.yul\":26217:26300   */\n      or\n        /* \"#utility.yul\":26194:26333   */\n      tag_664\n      jumpi\n        /* \"#utility.yul\":26313:26331   */\n      tag_665\n      tag_372\n      jump\t// in\n    tag_665:\n        /* \"#utility.yul\":26194:26333   */\n    tag_664:\n        /* \"#utility.yul\":25978:26340   */\n      pop\n        /* \"#utility.yul\":25930:26340   */\n      swap3\n      swap2\n      pop\n      pop\n      jump\t// out\n        /* \"#utility.yul\":26346:26526   */\n    tag_373:\n        /* \"#utility.yul\":26394:26471   */\n      0x4e487b7100000000000000000000000000000000000000000000000000000000\n        /* \"#utility.yul\":26391:26392   */\n      0x00\n        /* \"#utility.yul\":26384:26472   */\n      mstore\n        /* \"#utility.yul\":26491:26495   */\n      0x12\n        /* \"#utility.yul\":26488:26489   */\n      0x04\n        /* \"#utility.yul\":26481:26496   */\n      mstore\n        /* \"#utility.yul\":26515:26519   */\n      0x24\n        /* \"#utility.yul\":26512:26513   */\n      0x00\n        /* \"#utility.yul\":26505:26520   */\n      revert\n        /* \"#utility.yul\":26532:26717   */\n    tag_182:\n        /* \"#utility.yul\":26572:26573   */\n      0x00\n        /* \"#utility.yul\":26589:26609   */\n      tag_668\n        /* \"#utility.yul\":26607:26608   */\n      dup3\n        /* \"#utility.yul\":26589:26609   */\n      tag_335\n      jump\t// in\n    tag_668:\n        /* \"#utility.yul\":26584:26609   */\n      swap2\n      pop\n        /* \"#utility.yul\":26623:26643   */\n      tag_669\n        /* \"#utility.yul\":26641:26642   */\n      dup4\n        /* \"#utility.yul\":26623:26643   */\n      tag_335\n      jump\t// in\n    tag_669:\n        /* \"#utility.yul\":26618:26643   */\n      swap3\n      pop\n        /* \"#utility.yul\":26662:26663   */\n      dup3\n        /* \"#utility.yul\":26652:26687   */\n      tag_670\n      jumpi\n        /* \"#utility.yul\":26667:26685   */\n      tag_671\n      tag_373\n      jump\t// in\n    tag_671:\n        /* \"#utility.yul\":26652:26687   */\n    tag_670:\n        /* \"#utility.yul\":26709:26710   */\n      dup3\n        /* \"#utility.yul\":26706:26707   */\n      dup3\n        /* \"#utility.yul\":26702:26711   */\n      div\n        /* \"#utility.yul\":26697:26711   */\n      swap1\n      pop\n        /* \"#utility.yul\":26532:26717   */\n      swap3\n      swap2\n      pop\n      pop\n      jump\t// out\n        /* \"#utility.yul\":26723:26917   */\n    tag_184:\n        /* \"#utility.yul\":26763:26767   */\n      0x00\n        /* \"#utility.yul\":26783:26803   */\n      tag_673\n        /* \"#utility.yul\":26801:26802   */\n      dup3\n        /* \"#utility.yul\":26783:26803   */\n      tag_335\n      jump\t// in\n    tag_673:\n        /* \"#utility.yul\":26778:26803   */\n      swap2\n      pop\n        /* \"#utility.yul\":26817:26837   */\n      tag_674\n        /* \"#utility.yul\":26835:26836   */\n      dup4\n        /* \"#utility.yul\":26817:26837   */\n      tag_335\n      jump\t// in\n    tag_674:\n        /* \"#utility.yul\":26812:26837   */\n      swap3\n      pop\n        /* \"#utility.yul\":26861:26862   */\n      dup3\n        /* \"#utility.yul\":26858:26859   */\n      dup3\n        /* \"#utility.yul\":26854:26863   */\n      sub\n        /* \"#utility.yul\":26846:26863   */\n      swap1\n      pop\n        /* \"#utility.yul\":26885:26886   */\n      dup2\n        /* \"#utility.yul\":26879:26883   */\n      dup2\n        /* \"#utility.yul\":26876:26887   */\n      gt\n        /* \"#utility.yul\":26873:26910   */\n      iszero\n      tag_675\n      jumpi\n        /* \"#utility.yul\":26890:26908   */\n      tag_676\n      tag_372\n      jump\t// in\n    tag_676:\n        /* \"#utility.yul\":26873:26910   */\n    tag_675:\n        /* \"#utility.yul\":26723:26917   */\n      swap3\n      swap2\n      pop\n      pop\n      jump\t// out\n        /* \"#utility.yul\":26947:27264   */\n    tag_374:\n        /* \"#utility.yul\":27045:27048   */\n      0x00\n        /* \"#utility.yul\":27066:27137   */\n      tag_678\n        /* \"#utility.yul\":27130:27136   */\n      dup4\n        /* \"#utility.yul\":27125:27128   */\n      dup6\n        /* \"#utility.yul\":27066:27137   */\n      tag_358\n      jump\t// in\n    tag_678:\n        /* \"#utility.yul\":27059:27137   */\n      swap4\n      pop\n        /* \"#utility.yul\":27147:27203   */\n      tag_679\n        /* \"#utility.yul\":27196:27202   */\n      dup4\n        /* \"#utility.yul\":27191:27194   */\n      dup6\n        /* \"#utility.yul\":27184:27189   */\n      dup5\n        /* \"#utility.yul\":27147:27203   */\n      tag_351\n      jump\t// in\n    tag_679:\n        /* \"#utility.yul\":27228:27257   */\n      tag_680\n        /* \"#utility.yul\":27250:27256   */\n      dup4\n        /* \"#utility.yul\":27228:27257   */\n      tag_346\n      jump\t// in\n    tag_680:\n        /* \"#utility.yul\":27223:27226   */\n      dup5\n        /* \"#utility.yul\":27219:27258   */\n      add\n        /* \"#utility.yul\":27212:27258   */\n      swap1\n      pop\n        /* \"#utility.yul\":26947:27264   */\n      swap4\n      swap3\n      pop\n      pop\n      pop\n      jump\t// out\n        /* \"#utility.yul\":27270:27823   */\n    tag_186:\n        /* \"#utility.yul\":27449:27453   */\n      0x00\n        /* \"#utility.yul\":27487:27489   */\n      0x60\n        /* \"#utility.yul\":27476:27485   */\n      dup3\n        /* \"#utility.yul\":27472:27490   */\n      add\n        /* \"#utility.yul\":27464:27490   */\n      swap1\n      pop\n        /* \"#utility.yul\":27500:27571   */\n      tag_682\n        /* \"#utility.yul\":27568:27569   */\n      0x00\n        /* \"#utility.yul\":27557:27566   */\n      dup4\n        /* \"#utility.yul\":27553:27570   */\n      add\n        /* \"#utility.yul\":27544:27550   */\n      dup8\n        /* \"#utility.yul\":27500:27571   */\n      tag_354\n      jump\t// in\n    tag_682:\n        /* \"#utility.yul\":27618:27627   */\n      dup2\n        /* \"#utility.yul\":27612:27616   */\n      dup2\n        /* \"#utility.yul\":27608:27628   */\n      sub\n        /* \"#utility.yul\":27603:27605   */\n      0x20\n        /* \"#utility.yul\":27592:27601   */\n      dup4\n        /* \"#utility.yul\":27588:27606   */\n      add\n        /* \"#utility.yul\":27581:27629   */\n      mstore\n        /* \"#utility.yul\":27646:27734   */\n      tag_683\n        /* \"#utility.yul\":27729:27733   */\n      dup2\n        /* \"#utility.yul\":27720:27726   */\n      dup6\n        /* \"#utility.yul\":27712:27718   */\n      dup8\n        /* \"#utility.yul\":27646:27734   */\n      tag_374\n      jump\t// in\n    tag_683:\n        /* \"#utility.yul\":27638:27734   */\n      swap1\n      pop\n        /* \"#utility.yul\":27744:27816   */\n      tag_684\n        /* \"#utility.yul\":27812:27814   */\n      0x40\n        /* \"#utility.yul\":27801:27810   */\n      dup4\n        /* \"#utility.yul\":27797:27815   */\n      add\n        /* \"#utility.yul\":27788:27794   */\n      dup5\n        /* \"#utility.yul\":27744:27816   */\n      tag_367\n      jump\t// in\n    tag_684:\n        /* \"#utility.yul\":27270:27823   */\n      swap6\n      swap5\n      pop\n      pop\n      pop\n      pop\n      pop\n      jump\t// out\n        /* \"#utility.yul\":27829:28267   */\n    tag_191:\n        /* \"#utility.yul\":27976:27980   */\n      0x00\n        /* \"#utility.yul\":28014:28016   */\n      0x60\n        /* \"#utility.yul\":28003:28012   */\n      dup3\n        /* \"#utility.yul\":27999:28017   */\n      add\n        /* \"#utility.yul\":27991:28017   */\n      swap1\n      pop\n        /* \"#utility.yul\":28027:28098   */\n      tag_686\n        /* \"#utility.yul\":28095:28096   */\n      0x00\n        /* \"#utility.yul\":28084:28093   */\n      dup4\n        /* \"#utility.yul\":28080:28097   */\n      add\n        /* \"#utility.yul\":28071:28077   */\n      dup7\n        /* \"#utility.yul\":28027:28098   */\n      tag_354\n      jump\t// in\n    tag_686:\n        /* \"#utility.yul\":28108:28180   */\n      tag_687\n        /* \"#utility.yul\":28176:28178   */\n      0x20\n        /* \"#utility.yul\":28165:28174   */\n      dup4\n        /* \"#utility.yul\":28161:28179   */\n      add\n        /* \"#utility.yul\":28152:28158   */\n      dup6\n        /* \"#utility.yul\":28108:28180   */\n      tag_367\n      jump\t// in\n    tag_687:\n        /* \"#utility.yul\":28190:28260   */\n      tag_688\n        /* \"#utility.yul\":28256:28258   */\n      0x40\n        /* \"#utility.yul\":28245:28254   */\n      dup4\n        /* \"#utility.yul\":28241:28259   */\n      add\n        /* \"#utility.yul\":28232:28238   */\n      dup5\n        /* \"#utility.yul\":28190:28260   */\n      tag_355\n      jump\t// in\n    tag_688:\n        /* \"#utility.yul\":27829:28267   */\n      swap5\n      swap4\n      pop\n      pop\n      pop\n      pop\n      jump\t// out\n        /* \"#utility.yul\":28273:28605   */\n    tag_204:\n        /* \"#utility.yul\":28394:28398   */\n      0x00\n        /* \"#utility.yul\":28432:28434   */\n      0x40\n        /* \"#utility.yul\":28421:28430   */\n      dup3\n        /* \"#utility.yul\":28417:28435   */\n      add\n        /* \"#utility.yul\":28409:28435   */\n      swap1\n      pop\n        /* \"#utility.yul\":28445:28516   */\n      tag_690\n        /* \"#utility.yul\":28513:28514   */\n      0x00\n        /* \"#utility.yul\":28502:28511   */\n      dup4\n        /* \"#utility.yul\":28498:28515   */\n      add\n        /* \"#utility.yul\":28489:28495   */\n      dup6\n        /* \"#utility.yul\":28445:28516   */\n      tag_354\n      jump\t// in\n    tag_690:\n        /* \"#utility.yul\":28526:28598   */\n      tag_691\n        /* \"#utility.yul\":28594:28596   */\n      0x20\n        /* \"#utility.yul\":28583:28592   */\n      dup4\n        /* \"#utility.yul\":28579:28597   */\n      add\n        /* \"#utility.yul\":28570:28576   */\n      dup5\n        /* \"#utility.yul\":28526:28598   */\n      tag_367\n      jump\t// in\n    tag_691:\n        /* \"#utility.yul\":28273:28605   */\n      swap4\n      swap3\n      pop\n      pop\n      pop\n      jump\t// out\n        /* \"#utility.yul\":28611:28829   */\n    tag_240:\n        /* \"#utility.yul\":28702:28706   */\n      0x00\n        /* \"#utility.yul\":28740:28742   */\n      0x20\n        /* \"#utility.yul\":28729:28738   */\n      dup3\n        /* \"#utility.yul\":28725:28743   */\n      add\n        /* \"#utility.yul\":28717:28743   */\n      swap1\n      pop\n        /* \"#utility.yul\":28753:28822   */\n      tag_693\n        /* \"#utility.yul\":28819:28820   */\n      0x00\n        /* \"#utility.yul\":28808:28817   */\n      dup4\n        /* \"#utility.yul\":28804:28821   */\n      add\n        /* \"#utility.yul\":28795:28801   */\n      dup5\n        /* \"#utility.yul\":28753:28822   */\n      tag_357\n      jump\t// in\n    tag_693:\n        /* \"#utility.yul\":28611:28829   */\n      swap3\n      swap2\n      pop\n      pop\n      jump\t// out\n        /* \"#utility.yul\":28835:28939   */\n    tag_375:\n        /* \"#utility.yul\":28880:28887   */\n      0x00\n        /* \"#utility.yul\":28909:28933   */\n      tag_695\n        /* \"#utility.yul\":28927:28932   */\n      dup3\n        /* \"#utility.yul\":28909:28933   */\n      tag_317\n      jump\t// in\n    tag_695:\n        /* \"#utility.yul\":28898:28933   */\n      swap1\n      pop\n        /* \"#utility.yul\":28835:28939   */\n      swap2\n      swap1\n      pop\n      jump\t// out\n        /* \"#utility.yul\":28945:29083   */\n    tag_376:\n        /* \"#utility.yul\":29026:29058   */\n      tag_697\n        /* \"#utility.yul\":29052:29057   */\n      dup2\n        /* \"#utility.yul\":29026:29058   */\n      tag_375\n      jump\t// in\n    tag_697:\n        /* \"#utility.yul\":29019:29024   */\n      dup2\n        /* \"#utility.yul\":29016:29059   */\n      eq\n        /* \"#utility.yul\":29006:29077   */\n      tag_698\n      jumpi\n        /* \"#utility.yul\":29073:29074   */\n      0x00\n        /* \"#utility.yul\":29070:29071   */\n      dup1\n        /* \"#utility.yul\":29063:29075   */\n      revert\n        /* \"#utility.yul\":29006:29077   */\n    tag_698:\n        /* \"#utility.yul\":28945:29083   */\n      pop\n      jump\t// out\n        /* \"#utility.yul\":29089:29244   */\n    tag_377:\n        /* \"#utility.yul\":29143:29148   */\n      0x00\n        /* \"#utility.yul\":29181:29187   */\n      dup2\n        /* \"#utility.yul\":29168:29188   */\n      calldataload\n        /* \"#utility.yul\":29159:29188   */\n      swap1\n      pop\n        /* \"#utility.yul\":29197:29238   */\n      tag_700\n        /* \"#utility.yul\":29232:29237   */\n      dup2\n        /* \"#utility.yul\":29197:29238   */\n      tag_376\n      jump\t// in\n    tag_700:\n        /* \"#utility.yul\":29089:29244   */\n      swap3\n      swap2\n      pop\n      pop\n      jump\t// out\n        /* \"#utility.yul\":29250:30065   */\n    tag_243:\n        /* \"#utility.yul\":29345:29351   */\n      0x00\n        /* \"#utility.yul\":29353:29359   */\n      dup1\n        /* \"#utility.yul\":29361:29367   */\n      0x00\n        /* \"#utility.yul\":29410:29412   */\n      0x60\n        /* \"#utility.yul\":29398:29407   */\n      dup5\n        /* \"#utility.yul\":29389:29396   */\n      dup7\n        /* \"#utility.yul\":29385:29408   */\n      sub\n        /* \"#utility.yul\":29381:29413   */\n      slt\n        /* \"#utility.yul\":29378:29497   */\n      iszero\n      tag_702\n      jumpi\n        /* \"#utility.yul\":29416:29495   */\n      tag_703\n      tag_306\n      jump\t// in\n    tag_703:\n        /* \"#utility.yul\":29378:29497   */\n    tag_702:\n        /* \"#utility.yul\":29536:29537   */\n      0x00\n        /* \"#utility.yul\":29561:29622   */\n      tag_704\n        /* \"#utility.yul\":29614:29621   */\n      dup7\n        /* \"#utility.yul\":29605:29611   */\n      dup3\n        /* \"#utility.yul\":29594:29603   */\n      dup8\n        /* \"#utility.yul\":29590:29612   */\n      add\n        /* \"#utility.yul\":29561:29622   */\n      tag_377\n      jump\t// in\n    tag_704:\n        /* \"#utility.yul\":29551:29622   */\n      swap4\n      pop\n        /* \"#utility.yul\":29507:29632   */\n      pop\n        /* \"#utility.yul\":29699:29701   */\n      0x20\n        /* \"#utility.yul\":29688:29697   */\n      dup5\n        /* \"#utility.yul\":29684:29702   */\n      add\n        /* \"#utility.yul\":29671:29703   */\n      calldataload\n        /* \"#utility.yul\":29730:29748   */\n      0xffffffffffffffff\n        /* \"#utility.yul\":29722:29728   */\n      dup2\n        /* \"#utility.yul\":29719:29749   */\n      gt\n        /* \"#utility.yul\":29716:29833   */\n      iszero\n      tag_705\n      jumpi\n        /* \"#utility.yul\":29752:29831   */\n      tag_706\n      tag_307\n      jump\t// in\n    tag_706:\n        /* \"#utility.yul\":29716:29833   */\n    tag_705:\n        /* \"#utility.yul\":29857:29920   */\n      tag_707\n        /* \"#utility.yul\":29912:29919   */\n      dup7\n        /* \"#utility.yul\":29903:29909   */\n      dup3\n        /* \"#utility.yul\":29892:29901   */\n      dup8\n        /* \"#utility.yul\":29888:29910   */\n      add\n        /* \"#utility.yul\":29857:29920   */\n      tag_353\n      jump\t// in\n    tag_707:\n        /* \"#utility.yul\":29847:29920   */\n      swap3\n      pop\n        /* \"#utility.yul\":29642:29930   */\n      pop\n        /* \"#utility.yul\":29969:29971   */\n      0x40\n        /* \"#utility.yul\":29995:30048   */\n      tag_708\n        /* \"#utility.yul\":30040:30047   */\n      dup7\n        /* \"#utility.yul\":30031:30037   */\n      dup3\n        /* \"#utility.yul\":30020:30029   */\n      dup8\n        /* \"#utility.yul\":30016:30038   */\n      add\n        /* \"#utility.yul\":29995:30048   */\n      tag_337\n      jump\t// in\n    tag_708:\n        /* \"#utility.yul\":29985:30048   */\n      swap2\n      pop\n        /* \"#utility.yul\":29940:30058   */\n      pop\n        /* \"#utility.yul\":29250:30065   */\n      swap3\n      pop\n      swap3\n      pop\n      swap3\n      jump\t// out\n        /* \"#utility.yul\":30071:30170   */\n    tag_378:\n        /* \"#utility.yul\":30123:30129   */\n      0x00\n        /* \"#utility.yul\":30157:30162   */\n      dup2\n        /* \"#utility.yul\":30151:30163   */\n      mload\n        /* \"#utility.yul\":30141:30163   */\n      swap1\n      pop\n        /* \"#utility.yul\":30071:30170   */\n      swap2\n      swap1\n      pop\n      jump\t// out\n        /* \"#utility.yul\":30176:30315   */\n    tag_379:\n        /* \"#utility.yul\":30265:30271   */\n      dup3\n        /* \"#utility.yul\":30260:30263   */\n      dup2\n        /* \"#utility.yul\":30255:30258   */\n      dup4\n        /* \"#utility.yul\":30249:30272   */\n      mcopy\n        /* \"#utility.yul\":30306:30307   */\n      0x00\n        /* \"#utility.yul\":30297:30303   */\n      dup4\n        /* \"#utility.yul\":30292:30295   */\n      dup4\n        /* \"#utility.yul\":30288:30304   */\n      add\n        /* \"#utility.yul\":30281:30308   */\n      mstore\n        /* \"#utility.yul\":30176:30315   */\n      pop\n      pop\n      pop\n      jump\t// out\n        /* \"#utility.yul\":30321:30711   */\n    tag_380:\n        /* \"#utility.yul\":30427:30430   */\n      0x00\n        /* \"#utility.yul\":30455:30494   */\n      tag_712\n        /* \"#utility.yul\":30488:30493   */\n      dup3\n        /* \"#utility.yul\":30455:30494   */\n      tag_378\n      jump\t// in\n    tag_712:\n        /* \"#utility.yul\":30510:30599   */\n      tag_713\n        /* \"#utility.yul\":30592:30598   */\n      dup2\n        /* \"#utility.yul\":30587:30590   */\n      dup6\n        /* \"#utility.yul\":30510:30599   */\n      tag_363\n      jump\t// in\n    tag_713:\n        /* \"#utility.yul\":30503:30599   */\n      swap4\n      pop\n        /* \"#utility.yul\":30608:30673   */\n      tag_714\n        /* \"#utility.yul\":30666:30672   */\n      dup2\n        /* \"#utility.yul\":30661:30664   */\n      dup6\n        /* \"#utility.yul\":30654:30658   */\n      0x20\n        /* \"#utility.yul\":30647:30652   */\n      dup7\n        /* \"#utility.yul\":30643:30659   */\n      add\n        /* \"#utility.yul\":30608:30673   */\n      tag_379\n      jump\t// in\n    tag_714:\n        /* \"#utility.yul\":30698:30704   */\n      dup1\n        /* \"#utility.yul\":30693:30696   */\n      dup5\n        /* \"#utility.yul\":30689:30705   */\n      add\n        /* \"#utility.yul\":30682:30705   */\n      swap2\n      pop\n        /* \"#utility.yul\":30431:30711   */\n      pop\n        /* \"#utility.yul\":30321:30711   */\n      swap3\n      swap2\n      pop\n      pop\n      jump\t// out\n        /* \"#utility.yul\":30717:30992   */\n    tag_245:\n        /* \"#utility.yul\":30849:30852   */\n      0x00\n        /* \"#utility.yul\":30871:30966   */\n      tag_716\n        /* \"#utility.yul\":30962:30965   */\n      dup3\n        /* \"#utility.yul\":30953:30959   */\n      dup5\n        /* \"#utility.yul\":30871:30966   */\n      tag_380\n      jump\t// in\n    tag_716:\n        /* \"#utility.yul\":30864:30966   */\n      swap2\n      pop\n        /* \"#utility.yul\":30983:30986   */\n      dup2\n        /* \"#utility.yul\":30976:30986   */\n      swap1\n      pop\n        /* \"#utility.yul\":30717:30992   */\n      swap3\n      swap2\n      pop\n      pop\n      jump\t// out\n        /* \"#utility.yul\":30998:31103   */\n    tag_381:\n        /* \"#utility.yul\":31073:31096   */\n      tag_718\n        /* \"#utility.yul\":31090:31095   */\n      dup2\n        /* \"#utility.yul\":31073:31096   */\n      tag_326\n      jump\t// in\n    tag_718:\n        /* \"#utility.yul\":31068:31071   */\n      dup3\n        /* \"#utility.yul\":31061:31097   */\n      mstore\n        /* \"#utility.yul\":30998:31103   */\n      pop\n      pop\n      jump\t// out\n        /* \"#utility.yul\":31109:31207   */\n    tag_382:\n        /* \"#utility.yul\":31160:31166   */\n      0x00\n        /* \"#utility.yul\":31194:31199   */\n      dup2\n        /* \"#utility.yul\":31188:31200   */\n      mload\n        /* \"#utility.yul\":31178:31200   */\n      swap1\n      pop\n        /* \"#utility.yul\":31109:31207   */\n      swap2\n      swap1\n      pop\n      jump\t// out\n        /* \"#utility.yul\":31213:31371   */\n    tag_383:\n        /* \"#utility.yul\":31286:31297   */\n      0x00\n        /* \"#utility.yul\":31320:31326   */\n      dup3\n        /* \"#utility.yul\":31315:31318   */\n      dup3\n        /* \"#utility.yul\":31308:31327   */\n      mstore\n        /* \"#utility.yul\":31360:31364   */\n      0x20\n        /* \"#utility.yul\":31355:31358   */\n      dup3\n        /* \"#utility.yul\":31351:31365   */\n      add\n        /* \"#utility.yul\":31336:31365   */\n      swap1\n      pop\n        /* \"#utility.yul\":31213:31371   */\n      swap3\n      swap2\n      pop\n      pop\n      jump\t// out\n        /* \"#utility.yul\":31377:31730   */\n    tag_384:\n        /* \"#utility.yul\":31453:31456   */\n      0x00\n        /* \"#utility.yul\":31481:31519   */\n      tag_722\n        /* \"#utility.yul\":31513:31518   */\n      dup3\n        /* \"#utility.yul\":31481:31519   */\n      tag_382\n      jump\t// in\n    tag_722:\n        /* \"#utility.yul\":31535:31595   */\n      tag_723\n        /* \"#utility.yul\":31588:31594   */\n      dup2\n        /* \"#utility.yul\":31583:31586   */\n      dup6\n        /* \"#utility.yul\":31535:31595   */\n      tag_383\n      jump\t// in\n    tag_723:\n        /* \"#utility.yul\":31528:31595   */\n      swap4\n      pop\n        /* \"#utility.yul\":31604:31669   */\n      tag_724\n        /* \"#utility.yul\":31662:31668   */\n      dup2\n        /* \"#utility.yul\":31657:31660   */\n      dup6\n        /* \"#utility.yul\":31650:31654   */\n      0x20\n        /* \"#utility.yul\":31643:31648   */\n      dup7\n        /* \"#utility.yul\":31639:31655   */\n      add\n        /* \"#utility.yul\":31604:31669   */\n      tag_379\n      jump\t// in\n    tag_724:\n        /* \"#utility.yul\":31694:31723   */\n      tag_725\n        /* \"#utility.yul\":31716:31722   */\n      dup2\n        /* \"#utility.yul\":31694:31723   */\n      tag_346\n      jump\t// in\n    tag_725:\n        /* \"#utility.yul\":31689:31692   */\n      dup5\n        /* \"#utility.yul\":31685:31724   */\n      add\n        /* \"#utility.yul\":31678:31724   */\n      swap2\n      pop\n        /* \"#utility.yul\":31457:31730   */\n      pop\n        /* \"#utility.yul\":31377:31730   */\n      swap3\n      swap2\n      pop\n      pop\n      jump\t// out\n        /* \"#utility.yul\":31736:31835   */\n    tag_385:\n        /* \"#utility.yul\":31807:31828   */\n      tag_727\n        /* \"#utility.yul\":31822:31827   */\n      dup2\n        /* \"#utility.yul\":31807:31828   */\n      tag_343\n      jump\t// in\n    tag_727:\n        /* \"#utility.yul\":31802:31805   */\n      dup3\n        /* \"#utility.yul\":31795:31829   */\n      mstore\n        /* \"#utility.yul\":31736:31835   */\n      pop\n      pop\n      jump\t// out\n        /* \"#utility.yul\":31897:33116   */\n    tag_386:\n        /* \"#utility.yul\":32028:32031   */\n      0x00\n        /* \"#utility.yul\":32064:32068   */\n      0xa0\n        /* \"#utility.yul\":32059:32062   */\n      dup4\n        /* \"#utility.yul\":32055:32069   */\n      add\n        /* \"#utility.yul\":32153:32157   */\n      0x00\n        /* \"#utility.yul\":32146:32151   */\n      dup4\n        /* \"#utility.yul\":32142:32158   */\n      add\n        /* \"#utility.yul\":32136:32159   */\n      mload\n        /* \"#utility.yul\":32172:32233   */\n      tag_729\n        /* \"#utility.yul\":32227:32231   */\n      0x00\n        /* \"#utility.yul\":32222:32225   */\n      dup7\n        /* \"#utility.yul\":32218:32232   */\n      add\n        /* \"#utility.yul\":32204:32216   */\n      dup3\n        /* \"#utility.yul\":32172:32233   */\n      tag_381\n      jump\t// in\n    tag_729:\n        /* \"#utility.yul\":32079:32243   */\n      pop\n        /* \"#utility.yul\":32329:32333   */\n      0x20\n        /* \"#utility.yul\":32322:32327   */\n      dup4\n        /* \"#utility.yul\":32318:32334   */\n      add\n        /* \"#utility.yul\":32312:32335   */\n      mload\n        /* \"#utility.yul\":32348:32411   */\n      tag_730\n        /* \"#utility.yul\":32405:32409   */\n      0x20\n        /* \"#utility.yul\":32400:32403   */\n      dup7\n        /* \"#utility.yul\":32396:32410   */\n      add\n        /* \"#utility.yul\":32382:32394   */\n      dup3\n        /* \"#utility.yul\":32348:32411   */\n      tag_338\n      jump\t// in\n    tag_730:\n        /* \"#utility.yul\":32253:32421   */\n      pop\n        /* \"#utility.yul\":32506:32510   */\n      0x40\n        /* \"#utility.yul\":32499:32504   */\n      dup4\n        /* \"#utility.yul\":32495:32511   */\n      add\n        /* \"#utility.yul\":32489:32512   */\n      mload\n        /* \"#utility.yul\":32559:32562   */\n      dup5\n        /* \"#utility.yul\":32553:32557   */\n      dup3\n        /* \"#utility.yul\":32549:32563   */\n      sub\n        /* \"#utility.yul\":32542:32546   */\n      0x40\n        /* \"#utility.yul\":32537:32540   */\n      dup7\n        /* \"#utility.yul\":32533:32547   */\n      add\n        /* \"#utility.yul\":32526:32564   */\n      mstore\n        /* \"#utility.yul\":32585:32656   */\n      tag_731\n        /* \"#utility.yul\":32651:32655   */\n      dup3\n        /* \"#utility.yul\":32637:32649   */\n      dup3\n        /* \"#utility.yul\":32585:32656   */\n      tag_384\n      jump\t// in\n    tag_731:\n        /* \"#utility.yul\":32577:32656   */\n      swap2\n      pop\n        /* \"#utility.yul\":32431:32667   */\n      pop\n        /* \"#utility.yul\":32752:32756   */\n      0x60\n        /* \"#utility.yul\":32745:32750   */\n      dup4\n        /* \"#utility.yul\":32741:32757   */\n      add\n        /* \"#utility.yul\":32735:32758   */\n      mload\n        /* \"#utility.yul\":32805:32808   */\n      dup5\n        /* \"#utility.yul\":32799:32803   */\n      dup3\n        /* \"#utility.yul\":32795:32809   */\n      sub\n        /* \"#utility.yul\":32788:32792   */\n      0x60\n        /* \"#utility.yul\":32783:32786   */\n      dup7\n        /* \"#utility.yul\":32779:32793   */\n      add\n        /* \"#utility.yul\":32772:32810   */\n      mstore\n        /* \"#utility.yul\":32831:32902   */\n      tag_732\n        /* \"#utility.yul\":32897:32901   */\n      dup3\n        /* \"#utility.yul\":32883:32895   */\n      dup3\n        /* \"#utility.yul\":32831:32902   */\n      tag_384\n      jump\t// in\n    tag_732:\n        /* \"#utility.yul\":32823:32902   */\n      swap2\n      pop\n        /* \"#utility.yul\":32677:32913   */\n      pop\n        /* \"#utility.yul\":33003:33007   */\n      0x80\n        /* \"#utility.yul\":32996:33001   */\n      dup4\n        /* \"#utility.yul\":32992:33008   */\n      add\n        /* \"#utility.yul\":32986:33009   */\n      mload\n        /* \"#utility.yul\":33022:33079   */\n      tag_733\n        /* \"#utility.yul\":33073:33077   */\n      0x80\n        /* \"#utility.yul\":33068:33071   */\n      dup7\n        /* \"#utility.yul\":33064:33078   */\n      add\n        /* \"#utility.yul\":33050:33062   */\n      dup3\n        /* \"#utility.yul\":33022:33079   */\n      tag_385\n      jump\t// in\n    tag_733:\n        /* \"#utility.yul\":32923:33089   */\n      pop\n        /* \"#utility.yul\":33106:33110   */\n      dup1\n        /* \"#utility.yul\":33099:33110   */\n      swap2\n      pop\n        /* \"#utility.yul\":32033:33116   */\n      pop\n        /* \"#utility.yul\":31897:33116   */\n      swap3\n      swap2\n      pop\n      pop\n      jump\t// out\n        /* \"#utility.yul\":33122:33629   */\n    tag_274:\n        /* \"#utility.yul\":33305:33309   */\n      0x00\n        /* \"#utility.yul\":33343:33345   */\n      0x40\n        /* \"#utility.yul\":33332:33341   */\n      dup3\n        /* \"#utility.yul\":33328:33346   */\n      add\n        /* \"#utility.yul\":33320:33346   */\n      swap1\n      pop\n        /* \"#utility.yul\":33392:33401   */\n      dup2\n        /* \"#utility.yul\":33386:33390   */\n      dup2\n        /* \"#utility.yul\":33382:33402   */\n      sub\n        /* \"#utility.yul\":33378:33379   */\n      0x00\n        /* \"#utility.yul\":33367:33376   */\n      dup4\n        /* \"#utility.yul\":33363:33380   */\n      add\n        /* \"#utility.yul\":33356:33403   */\n      mstore\n        /* \"#utility.yul\":33420:33540   */\n      tag_735\n        /* \"#utility.yul\":33535:33539   */\n      dup2\n        /* \"#utility.yul\":33526:33532   */\n      dup6\n        /* \"#utility.yul\":33420:33540   */\n      tag_386\n      jump\t// in\n    tag_735:\n        /* \"#utility.yul\":33412:33540   */\n      swap1\n      pop\n        /* \"#utility.yul\":33550:33622   */\n      tag_736\n        /* \"#utility.yul\":33618:33620   */\n      0x20\n        /* \"#utility.yul\":33607:33616   */\n      dup4\n        /* \"#utility.yul\":33603:33621   */\n      add\n        /* \"#utility.yul\":33594:33600   */\n      dup5\n        /* \"#utility.yul\":33550:33622   */\n      tag_354\n      jump\t// in\n    tag_736:\n        /* \"#utility.yul\":33122:33629   */\n      swap4\n      swap3\n      pop\n      pop\n      pop\n      jump\t// out\n        /* \"#utility.yul\":33635:33752   */\n    tag_387:\n        /* \"#utility.yul\":33744:33745   */\n      0x00\n        /* \"#utility.yul\":33741:33742   */\n      dup1\n        /* \"#utility.yul\":33734:33746   */\n      revert\n        /* \"#utility.yul\":33881:34024   */\n    tag_389:\n        /* \"#utility.yul\":33938:33943   */\n      0x00\n        /* \"#utility.yul\":33969:33975   */\n      dup2\n        /* \"#utility.yul\":33963:33976   */\n      mload\n        /* \"#utility.yul\":33954:33976   */\n      swap1\n      pop\n        /* \"#utility.yul\":33985:34018   */\n      tag_740\n        /* \"#utility.yul\":34012:34017   */\n      dup2\n        /* \"#utility.yul\":33985:34018   */\n      tag_311\n      jump\t// in\n    tag_740:\n        /* \"#utility.yul\":33881:34024   */\n      swap3\n      swap2\n      pop\n      pop\n      jump\t// out\n        /* \"#utility.yul\":34030:34150   */\n    tag_390:\n        /* \"#utility.yul\":34102:34125   */\n      tag_742\n        /* \"#utility.yul\":34119:34124   */\n      dup2\n        /* \"#utility.yul\":34102:34125   */\n      tag_321\n      jump\t// in\n    tag_742:\n        /* \"#utility.yul\":34095:34100   */\n      dup2\n        /* \"#utility.yul\":34092:34126   */\n      eq\n        /* \"#utility.yul\":34082:34144   */\n      tag_743\n      jumpi\n        /* \"#utility.yul\":34140:34141   */\n      0x00\n        /* \"#utility.yul\":34137:34138   */\n      dup1\n        /* \"#utility.yul\":34130:34142   */\n      revert\n        /* \"#utility.yul\":34082:34144   */\n    tag_743:\n        /* \"#utility.yul\":34030:34150   */\n      pop\n      jump\t// out\n        /* \"#utility.yul\":34156:34297   */\n    tag_391:\n        /* \"#utility.yul\":34212:34217   */\n      0x00\n        /* \"#utility.yul\":34243:34249   */\n      dup2\n        /* \"#utility.yul\":34237:34250   */\n      mload\n        /* \"#utility.yul\":34228:34250   */\n      swap1\n      pop\n        /* \"#utility.yul\":34259:34291   */\n      tag_745\n        /* \"#utility.yul\":34285:34290   */\n      dup2\n        /* \"#utility.yul\":34259:34291   */\n      tag_390\n      jump\t// in\n    tag_745:\n        /* \"#utility.yul\":34156:34297   */\n      swap3\n      swap2\n      pop\n      pop\n      jump\t// out\n        /* \"#utility.yul\":34303:34446   */\n    tag_392:\n        /* \"#utility.yul\":34360:34365   */\n      0x00\n        /* \"#utility.yul\":34391:34397   */\n      dup2\n        /* \"#utility.yul\":34385:34398   */\n      mload\n        /* \"#utility.yul\":34376:34398   */\n      swap1\n      pop\n        /* \"#utility.yul\":34407:34440   */\n      tag_747\n        /* \"#utility.yul\":34434:34439   */\n      dup2\n        /* \"#utility.yul\":34407:34440   */\n      tag_336\n      jump\t// in\n    tag_747:\n        /* \"#utility.yul\":34303:34446   */\n      swap3\n      swap2\n      pop\n      pop\n      jump\t// out\n        /* \"#utility.yul\":34479:35100   */\n    tag_393:\n        /* \"#utility.yul\":34567:34572   */\n      0x00\n        /* \"#utility.yul\":34611:34615   */\n      0x40\n        /* \"#utility.yul\":34599:34608   */\n      dup3\n        /* \"#utility.yul\":34594:34597   */\n      dup5\n        /* \"#utility.yul\":34590:34609   */\n      sub\n        /* \"#utility.yul\":34586:34616   */\n      slt\n        /* \"#utility.yul\":34583:34700   */\n      iszero\n      tag_749\n      jumpi\n        /* \"#utility.yul\":34619:34698   */\n      tag_750\n      tag_387\n      jump\t// in\n    tag_750:\n        /* \"#utility.yul\":34583:34700   */\n    tag_749:\n        /* \"#utility.yul\":34718:34739   */\n      tag_751\n        /* \"#utility.yul\":34734:34738   */\n      0x40\n        /* \"#utility.yul\":34718:34739   */\n      tag_349\n      jump\t// in\n    tag_751:\n        /* \"#utility.yul\":34709:34739   */\n      swap1\n      pop\n        /* \"#utility.yul\":34803:34804   */\n      0x00\n        /* \"#utility.yul\":34843:34903   */\n      tag_752\n        /* \"#utility.yul\":34899:34902   */\n      dup5\n        /* \"#utility.yul\":34890:34896   */\n      dup3\n        /* \"#utility.yul\":34879:34888   */\n      dup6\n        /* \"#utility.yul\":34875:34897   */\n      add\n        /* \"#utility.yul\":34843:34903   */\n      tag_392\n      jump\t// in\n    tag_752:\n        /* \"#utility.yul\":34836:34840   */\n      0x00\n        /* \"#utility.yul\":34829:34834   */\n      dup4\n        /* \"#utility.yul\":34825:34841   */\n      add\n        /* \"#utility.yul\":34818:34904   */\n      mstore\n        /* \"#utility.yul\":34749:34915   */\n      pop\n        /* \"#utility.yul\":34980:34982   */\n      0x20\n        /* \"#utility.yul\":35021:35081   */\n      tag_753\n        /* \"#utility.yul\":35077:35080   */\n      dup5\n        /* \"#utility.yul\":35068:35074   */\n      dup3\n        /* \"#utility.yul\":35057:35066   */\n      dup6\n        /* \"#utility.yul\":35053:35075   */\n      add\n        /* \"#utility.yul\":35021:35081   */\n      tag_392\n      jump\t// in\n    tag_753:\n        /* \"#utility.yul\":35014:35018   */\n      0x20\n        /* \"#utility.yul\":35007:35012   */\n      dup4\n        /* \"#utility.yul\":35003:35019   */\n      add\n        /* \"#utility.yul\":34996:35082   */\n      mstore\n        /* \"#utility.yul\":34925:35093   */\n      pop\n        /* \"#utility.yul\":34479:35100   */\n      swap3\n      swap2\n      pop\n      pop\n      jump\t// out\n        /* \"#utility.yul\":35137:35950   */\n    tag_394:\n        /* \"#utility.yul\":35229:35234   */\n      0x00\n        /* \"#utility.yul\":35273:35277   */\n      0x80\n        /* \"#utility.yul\":35261:35270   */\n      dup3\n        /* \"#utility.yul\":35256:35259   */\n      dup5\n        /* \"#utility.yul\":35252:35271   */\n      sub\n        /* \"#utility.yul\":35248:35278   */\n      slt\n        /* \"#utility.yul\":35245:35362   */\n      iszero\n      tag_755\n      jumpi\n        /* \"#utility.yul\":35281:35360   */\n      tag_756\n      tag_387\n      jump\t// in\n    tag_756:\n        /* \"#utility.yul\":35245:35362   */\n    tag_755:\n        /* \"#utility.yul\":35380:35401   */\n      tag_757\n        /* \"#utility.yul\":35396:35400   */\n      0x60\n        /* \"#utility.yul\":35380:35401   */\n      tag_349\n      jump\t// in\n    tag_757:\n        /* \"#utility.yul\":35371:35401   */\n      swap1\n      pop\n        /* \"#utility.yul\":35460:35461   */\n      0x00\n        /* \"#utility.yul\":35500:35560   */\n      tag_758\n        /* \"#utility.yul\":35556:35559   */\n      dup5\n        /* \"#utility.yul\":35547:35553   */\n      dup3\n        /* \"#utility.yul\":35536:35545   */\n      dup6\n        /* \"#utility.yul\":35532:35554   */\n      add\n        /* \"#utility.yul\":35500:35560   */\n      tag_389\n      jump\t// in\n    tag_758:\n        /* \"#utility.yul\":35493:35497   */\n      0x00\n        /* \"#utility.yul\":35486:35491   */\n      dup4\n        /* \"#utility.yul\":35482:35498   */\n      add\n        /* \"#utility.yul\":35475:35561   */\n      mstore\n        /* \"#utility.yul\":35411:35572   */\n      pop\n        /* \"#utility.yul\":35632:35634   */\n      0x20\n        /* \"#utility.yul\":35673:35732   */\n      tag_759\n        /* \"#utility.yul\":35728:35731   */\n      dup5\n        /* \"#utility.yul\":35719:35725   */\n      dup3\n        /* \"#utility.yul\":35708:35717   */\n      dup6\n        /* \"#utility.yul\":35704:35726   */\n      add\n        /* \"#utility.yul\":35673:35732   */\n      tag_391\n      jump\t// in\n    tag_759:\n        /* \"#utility.yul\":35666:35670   */\n      0x20\n        /* \"#utility.yul\":35659:35664   */\n      dup4\n        /* \"#utility.yul\":35655:35671   */\n      add\n        /* \"#utility.yul\":35648:35733   */\n      mstore\n        /* \"#utility.yul\":35582:35744   */\n      pop\n        /* \"#utility.yul\":35802:35804   */\n      0x40\n        /* \"#utility.yul\":35843:35931   */\n      tag_760\n        /* \"#utility.yul\":35927:35930   */\n      dup5\n        /* \"#utility.yul\":35918:35924   */\n      dup3\n        /* \"#utility.yul\":35907:35916   */\n      dup6\n        /* \"#utility.yul\":35903:35925   */\n      add\n        /* \"#utility.yul\":35843:35931   */\n      tag_393\n      jump\t// in\n    tag_760:\n        /* \"#utility.yul\":35836:35840   */\n      0x40\n        /* \"#utility.yul\":35829:35834   */\n      dup4\n        /* \"#utility.yul\":35825:35841   */\n      add\n        /* \"#utility.yul\":35818:35932   */\n      mstore\n        /* \"#utility.yul\":35754:35943   */\n      pop\n        /* \"#utility.yul\":35137:35950   */\n      swap3\n      swap2\n      pop\n      pop\n      jump\t// out\n        /* \"#utility.yul\":35956:36372   */\n    tag_278:\n        /* \"#utility.yul\":36058:36064   */\n      0x00\n        /* \"#utility.yul\":36107:36110   */\n      0x80\n        /* \"#utility.yul\":36095:36104   */\n      dup3\n        /* \"#utility.yul\":36086:36093   */\n      dup5\n        /* \"#utility.yul\":36082:36105   */\n      sub\n        /* \"#utility.yul\":36078:36111   */\n      slt\n        /* \"#utility.yul\":36075:36195   */\n      iszero\n      tag_762\n      jumpi\n        /* \"#utility.yul\":36114:36193   */\n      tag_763\n      tag_306\n      jump\t// in\n    tag_763:\n        /* \"#utility.yul\":36075:36195   */\n    tag_762:\n        /* \"#utility.yul\":36234:36235   */\n      0x00\n        /* \"#utility.yul\":36259:36355   */\n      tag_764\n        /* \"#utility.yul\":36347:36354   */\n      dup5\n        /* \"#utility.yul\":36338:36344   */\n      dup3\n        /* \"#utility.yul\":36327:36336   */\n      dup6\n        /* \"#utility.yul\":36323:36345   */\n      add\n        /* \"#utility.yul\":36259:36355   */\n      tag_394\n      jump\t// in\n    tag_764:\n        /* \"#utility.yul\":36249:36355   */\n      swap2\n      pop\n        /* \"#utility.yul\":36205:36365   */\n      pop\n        /* \"#utility.yul\":35956:36372   */\n      swap3\n      swap2\n      pop\n      pop\n      jump\t// out\n        /* \"#utility.yul\":36378:36600   */\n    tag_284:\n        /* \"#utility.yul\":36471:36475   */\n      0x00\n        /* \"#utility.yul\":36509:36511   */\n      0x20\n        /* \"#utility.yul\":36498:36507   */\n      dup3\n        /* \"#utility.yul\":36494:36512   */\n      add\n        /* \"#utility.yul\":36486:36512   */\n      swap1\n      pop\n        /* \"#utility.yul\":36522:36593   */\n      tag_766\n        /* \"#utility.yul\":36590:36591   */\n      0x00\n        /* \"#utility.yul\":36579:36588   */\n      dup4\n        /* \"#utility.yul\":36575:36592   */\n      add\n        /* \"#utility.yul\":36566:36572   */\n      dup5\n        /* \"#utility.yul\":36522:36593   */\n      tag_367\n      jump\t// in\n    tag_766:\n        /* \"#utility.yul\":36378:36600   */\n      swap3\n      swap2\n      pop\n      pop\n      jump\t// out\n        /* \"#utility.yul\":36606:36749   */\n    tag_395:\n        /* \"#utility.yul\":36663:36668   */\n      0x00\n        /* \"#utility.yul\":36694:36700   */\n      dup2\n        /* \"#utility.yul\":36688:36701   */\n      mload\n        /* \"#utility.yul\":36679:36701   */\n      swap1\n      pop\n        /* \"#utility.yul\":36710:36743   */\n      tag_768\n        /* \"#utility.yul\":36737:36742   */\n      dup2\n        /* \"#utility.yul\":36710:36743   */\n      tag_319\n      jump\t// in\n    tag_768:\n        /* \"#utility.yul\":36606:36749   */\n      swap3\n      swap2\n      pop\n      pop\n      jump\t// out\n        /* \"#utility.yul\":36755:37106   */\n    tag_289:\n        /* \"#utility.yul\":36825:36831   */\n      0x00\n        /* \"#utility.yul\":36874:36876   */\n      0x20\n        /* \"#utility.yul\":36862:36871   */\n      dup3\n        /* \"#utility.yul\":36853:36860   */\n      dup5\n        /* \"#utility.yul\":36849:36872   */\n      sub\n        /* \"#utility.yul\":36845:36877   */\n      slt\n        /* \"#utility.yul\":36842:36961   */\n      iszero\n      tag_770\n      jumpi\n        /* \"#utility.yul\":36880:36959   */\n      tag_771\n      tag_306\n      jump\t// in\n    tag_771:\n        /* \"#utility.yul\":36842:36961   */\n    tag_770:\n        /* \"#utility.yul\":37000:37001   */\n      0x00\n        /* \"#utility.yul\":37025:37089   */\n      tag_772\n        /* \"#utility.yul\":37081:37088   */\n      dup5\n        /* \"#utility.yul\":37072:37078   */\n      dup3\n        /* \"#utility.yul\":37061:37070   */\n      dup6\n        /* \"#utility.yul\":37057:37079   */\n      add\n        /* \"#utility.yul\":37025:37089   */\n      tag_395\n      jump\t// in\n    tag_772:\n        /* \"#utility.yul\":37015:37089   */\n      swap2\n      pop\n        /* \"#utility.yul\":36971:37099   */\n      pop\n        /* \"#utility.yul\":36755:37106   */\n      swap3\n      swap2\n      pop\n      pop\n      jump\t// out\n\n    auxdata: 0xa26469706673582212205309ea0167c12ce27afe71c08c00be0c0300fb886e6a5c1b5fdf74208a799c1864736f6c634300081a0033\n}\n",
				"bytecode": {
					"linkReferences": {},
					"object": "60a060405234801561000f575f80fd5b50604051612d96380380612d9683398181016040528101906100319190610335565b81838181865f73ffffffffffffffffffffffffffffffffffffffff168173ffffffffffffffffffffffffffffffffffffffff16036100a6575f6040517f1e4fbdf700000000000000000000000000000000000000000000000000000000815260040161009d9190610394565b60405180910390fd5b6100b5816101df60201b60201c565b508173ffffffffffffffffffffffffffffffffffffffff1660808173ffffffffffffffffffffffffffffffffffffffff16815250505f73ffffffffffffffffffffffffffffffffffffffff168173ffffffffffffffffffffffffffffffffffffffff160361014f576040517fb586360400000000000000000000000000000000000000000000000000000000815260040160405180910390fd5b60805173ffffffffffffffffffffffffffffffffffffffff1663ca5eb5e1826040518263ffffffff1660e01b815260040161018a9190610394565b5f604051808303815f87803b1580156101a1575f80fd5b505af11580156101b3573d5f803e3d5ffd5b50505050505050508060035f6101000a81548161ffff021916908361ffff1602179055505050506103ad565b5f805f9054906101000a900473ffffffffffffffffffffffffffffffffffffffff169050815f806101000a81548173ffffffffffffffffffffffffffffffffffffffff021916908373ffffffffffffffffffffffffffffffffffffffff1602179055508173ffffffffffffffffffffffffffffffffffffffff168173ffffffffffffffffffffffffffffffffffffffff167f8be0079c531659141344cd1fd0a4f28419497f9722a3daafe3b4186f6b6457e060405160405180910390a35050565b5f80fd5b5f73ffffffffffffffffffffffffffffffffffffffff82169050919050565b5f6102cd826102a4565b9050919050565b6102dd816102c3565b81146102e7575f80fd5b50565b5f815190506102f8816102d4565b92915050565b5f61ffff82169050919050565b610314816102fe565b811461031e575f80fd5b50565b5f8151905061032f8161030b565b92915050565b5f805f6060848603121561034c5761034b6102a0565b5b5f610359868287016102ea565b935050602061036a868287016102ea565b925050604061037b86828701610321565b9150509250925092565b61038e816102c3565b82525050565b5f6020820190506103a75f830184610385565b92915050565b6080516129ae6103e85f395f81816104a00152818161069101528181610d1c015281816113120152818161150d015261160501526129ae5ff3fe60806040526004361061011e575f3560e01c80638980f11f1161009f578063bb0b6a5311610063578063bb0b6a5314610397578063ca5eb5e1146103d3578063ed88ed6c146103fb578063f2fde38b14610423578063ff7bd03d1461044b5761011e565b80638980f11f146102b757806389919cdd146102df5780638da5cb5b1461031b57806392543a8a14610345578063b8606eef1461036d5761011e565b80635e280f11116100e65780635e280f11146101cf5780636c29eb06146101f9578063715018a6146102295780637d25a05e1461023f57806382413eac1461027b5761011e565b806313137d651461012257806317442b701461013e5780632c6cda93146101695780633400288b146101915780635a54db86146101b9575b5f80fd5b61013c600480360381019061013791906118d8565b610487565b005b348015610149575f80fd5b506101526105a7565b6040516101609291906119b1565b60405180910390f35b348015610174575f80fd5b5061018f600480360381019061018a9190611a0f565b6105b5565b005b34801561019c575f80fd5b506101b760048036038101906101b29190611a73565b610624565b005b3480156101c4575f80fd5b506101cd61063a565b005b3480156101da575f80fd5b506101e361068f565b6040516101f09190611b0c565b60405180910390f35b610213600480360381019061020e9190611bad565b6106b3565b6040516102209190611cfe565b60405180910390f35b348015610234575f80fd5b5061023d610a59565b005b34801561024a575f80fd5b5061026560048036038101906102609190611a73565b610a6c565b6040516102729190611d17565b60405180910390f35b348015610286575f80fd5b506102a1600480360381019061029c9190611d30565b610a73565b6040516102ae9190611dbb565b60405180910390f35b3480156102c2575f80fd5b506102dd60048036038101906102d89190611dd4565b610aad565b005b3480156102ea575f80fd5b5061030560048036038101906103009190611f4a565b610b3c565b6040516103129190611fa0565b60405180910390f35b348015610326575f80fd5b5061032f610b84565b60405161033c9190611fa0565b60405180910390f35b348015610350575f80fd5b5061036b60048036038101906103669190611fb9565b610bab565b005b348015610378575f80fd5b50610381610cea565b60405161038e9190612013565b60405180910390f35b3480156103a2575f80fd5b506103bd60048036038101906103b8919061202c565b610cfd565b6040516103ca9190612066565b60405180910390f35b3480156103de575f80fd5b506103f960048036038101906103f4919061207f565b610d12565b005b348015610406575f80fd5b50610421600480360381019061041c91906120aa565b610da3565b005b34801561042e575f80fd5b506104496004803603810190610444919061207f565b610e69565b005b348015610456575f80fd5b50610471600480360381019061046c9190612107565b610eed565b60405161047e9190611dbb565b60405180910390f35b3373ffffffffffffffffffffffffffffffffffffffff167f000000000000000000000000000000000000000000000000000000000000000073ffffffffffffffffffffffffffffffffffffffff161461051757336040517f91ac5e4f00000000000000000000000000000000000000000000000000000000815260040161050e9190611fa0565b60405180910390fd5b8660200135610536885f016020810190610531919061202c565b610f2a565b1461058f57865f01602081019061054d919061202c565b87602001356040517fc26bebcc000000000000000000000000000000000000000000000000000000008152600401610586929190612141565b60405180910390fd5b61059e87878787878787610f9b565b50505050505050565b5f8060016002915091509091565b6105bd6111f9565b60648161ffff161115610605576040517f08c379a00000000000000000000000000000000000000000000000000000000081526004016105fc906121c2565b60405180910390fd5b8060035f6101000a81548161ffff021916908361ffff16021790555050565b61062c6111f9565b6106368282611280565b5050565b6106426111f9565b61064a610b84565b73ffffffffffffffffffffffffffffffffffffffff166108fc4790811502906040515f60405180830381858888f1935050505015801561068c573d5f803e3d5ffd5b50565b7f000000000000000000000000000000000000000000000000000000000000000081565b6106bb61176d565b5f73ffffffffffffffffffffffffffffffffffffffff168573ffffffffffffffffffffffffffffffffffffffff1603610729576040517f08c379a00000000000000000000000000000000000000000000000000000000081526004016107209061222a565b60405180910390fd5b5f73ffffffffffffffffffffffffffffffffffffffff1660028989604051610752929190612276565b90815260200160405180910390205f9054906101000a900473ffffffffffffffffffffffffffffffffffffffff1673ffffffffffffffffffffffffffffffffffffffff16036107d6576040517f08c379a00000000000000000000000000000000000000000000000000000000081526004016107cd906122d8565b60405180910390fd5b600288886040516107e8929190612276565b90815260200160405180910390205f9054906101000a900473ffffffffffffffffffffffffffffffffffffffff1673ffffffffffffffffffffffffffffffffffffffff166323b872dd3330896040518463ffffffff1660e01b815260040161085293929190612305565b6020604051808303815f875af115801561086e573d5f803e3d5ffd5b505050506040513d601f19601f820116820180604052508101906108929190612364565b6108d1576040517f08c379a00000000000000000000000000000000000000000000000000000000081526004016108c8906123d9565b60405180910390fd5b5f61271060035f9054906101000a900461ffff1661ffff16886108f49190612424565b6108fe9190612492565b90505f818861090d91906124c2565b90505f878b8b846040516020016109279493929190612521565b60405160208183030381529060405290506109a08761ffff168288888080601f0160208091040260200160405190810160405280939291908181526020018383808284375f81840152601f19601f8201169050808301925050505050505060405180604001604052803481526020015f815250336112df565b93508160028c8c6040516109b5929190612276565b90815260200160405180910390205f9054906101000a900473ffffffffffffffffffffffffffffffffffffffff1673ffffffffffffffffffffffffffffffffffffffff163373ffffffffffffffffffffffffffffffffffffffff167f9aa0bd7524636a05d600ed870d6bbbf0a6fe436b4c0b4dfb5cfe417be427bac18b878c604051610a439392919061255f565b60405180910390a4505050979650505050505050565b610a616111f9565b610a6a5f6113f5565b565b5f92915050565b5f3073ffffffffffffffffffffffffffffffffffffffff168273ffffffffffffffffffffffffffffffffffffffff16149050949350505050565b610ab56111f9565b8173ffffffffffffffffffffffffffffffffffffffff1663a9059cbb610ad9610b84565b836040518363ffffffff1660e01b8152600401610af7929190612594565b6020604051808303815f875af1158015610b13573d5f803e3d5ffd5b505050506040513d601f19601f82011682018060405250810190610b379190612364565b505050565b6002818051602081018201805184825260208301602085012081835280955050505050505f915054906101000a900473ffffffffffffffffffffffffffffffffffffffff1681565b5f805f9054906101000a900473ffffffffffffffffffffffffffffffffffffffff16905090565b610bb36111f9565b5f73ffffffffffffffffffffffffffffffffffffffff1660028383604051610bdc929190612276565b90815260200160405180910390205f9054906101000a900473ffffffffffffffffffffffffffffffffffffffff1673ffffffffffffffffffffffffffffffffffffffff1603610c60576040517f08c379a0000000000000000000000000000000000000000000000000000000008152600401610c57906122d8565b60405180910390fd5b60028282604051610c72929190612276565b90815260200160405180910390205f6101000a81549073ffffffffffffffffffffffffffffffffffffffff02191690558181604051610cb2929190612276565b60405180910390207fcdd02d37d444f381ccea186dcdaf556989dcdeeebafc5cd307fe5e7609cd88c360405160405180910390a25050565b60035f9054906101000a900461ffff1681565b6001602052805f5260405f205f915090505481565b610d1a6111f9565b7f000000000000000000000000000000000000000000000000000000000000000073ffffffffffffffffffffffffffffffffffffffff1663ca5eb5e1826040518263ffffffff1660e01b8152600401610d739190611fa0565b5f604051808303815f87803b158015610d8a575f80fd5b505af1158015610d9c573d5f803e3d5ffd5b5050505050565b610dab6111f9565b8060028484604051610dbe929190612276565b90815260200160405180910390205f6101000a81548173ffffffffffffffffffffffffffffffffffffffff021916908373ffffffffffffffffffffffffffffffffffffffff1602179055508073ffffffffffffffffffffffffffffffffffffffff168383604051610e30929190612276565b60405180910390207f6d97a31531bdb3c43d920bc996ec8b9fd7733f5f55a81cd74700f88631fc603260405160405180910390a3505050565b610e716111f9565b5f73ffffffffffffffffffffffffffffffffffffffff168173ffffffffffffffffffffffffffffffffffffffff1603610ee1575f6040517f1e4fbdf7000000000000000000000000000000000000000000000000000000008152600401610ed89190611fa0565b60405180910390fd5b610eea816113f5565b50565b5f816020013560015f845f016020810190610f08919061202c565b63ffffffff1663ffffffff1681526020019081526020015f2054149050919050565b5f8060015f8463ffffffff1663ffffffff1681526020019081526020015f205490505f801b8103610f9257826040517ff6ff4fb7000000000000000000000000000000000000000000000000000000008152600401610f8991906125bb565b60405180910390fd5b80915050919050565b5f805f8787810190610fad919061260f565b9250925092505f73ffffffffffffffffffffffffffffffffffffffff16600283604051610fda91906126c3565b90815260200160405180910390205f9054906101000a900473ffffffffffffffffffffffffffffffffffffffff1673ffffffffffffffffffffffffffffffffffffffff160361105e576040517f08c379a0000000000000000000000000000000000000000000000000000000008152600401611055906122d8565b60405180910390fd5b60028260405161106e91906126c3565b90815260200160405180910390205f9054906101000a900473ffffffffffffffffffffffffffffffffffffffff1673ffffffffffffffffffffffffffffffffffffffff1663a9059cbb84836040518363ffffffff1660e01b81526004016110d6929190612594565b6020604051808303815f875af11580156110f2573d5f803e3d5ffd5b505050506040513d601f19601f820116820180604052508101906111169190612364565b611155576040517f08c379a000000000000000000000000000000000000000000000000000000000815260040161114c906123d9565b60405180910390fd5b8060028360405161116691906126c3565b90815260200160405180910390205f9054906101000a900473ffffffffffffffffffffffffffffffffffffffff1673ffffffffffffffffffffffffffffffffffffffff168473ffffffffffffffffffffffffffffffffffffffff167f3737f2a73c794dafe53d8aeea06810a9ebcf7167401b259406960e088e03f83060405160405180910390a450505050505050505050565b6112016114b6565b73ffffffffffffffffffffffffffffffffffffffff1661121f610b84565b73ffffffffffffffffffffffffffffffffffffffff161461127e576112426114b6565b6040517f118cdaa70000000000000000000000000000000000000000000000000000000081526004016112759190611fa0565b60405180910390fd5b565b8060015f8463ffffffff1663ffffffff1681526020019081526020015f20819055507f238399d427b947898edb290f5ff0f9109849b1c3ba196a42e35f00c50a54b98b82826040516112d3929190612141565b60405180910390a15050565b6112e761176d565b5f6112f4845f01516114bd565b90505f846020015111156113105761130f846020015161150a565b5b7f000000000000000000000000000000000000000000000000000000000000000073ffffffffffffffffffffffffffffffffffffffff16632637a450826040518060a001604052808b63ffffffff16815260200161136d8c610f2a565b81526020018a81526020018981526020015f8960200151111515815250866040518463ffffffff1660e01b81526004016113a89291906127c3565b60806040518083038185885af11580156113c4573d5f803e3d5ffd5b50505050506040513d601f19601f820116820180604052508101906113e991906128f5565b91505095945050505050565b5f805f9054906101000a900473ffffffffffffffffffffffffffffffffffffffff169050815f806101000a81548173ffffffffffffffffffffffffffffffffffffffff021916908373ffffffffffffffffffffffffffffffffffffffff1602179055508173ffffffffffffffffffffffffffffffffffffffff168173ffffffffffffffffffffffffffffffffffffffff167f8be0079c531659141344cd1fd0a4f28419497f9722a3daafe3b4186f6b6457e060405160405180910390a35050565b5f33905090565b5f81341461150257346040517f9f7041200000000000000000000000000000000000000000000000000000000081526004016114f99190612920565b60405180910390fd5b819050919050565b5f7f000000000000000000000000000000000000000000000000000000000000000073ffffffffffffffffffffffffffffffffffffffff1663e4fe1d946040518163ffffffff1660e01b8152600401602060405180830381865afa158015611574573d5f803e3d5ffd5b505050506040513d601f19601f82011682018060405250810190611598919061294d565b90505f73ffffffffffffffffffffffffffffffffffffffff168173ffffffffffffffffffffffffffffffffffffffff16036115ff576040517f5373352a00000000000000000000000000000000000000000000000000000000815260040160405180910390fd5b61164c337f0000000000000000000000000000000000000000000000000000000000000000848473ffffffffffffffffffffffffffffffffffffffff16611650909392919063ffffffff16565b5050565b6116cc848573ffffffffffffffffffffffffffffffffffffffff166323b872dd86868660405160240161168593929190612305565b604051602081830303815290604052915060e01b6020820180517bffffffffffffffffffffffffffffffffffffffffffffffffffffffff83818316178352505050506116d2565b50505050565b5f8060205f8451602086015f885af1806116f1576040513d5f823e3d81fd5b3d92505f519150505f821461170a576001811415611725565b5f8473ffffffffffffffffffffffffffffffffffffffff163b145b1561176757836040517f5274afe700000000000000000000000000000000000000000000000000000000815260040161175e9190611fa0565b60405180910390fd5b50505050565b60405180606001604052805f80191681526020015f67ffffffffffffffff16815260200161179961179f565b81525090565b60405180604001604052805f81526020015f81525090565b5f604051905090565b5f80fd5b5f80fd5b5f80fd5b5f606082840312156117e1576117e06117c8565b5b81905092915050565b5f819050919050565b6117fc816117ea565b8114611806575f80fd5b50565b5f81359050611817816117f3565b92915050565b5f80fd5b5f80fd5b5f80fd5b5f8083601f84011261183e5761183d61181d565b5b8235905067ffffffffffffffff81111561185b5761185a611821565b5b60208301915083600182028301111561187757611876611825565b5b9250929050565b5f73ffffffffffffffffffffffffffffffffffffffff82169050919050565b5f6118a78261187e565b9050919050565b6118b78161189d565b81146118c1575f80fd5b50565b5f813590506118d2816118ae565b92915050565b5f805f805f805f60e0888a0312156118f3576118f26117c0565b5b5f6119008a828b016117cc565b97505060606119118a828b01611809565b965050608088013567ffffffffffffffff811115611932576119316117c4565b5b61193e8a828b01611829565b955095505060a06119518a828b016118c4565b93505060c088013567ffffffffffffffff811115611972576119716117c4565b5b61197e8a828b01611829565b925092505092959891949750929550565b5f67ffffffffffffffff82169050919050565b6119ab8161198f565b82525050565b5f6040820190506119c45f8301856119a2565b6119d160208301846119a2565b9392505050565b5f61ffff82169050919050565b6119ee816119d8565b81146119f8575f80fd5b50565b5f81359050611a09816119e5565b92915050565b5f60208284031215611a2457611a236117c0565b5b5f611a31848285016119fb565b91505092915050565b5f63ffffffff82169050919050565b611a5281611a3a565b8114611a5c575f80fd5b50565b5f81359050611a6d81611a49565b92915050565b5f8060408385031215611a8957611a886117c0565b5b5f611a9685828601611a5f565b9250506020611aa785828601611809565b9150509250929050565b5f819050919050565b5f611ad4611acf611aca8461187e565b611ab1565b61187e565b9050919050565b5f611ae582611aba565b9050919050565b5f611af682611adb565b9050919050565b611b0681611aec565b82525050565b5f602082019050611b1f5f830184611afd565b92915050565b5f8083601f840112611b3a57611b3961181d565b5b8235905067ffffffffffffffff811115611b5757611b56611821565b5b602083019150836001820283011115611b7357611b72611825565b5b9250929050565b5f819050919050565b611b8c81611b7a565b8114611b96575f80fd5b50565b5f81359050611ba781611b83565b92915050565b5f805f805f805f60a0888a031215611bc857611bc76117c0565b5b5f88013567ffffffffffffffff811115611be557611be46117c4565b5b611bf18a828b01611b25565b97509750506020611c048a828b01611b99565b9550506040611c158a828b016118c4565b9450506060611c268a828b016119fb565b935050608088013567ffffffffffffffff811115611c4757611c466117c4565b5b611c538a828b01611829565b925092505092959891949750929550565b611c6d816117ea565b82525050565b611c7c8161198f565b82525050565b611c8b81611b7a565b82525050565b604082015f820151611ca55f850182611c82565b506020820151611cb86020850182611c82565b50505050565b608082015f820151611cd25f850182611c64565b506020820151611ce56020850182611c73565b506040820151611cf86040850182611c91565b50505050565b5f608082019050611d115f830184611cbe565b92915050565b5f602082019050611d2a5f8301846119a2565b92915050565b5f805f8060a08587031215611d4857611d476117c0565b5b5f611d55878288016117cc565b945050606085013567ffffffffffffffff811115611d7657611d756117c4565b5b611d8287828801611829565b93509350506080611d95878288016118c4565b91505092959194509250565b5f8115159050919050565b611db581611da1565b82525050565b5f602082019050611dce5f830184611dac565b92915050565b5f8060408385031215611dea57611de96117c0565b5b5f611df7858286016118c4565b9250506020611e0885828601611b99565b9150509250929050565b5f80fd5b5f601f19601f8301169050919050565b7f4e487b71000000000000000000000000000000000000000000000000000000005f52604160045260245ffd5b611e5c82611e16565b810181811067ffffffffffffffff82111715611e7b57611e7a611e26565b5b80604052505050565b5f611e8d6117b7565b9050611e998282611e53565b919050565b5f67ffffffffffffffff821115611eb857611eb7611e26565b5b611ec182611e16565b9050602081019050919050565b828183375f83830152505050565b5f611eee611ee984611e9e565b611e84565b905082815260208101848484011115611f0a57611f09611e12565b5b611f15848285611ece565b509392505050565b5f82601f830112611f3157611f3061181d565b5b8135611f41848260208601611edc565b91505092915050565b5f60208284031215611f5f57611f5e6117c0565b5b5f82013567ffffffffffffffff811115611f7c57611f7b6117c4565b5b611f8884828501611f1d565b91505092915050565b611f9a8161189d565b82525050565b5f602082019050611fb35f830184611f91565b92915050565b5f8060208385031215611fcf57611fce6117c0565b5b5f83013567ffffffffffffffff811115611fec57611feb6117c4565b5b611ff885828601611b25565b92509250509250929050565b61200d816119d8565b82525050565b5f6020820190506120265f830184612004565b92915050565b5f60208284031215612041576120406117c0565b5b5f61204e84828501611a5f565b91505092915050565b612060816117ea565b82525050565b5f6020820190506120795f830184612057565b92915050565b5f60208284031215612094576120936117c0565b5b5f6120a1848285016118c4565b91505092915050565b5f805f604084860312156120c1576120c06117c0565b5b5f84013567ffffffffffffffff8111156120de576120dd6117c4565b5b6120ea86828701611b25565b935093505060206120fd868287016118c4565b9150509250925092565b5f6060828403121561211c5761211b6117c0565b5b5f612129848285016117cc565b91505092915050565b61213b81611a3a565b82525050565b5f6040820190506121545f830185612132565b6121616020830184612057565b9392505050565b5f82825260208201905092915050565b7f4665652063616e6e6f74206578636565642031250000000000000000000000005f82015250565b5f6121ac601483612168565b91506121b782612178565b602082019050919050565b5f6020820190508181035f8301526121d9816121a0565b9050919050565b7f496e76616c6964207265636569766572206164647265737300000000000000005f82015250565b5f612214601883612168565b915061221f826121e0565b602082019050919050565b5f6020820190508181035f83015261224181612208565b9050919050565b5f81905092915050565b5f61225d8385612248565b935061226a838584611ece565b82840190509392505050565b5f612282828486612252565b91508190509392505050565b7f546f6b656e206e6f7420737570706f72746564000000000000000000000000005f82015250565b5f6122c2601383612168565b91506122cd8261228e565b602082019050919050565b5f6020820190508181035f8301526122ef816122b6565b9050919050565b6122ff81611b7a565b82525050565b5f6060820190506123185f830186611f91565b6123256020830185611f91565b61233260408301846122f6565b949350505050565b61234381611da1565b811461234d575f80fd5b50565b5f8151905061235e8161233a565b92915050565b5f60208284031215612379576123786117c0565b5b5f61238684828501612350565b91505092915050565b7f546f6b656e207472616e73666572206661696c656400000000000000000000005f82015250565b5f6123c3601583612168565b91506123ce8261238f565b602082019050919050565b5f6020820190508181035f8301526123f0816123b7565b9050919050565b7f4e487b71000000000000000000000000000000000000000000000000000000005f52601160045260245ffd5b5f61242e82611b7a565b915061243983611b7a565b925082820261244781611b7a565b9150828204841483151761245e5761245d6123f7565b5b5092915050565b7f4e487b71000000000000000000000000000000000000000000000000000000005f52601260045260245ffd5b5f61249c82611b7a565b91506124a783611b7a565b9250826124b7576124b6612465565b5b828204905092915050565b5f6124cc82611b7a565b91506124d783611b7a565b92508282039050818111156124ef576124ee6123f7565b5b92915050565b5f6125008385612168565b935061250d838584611ece565b61251683611e16565b840190509392505050565b5f6060820190506125345f830187611f91565b81810360208301526125478185876124f5565b905061255660408301846122f6565b95945050505050565b5f6060820190506125725f830186611f91565b61257f60208301856122f6565b61258c6040830184612004565b949350505050565b5f6040820190506125a75f830185611f91565b6125b460208301846122f6565b9392505050565b5f6020820190506125ce5f830184612132565b92915050565b5f6125de8261187e565b9050919050565b6125ee816125d4565b81146125f8575f80fd5b50565b5f81359050612609816125e5565b92915050565b5f805f60608486031215612626576126256117c0565b5b5f612633868287016125fb565b935050602084013567ffffffffffffffff811115612654576126536117c4565b5b61266086828701611f1d565b925050604061267186828701611b99565b9150509250925092565b5f81519050919050565b8281835e5f83830152505050565b5f61269d8261267b565b6126a78185612248565b93506126b7818560208601612685565b80840191505092915050565b5f6126ce8284612693565b915081905092915050565b6126e281611a3a565b82525050565b5f81519050919050565b5f82825260208201905092915050565b5f61270c826126e8565b61271681856126f2565b9350612726818560208601612685565b61272f81611e16565b840191505092915050565b61274381611da1565b82525050565b5f60a083015f83015161275e5f8601826126d9565b5060208301516127716020860182611c64565b50604083015184820360408601526127898282612702565b915050606083015184820360608601526127a38282612702565b91505060808301516127b8608086018261273a565b508091505092915050565b5f6040820190508181035f8301526127db8185612749565b90506127ea6020830184611f91565b9392505050565b5f80fd5b5f81519050612803816117f3565b92915050565b6128128161198f565b811461281c575f80fd5b50565b5f8151905061282d81612809565b92915050565b5f8151905061284181611b83565b92915050565b5f6040828403121561285c5761285b6127f1565b5b6128666040611e84565b90505f61287584828501612833565b5f83015250602061288884828501612833565b60208301525092915050565b5f608082840312156128a9576128a86127f1565b5b6128b36060611e84565b90505f6128c2848285016127f5565b5f8301525060206128d58482850161281f565b60208301525060406128e984828501612847565b60408301525092915050565b5f6080828403121561290a576129096117c0565b5b5f61291784828501612894565b91505092915050565b5f6020820190506129335f8301846122f6565b92915050565b5f81519050612947816118ae565b92915050565b5f60208284031215612962576129616117c0565b5b5f61296f84828501612939565b9150509291505056fea26469706673582212205309ea0167c12ce27afe71c08c00be0c0300fb886e6a5c1b5fdf74208a799c1864736f6c634300081a0033",
					"opcodes": "PUSH1 0xA0 PUSH1 0x40 MSTORE CALLVALUE DUP1 ISZERO PUSH2 0xF JUMPI PUSH0 DUP1 REVERT JUMPDEST POP PUSH1 0x40 MLOAD PUSH2 0x2D96 CODESIZE SUB DUP1 PUSH2 0x2D96 DUP4 CODECOPY DUP2 DUP2 ADD PUSH1 0x40 MSTORE DUP2 ADD SWAP1 PUSH2 0x31 SWAP2 SWAP1 PUSH2 0x335 JUMP JUMPDEST DUP2 DUP4 DUP2 DUP2 DUP7 PUSH0 PUSH20 0xFFFFFFFFFFFFFFFFFFFFFFFFFFFFFFFFFFFFFFFF AND DUP2 PUSH20 0xFFFFFFFFFFFFFFFFFFFFFFFFFFFFFFFFFFFFFFFF AND SUB PUSH2 0xA6 JUMPI PUSH0 PUSH1 0x40 MLOAD PUSH32 0x1E4FBDF700000000000000000000000000000000000000000000000000000000 DUP2 MSTORE PUSH1 0x4 ADD PUSH2 0x9D SWAP2 SWAP1 PUSH2 0x394 JUMP JUMPDEST PUSH1 0x40 MLOAD DUP1 SWAP2 SUB SWAP1 REVERT JUMPDEST PUSH2 0xB5 DUP2 PUSH2 0x1DF PUSH1 0x20 SHL PUSH1 0x20 SHR JUMP JUMPDEST POP DUP2 PUSH20 0xFFFFFFFFFFFFFFFFFFFFFFFFFFFFFFFFFFFFFFFF AND PUSH1 0x80 DUP2 PUSH20 0xFFFFFFFFFFFFFFFFFFFFFFFFFFFFFFFFFFFFFFFF AND DUP2 MSTORE POP POP PUSH0 PUSH20 0xFFFFFFFFFFFFFFFFFFFFFFFFFFFFFFFFFFFFFFFF AND DUP2 PUSH20 0xFFFFFFFFFFFFFFFFFFFFFFFFFFFFFFFFFFFFFFFF AND SUB PUSH2 0x14F JUMPI PUSH1 0x40 MLOAD PUSH32 0xB586360400000000000000000000000000000000000000000000000000000000 DUP2 MSTORE PUSH1 0x4 ADD PUSH1 0x40 MLOAD DUP1 SWAP2 SUB SWAP1 REVERT JUMPDEST PUSH1 0x80 MLOAD PUSH20 0xFFFFFFFFFFFFFFFFFFFFFFFFFFFFFFFFFFFFFFFF AND PUSH4 0xCA5EB5E1 DUP3 PUSH1 0x40 MLOAD DUP3 PUSH4 0xFFFFFFFF AND PUSH1 0xE0 SHL DUP2 MSTORE PUSH1 0x4 ADD PUSH2 0x18A SWAP2 SWAP1 PUSH2 0x394 JUMP JUMPDEST PUSH0 PUSH1 0x40 MLOAD DUP1 DUP4 SUB DUP2 PUSH0 DUP8 DUP1 EXTCODESIZE ISZERO DUP1 ISZERO PUSH2 0x1A1 JUMPI PUSH0 DUP1 REVERT JUMPDEST POP GAS CALL ISZERO DUP1 ISZERO PUSH2 0x1B3 JUMPI RETURNDATASIZE PUSH0 DUP1 RETURNDATACOPY RETURNDATASIZE PUSH0 REVERT JUMPDEST POP POP POP POP POP POP POP POP DUP1 PUSH1 0x3 PUSH0 PUSH2 0x100 EXP DUP2 SLOAD DUP2 PUSH2 0xFFFF MUL NOT AND SWAP1 DUP4 PUSH2 0xFFFF AND MUL OR SWAP1 SSTORE POP POP POP POP PUSH2 0x3AD JUMP JUMPDEST PUSH0 DUP1 PUSH0 SWAP1 SLOAD SWAP1 PUSH2 0x100 EXP SWAP1 DIV PUSH20 0xFFFFFFFFFFFFFFFFFFFFFFFFFFFFFFFFFFFFFFFF AND SWAP1 POP DUP2 PUSH0 DUP1 PUSH2 0x100 EXP DUP2 SLOAD DUP2 PUSH20 0xFFFFFFFFFFFFFFFFFFFFFFFFFFFFFFFFFFFFFFFF MUL NOT AND SWAP1 DUP4 PUSH20 0xFFFFFFFFFFFFFFFFFFFFFFFFFFFFFFFFFFFFFFFF AND MUL OR SWAP1 SSTORE POP DUP2 PUSH20 0xFFFFFFFFFFFFFFFFFFFFFFFFFFFFFFFFFFFFFFFF AND DUP2 PUSH20 0xFFFFFFFFFFFFFFFFFFFFFFFFFFFFFFFFFFFFFFFF AND PUSH32 0x8BE0079C531659141344CD1FD0A4F28419497F9722A3DAAFE3B4186F6B6457E0 PUSH1 0x40 MLOAD PUSH1 0x40 MLOAD DUP1 SWAP2 SUB SWAP1 LOG3 POP POP JUMP JUMPDEST PUSH0 DUP1 REVERT JUMPDEST PUSH0 PUSH20 0xFFFFFFFFFFFFFFFFFFFFFFFFFFFFFFFFFFFFFFFF DUP3 AND SWAP1 POP SWAP2 SWAP1 POP JUMP JUMPDEST PUSH0 PUSH2 0x2CD DUP3 PUSH2 0x2A4 JUMP JUMPDEST SWAP1 POP SWAP2 SWAP1 POP JUMP JUMPDEST PUSH2 0x2DD DUP2 PUSH2 0x2C3 JUMP JUMPDEST DUP2 EQ PUSH2 0x2E7 JUMPI PUSH0 DUP1 REVERT JUMPDEST POP JUMP JUMPDEST PUSH0 DUP2 MLOAD SWAP1 POP PUSH2 0x2F8 DUP2 PUSH2 0x2D4 JUMP JUMPDEST SWAP3 SWAP2 POP POP JUMP JUMPDEST PUSH0 PUSH2 0xFFFF DUP3 AND SWAP1 POP SWAP2 SWAP1 POP JUMP JUMPDEST PUSH2 0x314 DUP2 PUSH2 0x2FE JUMP JUMPDEST DUP2 EQ PUSH2 0x31E JUMPI PUSH0 DUP1 REVERT JUMPDEST POP JUMP JUMPDEST PUSH0 DUP2 MLOAD SWAP1 POP PUSH2 0x32F DUP2 PUSH2 0x30B JUMP JUMPDEST SWAP3 SWAP2 POP POP JUMP JUMPDEST PUSH0 DUP1 PUSH0 PUSH1 0x60 DUP5 DUP7 SUB SLT ISZERO PUSH2 0x34C JUMPI PUSH2 0x34B PUSH2 0x2A0 JUMP JUMPDEST JUMPDEST PUSH0 PUSH2 0x359 DUP7 DUP3 DUP8 ADD PUSH2 0x2EA JUMP JUMPDEST SWAP4 POP POP PUSH1 0x20 PUSH2 0x36A DUP7 DUP3 DUP8 ADD PUSH2 0x2EA JUMP JUMPDEST SWAP3 POP POP PUSH1 0x40 PUSH2 0x37B DUP7 DUP3 DUP8 ADD PUSH2 0x321 JUMP JUMPDEST SWAP2 POP POP SWAP3 POP SWAP3 POP SWAP3 JUMP JUMPDEST PUSH2 0x38E DUP2 PUSH2 0x2C3 JUMP JUMPDEST DUP3 MSTORE POP POP JUMP JUMPDEST PUSH0 PUSH1 0x20 DUP3 ADD SWAP1 POP PUSH2 0x3A7 PUSH0 DUP4 ADD DUP5 PUSH2 0x385 JUMP JUMPDEST SWAP3 SWAP2 POP POP JUMP JUMPDEST PUSH1 0x80 MLOAD PUSH2 0x29AE PUSH2 0x3E8 PUSH0 CODECOPY PUSH0 DUP2 DUP2 PUSH2 0x4A0 ADD MSTORE DUP2 DUP2 PUSH2 0x691 ADD MSTORE DUP2 DUP2 PUSH2 0xD1C ADD MSTORE DUP2 DUP2 PUSH2 0x1312 ADD MSTORE DUP2 DUP2 PUSH2 0x150D ADD MSTORE PUSH2 0x1605 ADD MSTORE PUSH2 0x29AE PUSH0 RETURN INVALID PUSH1 0x80 PUSH1 0x40 MSTORE PUSH1 0x4 CALLDATASIZE LT PUSH2 0x11E JUMPI PUSH0 CALLDATALOAD PUSH1 0xE0 SHR DUP1 PUSH4 0x8980F11F GT PUSH2 0x9F JUMPI DUP1 PUSH4 0xBB0B6A53 GT PUSH2 0x63 JUMPI DUP1 PUSH4 0xBB0B6A53 EQ PUSH2 0x397 JUMPI DUP1 PUSH4 0xCA5EB5E1 EQ PUSH2 0x3D3 JUMPI DUP1 PUSH4 0xED88ED6C EQ PUSH2 0x3FB JUMPI DUP1 PUSH4 0xF2FDE38B EQ PUSH2 0x423 JUMPI DUP1 PUSH4 0xFF7BD03D EQ PUSH2 0x44B JUMPI PUSH2 0x11E JUMP JUMPDEST DUP1 PUSH4 0x8980F11F EQ PUSH2 0x2B7 JUMPI DUP1 PUSH4 0x89919CDD EQ PUSH2 0x2DF JUMPI DUP1 PUSH4 0x8DA5CB5B EQ PUSH2 0x31B JUMPI DUP1 PUSH4 0x92543A8A EQ PUSH2 0x345 JUMPI DUP1 PUSH4 0xB8606EEF EQ PUSH2 0x36D JUMPI PUSH2 0x11E JUMP JUMPDEST DUP1 PUSH4 0x5E280F11 GT PUSH2 0xE6 JUMPI DUP1 PUSH4 0x5E280F11 EQ PUSH2 0x1CF JUMPI DUP1 PUSH4 0x6C29EB06 EQ PUSH2 0x1F9 JUMPI DUP1 PUSH4 0x715018A6 EQ PUSH2 0x229 JUMPI DUP1 PUSH4 0x7D25A05E EQ PUSH2 0x23F JUMPI DUP1 PUSH4 0x82413EAC EQ PUSH2 0x27B JUMPI PUSH2 0x11E JUMP JUMPDEST DUP1 PUSH4 0x13137D65 EQ PUSH2 0x122 JUMPI DUP1 PUSH4 0x17442B70 EQ PUSH2 0x13E JUMPI DUP1 PUSH4 0x2C6CDA93 EQ PUSH2 0x169 JUMPI DUP1 PUSH4 0x3400288B EQ PUSH2 0x191 JUMPI DUP1 PUSH4 0x5A54DB86 EQ PUSH2 0x1B9 JUMPI JUMPDEST PUSH0 DUP1 REVERT JUMPDEST PUSH2 0x13C PUSH1 0x4 DUP1 CALLDATASIZE SUB DUP2 ADD SWAP1 PUSH2 0x137 SWAP2 SWAP1 PUSH2 0x18D8 JUMP JUMPDEST PUSH2 0x487 JUMP JUMPDEST STOP JUMPDEST CALLVALUE DUP1 ISZERO PUSH2 0x149 JUMPI PUSH0 DUP1 REVERT JUMPDEST POP PUSH2 0x152 PUSH2 0x5A7 JUMP JUMPDEST PUSH1 0x40 MLOAD PUSH2 0x160 SWAP3 SWAP2 SWAP1 PUSH2 0x19B1 JUMP JUMPDEST PUSH1 0x40 MLOAD DUP1 SWAP2 SUB SWAP1 RETURN JUMPDEST CALLVALUE DUP1 ISZERO PUSH2 0x174 JUMPI PUSH0 DUP1 REVERT JUMPDEST POP PUSH2 0x18F PUSH1 0x4 DUP1 CALLDATASIZE SUB DUP2 ADD SWAP1 PUSH2 0x18A SWAP2 SWAP1 PUSH2 0x1A0F JUMP JUMPDEST PUSH2 0x5B5 JUMP JUMPDEST STOP JUMPDEST CALLVALUE DUP1 ISZERO PUSH2 0x19C JUMPI PUSH0 DUP1 REVERT JUMPDEST POP PUSH2 0x1B7 PUSH1 0x4 DUP1 CALLDATASIZE SUB DUP2 ADD SWAP1 PUSH2 0x1B2 SWAP2 SWAP1 PUSH2 0x1A73 JUMP JUMPDEST PUSH2 0x624 JUMP JUMPDEST STOP JUMPDEST CALLVALUE DUP1 ISZERO PUSH2 0x1C4 JUMPI PUSH0 DUP1 REVERT JUMPDEST POP PUSH2 0x1CD PUSH2 0x63A JUMP JUMPDEST STOP JUMPDEST CALLVALUE DUP1 ISZERO PUSH2 0x1DA JUMPI PUSH0 DUP1 REVERT JUMPDEST POP PUSH2 0x1E3 PUSH2 0x68F JUMP JUMPDEST PUSH1 0x40 MLOAD PUSH2 0x1F0 SWAP2 SWAP1 PUSH2 0x1B0C JUMP JUMPDEST PUSH1 0x40 MLOAD DUP1 SWAP2 SUB SWAP1 RETURN JUMPDEST PUSH2 0x213 PUSH1 0x4 DUP1 CALLDATASIZE SUB DUP2 ADD SWAP1 PUSH2 0x20E SWAP2 SWAP1 PUSH2 0x1BAD JUMP JUMPDEST PUSH2 0x6B3 JUMP JUMPDEST PUSH1 0x40 MLOAD PUSH2 0x220 SWAP2 SWAP1 PUSH2 0x1CFE JUMP JUMPDEST PUSH1 0x40 MLOAD DUP1 SWAP2 SUB SWAP1 RETURN JUMPDEST CALLVALUE DUP1 ISZERO PUSH2 0x234 JUMPI PUSH0 DUP1 REVERT JUMPDEST POP PUSH2 0x23D PUSH2 0xA59 JUMP JUMPDEST STOP JUMPDEST CALLVALUE DUP1 ISZERO PUSH2 0x24A JUMPI PUSH0 DUP1 REVERT JUMPDEST POP PUSH2 0x265 PUSH1 0x4 DUP1 CALLDATASIZE SUB DUP2 ADD SWAP1 PUSH2 0x260 SWAP2 SWAP1 PUSH2 0x1A73 JUMP JUMPDEST PUSH2 0xA6C JUMP JUMPDEST PUSH1 0x40 MLOAD PUSH2 0x272 SWAP2 SWAP1 PUSH2 0x1D17 JUMP JUMPDEST PUSH1 0x40 MLOAD DUP1 SWAP2 SUB SWAP1 RETURN JUMPDEST CALLVALUE DUP1 ISZERO PUSH2 0x286 JUMPI PUSH0 DUP1 REVERT JUMPDEST POP PUSH2 0x2A1 PUSH1 0x4 DUP1 CALLDATASIZE SUB DUP2 ADD SWAP1 PUSH2 0x29C SWAP2 SWAP1 PUSH2 0x1D30 JUMP JUMPDEST PUSH2 0xA73 JUMP JUMPDEST PUSH1 0x40 MLOAD PUSH2 0x2AE SWAP2 SWAP1 PUSH2 0x1DBB JUMP JUMPDEST PUSH1 0x40 MLOAD DUP1 SWAP2 SUB SWAP1 RETURN JUMPDEST CALLVALUE DUP1 ISZERO PUSH2 0x2C2 JUMPI PUSH0 DUP1 REVERT JUMPDEST POP PUSH2 0x2DD PUSH1 0x4 DUP1 CALLDATASIZE SUB DUP2 ADD SWAP1 PUSH2 0x2D8 SWAP2 SWAP1 PUSH2 0x1DD4 JUMP JUMPDEST PUSH2 0xAAD JUMP JUMPDEST STOP JUMPDEST CALLVALUE DUP1 ISZERO PUSH2 0x2EA JUMPI PUSH0 DUP1 REVERT JUMPDEST POP PUSH2 0x305 PUSH1 0x4 DUP1 CALLDATASIZE SUB DUP2 ADD SWAP1 PUSH2 0x300 SWAP2 SWAP1 PUSH2 0x1F4A JUMP JUMPDEST PUSH2 0xB3C JUMP JUMPDEST PUSH1 0x40 MLOAD PUSH2 0x312 SWAP2 SWAP1 PUSH2 0x1FA0 JUMP JUMPDEST PUSH1 0x40 MLOAD DUP1 SWAP2 SUB SWAP1 RETURN JUMPDEST CALLVALUE DUP1 ISZERO PUSH2 0x326 JUMPI PUSH0 DUP1 REVERT JUMPDEST POP PUSH2 0x32F PUSH2 0xB84 JUMP JUMPDEST PUSH1 0x40 MLOAD PUSH2 0x33C SWAP2 SWAP1 PUSH2 0x1FA0 JUMP JUMPDEST PUSH1 0x40 MLOAD DUP1 SWAP2 SUB SWAP1 RETURN JUMPDEST CALLVALUE DUP1 ISZERO PUSH2 0x350 JUMPI PUSH0 DUP1 REVERT JUMPDEST POP PUSH2 0x36B PUSH1 0x4 DUP1 CALLDATASIZE SUB DUP2 ADD SWAP1 PUSH2 0x366 SWAP2 SWAP1 PUSH2 0x1FB9 JUMP JUMPDEST PUSH2 0xBAB JUMP JUMPDEST STOP JUMPDEST CALLVALUE DUP1 ISZERO PUSH2 0x378 JUMPI PUSH0 DUP1 REVERT JUMPDEST POP PUSH2 0x381 PUSH2 0xCEA JUMP JUMPDEST PUSH1 0x40 MLOAD PUSH2 0x38E SWAP2 SWAP1 PUSH2 0x2013 JUMP JUMPDEST PUSH1 0x40 MLOAD DUP1 SWAP2 SUB SWAP1 RETURN JUMPDEST CALLVALUE DUP1 ISZERO PUSH2 0x3A2 JUMPI PUSH0 DUP1 REVERT JUMPDEST POP PUSH2 0x3BD PUSH1 0x4 DUP1 CALLDATASIZE SUB DUP2 ADD SWAP1 PUSH2 0x3B8 SWAP2 SWAP1 PUSH2 0x202C JUMP JUMPDEST PUSH2 0xCFD JUMP JUMPDEST PUSH1 0x40 MLOAD PUSH2 0x3CA SWAP2 SWAP1 PUSH2 0x2066 JUMP JUMPDEST PUSH1 0x40 MLOAD DUP1 SWAP2 SUB SWAP1 RETURN JUMPDEST CALLVALUE DUP1 ISZERO PUSH2 0x3DE JUMPI PUSH0 DUP1 REVERT JUMPDEST POP PUSH2 0x3F9 PUSH1 0x4 DUP1 CALLDATASIZE SUB DUP2 ADD SWAP1 PUSH2 0x3F4 SWAP2 SWAP1 PUSH2 0x207F JUMP JUMPDEST PUSH2 0xD12 JUMP JUMPDEST STOP JUMPDEST CALLVALUE DUP1 ISZERO PUSH2 0x406 JUMPI PUSH0 DUP1 REVERT JUMPDEST POP PUSH2 0x421 PUSH1 0x4 DUP1 CALLDATASIZE SUB DUP2 ADD SWAP1 PUSH2 0x41C SWAP2 SWAP1 PUSH2 0x20AA JUMP JUMPDEST PUSH2 0xDA3 JUMP JUMPDEST STOP JUMPDEST CALLVALUE DUP1 ISZERO PUSH2 0x42E JUMPI PUSH0 DUP1 REVERT JUMPDEST POP PUSH2 0x449 PUSH1 0x4 DUP1 CALLDATASIZE SUB DUP2 ADD SWAP1 PUSH2 0x444 SWAP2 SWAP1 PUSH2 0x207F JUMP JUMPDEST PUSH2 0xE69 JUMP JUMPDEST STOP JUMPDEST CALLVALUE DUP1 ISZERO PUSH2 0x456 JUMPI PUSH0 DUP1 REVERT JUMPDEST POP PUSH2 0x471 PUSH1 0x4 DUP1 CALLDATASIZE SUB DUP2 ADD SWAP1 PUSH2 0x46C SWAP2 SWAP1 PUSH2 0x2107 JUMP JUMPDEST PUSH2 0xEED JUMP JUMPDEST PUSH1 0x40 MLOAD PUSH2 0x47E SWAP2 SWAP1 PUSH2 0x1DBB JUMP JUMPDEST PUSH1 0x40 MLOAD DUP1 SWAP2 SUB SWAP1 RETURN JUMPDEST CALLER PUSH20 0xFFFFFFFFFFFFFFFFFFFFFFFFFFFFFFFFFFFFFFFF AND PUSH32 0x0 PUSH20 0xFFFFFFFFFFFFFFFFFFFFFFFFFFFFFFFFFFFFFFFF AND EQ PUSH2 0x517 JUMPI CALLER PUSH1 0x40 MLOAD PUSH32 0x91AC5E4F00000000000000000000000000000000000000000000000000000000 DUP2 MSTORE PUSH1 0x4 ADD PUSH2 0x50E SWAP2 SWAP1 PUSH2 0x1FA0 JUMP JUMPDEST PUSH1 0x40 MLOAD DUP1 SWAP2 SUB SWAP1 REVERT JUMPDEST DUP7 PUSH1 0x20 ADD CALLDATALOAD PUSH2 0x536 DUP9 PUSH0 ADD PUSH1 0x20 DUP2 ADD SWAP1 PUSH2 0x531 SWAP2 SWAP1 PUSH2 0x202C JUMP JUMPDEST PUSH2 0xF2A JUMP JUMPDEST EQ PUSH2 0x58F JUMPI DUP7 PUSH0 ADD PUSH1 0x20 DUP2 ADD SWAP1 PUSH2 0x54D SWAP2 SWAP1 PUSH2 0x202C JUMP JUMPDEST DUP8 PUSH1 0x20 ADD CALLDATALOAD PUSH1 0x40 MLOAD PUSH32 0xC26BEBCC00000000000000000000000000000000000000000000000000000000 DUP2 MSTORE PUSH1 0x4 ADD PUSH2 0x586 SWAP3 SWAP2 SWAP1 PUSH2 0x2141 JUMP JUMPDEST PUSH1 0x40 MLOAD DUP1 SWAP2 SUB SWAP1 REVERT JUMPDEST PUSH2 0x59E DUP8 DUP8 DUP8 DUP8 DUP8 DUP8 DUP8 PUSH2 0xF9B JUMP JUMPDEST POP POP POP POP POP POP POP JUMP JUMPDEST PUSH0 DUP1 PUSH1 0x1 PUSH1 0x2 SWAP2 POP SWAP2 POP SWAP1 SWAP2 JUMP JUMPDEST PUSH2 0x5BD PUSH2 0x11F9 JUMP JUMPDEST PUSH1 0x64 DUP2 PUSH2 0xFFFF AND GT ISZERO PUSH2 0x605 JUMPI PUSH1 0x40 MLOAD PUSH32 0x8C379A000000000000000000000000000000000000000000000000000000000 DUP2 MSTORE PUSH1 0x4 ADD PUSH2 0x5FC SWAP1 PUSH2 0x21C2 JUMP JUMPDEST PUSH1 0x40 MLOAD DUP1 SWAP2 SUB SWAP1 REVERT JUMPDEST DUP1 PUSH1 0x3 PUSH0 PUSH2 0x100 EXP DUP2 SLOAD DUP2 PUSH2 0xFFFF MUL NOT AND SWAP1 DUP4 PUSH2 0xFFFF AND MUL OR SWAP1 SSTORE POP POP JUMP JUMPDEST PUSH2 0x62C PUSH2 0x11F9 JUMP JUMPDEST PUSH2 0x636 DUP3 DUP3 PUSH2 0x1280 JUMP JUMPDEST POP POP JUMP JUMPDEST PUSH2 0x642 PUSH2 0x11F9 JUMP JUMPDEST PUSH2 0x64A PUSH2 0xB84 JUMP JUMPDEST PUSH20 0xFFFFFFFFFFFFFFFFFFFFFFFFFFFFFFFFFFFFFFFF AND PUSH2 0x8FC SELFBALANCE SWAP1 DUP2 ISZERO MUL SWAP1 PUSH1 0x40 MLOAD PUSH0 PUSH1 0x40 MLOAD DUP1 DUP4 SUB DUP2 DUP6 DUP9 DUP9 CALL SWAP4 POP POP POP POP ISZERO DUP1 ISZERO PUSH2 0x68C JUMPI RETURNDATASIZE PUSH0 DUP1 RETURNDATACOPY RETURNDATASIZE PUSH0 REVERT JUMPDEST POP JUMP JUMPDEST PUSH32 0x0 DUP2 JUMP JUMPDEST PUSH2 0x6BB PUSH2 0x176D JUMP JUMPDEST PUSH0 PUSH20 0xFFFFFFFFFFFFFFFFFFFFFFFFFFFFFFFFFFFFFFFF AND DUP6 PUSH20 0xFFFFFFFFFFFFFFFFFFFFFFFFFFFFFFFFFFFFFFFF AND SUB PUSH2 0x729 JUMPI PUSH1 0x40 MLOAD PUSH32 0x8C379A000000000000000000000000000000000000000000000000000000000 DUP2 MSTORE PUSH1 0x4 ADD PUSH2 0x720 SWAP1 PUSH2 0x222A JUMP JUMPDEST PUSH1 0x40 MLOAD DUP1 SWAP2 SUB SWAP1 REVERT JUMPDEST PUSH0 PUSH20 0xFFFFFFFFFFFFFFFFFFFFFFFFFFFFFFFFFFFFFFFF AND PUSH1 0x2 DUP10 DUP10 PUSH1 0x40 MLOAD PUSH2 0x752 SWAP3 SWAP2 SWAP1 PUSH2 0x2276 JUMP JUMPDEST SWAP1 DUP2 MSTORE PUSH1 0x20 ADD PUSH1 0x40 MLOAD DUP1 SWAP2 SUB SWAP1 KECCAK256 PUSH0 SWAP1 SLOAD SWAP1 PUSH2 0x100 EXP SWAP1 DIV PUSH20 0xFFFFFFFFFFFFFFFFFFFFFFFFFFFFFFFFFFFFFFFF AND PUSH20 0xFFFFFFFFFFFFFFFFFFFFFFFFFFFFFFFFFFFFFFFF AND SUB PUSH2 0x7D6 JUMPI PUSH1 0x40 MLOAD PUSH32 0x8C379A000000000000000000000000000000000000000000000000000000000 DUP2 MSTORE PUSH1 0x4 ADD PUSH2 0x7CD SWAP1 PUSH2 0x22D8 JUMP JUMPDEST PUSH1 0x40 MLOAD DUP1 SWAP2 SUB SWAP1 REVERT JUMPDEST PUSH1 0x2 DUP9 DUP9 PUSH1 0x40 MLOAD PUSH2 0x7E8 SWAP3 SWAP2 SWAP1 PUSH2 0x2276 JUMP JUMPDEST SWAP1 DUP2 MSTORE PUSH1 0x20 ADD PUSH1 0x40 MLOAD DUP1 SWAP2 SUB SWAP1 KECCAK256 PUSH0 SWAP1 SLOAD SWAP1 PUSH2 0x100 EXP SWAP1 DIV PUSH20 0xFFFFFFFFFFFFFFFFFFFFFFFFFFFFFFFFFFFFFFFF AND PUSH20 0xFFFFFFFFFFFFFFFFFFFFFFFFFFFFFFFFFFFFFFFF AND PUSH4 0x23B872DD CALLER ADDRESS DUP10 PUSH1 0x40 MLOAD DUP5 PUSH4 0xFFFFFFFF AND PUSH1 0xE0 SHL DUP2 MSTORE PUSH1 0x4 ADD PUSH2 0x852 SWAP4 SWAP3 SWAP2 SWAP1 PUSH2 0x2305 JUMP JUMPDEST PUSH1 0x20 PUSH1 0x40 MLOAD DUP1 DUP4 SUB DUP2 PUSH0 DUP8 GAS CALL ISZERO DUP1 ISZERO PUSH2 0x86E JUMPI RETURNDATASIZE PUSH0 DUP1 RETURNDATACOPY RETURNDATASIZE PUSH0 REVERT JUMPDEST POP POP POP POP PUSH1 0x40 MLOAD RETURNDATASIZE PUSH1 0x1F NOT PUSH1 0x1F DUP3 ADD AND DUP3 ADD DUP1 PUSH1 0x40 MSTORE POP DUP2 ADD SWAP1 PUSH2 0x892 SWAP2 SWAP1 PUSH2 0x2364 JUMP JUMPDEST PUSH2 0x8D1 JUMPI PUSH1 0x40 MLOAD PUSH32 0x8C379A000000000000000000000000000000000000000000000000000000000 DUP2 MSTORE PUSH1 0x4 ADD PUSH2 0x8C8 SWAP1 PUSH2 0x23D9 JUMP JUMPDEST PUSH1 0x40 MLOAD DUP1 SWAP2 SUB SWAP1 REVERT JUMPDEST PUSH0 PUSH2 0x2710 PUSH1 0x3 PUSH0 SWAP1 SLOAD SWAP1 PUSH2 0x100 EXP SWAP1 DIV PUSH2 0xFFFF AND PUSH2 0xFFFF AND DUP9 PUSH2 0x8F4 SWAP2 SWAP1 PUSH2 0x2424 JUMP JUMPDEST PUSH2 0x8FE SWAP2 SWAP1 PUSH2 0x2492 JUMP JUMPDEST SWAP1 POP PUSH0 DUP2 DUP9 PUSH2 0x90D SWAP2 SWAP1 PUSH2 0x24C2 JUMP JUMPDEST SWAP1 POP PUSH0 DUP8 DUP12 DUP12 DUP5 PUSH1 0x40 MLOAD PUSH1 0x20 ADD PUSH2 0x927 SWAP5 SWAP4 SWAP3 SWAP2 SWAP1 PUSH2 0x2521 JUMP JUMPDEST PUSH1 0x40 MLOAD PUSH1 0x20 DUP2 DUP4 SUB SUB DUP2 MSTORE SWAP1 PUSH1 0x40 MSTORE SWAP1 POP PUSH2 0x9A0 DUP8 PUSH2 0xFFFF AND DUP3 DUP9 DUP9 DUP1 DUP1 PUSH1 0x1F ADD PUSH1 0x20 DUP1 SWAP2 DIV MUL PUSH1 0x20 ADD PUSH1 0x40 MLOAD SWAP1 DUP2 ADD PUSH1 0x40 MSTORE DUP1 SWAP4 SWAP3 SWAP2 SWAP1 DUP2 DUP2 MSTORE PUSH1 0x20 ADD DUP4 DUP4 DUP1 DUP3 DUP5 CALLDATACOPY PUSH0 DUP2 DUP5 ADD MSTORE PUSH1 0x1F NOT PUSH1 0x1F DUP3 ADD AND SWAP1 POP DUP1 DUP4 ADD SWAP3 POP POP POP POP POP POP POP PUSH1 0x40 MLOAD DUP1 PUSH1 0x40 ADD PUSH1 0x40 MSTORE DUP1 CALLVALUE DUP2 MSTORE PUSH1 0x20 ADD PUSH0 DUP2 MSTORE POP CALLER PUSH2 0x12DF JUMP JUMPDEST SWAP4 POP DUP2 PUSH1 0x2 DUP13 DUP13 PUSH1 0x40 MLOAD PUSH2 0x9B5 SWAP3 SWAP2 SWAP1 PUSH2 0x2276 JUMP JUMPDEST SWAP1 DUP2 MSTORE PUSH1 0x20 ADD PUSH1 0x40 MLOAD DUP1 SWAP2 SUB SWAP1 KECCAK256 PUSH0 SWAP1 SLOAD SWAP1 PUSH2 0x100 EXP SWAP1 DIV PUSH20 0xFFFFFFFFFFFFFFFFFFFFFFFFFFFFFFFFFFFFFFFF AND PUSH20 0xFFFFFFFFFFFFFFFFFFFFFFFFFFFFFFFFFFFFFFFF AND CALLER PUSH20 0xFFFFFFFFFFFFFFFFFFFFFFFFFFFFFFFFFFFFFFFF AND PUSH32 0x9AA0BD7524636A05D600ED870D6BBBF0A6FE436B4C0B4DFB5CFE417BE427BAC1 DUP12 DUP8 DUP13 PUSH1 0x40 MLOAD PUSH2 0xA43 SWAP4 SWAP3 SWAP2 SWAP1 PUSH2 0x255F JUMP JUMPDEST PUSH1 0x40 MLOAD DUP1 SWAP2 SUB SWAP1 LOG4 POP POP POP SWAP8 SWAP7 POP POP POP POP POP POP POP JUMP JUMPDEST PUSH2 0xA61 PUSH2 0x11F9 JUMP JUMPDEST PUSH2 0xA6A PUSH0 PUSH2 0x13F5 JUMP JUMPDEST JUMP JUMPDEST PUSH0 SWAP3 SWAP2 POP POP JUMP JUMPDEST PUSH0 ADDRESS PUSH20 0xFFFFFFFFFFFFFFFFFFFFFFFFFFFFFFFFFFFFFFFF AND DUP3 PUSH20 0xFFFFFFFFFFFFFFFFFFFFFFFFFFFFFFFFFFFFFFFF AND EQ SWAP1 POP SWAP5 SWAP4 POP POP POP POP JUMP JUMPDEST PUSH2 0xAB5 PUSH2 0x11F9 JUMP JUMPDEST DUP2 PUSH20 0xFFFFFFFFFFFFFFFFFFFFFFFFFFFFFFFFFFFFFFFF AND PUSH4 0xA9059CBB PUSH2 0xAD9 PUSH2 0xB84 JUMP JUMPDEST DUP4 PUSH1 0x40 MLOAD DUP4 PUSH4 0xFFFFFFFF AND PUSH1 0xE0 SHL DUP2 MSTORE PUSH1 0x4 ADD PUSH2 0xAF7 SWAP3 SWAP2 SWAP1 PUSH2 0x2594 JUMP JUMPDEST PUSH1 0x20 PUSH1 0x40 MLOAD DUP1 DUP4 SUB DUP2 PUSH0 DUP8 GAS CALL ISZERO DUP1 ISZERO PUSH2 0xB13 JUMPI RETURNDATASIZE PUSH0 DUP1 RETURNDATACOPY RETURNDATASIZE PUSH0 REVERT JUMPDEST POP POP POP POP PUSH1 0x40 MLOAD RETURNDATASIZE PUSH1 0x1F NOT PUSH1 0x1F DUP3 ADD AND DUP3 ADD DUP1 PUSH1 0x40 MSTORE POP DUP2 ADD SWAP1 PUSH2 0xB37 SWAP2 SWAP1 PUSH2 0x2364 JUMP JUMPDEST POP POP POP JUMP JUMPDEST PUSH1 0x2 DUP2 DUP1 MLOAD PUSH1 0x20 DUP2 ADD DUP3 ADD DUP1 MLOAD DUP5 DUP3 MSTORE PUSH1 0x20 DUP4 ADD PUSH1 0x20 DUP6 ADD KECCAK256 DUP2 DUP4 MSTORE DUP1 SWAP6 POP POP POP POP POP POP PUSH0 SWAP2 POP SLOAD SWAP1 PUSH2 0x100 EXP SWAP1 DIV PUSH20 0xFFFFFFFFFFFFFFFFFFFFFFFFFFFFFFFFFFFFFFFF AND DUP2 JUMP JUMPDEST PUSH0 DUP1 PUSH0 SWAP1 SLOAD SWAP1 PUSH2 0x100 EXP SWAP1 DIV PUSH20 0xFFFFFFFFFFFFFFFFFFFFFFFFFFFFFFFFFFFFFFFF AND SWAP1 POP SWAP1 JUMP JUMPDEST PUSH2 0xBB3 PUSH2 0x11F9 JUMP JUMPDEST PUSH0 PUSH20 0xFFFFFFFFFFFFFFFFFFFFFFFFFFFFFFFFFFFFFFFF AND PUSH1 0x2 DUP4 DUP4 PUSH1 0x40 MLOAD PUSH2 0xBDC SWAP3 SWAP2 SWAP1 PUSH2 0x2276 JUMP JUMPDEST SWAP1 DUP2 MSTORE PUSH1 0x20 ADD PUSH1 0x40 MLOAD DUP1 SWAP2 SUB SWAP1 KECCAK256 PUSH0 SWAP1 SLOAD SWAP1 PUSH2 0x100 EXP SWAP1 DIV PUSH20 0xFFFFFFFFFFFFFFFFFFFFFFFFFFFFFFFFFFFFFFFF AND PUSH20 0xFFFFFFFFFFFFFFFFFFFFFFFFFFFFFFFFFFFFFFFF AND SUB PUSH2 0xC60 JUMPI PUSH1 0x40 MLOAD PUSH32 0x8C379A000000000000000000000000000000000000000000000000000000000 DUP2 MSTORE PUSH1 0x4 ADD PUSH2 0xC57 SWAP1 PUSH2 0x22D8 JUMP JUMPDEST PUSH1 0x40 MLOAD DUP1 SWAP2 SUB SWAP1 REVERT JUMPDEST PUSH1 0x2 DUP3 DUP3 PUSH1 0x40 MLOAD PUSH2 0xC72 SWAP3 SWAP2 SWAP1 PUSH2 0x2276 JUMP JUMPDEST SWAP1 DUP2 MSTORE PUSH1 0x20 ADD PUSH1 0x40 MLOAD DUP1 SWAP2 SUB SWAP1 KECCAK256 PUSH0 PUSH2 0x100 EXP DUP2 SLOAD SWAP1 PUSH20 0xFFFFFFFFFFFFFFFFFFFFFFFFFFFFFFFFFFFFFFFF MUL NOT AND SWAP1 SSTORE DUP2 DUP2 PUSH1 0x40 MLOAD PUSH2 0xCB2 SWAP3 SWAP2 SWAP1 PUSH2 0x2276 JUMP JUMPDEST PUSH1 0x40 MLOAD DUP1 SWAP2 SUB SWAP1 KECCAK256 PUSH32 0xCDD02D37D444F381CCEA186DCDAF556989DCDEEEBAFC5CD307FE5E7609CD88C3 PUSH1 0x40 MLOAD PUSH1 0x40 MLOAD DUP1 SWAP2 SUB SWAP1 LOG2 POP POP JUMP JUMPDEST PUSH1 0x3 PUSH0 SWAP1 SLOAD SWAP1 PUSH2 0x100 EXP SWAP1 DIV PUSH2 0xFFFF AND DUP2 JUMP JUMPDEST PUSH1 0x1 PUSH1 0x20 MSTORE DUP1 PUSH0 MSTORE PUSH1 0x40 PUSH0 KECCAK256 PUSH0 SWAP2 POP SWAP1 POP SLOAD DUP2 JUMP JUMPDEST PUSH2 0xD1A PUSH2 0x11F9 JUMP JUMPDEST PUSH32 0x0 PUSH20 0xFFFFFFFFFFFFFFFFFFFFFFFFFFFFFFFFFFFFFFFF AND PUSH4 0xCA5EB5E1 DUP3 PUSH1 0x40 MLOAD DUP3 PUSH4 0xFFFFFFFF AND PUSH1 0xE0 SHL DUP2 MSTORE PUSH1 0x4 ADD PUSH2 0xD73 SWAP2 SWAP1 PUSH2 0x1FA0 JUMP JUMPDEST PUSH0 PUSH1 0x40 MLOAD DUP1 DUP4 SUB DUP2 PUSH0 DUP8 DUP1 EXTCODESIZE ISZERO DUP1 ISZERO PUSH2 0xD8A JUMPI PUSH0 DUP1 REVERT JUMPDEST POP GAS CALL ISZERO DUP1 ISZERO PUSH2 0xD9C JUMPI RETURNDATASIZE PUSH0 DUP1 RETURNDATACOPY RETURNDATASIZE PUSH0 REVERT JUMPDEST POP POP POP POP POP JUMP JUMPDEST PUSH2 0xDAB PUSH2 0x11F9 JUMP JUMPDEST DUP1 PUSH1 0x2 DUP5 DUP5 PUSH1 0x40 MLOAD PUSH2 0xDBE SWAP3 SWAP2 SWAP1 PUSH2 0x2276 JUMP JUMPDEST SWAP1 DUP2 MSTORE PUSH1 0x20 ADD PUSH1 0x40 MLOAD DUP1 SWAP2 SUB SWAP1 KECCAK256 PUSH0 PUSH2 0x100 EXP DUP2 SLOAD DUP2 PUSH20 0xFFFFFFFFFFFFFFFFFFFFFFFFFFFFFFFFFFFFFFFF MUL NOT AND SWAP1 DUP4 PUSH20 0xFFFFFFFFFFFFFFFFFFFFFFFFFFFFFFFFFFFFFFFF AND MUL OR SWAP1 SSTORE POP DUP1 PUSH20 0xFFFFFFFFFFFFFFFFFFFFFFFFFFFFFFFFFFFFFFFF AND DUP4 DUP4 PUSH1 0x40 MLOAD PUSH2 0xE30 SWAP3 SWAP2 SWAP1 PUSH2 0x2276 JUMP JUMPDEST PUSH1 0x40 MLOAD DUP1 SWAP2 SUB SWAP1 KECCAK256 PUSH32 0x6D97A31531BDB3C43D920BC996EC8B9FD7733F5F55A81CD74700F88631FC6032 PUSH1 0x40 MLOAD PUSH1 0x40 MLOAD DUP1 SWAP2 SUB SWAP1 LOG3 POP POP POP JUMP JUMPDEST PUSH2 0xE71 PUSH2 0x11F9 JUMP JUMPDEST PUSH0 PUSH20 0xFFFFFFFFFFFFFFFFFFFFFFFFFFFFFFFFFFFFFFFF AND DUP2 PUSH20 0xFFFFFFFFFFFFFFFFFFFFFFFFFFFFFFFFFFFFFFFF AND SUB PUSH2 0xEE1 JUMPI PUSH0 PUSH1 0x40 MLOAD PUSH32 0x1E4FBDF700000000000000000000000000000000000000000000000000000000 DUP2 MSTORE PUSH1 0x4 ADD PUSH2 0xED8 SWAP2 SWAP1 PUSH2 0x1FA0 JUMP JUMPDEST PUSH1 0x40 MLOAD DUP1 SWAP2 SUB SWAP1 REVERT JUMPDEST PUSH2 0xEEA DUP2 PUSH2 0x13F5 JUMP JUMPDEST POP JUMP JUMPDEST PUSH0 DUP2 PUSH1 0x20 ADD CALLDATALOAD PUSH1 0x1 PUSH0 DUP5 PUSH0 ADD PUSH1 0x20 DUP2 ADD SWAP1 PUSH2 0xF08 SWAP2 SWAP1 PUSH2 0x202C JUMP JUMPDEST PUSH4 0xFFFFFFFF AND PUSH4 0xFFFFFFFF AND DUP2 MSTORE PUSH1 0x20 ADD SWAP1 DUP2 MSTORE PUSH1 0x20 ADD PUSH0 KECCAK256 SLOAD EQ SWAP1 POP SWAP2 SWAP1 POP JUMP JUMPDEST PUSH0 DUP1 PUSH1 0x1 PUSH0 DUP5 PUSH4 0xFFFFFFFF AND PUSH4 0xFFFFFFFF AND DUP2 MSTORE PUSH1 0x20 ADD SWAP1 DUP2 MSTORE PUSH1 0x20 ADD PUSH0 KECCAK256 SLOAD SWAP1 POP PUSH0 DUP1 SHL DUP2 SUB PUSH2 0xF92 JUMPI DUP3 PUSH1 0x40 MLOAD PUSH32 0xF6FF4FB700000000000000000000000000000000000000000000000000000000 DUP2 MSTORE PUSH1 0x4 ADD PUSH2 0xF89 SWAP2 SWAP1 PUSH2 0x25BB JUMP JUMPDEST PUSH1 0x40 MLOAD DUP1 SWAP2 SUB SWAP1 REVERT JUMPDEST DUP1 SWAP2 POP POP SWAP2 SWAP1 POP JUMP JUMPDEST PUSH0 DUP1 PUSH0 DUP8 DUP8 DUP2 ADD SWAP1 PUSH2 0xFAD SWAP2 SWAP1 PUSH2 0x260F JUMP JUMPDEST SWAP3 POP SWAP3 POP SWAP3 POP PUSH0 PUSH20 0xFFFFFFFFFFFFFFFFFFFFFFFFFFFFFFFFFFFFFFFF AND PUSH1 0x2 DUP4 PUSH1 0x40 MLOAD PUSH2 0xFDA SWAP2 SWAP1 PUSH2 0x26C3 JUMP JUMPDEST SWAP1 DUP2 MSTORE PUSH1 0x20 ADD PUSH1 0x40 MLOAD DUP1 SWAP2 SUB SWAP1 KECCAK256 PUSH0 SWAP1 SLOAD SWAP1 PUSH2 0x100 EXP SWAP1 DIV PUSH20 0xFFFFFFFFFFFFFFFFFFFFFFFFFFFFFFFFFFFFFFFF AND PUSH20 0xFFFFFFFFFFFFFFFFFFFFFFFFFFFFFFFFFFFFFFFF AND SUB PUSH2 0x105E JUMPI PUSH1 0x40 MLOAD PUSH32 0x8C379A000000000000000000000000000000000000000000000000000000000 DUP2 MSTORE PUSH1 0x4 ADD PUSH2 0x1055 SWAP1 PUSH2 0x22D8 JUMP JUMPDEST PUSH1 0x40 MLOAD DUP1 SWAP2 SUB SWAP1 REVERT JUMPDEST PUSH1 0x2 DUP3 PUSH1 0x40 MLOAD PUSH2 0x106E SWAP2 SWAP1 PUSH2 0x26C3 JUMP JUMPDEST SWAP1 DUP2 MSTORE PUSH1 0x20 ADD PUSH1 0x40 MLOAD DUP1 SWAP2 SUB SWAP1 KECCAK256 PUSH0 SWAP1 SLOAD SWAP1 PUSH2 0x100 EXP SWAP1 DIV PUSH20 0xFFFFFFFFFFFFFFFFFFFFFFFFFFFFFFFFFFFFFFFF AND PUSH20 0xFFFFFFFFFFFFFFFFFFFFFFFFFFFFFFFFFFFFFFFF AND PUSH4 0xA9059CBB DUP5 DUP4 PUSH1 0x40 MLOAD DUP4 PUSH4 0xFFFFFFFF AND PUSH1 0xE0 SHL DUP2 MSTORE PUSH1 0x4 ADD PUSH2 0x10D6 SWAP3 SWAP2 SWAP1 PUSH2 0x2594 JUMP JUMPDEST PUSH1 0x20 PUSH1 0x40 MLOAD DUP1 DUP4 SUB DUP2 PUSH0 DUP8 GAS CALL ISZERO DUP1 ISZERO PUSH2 0x10F2 JUMPI RETURNDATASIZE PUSH0 DUP1 RETURNDATACOPY RETURNDATASIZE PUSH0 REVERT JUMPDEST POP POP POP POP PUSH1 0x40 MLOAD RETURNDATASIZE PUSH1 0x1F NOT PUSH1 0x1F DUP3 ADD AND DUP3 ADD DUP1 PUSH1 0x40 MSTORE POP DUP2 ADD SWAP1 PUSH2 0x1116 SWAP2 SWAP1 PUSH2 0x2364 JUMP JUMPDEST PUSH2 0x1155 JUMPI PUSH1 0x40 MLOAD PUSH32 0x8C379A000000000000000000000000000000000000000000000000000000000 DUP2 MSTORE PUSH1 0x4 ADD PUSH2 0x114C SWAP1 PUSH2 0x23D9 JUMP JUMPDEST PUSH1 0x40 MLOAD DUP1 SWAP2 SUB SWAP1 REVERT JUMPDEST DUP1 PUSH1 0x2 DUP4 PUSH1 0x40 MLOAD PUSH2 0x1166 SWAP2 SWAP1 PUSH2 0x26C3 JUMP JUMPDEST SWAP1 DUP2 MSTORE PUSH1 0x20 ADD PUSH1 0x40 MLOAD DUP1 SWAP2 SUB SWAP1 KECCAK256 PUSH0 SWAP1 SLOAD SWAP1 PUSH2 0x100 EXP SWAP1 DIV PUSH20 0xFFFFFFFFFFFFFFFFFFFFFFFFFFFFFFFFFFFFFFFF AND PUSH20 0xFFFFFFFFFFFFFFFFFFFFFFFFFFFFFFFFFFFFFFFF AND DUP5 PUSH20 0xFFFFFFFFFFFFFFFFFFFFFFFFFFFFFFFFFFFFFFFF AND PUSH32 0x3737F2A73C794DAFE53D8AEEA06810A9EBCF7167401B259406960E088E03F830 PUSH1 0x40 MLOAD PUSH1 0x40 MLOAD DUP1 SWAP2 SUB SWAP1 LOG4 POP POP POP POP POP POP POP POP POP POP JUMP JUMPDEST PUSH2 0x1201 PUSH2 0x14B6 JUMP JUMPDEST PUSH20 0xFFFFFFFFFFFFFFFFFFFFFFFFFFFFFFFFFFFFFFFF AND PUSH2 0x121F PUSH2 0xB84 JUMP JUMPDEST PUSH20 0xFFFFFFFFFFFFFFFFFFFFFFFFFFFFFFFFFFFFFFFF AND EQ PUSH2 0x127E JUMPI PUSH2 0x1242 PUSH2 0x14B6 JUMP JUMPDEST PUSH1 0x40 MLOAD PUSH32 0x118CDAA700000000000000000000000000000000000000000000000000000000 DUP2 MSTORE PUSH1 0x4 ADD PUSH2 0x1275 SWAP2 SWAP1 PUSH2 0x1FA0 JUMP JUMPDEST PUSH1 0x40 MLOAD DUP1 SWAP2 SUB SWAP1 REVERT JUMPDEST JUMP JUMPDEST DUP1 PUSH1 0x1 PUSH0 DUP5 PUSH4 0xFFFFFFFF AND PUSH4 0xFFFFFFFF AND DUP2 MSTORE PUSH1 0x20 ADD SWAP1 DUP2 MSTORE PUSH1 0x20 ADD PUSH0 KECCAK256 DUP2 SWAP1 SSTORE POP PUSH32 0x238399D427B947898EDB290F5FF0F9109849B1C3BA196A42E35F00C50A54B98B DUP3 DUP3 PUSH1 0x40 MLOAD PUSH2 0x12D3 SWAP3 SWAP2 SWAP1 PUSH2 0x2141 JUMP JUMPDEST PUSH1 0x40 MLOAD DUP1 SWAP2 SUB SWAP1 LOG1 POP POP JUMP JUMPDEST PUSH2 0x12E7 PUSH2 0x176D JUMP JUMPDEST PUSH0 PUSH2 0x12F4 DUP5 PUSH0 ADD MLOAD PUSH2 0x14BD JUMP JUMPDEST SWAP1 POP PUSH0 DUP5 PUSH1 0x20 ADD MLOAD GT ISZERO PUSH2 0x1310 JUMPI PUSH2 0x130F DUP5 PUSH1 0x20 ADD MLOAD PUSH2 0x150A JUMP JUMPDEST JUMPDEST PUSH32 0x0 PUSH20 0xFFFFFFFFFFFFFFFFFFFFFFFFFFFFFFFFFFFFFFFF AND PUSH4 0x2637A450 DUP3 PUSH1 0x40 MLOAD DUP1 PUSH1 0xA0 ADD PUSH1 0x40 MSTORE DUP1 DUP12 PUSH4 0xFFFFFFFF AND DUP2 MSTORE PUSH1 0x20 ADD PUSH2 0x136D DUP13 PUSH2 0xF2A JUMP JUMPDEST DUP2 MSTORE PUSH1 0x20 ADD DUP11 DUP2 MSTORE PUSH1 0x20 ADD DUP10 DUP2 MSTORE PUSH1 0x20 ADD PUSH0 DUP10 PUSH1 0x20 ADD MLOAD GT ISZERO ISZERO DUP2 MSTORE POP DUP7 PUSH1 0x40 MLOAD DUP5 PUSH4 0xFFFFFFFF AND PUSH1 0xE0 SHL DUP2 MSTORE PUSH1 0x4 ADD PUSH2 0x13A8 SWAP3 SWAP2 SWAP1 PUSH2 0x27C3 JUMP JUMPDEST PUSH1 0x80 PUSH1 0x40 MLOAD DUP1 DUP4 SUB DUP2 DUP6 DUP9 GAS CALL ISZERO DUP1 ISZERO PUSH2 0x13C4 JUMPI RETURNDATASIZE PUSH0 DUP1 RETURNDATACOPY RETURNDATASIZE PUSH0 REVERT JUMPDEST POP POP POP POP POP PUSH1 0x40 MLOAD RETURNDATASIZE PUSH1 0x1F NOT PUSH1 0x1F DUP3 ADD AND DUP3 ADD DUP1 PUSH1 0x40 MSTORE POP DUP2 ADD SWAP1 PUSH2 0x13E9 SWAP2 SWAP1 PUSH2 0x28F5 JUMP JUMPDEST SWAP2 POP POP SWAP6 SWAP5 POP POP POP POP POP JUMP JUMPDEST PUSH0 DUP1 PUSH0 SWAP1 SLOAD SWAP1 PUSH2 0x100 EXP SWAP1 DIV PUSH20 0xFFFFFFFFFFFFFFFFFFFFFFFFFFFFFFFFFFFFFFFF AND SWAP1 POP DUP2 PUSH0 DUP1 PUSH2 0x100 EXP DUP2 SLOAD DUP2 PUSH20 0xFFFFFFFFFFFFFFFFFFFFFFFFFFFFFFFFFFFFFFFF MUL NOT AND SWAP1 DUP4 PUSH20 0xFFFFFFFFFFFFFFFFFFFFFFFFFFFFFFFFFFFFFFFF AND MUL OR SWAP1 SSTORE POP DUP2 PUSH20 0xFFFFFFFFFFFFFFFFFFFFFFFFFFFFFFFFFFFFFFFF AND DUP2 PUSH20 0xFFFFFFFFFFFFFFFFFFFFFFFFFFFFFFFFFFFFFFFF AND PUSH32 0x8BE0079C531659141344CD1FD0A4F28419497F9722A3DAAFE3B4186F6B6457E0 PUSH1 0x40 MLOAD PUSH1 0x40 MLOAD DUP1 SWAP2 SUB SWAP1 LOG3 POP POP JUMP JUMPDEST PUSH0 CALLER SWAP1 POP SWAP1 JUMP JUMPDEST PUSH0 DUP2 CALLVALUE EQ PUSH2 0x1502 JUMPI CALLVALUE PUSH1 0x40 MLOAD PUSH32 0x9F70412000000000000000000000000000000000000000000000000000000000 DUP2 MSTORE PUSH1 0x4 ADD PUSH2 0x14F9 SWAP2 SWAP1 PUSH2 0x2920 JUMP JUMPDEST PUSH1 0x40 MLOAD DUP1 SWAP2 SUB SWAP1 REVERT JUMPDEST DUP2 SWAP1 POP SWAP2 SWAP1 POP JUMP JUMPDEST PUSH0 PUSH32 0x0 PUSH20 0xFFFFFFFFFFFFFFFFFFFFFFFFFFFFFFFFFFFFFFFF AND PUSH4 0xE4FE1D94 PUSH1 0x40 MLOAD DUP2 PUSH4 0xFFFFFFFF AND PUSH1 0xE0 SHL DUP2 MSTORE PUSH1 0x4 ADD PUSH1 0x20 PUSH1 0x40 MLOAD DUP1 DUP4 SUB DUP2 DUP7 GAS STATICCALL ISZERO DUP1 ISZERO PUSH2 0x1574 JUMPI RETURNDATASIZE PUSH0 DUP1 RETURNDATACOPY RETURNDATASIZE PUSH0 REVERT JUMPDEST POP POP POP POP PUSH1 0x40 MLOAD RETURNDATASIZE PUSH1 0x1F NOT PUSH1 0x1F DUP3 ADD AND DUP3 ADD DUP1 PUSH1 0x40 MSTORE POP DUP2 ADD SWAP1 PUSH2 0x1598 SWAP2 SWAP1 PUSH2 0x294D JUMP JUMPDEST SWAP1 POP PUSH0 PUSH20 0xFFFFFFFFFFFFFFFFFFFFFFFFFFFFFFFFFFFFFFFF AND DUP2 PUSH20 0xFFFFFFFFFFFFFFFFFFFFFFFFFFFFFFFFFFFFFFFF AND SUB PUSH2 0x15FF JUMPI PUSH1 0x40 MLOAD PUSH32 0x5373352A00000000000000000000000000000000000000000000000000000000 DUP2 MSTORE PUSH1 0x4 ADD PUSH1 0x40 MLOAD DUP1 SWAP2 SUB SWAP1 REVERT JUMPDEST PUSH2 0x164C CALLER PUSH32 0x0 DUP5 DUP5 PUSH20 0xFFFFFFFFFFFFFFFFFFFFFFFFFFFFFFFFFFFFFFFF AND PUSH2 0x1650 SWAP1 SWAP4 SWAP3 SWAP2 SWAP1 PUSH4 0xFFFFFFFF AND JUMP JUMPDEST POP POP JUMP JUMPDEST PUSH2 0x16CC DUP5 DUP6 PUSH20 0xFFFFFFFFFFFFFFFFFFFFFFFFFFFFFFFFFFFFFFFF AND PUSH4 0x23B872DD DUP7 DUP7 DUP7 PUSH1 0x40 MLOAD PUSH1 0x24 ADD PUSH2 0x1685 SWAP4 SWAP3 SWAP2 SWAP1 PUSH2 0x2305 JUMP JUMPDEST PUSH1 0x40 MLOAD PUSH1 0x20 DUP2 DUP4 SUB SUB DUP2 MSTORE SWAP1 PUSH1 0x40 MSTORE SWAP2 POP PUSH1 0xE0 SHL PUSH1 0x20 DUP3 ADD DUP1 MLOAD PUSH28 0xFFFFFFFFFFFFFFFFFFFFFFFFFFFFFFFFFFFFFFFFFFFFFFFFFFFFFFFF DUP4 DUP2 DUP4 AND OR DUP4 MSTORE POP POP POP POP PUSH2 0x16D2 JUMP JUMPDEST POP POP POP POP JUMP JUMPDEST PUSH0 DUP1 PUSH1 0x20 PUSH0 DUP5 MLOAD PUSH1 0x20 DUP7 ADD PUSH0 DUP9 GAS CALL DUP1 PUSH2 0x16F1 JUMPI PUSH1 0x40 MLOAD RETURNDATASIZE PUSH0 DUP3 RETURNDATACOPY RETURNDATASIZE DUP2 REVERT JUMPDEST RETURNDATASIZE SWAP3 POP PUSH0 MLOAD SWAP2 POP POP PUSH0 DUP3 EQ PUSH2 0x170A JUMPI PUSH1 0x1 DUP2 EQ ISZERO PUSH2 0x1725 JUMP JUMPDEST PUSH0 DUP5 PUSH20 0xFFFFFFFFFFFFFFFFFFFFFFFFFFFFFFFFFFFFFFFF AND EXTCODESIZE EQ JUMPDEST ISZERO PUSH2 0x1767 JUMPI DUP4 PUSH1 0x40 MLOAD PUSH32 0x5274AFE700000000000000000000000000000000000000000000000000000000 DUP2 MSTORE PUSH1 0x4 ADD PUSH2 0x175E SWAP2 SWAP1 PUSH2 0x1FA0 JUMP JUMPDEST PUSH1 0x40 MLOAD DUP1 SWAP2 SUB SWAP1 REVERT JUMPDEST POP POP POP POP JUMP JUMPDEST PUSH1 0x40 MLOAD DUP1 PUSH1 0x60 ADD PUSH1 0x40 MSTORE DUP1 PUSH0 DUP1 NOT AND DUP2 MSTORE PUSH1 0x20 ADD PUSH0 PUSH8 0xFFFFFFFFFFFFFFFF AND DUP2 MSTORE PUSH1 0x20 ADD PUSH2 0x1799 PUSH2 0x179F JUMP JUMPDEST DUP2 MSTORE POP SWAP1 JUMP JUMPDEST PUSH1 0x40 MLOAD DUP1 PUSH1 0x40 ADD PUSH1 0x40 MSTORE DUP1 PUSH0 DUP2 MSTORE PUSH1 0x20 ADD PUSH0 DUP2 MSTORE POP SWAP1 JUMP JUMPDEST PUSH0 PUSH1 0x40 MLOAD SWAP1 POP SWAP1 JUMP JUMPDEST PUSH0 DUP1 REVERT JUMPDEST PUSH0 DUP1 REVERT JUMPDEST PUSH0 DUP1 REVERT JUMPDEST PUSH0 PUSH1 0x60 DUP3 DUP5 SUB SLT ISZERO PUSH2 0x17E1 JUMPI PUSH2 0x17E0 PUSH2 0x17C8 JUMP JUMPDEST JUMPDEST DUP2 SWAP1 POP SWAP3 SWAP2 POP POP JUMP JUMPDEST PUSH0 DUP2 SWAP1 POP SWAP2 SWAP1 POP JUMP JUMPDEST PUSH2 0x17FC DUP2 PUSH2 0x17EA JUMP JUMPDEST DUP2 EQ PUSH2 0x1806 JUMPI PUSH0 DUP1 REVERT JUMPDEST POP JUMP JUMPDEST PUSH0 DUP2 CALLDATALOAD SWAP1 POP PUSH2 0x1817 DUP2 PUSH2 0x17F3 JUMP JUMPDEST SWAP3 SWAP2 POP POP JUMP JUMPDEST PUSH0 DUP1 REVERT JUMPDEST PUSH0 DUP1 REVERT JUMPDEST PUSH0 DUP1 REVERT JUMPDEST PUSH0 DUP1 DUP4 PUSH1 0x1F DUP5 ADD SLT PUSH2 0x183E JUMPI PUSH2 0x183D PUSH2 0x181D JUMP JUMPDEST JUMPDEST DUP3 CALLDATALOAD SWAP1 POP PUSH8 0xFFFFFFFFFFFFFFFF DUP2 GT ISZERO PUSH2 0x185B JUMPI PUSH2 0x185A PUSH2 0x1821 JUMP JUMPDEST JUMPDEST PUSH1 0x20 DUP4 ADD SWAP2 POP DUP4 PUSH1 0x1 DUP3 MUL DUP4 ADD GT ISZERO PUSH2 0x1877 JUMPI PUSH2 0x1876 PUSH2 0x1825 JUMP JUMPDEST JUMPDEST SWAP3 POP SWAP3 SWAP1 POP JUMP JUMPDEST PUSH0 PUSH20 0xFFFFFFFFFFFFFFFFFFFFFFFFFFFFFFFFFFFFFFFF DUP3 AND SWAP1 POP SWAP2 SWAP1 POP JUMP JUMPDEST PUSH0 PUSH2 0x18A7 DUP3 PUSH2 0x187E JUMP JUMPDEST SWAP1 POP SWAP2 SWAP1 POP JUMP JUMPDEST PUSH2 0x18B7 DUP2 PUSH2 0x189D JUMP JUMPDEST DUP2 EQ PUSH2 0x18C1 JUMPI PUSH0 DUP1 REVERT JUMPDEST POP JUMP JUMPDEST PUSH0 DUP2 CALLDATALOAD SWAP1 POP PUSH2 0x18D2 DUP2 PUSH2 0x18AE JUMP JUMPDEST SWAP3 SWAP2 POP POP JUMP JUMPDEST PUSH0 DUP1 PUSH0 DUP1 PUSH0 DUP1 PUSH0 PUSH1 0xE0 DUP9 DUP11 SUB SLT ISZERO PUSH2 0x18F3 JUMPI PUSH2 0x18F2 PUSH2 0x17C0 JUMP JUMPDEST JUMPDEST PUSH0 PUSH2 0x1900 DUP11 DUP3 DUP12 ADD PUSH2 0x17CC JUMP JUMPDEST SWAP8 POP POP PUSH1 0x60 PUSH2 0x1911 DUP11 DUP3 DUP12 ADD PUSH2 0x1809 JUMP JUMPDEST SWAP7 POP POP PUSH1 0x80 DUP9 ADD CALLDATALOAD PUSH8 0xFFFFFFFFFFFFFFFF DUP2 GT ISZERO PUSH2 0x1932 JUMPI PUSH2 0x1931 PUSH2 0x17C4 JUMP JUMPDEST JUMPDEST PUSH2 0x193E DUP11 DUP3 DUP12 ADD PUSH2 0x1829 JUMP JUMPDEST SWAP6 POP SWAP6 POP POP PUSH1 0xA0 PUSH2 0x1951 DUP11 DUP3 DUP12 ADD PUSH2 0x18C4 JUMP JUMPDEST SWAP4 POP POP PUSH1 0xC0 DUP9 ADD CALLDATALOAD PUSH8 0xFFFFFFFFFFFFFFFF DUP2 GT ISZERO PUSH2 0x1972 JUMPI PUSH2 0x1971 PUSH2 0x17C4 JUMP JUMPDEST JUMPDEST PUSH2 0x197E DUP11 DUP3 DUP12 ADD PUSH2 0x1829 JUMP JUMPDEST SWAP3 POP SWAP3 POP POP SWAP3 SWAP6 SWAP9 SWAP2 SWAP5 SWAP8 POP SWAP3 SWAP6 POP JUMP JUMPDEST PUSH0 PUSH8 0xFFFFFFFFFFFFFFFF DUP3 AND SWAP1 POP SWAP2 SWAP1 POP JUMP JUMPDEST PUSH2 0x19AB DUP2 PUSH2 0x198F JUMP JUMPDEST DUP3 MSTORE POP POP JUMP JUMPDEST PUSH0 PUSH1 0x40 DUP3 ADD SWAP1 POP PUSH2 0x19C4 PUSH0 DUP4 ADD DUP6 PUSH2 0x19A2 JUMP JUMPDEST PUSH2 0x19D1 PUSH1 0x20 DUP4 ADD DUP5 PUSH2 0x19A2 JUMP JUMPDEST SWAP4 SWAP3 POP POP POP JUMP JUMPDEST PUSH0 PUSH2 0xFFFF DUP3 AND SWAP1 POP SWAP2 SWAP1 POP JUMP JUMPDEST PUSH2 0x19EE DUP2 PUSH2 0x19D8 JUMP JUMPDEST DUP2 EQ PUSH2 0x19F8 JUMPI PUSH0 DUP1 REVERT JUMPDEST POP JUMP JUMPDEST PUSH0 DUP2 CALLDATALOAD SWAP1 POP PUSH2 0x1A09 DUP2 PUSH2 0x19E5 JUMP JUMPDEST SWAP3 SWAP2 POP POP JUMP JUMPDEST PUSH0 PUSH1 0x20 DUP3 DUP5 SUB SLT ISZERO PUSH2 0x1A24 JUMPI PUSH2 0x1A23 PUSH2 0x17C0 JUMP JUMPDEST JUMPDEST PUSH0 PUSH2 0x1A31 DUP5 DUP3 DUP6 ADD PUSH2 0x19FB JUMP JUMPDEST SWAP2 POP POP SWAP3 SWAP2 POP POP JUMP JUMPDEST PUSH0 PUSH4 0xFFFFFFFF DUP3 AND SWAP1 POP SWAP2 SWAP1 POP JUMP JUMPDEST PUSH2 0x1A52 DUP2 PUSH2 0x1A3A JUMP JUMPDEST DUP2 EQ PUSH2 0x1A5C JUMPI PUSH0 DUP1 REVERT JUMPDEST POP JUMP JUMPDEST PUSH0 DUP2 CALLDATALOAD SWAP1 POP PUSH2 0x1A6D DUP2 PUSH2 0x1A49 JUMP JUMPDEST SWAP3 SWAP2 POP POP JUMP JUMPDEST PUSH0 DUP1 PUSH1 0x40 DUP4 DUP6 SUB SLT ISZERO PUSH2 0x1A89 JUMPI PUSH2 0x1A88 PUSH2 0x17C0 JUMP JUMPDEST JUMPDEST PUSH0 PUSH2 0x1A96 DUP6 DUP3 DUP7 ADD PUSH2 0x1A5F JUMP JUMPDEST SWAP3 POP POP PUSH1 0x20 PUSH2 0x1AA7 DUP6 DUP3 DUP7 ADD PUSH2 0x1809 JUMP JUMPDEST SWAP2 POP POP SWAP3 POP SWAP3 SWAP1 POP JUMP JUMPDEST PUSH0 DUP2 SWAP1 POP SWAP2 SWAP1 POP JUMP JUMPDEST PUSH0 PUSH2 0x1AD4 PUSH2 0x1ACF PUSH2 0x1ACA DUP5 PUSH2 0x187E JUMP JUMPDEST PUSH2 0x1AB1 JUMP JUMPDEST PUSH2 0x187E JUMP JUMPDEST SWAP1 POP SWAP2 SWAP1 POP JUMP JUMPDEST PUSH0 PUSH2 0x1AE5 DUP3 PUSH2 0x1ABA JUMP JUMPDEST SWAP1 POP SWAP2 SWAP1 POP JUMP JUMPDEST PUSH0 PUSH2 0x1AF6 DUP3 PUSH2 0x1ADB JUMP JUMPDEST SWAP1 POP SWAP2 SWAP1 POP JUMP JUMPDEST PUSH2 0x1B06 DUP2 PUSH2 0x1AEC JUMP JUMPDEST DUP3 MSTORE POP POP JUMP JUMPDEST PUSH0 PUSH1 0x20 DUP3 ADD SWAP1 POP PUSH2 0x1B1F PUSH0 DUP4 ADD DUP5 PUSH2 0x1AFD JUMP JUMPDEST SWAP3 SWAP2 POP POP JUMP JUMPDEST PUSH0 DUP1 DUP4 PUSH1 0x1F DUP5 ADD SLT PUSH2 0x1B3A JUMPI PUSH2 0x1B39 PUSH2 0x181D JUMP JUMPDEST JUMPDEST DUP3 CALLDATALOAD SWAP1 POP PUSH8 0xFFFFFFFFFFFFFFFF DUP2 GT ISZERO PUSH2 0x1B57 JUMPI PUSH2 0x1B56 PUSH2 0x1821 JUMP JUMPDEST JUMPDEST PUSH1 0x20 DUP4 ADD SWAP2 POP DUP4 PUSH1 0x1 DUP3 MUL DUP4 ADD GT ISZERO PUSH2 0x1B73 JUMPI PUSH2 0x1B72 PUSH2 0x1825 JUMP JUMPDEST JUMPDEST SWAP3 POP SWAP3 SWAP1 POP JUMP JUMPDEST PUSH0 DUP2 SWAP1 POP SWAP2 SWAP1 POP JUMP JUMPDEST PUSH2 0x1B8C DUP2 PUSH2 0x1B7A JUMP JUMPDEST DUP2 EQ PUSH2 0x1B96 JUMPI PUSH0 DUP1 REVERT JUMPDEST POP JUMP JUMPDEST PUSH0 DUP2 CALLDATALOAD SWAP1 POP PUSH2 0x1BA7 DUP2 PUSH2 0x1B83 JUMP JUMPDEST SWAP3 SWAP2 POP POP JUMP JUMPDEST PUSH0 DUP1 PUSH0 DUP1 PUSH0 DUP1 PUSH0 PUSH1 0xA0 DUP9 DUP11 SUB SLT ISZERO PUSH2 0x1BC8 JUMPI PUSH2 0x1BC7 PUSH2 0x17C0 JUMP JUMPDEST JUMPDEST PUSH0 DUP9 ADD CALLDATALOAD PUSH8 0xFFFFFFFFFFFFFFFF DUP2 GT ISZERO PUSH2 0x1BE5 JUMPI PUSH2 0x1BE4 PUSH2 0x17C4 JUMP JUMPDEST JUMPDEST PUSH2 0x1BF1 DUP11 DUP3 DUP12 ADD PUSH2 0x1B25 JUMP JUMPDEST SWAP8 POP SWAP8 POP POP PUSH1 0x20 PUSH2 0x1C04 DUP11 DUP3 DUP12 ADD PUSH2 0x1B99 JUMP JUMPDEST SWAP6 POP POP PUSH1 0x40 PUSH2 0x1C15 DUP11 DUP3 DUP12 ADD PUSH2 0x18C4 JUMP JUMPDEST SWAP5 POP POP PUSH1 0x60 PUSH2 0x1C26 DUP11 DUP3 DUP12 ADD PUSH2 0x19FB JUMP JUMPDEST SWAP4 POP POP PUSH1 0x80 DUP9 ADD CALLDATALOAD PUSH8 0xFFFFFFFFFFFFFFFF DUP2 GT ISZERO PUSH2 0x1C47 JUMPI PUSH2 0x1C46 PUSH2 0x17C4 JUMP JUMPDEST JUMPDEST PUSH2 0x1C53 DUP11 DUP3 DUP12 ADD PUSH2 0x1829 JUMP JUMPDEST SWAP3 POP SWAP3 POP POP SWAP3 SWAP6 SWAP9 SWAP2 SWAP5 SWAP8 POP SWAP3 SWAP6 POP JUMP JUMPDEST PUSH2 0x1C6D DUP2 PUSH2 0x17EA JUMP JUMPDEST DUP3 MSTORE POP POP JUMP JUMPDEST PUSH2 0x1C7C DUP2 PUSH2 0x198F JUMP JUMPDEST DUP3 MSTORE POP POP JUMP JUMPDEST PUSH2 0x1C8B DUP2 PUSH2 0x1B7A JUMP JUMPDEST DUP3 MSTORE POP POP JUMP JUMPDEST PUSH1 0x40 DUP3 ADD PUSH0 DUP3 ADD MLOAD PUSH2 0x1CA5 PUSH0 DUP6 ADD DUP3 PUSH2 0x1C82 JUMP JUMPDEST POP PUSH1 0x20 DUP3 ADD MLOAD PUSH2 0x1CB8 PUSH1 0x20 DUP6 ADD DUP3 PUSH2 0x1C82 JUMP JUMPDEST POP POP POP POP JUMP JUMPDEST PUSH1 0x80 DUP3 ADD PUSH0 DUP3 ADD MLOAD PUSH2 0x1CD2 PUSH0 DUP6 ADD DUP3 PUSH2 0x1C64 JUMP JUMPDEST POP PUSH1 0x20 DUP3 ADD MLOAD PUSH2 0x1CE5 PUSH1 0x20 DUP6 ADD DUP3 PUSH2 0x1C73 JUMP JUMPDEST POP PUSH1 0x40 DUP3 ADD MLOAD PUSH2 0x1CF8 PUSH1 0x40 DUP6 ADD DUP3 PUSH2 0x1C91 JUMP JUMPDEST POP POP POP POP JUMP JUMPDEST PUSH0 PUSH1 0x80 DUP3 ADD SWAP1 POP PUSH2 0x1D11 PUSH0 DUP4 ADD DUP5 PUSH2 0x1CBE JUMP JUMPDEST SWAP3 SWAP2 POP POP JUMP JUMPDEST PUSH0 PUSH1 0x20 DUP3 ADD SWAP1 POP PUSH2 0x1D2A PUSH0 DUP4 ADD DUP5 PUSH2 0x19A2 JUMP JUMPDEST SWAP3 SWAP2 POP POP JUMP JUMPDEST PUSH0 DUP1 PUSH0 DUP1 PUSH1 0xA0 DUP6 DUP8 SUB SLT ISZERO PUSH2 0x1D48 JUMPI PUSH2 0x1D47 PUSH2 0x17C0 JUMP JUMPDEST JUMPDEST PUSH0 PUSH2 0x1D55 DUP8 DUP3 DUP9 ADD PUSH2 0x17CC JUMP JUMPDEST SWAP5 POP POP PUSH1 0x60 DUP6 ADD CALLDATALOAD PUSH8 0xFFFFFFFFFFFFFFFF DUP2 GT ISZERO PUSH2 0x1D76 JUMPI PUSH2 0x1D75 PUSH2 0x17C4 JUMP JUMPDEST JUMPDEST PUSH2 0x1D82 DUP8 DUP3 DUP9 ADD PUSH2 0x1829 JUMP JUMPDEST SWAP4 POP SWAP4 POP POP PUSH1 0x80 PUSH2 0x1D95 DUP8 DUP3 DUP9 ADD PUSH2 0x18C4 JUMP JUMPDEST SWAP2 POP POP SWAP3 SWAP6 SWAP2 SWAP5 POP SWAP3 POP JUMP JUMPDEST PUSH0 DUP2 ISZERO ISZERO SWAP1 POP SWAP2 SWAP1 POP JUMP JUMPDEST PUSH2 0x1DB5 DUP2 PUSH2 0x1DA1 JUMP JUMPDEST DUP3 MSTORE POP POP JUMP JUMPDEST PUSH0 PUSH1 0x20 DUP3 ADD SWAP1 POP PUSH2 0x1DCE PUSH0 DUP4 ADD DUP5 PUSH2 0x1DAC JUMP JUMPDEST SWAP3 SWAP2 POP POP JUMP JUMPDEST PUSH0 DUP1 PUSH1 0x40 DUP4 DUP6 SUB SLT ISZERO PUSH2 0x1DEA JUMPI PUSH2 0x1DE9 PUSH2 0x17C0 JUMP JUMPDEST JUMPDEST PUSH0 PUSH2 0x1DF7 DUP6 DUP3 DUP7 ADD PUSH2 0x18C4 JUMP JUMPDEST SWAP3 POP POP PUSH1 0x20 PUSH2 0x1E08 DUP6 DUP3 DUP7 ADD PUSH2 0x1B99 JUMP JUMPDEST SWAP2 POP POP SWAP3 POP SWAP3 SWAP1 POP JUMP JUMPDEST PUSH0 DUP1 REVERT JUMPDEST PUSH0 PUSH1 0x1F NOT PUSH1 0x1F DUP4 ADD AND SWAP1 POP SWAP2 SWAP1 POP JUMP JUMPDEST PUSH32 0x4E487B7100000000000000000000000000000000000000000000000000000000 PUSH0 MSTORE PUSH1 0x41 PUSH1 0x4 MSTORE PUSH1 0x24 PUSH0 REVERT JUMPDEST PUSH2 0x1E5C DUP3 PUSH2 0x1E16 JUMP JUMPDEST DUP2 ADD DUP2 DUP2 LT PUSH8 0xFFFFFFFFFFFFFFFF DUP3 GT OR ISZERO PUSH2 0x1E7B JUMPI PUSH2 0x1E7A PUSH2 0x1E26 JUMP JUMPDEST JUMPDEST DUP1 PUSH1 0x40 MSTORE POP POP POP JUMP JUMPDEST PUSH0 PUSH2 0x1E8D PUSH2 0x17B7 JUMP JUMPDEST SWAP1 POP PUSH2 0x1E99 DUP3 DUP3 PUSH2 0x1E53 JUMP JUMPDEST SWAP2 SWAP1 POP JUMP JUMPDEST PUSH0 PUSH8 0xFFFFFFFFFFFFFFFF DUP3 GT ISZERO PUSH2 0x1EB8 JUMPI PUSH2 0x1EB7 PUSH2 0x1E26 JUMP JUMPDEST JUMPDEST PUSH2 0x1EC1 DUP3 PUSH2 0x1E16 JUMP JUMPDEST SWAP1 POP PUSH1 0x20 DUP2 ADD SWAP1 POP SWAP2 SWAP1 POP JUMP JUMPDEST DUP3 DUP2 DUP4 CALLDATACOPY PUSH0 DUP4 DUP4 ADD MSTORE POP POP POP JUMP JUMPDEST PUSH0 PUSH2 0x1EEE PUSH2 0x1EE9 DUP5 PUSH2 0x1E9E JUMP JUMPDEST PUSH2 0x1E84 JUMP JUMPDEST SWAP1 POP DUP3 DUP2 MSTORE PUSH1 0x20 DUP2 ADD DUP5 DUP5 DUP5 ADD GT ISZERO PUSH2 0x1F0A JUMPI PUSH2 0x1F09 PUSH2 0x1E12 JUMP JUMPDEST JUMPDEST PUSH2 0x1F15 DUP5 DUP3 DUP6 PUSH2 0x1ECE JUMP JUMPDEST POP SWAP4 SWAP3 POP POP POP JUMP JUMPDEST PUSH0 DUP3 PUSH1 0x1F DUP4 ADD SLT PUSH2 0x1F31 JUMPI PUSH2 0x1F30 PUSH2 0x181D JUMP JUMPDEST JUMPDEST DUP2 CALLDATALOAD PUSH2 0x1F41 DUP5 DUP3 PUSH1 0x20 DUP7 ADD PUSH2 0x1EDC JUMP JUMPDEST SWAP2 POP POP SWAP3 SWAP2 POP POP JUMP JUMPDEST PUSH0 PUSH1 0x20 DUP3 DUP5 SUB SLT ISZERO PUSH2 0x1F5F JUMPI PUSH2 0x1F5E PUSH2 0x17C0 JUMP JUMPDEST JUMPDEST PUSH0 DUP3 ADD CALLDATALOAD PUSH8 0xFFFFFFFFFFFFFFFF DUP2 GT ISZERO PUSH2 0x1F7C JUMPI PUSH2 0x1F7B PUSH2 0x17C4 JUMP JUMPDEST JUMPDEST PUSH2 0x1F88 DUP5 DUP3 DUP6 ADD PUSH2 0x1F1D JUMP JUMPDEST SWAP2 POP POP SWAP3 SWAP2 POP POP JUMP JUMPDEST PUSH2 0x1F9A DUP2 PUSH2 0x189D JUMP JUMPDEST DUP3 MSTORE POP POP JUMP JUMPDEST PUSH0 PUSH1 0x20 DUP3 ADD SWAP1 POP PUSH2 0x1FB3 PUSH0 DUP4 ADD DUP5 PUSH2 0x1F91 JUMP JUMPDEST SWAP3 SWAP2 POP POP JUMP JUMPDEST PUSH0 DUP1 PUSH1 0x20 DUP4 DUP6 SUB SLT ISZERO PUSH2 0x1FCF JUMPI PUSH2 0x1FCE PUSH2 0x17C0 JUMP JUMPDEST JUMPDEST PUSH0 DUP4 ADD CALLDATALOAD PUSH8 0xFFFFFFFFFFFFFFFF DUP2 GT ISZERO PUSH2 0x1FEC JUMPI PUSH2 0x1FEB PUSH2 0x17C4 JUMP JUMPDEST JUMPDEST PUSH2 0x1FF8 DUP6 DUP3 DUP7 ADD PUSH2 0x1B25 JUMP JUMPDEST SWAP3 POP SWAP3 POP POP SWAP3 POP SWAP3 SWAP1 POP JUMP JUMPDEST PUSH2 0x200D DUP2 PUSH2 0x19D8 JUMP JUMPDEST DUP3 MSTORE POP POP JUMP JUMPDEST PUSH0 PUSH1 0x20 DUP3 ADD SWAP1 POP PUSH2 0x2026 PUSH0 DUP4 ADD DUP5 PUSH2 0x2004 JUMP JUMPDEST SWAP3 SWAP2 POP POP JUMP JUMPDEST PUSH0 PUSH1 0x20 DUP3 DUP5 SUB SLT ISZERO PUSH2 0x2041 JUMPI PUSH2 0x2040 PUSH2 0x17C0 JUMP JUMPDEST JUMPDEST PUSH0 PUSH2 0x204E DUP5 DUP3 DUP6 ADD PUSH2 0x1A5F JUMP JUMPDEST SWAP2 POP POP SWAP3 SWAP2 POP POP JUMP JUMPDEST PUSH2 0x2060 DUP2 PUSH2 0x17EA JUMP JUMPDEST DUP3 MSTORE POP POP JUMP JUMPDEST PUSH0 PUSH1 0x20 DUP3 ADD SWAP1 POP PUSH2 0x2079 PUSH0 DUP4 ADD DUP5 PUSH2 0x2057 JUMP JUMPDEST SWAP3 SWAP2 POP POP JUMP JUMPDEST PUSH0 PUSH1 0x20 DUP3 DUP5 SUB SLT ISZERO PUSH2 0x2094 JUMPI PUSH2 0x2093 PUSH2 0x17C0 JUMP JUMPDEST JUMPDEST PUSH0 PUSH2 0x20A1 DUP5 DUP3 DUP6 ADD PUSH2 0x18C4 JUMP JUMPDEST SWAP2 POP POP SWAP3 SWAP2 POP POP JUMP JUMPDEST PUSH0 DUP1 PUSH0 PUSH1 0x40 DUP5 DUP7 SUB SLT ISZERO PUSH2 0x20C1 JUMPI PUSH2 0x20C0 PUSH2 0x17C0 JUMP JUMPDEST JUMPDEST PUSH0 DUP5 ADD CALLDATALOAD PUSH8 0xFFFFFFFFFFFFFFFF DUP2 GT ISZERO PUSH2 0x20DE JUMPI PUSH2 0x20DD PUSH2 0x17C4 JUMP JUMPDEST JUMPDEST PUSH2 0x20EA DUP7 DUP3 DUP8 ADD PUSH2 0x1B25 JUMP JUMPDEST SWAP4 POP SWAP4 POP POP PUSH1 0x20 PUSH2 0x20FD DUP7 DUP3 DUP8 ADD PUSH2 0x18C4 JUMP JUMPDEST SWAP2 POP POP SWAP3 POP SWAP3 POP SWAP3 JUMP JUMPDEST PUSH0 PUSH1 0x60 DUP3 DUP5 SUB SLT ISZERO PUSH2 0x211C JUMPI PUSH2 0x211B PUSH2 0x17C0 JUMP JUMPDEST JUMPDEST PUSH0 PUSH2 0x2129 DUP5 DUP3 DUP6 ADD PUSH2 0x17CC JUMP JUMPDEST SWAP2 POP POP SWAP3 SWAP2 POP POP JUMP JUMPDEST PUSH2 0x213B DUP2 PUSH2 0x1A3A JUMP JUMPDEST DUP3 MSTORE POP POP JUMP JUMPDEST PUSH0 PUSH1 0x40 DUP3 ADD SWAP1 POP PUSH2 0x2154 PUSH0 DUP4 ADD DUP6 PUSH2 0x2132 JUMP JUMPDEST PUSH2 0x2161 PUSH1 0x20 DUP4 ADD DUP5 PUSH2 0x2057 JUMP JUMPDEST SWAP4 SWAP3 POP POP POP JUMP JUMPDEST PUSH0 DUP3 DUP3 MSTORE PUSH1 0x20 DUP3 ADD SWAP1 POP SWAP3 SWAP2 POP POP JUMP JUMPDEST PUSH32 0x4665652063616E6E6F7420657863656564203125000000000000000000000000 PUSH0 DUP3 ADD MSTORE POP JUMP JUMPDEST PUSH0 PUSH2 0x21AC PUSH1 0x14 DUP4 PUSH2 0x2168 JUMP JUMPDEST SWAP2 POP PUSH2 0x21B7 DUP3 PUSH2 0x2178 JUMP JUMPDEST PUSH1 0x20 DUP3 ADD SWAP1 POP SWAP2 SWAP1 POP JUMP JUMPDEST PUSH0 PUSH1 0x20 DUP3 ADD SWAP1 POP DUP2 DUP2 SUB PUSH0 DUP4 ADD MSTORE PUSH2 0x21D9 DUP2 PUSH2 0x21A0 JUMP JUMPDEST SWAP1 POP SWAP2 SWAP1 POP JUMP JUMPDEST PUSH32 0x496E76616C696420726563656976657220616464726573730000000000000000 PUSH0 DUP3 ADD MSTORE POP JUMP JUMPDEST PUSH0 PUSH2 0x2214 PUSH1 0x18 DUP4 PUSH2 0x2168 JUMP JUMPDEST SWAP2 POP PUSH2 0x221F DUP3 PUSH2 0x21E0 JUMP JUMPDEST PUSH1 0x20 DUP3 ADD SWAP1 POP SWAP2 SWAP1 POP JUMP JUMPDEST PUSH0 PUSH1 0x20 DUP3 ADD SWAP1 POP DUP2 DUP2 SUB PUSH0 DUP4 ADD MSTORE PUSH2 0x2241 DUP2 PUSH2 0x2208 JUMP JUMPDEST SWAP1 POP SWAP2 SWAP1 POP JUMP JUMPDEST PUSH0 DUP2 SWAP1 POP SWAP3 SWAP2 POP POP JUMP JUMPDEST PUSH0 PUSH2 0x225D DUP4 DUP6 PUSH2 0x2248 JUMP JUMPDEST SWAP4 POP PUSH2 0x226A DUP4 DUP6 DUP5 PUSH2 0x1ECE JUMP JUMPDEST DUP3 DUP5 ADD SWAP1 POP SWAP4 SWAP3 POP POP POP JUMP JUMPDEST PUSH0 PUSH2 0x2282 DUP3 DUP5 DUP7 PUSH2 0x2252 JUMP JUMPDEST SWAP2 POP DUP2 SWAP1 POP SWAP4 SWAP3 POP POP POP JUMP JUMPDEST PUSH32 0x546F6B656E206E6F7420737570706F7274656400000000000000000000000000 PUSH0 DUP3 ADD MSTORE POP JUMP JUMPDEST PUSH0 PUSH2 0x22C2 PUSH1 0x13 DUP4 PUSH2 0x2168 JUMP JUMPDEST SWAP2 POP PUSH2 0x22CD DUP3 PUSH2 0x228E JUMP JUMPDEST PUSH1 0x20 DUP3 ADD SWAP1 POP SWAP2 SWAP1 POP JUMP JUMPDEST PUSH0 PUSH1 0x20 DUP3 ADD SWAP1 POP DUP2 DUP2 SUB PUSH0 DUP4 ADD MSTORE PUSH2 0x22EF DUP2 PUSH2 0x22B6 JUMP JUMPDEST SWAP1 POP SWAP2 SWAP1 POP JUMP JUMPDEST PUSH2 0x22FF DUP2 PUSH2 0x1B7A JUMP JUMPDEST DUP3 MSTORE POP POP JUMP JUMPDEST PUSH0 PUSH1 0x60 DUP3 ADD SWAP1 POP PUSH2 0x2318 PUSH0 DUP4 ADD DUP7 PUSH2 0x1F91 JUMP JUMPDEST PUSH2 0x2325 PUSH1 0x20 DUP4 ADD DUP6 PUSH2 0x1F91 JUMP JUMPDEST PUSH2 0x2332 PUSH1 0x40 DUP4 ADD DUP5 PUSH2 0x22F6 JUMP JUMPDEST SWAP5 SWAP4 POP POP POP POP JUMP JUMPDEST PUSH2 0x2343 DUP2 PUSH2 0x1DA1 JUMP JUMPDEST DUP2 EQ PUSH2 0x234D JUMPI PUSH0 DUP1 REVERT JUMPDEST POP JUMP JUMPDEST PUSH0 DUP2 MLOAD SWAP1 POP PUSH2 0x235E DUP2 PUSH2 0x233A JUMP JUMPDEST SWAP3 SWAP2 POP POP JUMP JUMPDEST PUSH0 PUSH1 0x20 DUP3 DUP5 SUB SLT ISZERO PUSH2 0x2379 JUMPI PUSH2 0x2378 PUSH2 0x17C0 JUMP JUMPDEST JUMPDEST PUSH0 PUSH2 0x2386 DUP5 DUP3 DUP6 ADD PUSH2 0x2350 JUMP JUMPDEST SWAP2 POP POP SWAP3 SWAP2 POP POP JUMP JUMPDEST PUSH32 0x546F6B656E207472616E73666572206661696C65640000000000000000000000 PUSH0 DUP3 ADD MSTORE POP JUMP JUMPDEST PUSH0 PUSH2 0x23C3 PUSH1 0x15 DUP4 PUSH2 0x2168 JUMP JUMPDEST SWAP2 POP PUSH2 0x23CE DUP3 PUSH2 0x238F JUMP JUMPDEST PUSH1 0x20 DUP3 ADD SWAP1 POP SWAP2 SWAP1 POP JUMP JUMPDEST PUSH0 PUSH1 0x20 DUP3 ADD SWAP1 POP DUP2 DUP2 SUB PUSH0 DUP4 ADD MSTORE PUSH2 0x23F0 DUP2 PUSH2 0x23B7 JUMP JUMPDEST SWAP1 POP SWAP2 SWAP1 POP JUMP JUMPDEST PUSH32 0x4E487B7100000000000000000000000000000000000000000000000000000000 PUSH0 MSTORE PUSH1 0x11 PUSH1 0x4 MSTORE PUSH1 0x24 PUSH0 REVERT JUMPDEST PUSH0 PUSH2 0x242E DUP3 PUSH2 0x1B7A JUMP JUMPDEST SWAP2 POP PUSH2 0x2439 DUP4 PUSH2 0x1B7A JUMP JUMPDEST SWAP3 POP DUP3 DUP3 MUL PUSH2 0x2447 DUP2 PUSH2 0x1B7A JUMP JUMPDEST SWAP2 POP DUP3 DUP3 DIV DUP5 EQ DUP4 ISZERO OR PUSH2 0x245E JUMPI PUSH2 0x245D PUSH2 0x23F7 JUMP JUMPDEST JUMPDEST POP SWAP3 SWAP2 POP POP JUMP JUMPDEST PUSH32 0x4E487B7100000000000000000000000000000000000000000000000000000000 PUSH0 MSTORE PUSH1 0x12 PUSH1 0x4 MSTORE PUSH1 0x24 PUSH0 REVERT JUMPDEST PUSH0 PUSH2 0x249C DUP3 PUSH2 0x1B7A JUMP JUMPDEST SWAP2 POP PUSH2 0x24A7 DUP4 PUSH2 0x1B7A JUMP JUMPDEST SWAP3 POP DUP3 PUSH2 0x24B7 JUMPI PUSH2 0x24B6 PUSH2 0x2465 JUMP JUMPDEST JUMPDEST DUP3 DUP3 DIV SWAP1 POP SWAP3 SWAP2 POP POP JUMP JUMPDEST PUSH0 PUSH2 0x24CC DUP3 PUSH2 0x1B7A JUMP JUMPDEST SWAP2 POP PUSH2 0x24D7 DUP4 PUSH2 0x1B7A JUMP JUMPDEST SWAP3 POP DUP3 DUP3 SUB SWAP1 POP DUP2 DUP2 GT ISZERO PUSH2 0x24EF JUMPI PUSH2 0x24EE PUSH2 0x23F7 JUMP JUMPDEST JUMPDEST SWAP3 SWAP2 POP POP JUMP JUMPDEST PUSH0 PUSH2 0x2500 DUP4 DUP6 PUSH2 0x2168 JUMP JUMPDEST SWAP4 POP PUSH2 0x250D DUP4 DUP6 DUP5 PUSH2 0x1ECE JUMP JUMPDEST PUSH2 0x2516 DUP4 PUSH2 0x1E16 JUMP JUMPDEST DUP5 ADD SWAP1 POP SWAP4 SWAP3 POP POP POP JUMP JUMPDEST PUSH0 PUSH1 0x60 DUP3 ADD SWAP1 POP PUSH2 0x2534 PUSH0 DUP4 ADD DUP8 PUSH2 0x1F91 JUMP JUMPDEST DUP2 DUP2 SUB PUSH1 0x20 DUP4 ADD MSTORE PUSH2 0x2547 DUP2 DUP6 DUP8 PUSH2 0x24F5 JUMP JUMPDEST SWAP1 POP PUSH2 0x2556 PUSH1 0x40 DUP4 ADD DUP5 PUSH2 0x22F6 JUMP JUMPDEST SWAP6 SWAP5 POP POP POP POP POP JUMP JUMPDEST PUSH0 PUSH1 0x60 DUP3 ADD SWAP1 POP PUSH2 0x2572 PUSH0 DUP4 ADD DUP7 PUSH2 0x1F91 JUMP JUMPDEST PUSH2 0x257F PUSH1 0x20 DUP4 ADD DUP6 PUSH2 0x22F6 JUMP JUMPDEST PUSH2 0x258C PUSH1 0x40 DUP4 ADD DUP5 PUSH2 0x2004 JUMP JUMPDEST SWAP5 SWAP4 POP POP POP POP JUMP JUMPDEST PUSH0 PUSH1 0x40 DUP3 ADD SWAP1 POP PUSH2 0x25A7 PUSH0 DUP4 ADD DUP6 PUSH2 0x1F91 JUMP JUMPDEST PUSH2 0x25B4 PUSH1 0x20 DUP4 ADD DUP5 PUSH2 0x22F6 JUMP JUMPDEST SWAP4 SWAP3 POP POP POP JUMP JUMPDEST PUSH0 PUSH1 0x20 DUP3 ADD SWAP1 POP PUSH2 0x25CE PUSH0 DUP4 ADD DUP5 PUSH2 0x2132 JUMP JUMPDEST SWAP3 SWAP2 POP POP JUMP JUMPDEST PUSH0 PUSH2 0x25DE DUP3 PUSH2 0x187E JUMP JUMPDEST SWAP1 POP SWAP2 SWAP1 POP JUMP JUMPDEST PUSH2 0x25EE DUP2 PUSH2 0x25D4 JUMP JUMPDEST DUP2 EQ PUSH2 0x25F8 JUMPI PUSH0 DUP1 REVERT JUMPDEST POP JUMP JUMPDEST PUSH0 DUP2 CALLDATALOAD SWAP1 POP PUSH2 0x2609 DUP2 PUSH2 0x25E5 JUMP JUMPDEST SWAP3 SWAP2 POP POP JUMP JUMPDEST PUSH0 DUP1 PUSH0 PUSH1 0x60 DUP5 DUP7 SUB SLT ISZERO PUSH2 0x2626 JUMPI PUSH2 0x2625 PUSH2 0x17C0 JUMP JUMPDEST JUMPDEST PUSH0 PUSH2 0x2633 DUP7 DUP3 DUP8 ADD PUSH2 0x25FB JUMP JUMPDEST SWAP4 POP POP PUSH1 0x20 DUP5 ADD CALLDATALOAD PUSH8 0xFFFFFFFFFFFFFFFF DUP2 GT ISZERO PUSH2 0x2654 JUMPI PUSH2 0x2653 PUSH2 0x17C4 JUMP JUMPDEST JUMPDEST PUSH2 0x2660 DUP7 DUP3 DUP8 ADD PUSH2 0x1F1D JUMP JUMPDEST SWAP3 POP POP PUSH1 0x40 PUSH2 0x2671 DUP7 DUP3 DUP8 ADD PUSH2 0x1B99 JUMP JUMPDEST SWAP2 POP POP SWAP3 POP SWAP3 POP SWAP3 JUMP JUMPDEST PUSH0 DUP2 MLOAD SWAP1 POP SWAP2 SWAP1 POP JUMP JUMPDEST DUP3 DUP2 DUP4 MCOPY PUSH0 DUP4 DUP4 ADD MSTORE POP POP POP JUMP JUMPDEST PUSH0 PUSH2 0x269D DUP3 PUSH2 0x267B JUMP JUMPDEST PUSH2 0x26A7 DUP2 DUP6 PUSH2 0x2248 JUMP JUMPDEST SWAP4 POP PUSH2 0x26B7 DUP2 DUP6 PUSH1 0x20 DUP7 ADD PUSH2 0x2685 JUMP JUMPDEST DUP1 DUP5 ADD SWAP2 POP POP SWAP3 SWAP2 POP POP JUMP JUMPDEST PUSH0 PUSH2 0x26CE DUP3 DUP5 PUSH2 0x2693 JUMP JUMPDEST SWAP2 POP DUP2 SWAP1 POP SWAP3 SWAP2 POP POP JUMP JUMPDEST PUSH2 0x26E2 DUP2 PUSH2 0x1A3A JUMP JUMPDEST DUP3 MSTORE POP POP JUMP JUMPDEST PUSH0 DUP2 MLOAD SWAP1 POP SWAP2 SWAP1 POP JUMP JUMPDEST PUSH0 DUP3 DUP3 MSTORE PUSH1 0x20 DUP3 ADD SWAP1 POP SWAP3 SWAP2 POP POP JUMP JUMPDEST PUSH0 PUSH2 0x270C DUP3 PUSH2 0x26E8 JUMP JUMPDEST PUSH2 0x2716 DUP2 DUP6 PUSH2 0x26F2 JUMP JUMPDEST SWAP4 POP PUSH2 0x2726 DUP2 DUP6 PUSH1 0x20 DUP7 ADD PUSH2 0x2685 JUMP JUMPDEST PUSH2 0x272F DUP2 PUSH2 0x1E16 JUMP JUMPDEST DUP5 ADD SWAP2 POP POP SWAP3 SWAP2 POP POP JUMP JUMPDEST PUSH2 0x2743 DUP2 PUSH2 0x1DA1 JUMP JUMPDEST DUP3 MSTORE POP POP JUMP JUMPDEST PUSH0 PUSH1 0xA0 DUP4 ADD PUSH0 DUP4 ADD MLOAD PUSH2 0x275E PUSH0 DUP7 ADD DUP3 PUSH2 0x26D9 JUMP JUMPDEST POP PUSH1 0x20 DUP4 ADD MLOAD PUSH2 0x2771 PUSH1 0x20 DUP7 ADD DUP3 PUSH2 0x1C64 JUMP JUMPDEST POP PUSH1 0x40 DUP4 ADD MLOAD DUP5 DUP3 SUB PUSH1 0x40 DUP7 ADD MSTORE PUSH2 0x2789 DUP3 DUP3 PUSH2 0x2702 JUMP JUMPDEST SWAP2 POP POP PUSH1 0x60 DUP4 ADD MLOAD DUP5 DUP3 SUB PUSH1 0x60 DUP7 ADD MSTORE PUSH2 0x27A3 DUP3 DUP3 PUSH2 0x2702 JUMP JUMPDEST SWAP2 POP POP PUSH1 0x80 DUP4 ADD MLOAD PUSH2 0x27B8 PUSH1 0x80 DUP7 ADD DUP3 PUSH2 0x273A JUMP JUMPDEST POP DUP1 SWAP2 POP POP SWAP3 SWAP2 POP POP JUMP JUMPDEST PUSH0 PUSH1 0x40 DUP3 ADD SWAP1 POP DUP2 DUP2 SUB PUSH0 DUP4 ADD MSTORE PUSH2 0x27DB DUP2 DUP6 PUSH2 0x2749 JUMP JUMPDEST SWAP1 POP PUSH2 0x27EA PUSH1 0x20 DUP4 ADD DUP5 PUSH2 0x1F91 JUMP JUMPDEST SWAP4 SWAP3 POP POP POP JUMP JUMPDEST PUSH0 DUP1 REVERT JUMPDEST PUSH0 DUP2 MLOAD SWAP1 POP PUSH2 0x2803 DUP2 PUSH2 0x17F3 JUMP JUMPDEST SWAP3 SWAP2 POP POP JUMP JUMPDEST PUSH2 0x2812 DUP2 PUSH2 0x198F JUMP JUMPDEST DUP2 EQ PUSH2 0x281C JUMPI PUSH0 DUP1 REVERT JUMPDEST POP JUMP JUMPDEST PUSH0 DUP2 MLOAD SWAP1 POP PUSH2 0x282D DUP2 PUSH2 0x2809 JUMP JUMPDEST SWAP3 SWAP2 POP POP JUMP JUMPDEST PUSH0 DUP2 MLOAD SWAP1 POP PUSH2 0x2841 DUP2 PUSH2 0x1B83 JUMP JUMPDEST SWAP3 SWAP2 POP POP JUMP JUMPDEST PUSH0 PUSH1 0x40 DUP3 DUP5 SUB SLT ISZERO PUSH2 0x285C JUMPI PUSH2 0x285B PUSH2 0x27F1 JUMP JUMPDEST JUMPDEST PUSH2 0x2866 PUSH1 0x40 PUSH2 0x1E84 JUMP JUMPDEST SWAP1 POP PUSH0 PUSH2 0x2875 DUP5 DUP3 DUP6 ADD PUSH2 0x2833 JUMP JUMPDEST PUSH0 DUP4 ADD MSTORE POP PUSH1 0x20 PUSH2 0x2888 DUP5 DUP3 DUP6 ADD PUSH2 0x2833 JUMP JUMPDEST PUSH1 0x20 DUP4 ADD MSTORE POP SWAP3 SWAP2 POP POP JUMP JUMPDEST PUSH0 PUSH1 0x80 DUP3 DUP5 SUB SLT ISZERO PUSH2 0x28A9 JUMPI PUSH2 0x28A8 PUSH2 0x27F1 JUMP JUMPDEST JUMPDEST PUSH2 0x28B3 PUSH1 0x60 PUSH2 0x1E84 JUMP JUMPDEST SWAP1 POP PUSH0 PUSH2 0x28C2 DUP5 DUP3 DUP6 ADD PUSH2 0x27F5 JUMP JUMPDEST PUSH0 DUP4 ADD MSTORE POP PUSH1 0x20 PUSH2 0x28D5 DUP5 DUP3 DUP6 ADD PUSH2 0x281F JUMP JUMPDEST PUSH1 0x20 DUP4 ADD MSTORE POP PUSH1 0x40 PUSH2 0x28E9 DUP5 DUP3 DUP6 ADD PUSH2 0x2847 JUMP JUMPDEST PUSH1 0x40 DUP4 ADD MSTORE POP SWAP3 SWAP2 POP POP JUMP JUMPDEST PUSH0 PUSH1 0x80 DUP3 DUP5 SUB SLT ISZERO PUSH2 0x290A JUMPI PUSH2 0x2909 PUSH2 0x17C0 JUMP JUMPDEST JUMPDEST PUSH0 PUSH2 0x2917 DUP5 DUP3 DUP6 ADD PUSH2 0x2894 JUMP JUMPDEST SWAP2 POP POP SWAP3 SWAP2 POP POP JUMP JUMPDEST PUSH0 PUSH1 0x20 DUP3 ADD SWAP1 POP PUSH2 0x2933 PUSH0 DUP4 ADD DUP5 PUSH2 0x22F6 JUMP JUMPDEST SWAP3 SWAP2 POP POP JUMP JUMPDEST PUSH0 DUP2 MLOAD SWAP1 POP PUSH2 0x2947 DUP2 PUSH2 0x18AE JUMP JUMPDEST SWAP3 SWAP2 POP POP JUMP JUMPDEST PUSH0 PUSH1 0x20 DUP3 DUP5 SUB SLT ISZERO PUSH2 0x2962 JUMPI PUSH2 0x2961 PUSH2 0x17C0 JUMP JUMPDEST JUMPDEST PUSH0 PUSH2 0x296F DUP5 DUP3 DUP6 ADD PUSH2 0x2939 JUMP JUMPDEST SWAP2 POP POP SWAP3 SWAP2 POP POP JUMP INVALID LOG2 PUSH5 0x6970667358 0x22 SLT KECCAK256 MSTORE8 MULMOD 0xEA ADD PUSH8 0xC12CE27AFE71C08C STOP 0xBE 0xC SUB STOP 0xFB DUP9 PUSH15 0x6A5C1B5FDF74208A799C1864736F6C PUSH4 0x4300081A STOP CALLER "
				},
				"gasEstimates": {
					"creation": {
						"codeDepositCost": "2134000",
						"executionCost": "infinite",
						"totalCost": "infinite"
					},
					"external": {
						"addSupportedToken(string,address)": "infinite",
						"allowInitializePath((uint32,bytes32,uint64))": "3106",
						"bridgeTokens(string,uint256,address,uint16,bytes)": "infinite",
						"endpoint()": "infinite",
						"feeBasisPoints()": "2577",
						"isComposeMsgSender((uint32,bytes32,uint64),bytes,address)": "1120",
						"lzReceive((uint32,bytes32,uint64),bytes32,bytes,address,bytes)": "infinite",
						"nextNonce(uint32,bytes32)": "857",
						"oAppVersion()": "infinite",
						"owner()": "2582",
						"peers(uint32)": "2782",
						"recoverERC20(address,uint256)": "infinite",
						"recoverNative()": "infinite",
						"removeSupportedToken(string)": "infinite",
						"renounceOwnership()": "infinite",
						"setDelegate(address)": "infinite",
						"setPeer(uint32,bytes32)": "infinite",
						"supportedTokens(string)": "infinite",
						"transferOwnership(address)": "infinite",
						"updateFee(uint16)": "infinite"
					},
					"internal": {
						"_lzReceive(struct Origin calldata,bytes32,bytes calldata,address,bytes calldata)": "infinite"
					}
				},
				"methodIdentifiers": {
					"addSupportedToken(string,address)": "ed88ed6c",
					"allowInitializePath((uint32,bytes32,uint64))": "ff7bd03d",
					"bridgeTokens(string,uint256,address,uint16,bytes)": "6c29eb06",
					"endpoint()": "5e280f11",
					"feeBasisPoints()": "b8606eef",
					"isComposeMsgSender((uint32,bytes32,uint64),bytes,address)": "82413eac",
					"lzReceive((uint32,bytes32,uint64),bytes32,bytes,address,bytes)": "13137d65",
					"nextNonce(uint32,bytes32)": "7d25a05e",
					"oAppVersion()": "17442b70",
					"owner()": "8da5cb5b",
					"peers(uint32)": "bb0b6a53",
					"recoverERC20(address,uint256)": "8980f11f",
					"recoverNative()": "5a54db86",
					"removeSupportedToken(string)": "92543a8a",
					"renounceOwnership()": "715018a6",
					"setDelegate(address)": "ca5eb5e1",
					"setPeer(uint32,bytes32)": "3400288b",
					"supportedTokens(string)": "89919cdd",
					"transferOwnership(address)": "f2fde38b",
					"updateFee(uint16)": "2c6cda93"
				}
			},
			"storageLayout": {
				"storage": [
					{
						"astId": 1327,
						"contract": "contracts/Bridge.sol:Bridge",
						"label": "_owner",
						"offset": 0,
						"slot": "0",
						"type": "t_address"
					},
					{
						"astId": 785,
						"contract": "contracts/Bridge.sol:Bridge",
						"label": "peers",
						"offset": 0,
						"slot": "1",
						"type": "t_mapping(t_uint32,t_bytes32)"
					},
					{
						"astId": 2381,
						"contract": "contracts/Bridge.sol:Bridge",
						"label": "supportedTokens",
						"offset": 0,
						"slot": "2",
						"type": "t_mapping(t_string_memory_ptr,t_address)"
					},
					{
						"astId": 2383,
						"contract": "contracts/Bridge.sol:Bridge",
						"label": "feeBasisPoints",
						"offset": 0,
						"slot": "3",
						"type": "t_uint16"
					}
				],
				"types": {
					"t_address": {
						"encoding": "inplace",
						"label": "address",
						"numberOfBytes": "20"
					},
					"t_bytes32": {
						"encoding": "inplace",
						"label": "bytes32",
						"numberOfBytes": "32"
					},
					"t_mapping(t_string_memory_ptr,t_address)": {
						"encoding": "mapping",
						"key": "t_string_memory_ptr",
						"label": "mapping(string => address)",
						"numberOfBytes": "32",
						"value": "t_address"
					},
					"t_mapping(t_uint32,t_bytes32)": {
						"encoding": "mapping",
						"key": "t_uint32",
						"label": "mapping(uint32 => bytes32)",
						"numberOfBytes": "32",
						"value": "t_bytes32"
					},
					"t_string_memory_ptr": {
						"encoding": "bytes",
						"label": "string",
						"numberOfBytes": "32"
					},
					"t_uint16": {
						"encoding": "inplace",
						"label": "uint16",
						"numberOfBytes": "2"
					},
					"t_uint32": {
						"encoding": "inplace",
						"label": "uint32",
						"numberOfBytes": "4"
					}
				}
			},
			"userdoc": {
				"kind": "user",
				"methods": {
					"allowInitializePath((uint32,bytes32,uint64))": {
						"notice": "Checks if the path initialization is allowed based on the provided origin."
					},
					"endpoint()": {
						"notice": "Retrieves the LayerZero endpoint associated with the OApp."
					},
					"isComposeMsgSender((uint32,bytes32,uint64),bytes,address)": {
						"notice": "Indicates whether an address is an approved composeMsg sender to the Endpoint."
					},
					"nextNonce(uint32,bytes32)": {
						"notice": "Retrieves the next nonce for a given source endpoint and sender address."
					},
					"oAppVersion()": {
						"notice": "Retrieves the OApp version information."
					},
					"peers(uint32)": {
						"notice": "Retrieves the peer (OApp) associated with a corresponding endpoint."
					},
					"setDelegate(address)": {
						"notice": "Sets the delegate address for the OApp."
					},
					"setPeer(uint32,bytes32)": {
						"notice": "Sets the peer address (OApp instance) for a corresponding endpoint."
					}
				},
				"version": 1
			}
		}
	}
}