{
	"data": {
		"bytecode": {
			"linkReferences": {},
			"object": "60a060405234801561000f575f80fd5b50604051612d96380380612d9683398181016040528101906100319190610335565b81838181865f73ffffffffffffffffffffffffffffffffffffffff168173ffffffffffffffffffffffffffffffffffffffff16036100a6575f6040517f1e4fbdf700000000000000000000000000000000000000000000000000000000815260040161009d9190610394565b60405180910390fd5b6100b5816101df60201b60201c565b508173ffffffffffffffffffffffffffffffffffffffff1660808173ffffffffffffffffffffffffffffffffffffffff16815250505f73ffffffffffffffffffffffffffffffffffffffff168173ffffffffffffffffffffffffffffffffffffffff160361014f576040517fb586360400000000000000000000000000000000000000000000000000000000815260040160405180910390fd5b60805173ffffffffffffffffffffffffffffffffffffffff1663ca5eb5e1826040518263ffffffff1660e01b815260040161018a9190610394565b5f604051808303815f87803b1580156101a1575f80fd5b505af11580156101b3573d5f803e3d5ffd5b50505050505050508060035f6101000a81548161ffff021916908361ffff1602179055505050506103ad565b5f805f9054906101000a900473ffffffffffffffffffffffffffffffffffffffff169050815f806101000a81548173ffffffffffffffffffffffffffffffffffffffff021916908373ffffffffffffffffffffffffffffffffffffffff1602179055508173ffffffffffffffffffffffffffffffffffffffff168173ffffffffffffffffffffffffffffffffffffffff167f8be0079c531659141344cd1fd0a4f28419497f9722a3daafe3b4186f6b6457e060405160405180910390a35050565b5f80fd5b5f73ffffffffffffffffffffffffffffffffffffffff82169050919050565b5f6102cd826102a4565b9050919050565b6102dd816102c3565b81146102e7575f80fd5b50565b5f815190506102f8816102d4565b92915050565b5f61ffff82169050919050565b610314816102fe565b811461031e575f80fd5b50565b5f8151905061032f8161030b565b92915050565b5f805f6060848603121561034c5761034b6102a0565b5b5f610359868287016102ea565b935050602061036a868287016102ea565b925050604061037b86828701610321565b9150509250925092565b61038e816102c3565b82525050565b5f6020820190506103a75f830184610385565b92915050565b6080516129ae6103e85f395f81816104a00152818161069101528181610d1c015281816113120152818161150d015261160501526129ae5ff3fe60806040526004361061011e575f3560e01c80638980f11f1161009f578063bb0b6a5311610063578063bb0b6a5314610397578063ca5eb5e1146103d3578063ed88ed6c146103fb578063f2fde38b14610423578063ff7bd03d1461044b5761011e565b80638980f11f146102b757806389919cdd146102df5780638da5cb5b1461031b57806392543a8a14610345578063b8606eef1461036d5761011e565b80635e280f11116100e65780635e280f11146101cf5780636c29eb06146101f9578063715018a6146102295780637d25a05e1461023f57806382413eac1461027b5761011e565b806313137d651461012257806317442b701461013e5780632c6cda93146101695780633400288b146101915780635a54db86146101b9575b5f80fd5b61013c600480360381019061013791906118d8565b610487565b005b348015610149575f80fd5b506101526105a7565b6040516101609291906119b1565b60405180910390f35b348015610174575f80fd5b5061018f600480360381019061018a9190611a0f565b6105b5565b005b34801561019c575f80fd5b506101b760048036038101906101b29190611a73565b610624565b005b3480156101c4575f80fd5b506101cd61063a565b005b3480156101da575f80fd5b506101e361068f565b6040516101f09190611b0c565b60405180910390f35b610213600480360381019061020e9190611bad565b6106b3565b6040516102209190611cfe565b60405180910390f35b348015610234575f80fd5b5061023d610a59565b005b34801561024a575f80fd5b5061026560048036038101906102609190611a73565b610a6c565b6040516102729190611d17565b60405180910390f35b348015610286575f80fd5b506102a1600480360381019061029c9190611d30565b610a73565b6040516102ae9190611dbb565b60405180910390f35b3480156102c2575f80fd5b506102dd60048036038101906102d89190611dd4565b610aad565b005b3480156102ea575f80fd5b5061030560048036038101906103009190611f4a565b610b3c565b6040516103129190611fa0565b60405180910390f35b348015610326575f80fd5b5061032f610b84565b60405161033c9190611fa0565b60405180910390f35b348015610350575f80fd5b5061036b60048036038101906103669190611fb9565b610bab565b005b348015610378575f80fd5b50610381610cea565b60405161038e9190612013565b60405180910390f35b3480156103a2575f80fd5b506103bd60048036038101906103b8919061202c565b610cfd565b6040516103ca9190612066565b60405180910390f35b3480156103de575f80fd5b506103f960048036038101906103f4919061207f565b610d12565b005b348015610406575f80fd5b50610421600480360381019061041c91906120aa565b610da3565b005b34801561042e575f80fd5b506104496004803603810190610444919061207f565b610e69565b005b348015610456575f80fd5b50610471600480360381019061046c9190612107565b610eed565b60405161047e9190611dbb565b60405180910390f35b3373ffffffffffffffffffffffffffffffffffffffff167f000000000000000000000000000000000000000000000000000000000000000073ffffffffffffffffffffffffffffffffffffffff161461051757336040517f91ac5e4f00000000000000000000000000000000000000000000000000000000815260040161050e9190611fa0565b60405180910390fd5b8660200135610536885f016020810190610531919061202c565b610f2a565b1461058f57865f01602081019061054d919061202c565b87602001356040517fc26bebcc000000000000000000000000000000000000000000000000000000008152600401610586929190612141565b60405180910390fd5b61059e87878787878787610f9b565b50505050505050565b5f8060016002915091509091565b6105bd6111f9565b60648161ffff161115610605576040517f08c379a00000000000000000000000000000000000000000000000000000000081526004016105fc906121c2565b60405180910390fd5b8060035f6101000a81548161ffff021916908361ffff16021790555050565b61062c6111f9565b6106368282611280565b5050565b6106426111f9565b61064a610b84565b73ffffffffffffffffffffffffffffffffffffffff166108fc4790811502906040515f60405180830381858888f1935050505015801561068c573d5f803e3d5ffd5b50565b7f000000000000000000000000000000000000000000000000000000000000000081565b6106bb61176d565b5f73ffffffffffffffffffffffffffffffffffffffff168573ffffffffffffffffffffffffffffffffffffffff1603610729576040517f08c379a00000000000000000000000000000000000000000000000000000000081526004016107209061222a565b60405180910390fd5b5f73ffffffffffffffffffffffffffffffffffffffff1660028989604051610752929190612276565b90815260200160405180910390205f9054906101000a900473ffffffffffffffffffffffffffffffffffffffff1673ffffffffffffffffffffffffffffffffffffffff16036107d6576040517f08c379a00000000000000000000000000000000000000000000000000000000081526004016107cd906122d8565b60405180910390fd5b600288886040516107e8929190612276565b90815260200160405180910390205f9054906101000a900473ffffffffffffffffffffffffffffffffffffffff1673ffffffffffffffffffffffffffffffffffffffff166323b872dd3330896040518463ffffffff1660e01b815260040161085293929190612305565b6020604051808303815f875af115801561086e573d5f803e3d5ffd5b505050506040513d601f19601f820116820180604052508101906108929190612364565b6108d1576040517f08c379a00000000000000000000000000000000000000000000000000000000081526004016108c8906123d9565b60405180910390fd5b5f61271060035f9054906101000a900461ffff1661ffff16886108f49190612424565b6108fe9190612492565b90505f818861090d91906124c2565b90505f878b8b846040516020016109279493929190612521565b60405160208183030381529060405290506109a08761ffff168288888080601f0160208091040260200160405190810160405280939291908181526020018383808284375f81840152601f19601f8201169050808301925050505050505060405180604001604052803481526020015f815250336112df565b93508160028c8c6040516109b5929190612276565b90815260200160405180910390205f9054906101000a900473ffffffffffffffffffffffffffffffffffffffff1673ffffffffffffffffffffffffffffffffffffffff163373ffffffffffffffffffffffffffffffffffffffff167f9aa0bd7524636a05d600ed870d6bbbf0a6fe436b4c0b4dfb5cfe417be427bac18b878c604051610a439392919061255f565b60405180910390a4505050979650505050505050565b610a616111f9565b610a6a5f6113f5565b565b5f92915050565b5f3073ffffffffffffffffffffffffffffffffffffffff168273ffffffffffffffffffffffffffffffffffffffff16149050949350505050565b610ab56111f9565b8173ffffffffffffffffffffffffffffffffffffffff1663a9059cbb610ad9610b84565b836040518363ffffffff1660e01b8152600401610af7929190612594565b6020604051808303815f875af1158015610b13573d5f803e3d5ffd5b505050506040513d601f19601f82011682018060405250810190610b379190612364565b505050565b6002818051602081018201805184825260208301602085012081835280955050505050505f915054906101000a900473ffffffffffffffffffffffffffffffffffffffff1681565b5f805f9054906101000a900473ffffffffffffffffffffffffffffffffffffffff16905090565b610bb36111f9565b5f73ffffffffffffffffffffffffffffffffffffffff1660028383604051610bdc929190612276565b90815260200160405180910390205f9054906101000a900473ffffffffffffffffffffffffffffffffffffffff1673ffffffffffffffffffffffffffffffffffffffff1603610c60576040517f08c379a0000000000000000000000000000000000000000000000000000000008152600401610c57906122d8565b60405180910390fd5b60028282604051610c72929190612276565b90815260200160405180910390205f6101000a81549073ffffffffffffffffffffffffffffffffffffffff02191690558181604051610cb2929190612276565b60405180910390207fcdd02d37d444f381ccea186dcdaf556989dcdeeebafc5cd307fe5e7609cd88c360405160405180910390a25050565b60035f9054906101000a900461ffff1681565b6001602052805f5260405f205f915090505481565b610d1a6111f9565b7f000000000000000000000000000000000000000000000000000000000000000073ffffffffffffffffffffffffffffffffffffffff1663ca5eb5e1826040518263ffffffff1660e01b8152600401610d739190611fa0565b5f604051808303815f87803b158015610d8a575f80fd5b505af1158015610d9c573d5f803e3d5ffd5b5050505050565b610dab6111f9565b8060028484604051610dbe929190612276565b90815260200160405180910390205f6101000a81548173ffffffffffffffffffffffffffffffffffffffff021916908373ffffffffffffffffffffffffffffffffffffffff1602179055508073ffffffffffffffffffffffffffffffffffffffff168383604051610e30929190612276565b60405180910390207f6d97a31531bdb3c43d920bc996ec8b9fd7733f5f55a81cd74700f88631fc603260405160405180910390a3505050565b610e716111f9565b5f73ffffffffffffffffffffffffffffffffffffffff168173ffffffffffffffffffffffffffffffffffffffff1603610ee1575f6040517f1e4fbdf7000000000000000000000000000000000000000000000000000000008152600401610ed89190611fa0565b60405180910390fd5b610eea816113f5565b50565b5f816020013560015f845f016020810190610f08919061202c565b63ffffffff1663ffffffff1681526020019081526020015f2054149050919050565b5f8060015f8463ffffffff1663ffffffff1681526020019081526020015f205490505f801b8103610f9257826040517ff6ff4fb7000000000000000000000000000000000000000000000000000000008152600401610f8991906125bb565b60405180910390fd5b80915050919050565b5f805f8787810190610fad919061260f565b9250925092505f73ffffffffffffffffffffffffffffffffffffffff16600283604051610fda91906126c3565b90815260200160405180910390205f9054906101000a900473ffffffffffffffffffffffffffffffffffffffff1673ffffffffffffffffffffffffffffffffffffffff160361105e576040517f08c379a0000000000000000000000000000000000000000000000000000000008152600401611055906122d8565b60405180910390fd5b60028260405161106e91906126c3565b90815260200160405180910390205f9054906101000a900473ffffffffffffffffffffffffffffffffffffffff1673ffffffffffffffffffffffffffffffffffffffff1663a9059cbb84836040518363ffffffff1660e01b81526004016110d6929190612594565b6020604051808303815f875af11580156110f2573d5f803e3d5ffd5b505050506040513d601f19601f820116820180604052508101906111169190612364565b611155576040517f08c379a000000000000000000000000000000000000000000000000000000000815260040161114c906123d9565b60405180910390fd5b8060028360405161116691906126c3565b90815260200160405180910390205f9054906101000a900473ffffffffffffffffffffffffffffffffffffffff1673ffffffffffffffffffffffffffffffffffffffff168473ffffffffffffffffffffffffffffffffffffffff167f3737f2a73c794dafe53d8aeea06810a9ebcf7167401b259406960e088e03f83060405160405180910390a450505050505050505050565b6112016114b6565b73ffffffffffffffffffffffffffffffffffffffff1661121f610b84565b73ffffffffffffffffffffffffffffffffffffffff161461127e576112426114b6565b6040517f118cdaa70000000000000000000000000000000000000000000000000000000081526004016112759190611fa0565b60405180910390fd5b565b8060015f8463ffffffff1663ffffffff1681526020019081526020015f20819055507f238399d427b947898edb290f5ff0f9109849b1c3ba196a42e35f00c50a54b98b82826040516112d3929190612141565b60405180910390a15050565b6112e761176d565b5f6112f4845f01516114bd565b90505f846020015111156113105761130f846020015161150a565b5b7f000000000000000000000000000000000000000000000000000000000000000073ffffffffffffffffffffffffffffffffffffffff16632637a450826040518060a001604052808b63ffffffff16815260200161136d8c610f2a565b81526020018a81526020018981526020015f8960200151111515815250866040518463ffffffff1660e01b81526004016113a89291906127c3565b60806040518083038185885af11580156113c4573d5f803e3d5ffd5b50505050506040513d601f19601f820116820180604052508101906113e991906128f5565b91505095945050505050565b5f805f9054906101000a900473ffffffffffffffffffffffffffffffffffffffff169050815f806101000a81548173ffffffffffffffffffffffffffffffffffffffff021916908373ffffffffffffffffffffffffffffffffffffffff1602179055508173ffffffffffffffffffffffffffffffffffffffff168173ffffffffffffffffffffffffffffffffffffffff167f8be0079c531659141344cd1fd0a4f28419497f9722a3daafe3b4186f6b6457e060405160405180910390a35050565b5f33905090565b5f81341461150257346040517f9f7041200000000000000000000000000000000000000000000000000000000081526004016114f99190612920565b60405180910390fd5b819050919050565b5f7f000000000000000000000000000000000000000000000000000000000000000073ffffffffffffffffffffffffffffffffffffffff1663e4fe1d946040518163ffffffff1660e01b8152600401602060405180830381865afa158015611574573d5f803e3d5ffd5b505050506040513d601f19601f82011682018060405250810190611598919061294d565b90505f73ffffffffffffffffffffffffffffffffffffffff168173ffffffffffffffffffffffffffffffffffffffff16036115ff576040517f5373352a00000000000000000000000000000000000000000000000000000000815260040160405180910390fd5b61164c337f0000000000000000000000000000000000000000000000000000000000000000848473ffffffffffffffffffffffffffffffffffffffff16611650909392919063ffffffff16565b5050565b6116cc848573ffffffffffffffffffffffffffffffffffffffff166323b872dd86868660405160240161168593929190612305565b604051602081830303815290604052915060e01b6020820180517bffffffffffffffffffffffffffffffffffffffffffffffffffffffff83818316178352505050506116d2565b50505050565b5f8060205f8451602086015f885af1806116f1576040513d5f823e3d81fd5b3d92505f519150505f821461170a576001811415611725565b5f8473ffffffffffffffffffffffffffffffffffffffff163b145b1561176757836040517f5274afe700000000000000000000000000000000000000000000000000000000815260040161175e9190611fa0565b60405180910390fd5b50505050565b60405180606001604052805f80191681526020015f67ffffffffffffffff16815260200161179961179f565b81525090565b60405180604001604052805f81526020015f81525090565b5f604051905090565b5f80fd5b5f80fd5b5f80fd5b5f606082840312156117e1576117e06117c8565b5b81905092915050565b5f819050919050565b6117fc816117ea565b8114611806575f80fd5b50565b5f81359050611817816117f3565b92915050565b5f80fd5b5f80fd5b5f80fd5b5f8083601f84011261183e5761183d61181d565b5b8235905067ffffffffffffffff81111561185b5761185a611821565b5b60208301915083600182028301111561187757611876611825565b5b9250929050565b5f73ffffffffffffffffffffffffffffffffffffffff82169050919050565b5f6118a78261187e565b9050919050565b6118b78161189d565b81146118c1575f80fd5b50565b5f813590506118d2816118ae565b92915050565b5f805f805f805f60e0888a0312156118f3576118f26117c0565b5b5f6119008a828b016117cc565b97505060606119118a828b01611809565b965050608088013567ffffffffffffffff811115611932576119316117c4565b5b61193e8a828b01611829565b955095505060a06119518a828b016118c4565b93505060c088013567ffffffffffffffff811115611972576119716117c4565b5b61197e8a828b01611829565b925092505092959891949750929550565b5f67ffffffffffffffff82169050919050565b6119ab8161198f565b82525050565b5f6040820190506119c45f8301856119a2565b6119d160208301846119a2565b9392505050565b5f61ffff82169050919050565b6119ee816119d8565b81146119f8575f80fd5b50565b5f81359050611a09816119e5565b92915050565b5f60208284031215611a2457611a236117c0565b5b5f611a31848285016119fb565b91505092915050565b5f63ffffffff82169050919050565b611a5281611a3a565b8114611a5c575f80fd5b50565b5f81359050611a6d81611a49565b92915050565b5f8060408385031215611a8957611a886117c0565b5b5f611a9685828601611a5f565b9250506020611aa785828601611809565b9150509250929050565b5f819050919050565b5f611ad4611acf611aca8461187e565b611ab1565b61187e565b9050919050565b5f611ae582611aba565b9050919050565b5f611af682611adb565b9050919050565b611b0681611aec565b82525050565b5f602082019050611b1f5f830184611afd565b92915050565b5f8083601f840112611b3a57611b3961181d565b5b8235905067ffffffffffffffff811115611b5757611b56611821565b5b602083019150836001820283011115611b7357611b72611825565b5b9250929050565b5f819050919050565b611b8c81611b7a565b8114611b96575f80fd5b50565b5f81359050611ba781611b83565b92915050565b5f805f805f805f60a0888a031215611bc857611bc76117c0565b5b5f88013567ffffffffffffffff811115611be557611be46117c4565b5b611bf18a828b01611b25565b97509750506020611c048a828b01611b99565b9550506040611c158a828b016118c4565b9450506060611c268a828b016119fb565b935050608088013567ffffffffffffffff811115611c4757611c466117c4565b5b611c538a828b01611829565b925092505092959891949750929550565b611c6d816117ea565b82525050565b611c7c8161198f565b82525050565b611c8b81611b7a565b82525050565b604082015f820151611ca55f850182611c82565b506020820151611cb86020850182611c82565b50505050565b608082015f820151611cd25f850182611c64565b506020820151611ce56020850182611c73565b506040820151611cf86040850182611c91565b50505050565b5f608082019050611d115f830184611cbe565b92915050565b5f602082019050611d2a5f8301846119a2565b92915050565b5f805f8060a08587031215611d4857611d476117c0565b5b5f611d55878288016117cc565b945050606085013567ffffffffffffffff811115611d7657611d756117c4565b5b611d8287828801611829565b93509350506080611d95878288016118c4565b91505092959194509250565b5f8115159050919050565b611db581611da1565b82525050565b5f602082019050611dce5f830184611dac565b92915050565b5f8060408385031215611dea57611de96117c0565b5b5f611df7858286016118c4565b9250506020611e0885828601611b99565b9150509250929050565b5f80fd5b5f601f19601f8301169050919050565b7f4e487b71000000000000000000000000000000000000000000000000000000005f52604160045260245ffd5b611e5c82611e16565b810181811067ffffffffffffffff82111715611e7b57611e7a611e26565b5b80604052505050565b5f611e8d6117b7565b9050611e998282611e53565b919050565b5f67ffffffffffffffff821115611eb857611eb7611e26565b5b611ec182611e16565b9050602081019050919050565b828183375f83830152505050565b5f611eee611ee984611e9e565b611e84565b905082815260208101848484011115611f0a57611f09611e12565b5b611f15848285611ece565b509392505050565b5f82601f830112611f3157611f3061181d565b5b8135611f41848260208601611edc565b91505092915050565b5f60208284031215611f5f57611f5e6117c0565b5b5f82013567ffffffffffffffff811115611f7c57611f7b6117c4565b5b611f8884828501611f1d565b91505092915050565b611f9a8161189d565b82525050565b5f602082019050611fb35f830184611f91565b92915050565b5f8060208385031215611fcf57611fce6117c0565b5b5f83013567ffffffffffffffff811115611fec57611feb6117c4565b5b611ff885828601611b25565b92509250509250929050565b61200d816119d8565b82525050565b5f6020820190506120265f830184612004565b92915050565b5f60208284031215612041576120406117c0565b5b5f61204e84828501611a5f565b91505092915050565b612060816117ea565b82525050565b5f6020820190506120795f830184612057565b92915050565b5f60208284031215612094576120936117c0565b5b5f6120a1848285016118c4565b91505092915050565b5f805f604084860312156120c1576120c06117c0565b5b5f84013567ffffffffffffffff8111156120de576120dd6117c4565b5b6120ea86828701611b25565b935093505060206120fd868287016118c4565b9150509250925092565b5f6060828403121561211c5761211b6117c0565b5b5f612129848285016117cc565b91505092915050565b61213b81611a3a565b82525050565b5f6040820190506121545f830185612132565b6121616020830184612057565b9392505050565b5f82825260208201905092915050565b7f4665652063616e6e6f74206578636565642031250000000000000000000000005f82015250565b5f6121ac601483612168565b91506121b782612178565b602082019050919050565b5f6020820190508181035f8301526121d9816121a0565b9050919050565b7f496e76616c6964207265636569766572206164647265737300000000000000005f82015250565b5f612214601883612168565b915061221f826121e0565b602082019050919050565b5f6020820190508181035f83015261224181612208565b9050919050565b5f81905092915050565b5f61225d8385612248565b935061226a838584611ece565b82840190509392505050565b5f612282828486612252565b91508190509392505050565b7f546f6b656e206e6f7420737570706f72746564000000000000000000000000005f82015250565b5f6122c2601383612168565b91506122cd8261228e565b602082019050919050565b5f6020820190508181035f8301526122ef816122b6565b9050919050565b6122ff81611b7a565b82525050565b5f6060820190506123185f830186611f91565b6123256020830185611f91565b61233260408301846122f6565b949350505050565b61234381611da1565b811461234d575f80fd5b50565b5f8151905061235e8161233a565b92915050565b5f60208284031215612379576123786117c0565b5b5f61238684828501612350565b91505092915050565b7f546f6b656e207472616e73666572206661696c656400000000000000000000005f82015250565b5f6123c3601583612168565b91506123ce8261238f565b602082019050919050565b5f6020820190508181035f8301526123f0816123b7565b9050919050565b7f4e487b71000000000000000000000000000000000000000000000000000000005f52601160045260245ffd5b5f61242e82611b7a565b915061243983611b7a565b925082820261244781611b7a565b9150828204841483151761245e5761245d6123f7565b5b5092915050565b7f4e487b71000000000000000000000000000000000000000000000000000000005f52601260045260245ffd5b5f61249c82611b7a565b91506124a783611b7a565b9250826124b7576124b6612465565b5b828204905092915050565b5f6124cc82611b7a565b91506124d783611b7a565b92508282039050818111156124ef576124ee6123f7565b5b92915050565b5f6125008385612168565b935061250d838584611ece565b61251683611e16565b840190509392505050565b5f6060820190506125345f830187611f91565b81810360208301526125478185876124f5565b905061255660408301846122f6565b95945050505050565b5f6060820190506125725f830186611f91565b61257f60208301856122f6565b61258c6040830184612004565b949350505050565b5f6040820190506125a75f830185611f91565b6125b460208301846122f6565b9392505050565b5f6020820190506125ce5f830184612132565b92915050565b5f6125de8261187e565b9050919050565b6125ee816125d4565b81146125f8575f80fd5b50565b5f81359050612609816125e5565b92915050565b5f805f60608486031215612626576126256117c0565b5b5f612633868287016125fb565b935050602084013567ffffffffffffffff811115612654576126536117c4565b5b61266086828701611f1d565b925050604061267186828701611b99565b9150509250925092565b5f81519050919050565b8281835e5f83830152505050565b5f61269d8261267b565b6126a78185612248565b93506126b7818560208601612685565b80840191505092915050565b5f6126ce8284612693565b915081905092915050565b6126e281611a3a565b82525050565b5f81519050919050565b5f82825260208201905092915050565b5f61270c826126e8565b61271681856126f2565b9350612726818560208601612685565b61272f81611e16565b840191505092915050565b61274381611da1565b82525050565b5f60a083015f83015161275e5f8601826126d9565b5060208301516127716020860182611c64565b50604083015184820360408601526127898282612702565b915050606083015184820360608601526127a38282612702565b91505060808301516127b8608086018261273a565b508091505092915050565b5f6040820190508181035f8301526127db8185612749565b90506127ea6020830184611f91565b9392505050565b5f80fd5b5f81519050612803816117f3565b92915050565b6128128161198f565b811461281c575f80fd5b50565b5f8151905061282d81612809565b92915050565b5f8151905061284181611b83565b92915050565b5f6040828403121561285c5761285b6127f1565b5b6128666040611e84565b90505f61287584828501612833565b5f83015250602061288884828501612833565b60208301525092915050565b5f608082840312156128a9576128a86127f1565b5b6128b36060611e84565b90505f6128c2848285016127f5565b5f8301525060206128d58482850161281f565b60208301525060406128e984828501612847565b60408301525092915050565b5f6080828403121561290a576129096117c0565b5b5f61291784828501612894565b91505092915050565b5f6020820190506129335f8301846122f6565b92915050565b5f81519050612947816118ae565b92915050565b5f60208284031215612962576129616117c0565b5b5f61296f84828501612939565b9150509291505056fea26469706673582212205309ea0167c12ce27afe71c08c00be0c0300fb886e6a5c1b5fdf74208a799c1864736f6c634300081a0033",
			"opcodes": "PUSH1 0xA0 PUSH1 0x40 MSTORE CALLVALUE DUP1 ISZERO PUSH2 0xF JUMPI PUSH0 DUP1 REVERT JUMPDEST POP PUSH1 0x40 MLOAD PUSH2 0x2D96 CODESIZE SUB DUP1 PUSH2 0x2D96 DUP4 CODECOPY DUP2 DUP2 ADD PUSH1 0x40 MSTORE DUP2 ADD SWAP1 PUSH2 0x31 SWAP2 SWAP1 PUSH2 0x335 JUMP JUMPDEST DUP2 DUP4 DUP2 DUP2 DUP7 PUSH0 PUSH20 0xFFFFFFFFFFFFFFFFFFFFFFFFFFFFFFFFFFFFFFFF AND DUP2 PUSH20 0xFFFFFFFFFFFFFFFFFFFFFFFFFFFFFFFFFFFFFFFF AND SUB PUSH2 0xA6 JUMPI PUSH0 PUSH1 0x40 MLOAD PUSH32 0x1E4FBDF700000000000000000000000000000000000000000000000000000000 DUP2 MSTORE PUSH1 0x4 ADD PUSH2 0x9D SWAP2 SWAP1 PUSH2 0x394 JUMP JUMPDEST PUSH1 0x40 MLOAD DUP1 SWAP2 SUB SWAP1 REVERT JUMPDEST PUSH2 0xB5 DUP2 PUSH2 0x1DF PUSH1 0x20 SHL PUSH1 0x20 SHR JUMP JUMPDEST POP DUP2 PUSH20 0xFFFFFFFFFFFFFFFFFFFFFFFFFFFFFFFFFFFFFFFF AND PUSH1 0x80 DUP2 PUSH20 0xFFFFFFFFFFFFFFFFFFFFFFFFFFFFFFFFFFFFFFFF AND DUP2 MSTORE POP POP PUSH0 PUSH20 0xFFFFFFFFFFFFFFFFFFFFFFFFFFFFFFFFFFFFFFFF AND DUP2 PUSH20 0xFFFFFFFFFFFFFFFFFFFFFFFFFFFFFFFFFFFFFFFF AND SUB PUSH2 0x14F JUMPI PUSH1 0x40 MLOAD PUSH32 0xB586360400000000000000000000000000000000000000000000000000000000 DUP2 MSTORE PUSH1 0x4 ADD PUSH1 0x40 MLOAD DUP1 SWAP2 SUB SWAP1 REVERT JUMPDEST PUSH1 0x80 MLOAD PUSH20 0xFFFFFFFFFFFFFFFFFFFFFFFFFFFFFFFFFFFFFFFF AND PUSH4 0xCA5EB5E1 DUP3 PUSH1 0x40 MLOAD DUP3 PUSH4 0xFFFFFFFF AND PUSH1 0xE0 SHL DUP2 MSTORE PUSH1 0x4 ADD PUSH2 0x18A SWAP2 SWAP1 PUSH2 0x394 JUMP JUMPDEST PUSH0 PUSH1 0x40 MLOAD DUP1 DUP4 SUB DUP2 PUSH0 DUP8 DUP1 EXTCODESIZE ISZERO DUP1 ISZERO PUSH2 0x1A1 JUMPI PUSH0 DUP1 REVERT JUMPDEST POP GAS CALL ISZERO DUP1 ISZERO PUSH2 0x1B3 JUMPI RETURNDATASIZE PUSH0 DUP1 RETURNDATACOPY RETURNDATASIZE PUSH0 REVERT JUMPDEST POP POP POP POP POP POP POP POP DUP1 PUSH1 0x3 PUSH0 PUSH2 0x100 EXP DUP2 SLOAD DUP2 PUSH2 0xFFFF MUL NOT AND SWAP1 DUP4 PUSH2 0xFFFF AND MUL OR SWAP1 SSTORE POP POP POP POP PUSH2 0x3AD JUMP JUMPDEST PUSH0 DUP1 PUSH0 SWAP1 SLOAD SWAP1 PUSH2 0x100 EXP SWAP1 DIV PUSH20 0xFFFFFFFFFFFFFFFFFFFFFFFFFFFFFFFFFFFFFFFF AND SWAP1 POP DUP2 PUSH0 DUP1 PUSH2 0x100 EXP DUP2 SLOAD DUP2 PUSH20 0xFFFFFFFFFFFFFFFFFFFFFFFFFFFFFFFFFFFFFFFF MUL NOT AND SWAP1 DUP4 PUSH20 0xFFFFFFFFFFFFFFFFFFFFFFFFFFFFFFFFFFFFFFFF AND MUL OR SWAP1 SSTORE POP DUP2 PUSH20 0xFFFFFFFFFFFFFFFFFFFFFFFFFFFFFFFFFFFFFFFF AND DUP2 PUSH20 0xFFFFFFFFFFFFFFFFFFFFFFFFFFFFFFFFFFFFFFFF AND PUSH32 0x8BE0079C531659141344CD1FD0A4F28419497F9722A3DAAFE3B4186F6B6457E0 PUSH1 0x40 MLOAD PUSH1 0x40 MLOAD DUP1 SWAP2 SUB SWAP1 LOG3 POP POP JUMP JUMPDEST PUSH0 DUP1 REVERT JUMPDEST PUSH0 PUSH20 0xFFFFFFFFFFFFFFFFFFFFFFFFFFFFFFFFFFFFFFFF DUP3 AND SWAP1 POP SWAP2 SWAP1 POP JUMP JUMPDEST PUSH0 PUSH2 0x2CD DUP3 PUSH2 0x2A4 JUMP JUMPDEST SWAP1 POP SWAP2 SWAP1 POP JUMP JUMPDEST PUSH2 0x2DD DUP2 PUSH2 0x2C3 JUMP JUMPDEST DUP2 EQ PUSH2 0x2E7 JUMPI PUSH0 DUP1 REVERT JUMPDEST POP JUMP JUMPDEST PUSH0 DUP2 MLOAD SWAP1 POP PUSH2 0x2F8 DUP2 PUSH2 0x2D4 JUMP JUMPDEST SWAP3 SWAP2 POP POP JUMP JUMPDEST PUSH0 PUSH2 0xFFFF DUP3 AND SWAP1 POP SWAP2 SWAP1 POP JUMP JUMPDEST PUSH2 0x314 DUP2 PUSH2 0x2FE JUMP JUMPDEST DUP2 EQ PUSH2 0x31E JUMPI PUSH0 DUP1 REVERT JUMPDEST POP JUMP JUMPDEST PUSH0 DUP2 MLOAD SWAP1 POP PUSH2 0x32F DUP2 PUSH2 0x30B JUMP JUMPDEST SWAP3 SWAP2 POP POP JUMP JUMPDEST PUSH0 DUP1 PUSH0 PUSH1 0x60 DUP5 DUP7 SUB SLT ISZERO PUSH2 0x34C JUMPI PUSH2 0x34B PUSH2 0x2A0 JUMP JUMPDEST JUMPDEST PUSH0 PUSH2 0x359 DUP7 DUP3 DUP8 ADD PUSH2 0x2EA JUMP JUMPDEST SWAP4 POP POP PUSH1 0x20 PUSH2 0x36A DUP7 DUP3 DUP8 ADD PUSH2 0x2EA JUMP JUMPDEST SWAP3 POP POP PUSH1 0x40 PUSH2 0x37B DUP7 DUP3 DUP8 ADD PUSH2 0x321 JUMP JUMPDEST SWAP2 POP POP SWAP3 POP SWAP3 POP SWAP3 JUMP JUMPDEST PUSH2 0x38E DUP2 PUSH2 0x2C3 JUMP JUMPDEST DUP3 MSTORE POP POP JUMP JUMPDEST PUSH0 PUSH1 0x20 DUP3 ADD SWAP1 POP PUSH2 0x3A7 PUSH0 DUP4 ADD DUP5 PUSH2 0x385 JUMP JUMPDEST SWAP3 SWAP2 POP POP JUMP JUMPDEST PUSH1 0x80 MLOAD PUSH2 0x29AE PUSH2 0x3E8 PUSH0 CODECOPY PUSH0 DUP2 DUP2 PUSH2 0x4A0 ADD MSTORE DUP2 DUP2 PUSH2 0x691 ADD MSTORE DUP2 DUP2 PUSH2 0xD1C ADD MSTORE DUP2 DUP2 PUSH2 0x1312 ADD MSTORE DUP2 DUP2 PUSH2 0x150D ADD MSTORE PUSH2 0x1605 ADD MSTORE PUSH2 0x29AE PUSH0 RETURN INVALID PUSH1 0x80 PUSH1 0x40 MSTORE PUSH1 0x4 CALLDATASIZE LT PUSH2 0x11E JUMPI PUSH0 CALLDATALOAD PUSH1 0xE0 SHR DUP1 PUSH4 0x8980F11F GT PUSH2 0x9F JUMPI DUP1 PUSH4 0xBB0B6A53 GT PUSH2 0x63 JUMPI DUP1 PUSH4 0xBB0B6A53 EQ PUSH2 0x397 JUMPI DUP1 PUSH4 0xCA5EB5E1 EQ PUSH2 0x3D3 JUMPI DUP1 PUSH4 0xED88ED6C EQ PUSH2 0x3FB JUMPI DUP1 PUSH4 0xF2FDE38B EQ PUSH2 0x423 JUMPI DUP1 PUSH4 0xFF7BD03D EQ PUSH2 0x44B JUMPI PUSH2 0x11E JUMP JUMPDEST DUP1 PUSH4 0x8980F11F EQ PUSH2 0x2B7 JUMPI DUP1 PUSH4 0x89919CDD EQ PUSH2 0x2DF JUMPI DUP1 PUSH4 0x8DA5CB5B EQ PUSH2 0x31B JUMPI DUP1 PUSH4 0x92543A8A EQ PUSH2 0x345 JUMPI DUP1 PUSH4 0xB8606EEF EQ PUSH2 0x36D JUMPI PUSH2 0x11E JUMP JUMPDEST DUP1 PUSH4 0x5E280F11 GT PUSH2 0xE6 JUMPI DUP1 PUSH4 0x5E280F11 EQ PUSH2 0x1CF JUMPI DUP1 PUSH4 0x6C29EB06 EQ PUSH2 0x1F9 JUMPI DUP1 PUSH4 0x715018A6 EQ PUSH2 0x229 JUMPI DUP1 PUSH4 0x7D25A05E EQ PUSH2 0x23F JUMPI DUP1 PUSH4 0x82413EAC EQ PUSH2 0x27B JUMPI PUSH2 0x11E JUMP JUMPDEST DUP1 PUSH4 0x13137D65 EQ PUSH2 0x122 JUMPI DUP1 PUSH4 0x17442B70 EQ PUSH2 0x13E JUMPI DUP1 PUSH4 0x2C6CDA93 EQ PUSH2 0x169 JUMPI DUP1 PUSH4 0x3400288B EQ PUSH2 0x191 JUMPI DUP1 PUSH4 0x5A54DB86 EQ PUSH2 0x1B9 JUMPI JUMPDEST PUSH0 DUP1 REVERT JUMPDEST PUSH2 0x13C PUSH1 0x4 DUP1 CALLDATASIZE SUB DUP2 ADD SWAP1 PUSH2 0x137 SWAP2 SWAP1 PUSH2 0x18D8 JUMP JUMPDEST PUSH2 0x487 JUMP JUMPDEST STOP JUMPDEST CALLVALUE DUP1 ISZERO PUSH2 0x149 JUMPI PUSH0 DUP1 REVERT JUMPDEST POP PUSH2 0x152 PUSH2 0x5A7 JUMP JUMPDEST PUSH1 0x40 MLOAD PUSH2 0x160 SWAP3 SWAP2 SWAP1 PUSH2 0x19B1 JUMP JUMPDEST PUSH1 0x40 MLOAD DUP1 SWAP2 SUB SWAP1 RETURN JUMPDEST CALLVALUE DUP1 ISZERO PUSH2 0x174 JUMPI PUSH0 DUP1 REVERT JUMPDEST POP PUSH2 0x18F PUSH1 0x4 DUP1 CALLDATASIZE SUB DUP2 ADD SWAP1 PUSH2 0x18A SWAP2 SWAP1 PUSH2 0x1A0F JUMP JUMPDEST PUSH2 0x5B5 JUMP JUMPDEST STOP JUMPDEST CALLVALUE DUP1 ISZERO PUSH2 0x19C JUMPI PUSH0 DUP1 REVERT JUMPDEST POP PUSH2 0x1B7 PUSH1 0x4 DUP1 CALLDATASIZE SUB DUP2 ADD SWAP1 PUSH2 0x1B2 SWAP2 SWAP1 PUSH2 0x1A73 JUMP JUMPDEST PUSH2 0x624 JUMP JUMPDEST STOP JUMPDEST CALLVALUE DUP1 ISZERO PUSH2 0x1C4 JUMPI PUSH0 DUP1 REVERT JUMPDEST POP PUSH2 0x1CD PUSH2 0x63A JUMP JUMPDEST STOP JUMPDEST CALLVALUE DUP1 ISZERO PUSH2 0x1DA JUMPI PUSH0 DUP1 REVERT JUMPDEST POP PUSH2 0x1E3 PUSH2 0x68F JUMP JUMPDEST PUSH1 0x40 MLOAD PUSH2 0x1F0 SWAP2 SWAP1 PUSH2 0x1B0C JUMP JUMPDEST PUSH1 0x40 MLOAD DUP1 SWAP2 SUB SWAP1 RETURN JUMPDEST PUSH2 0x213 PUSH1 0x4 DUP1 CALLDATASIZE SUB DUP2 ADD SWAP1 PUSH2 0x20E SWAP2 SWAP1 PUSH2 0x1BAD JUMP JUMPDEST PUSH2 0x6B3 JUMP JUMPDEST PUSH1 0x40 MLOAD PUSH2 0x220 SWAP2 SWAP1 PUSH2 0x1CFE JUMP JUMPDEST PUSH1 0x40 MLOAD DUP1 SWAP2 SUB SWAP1 RETURN JUMPDEST CALLVALUE DUP1 ISZERO PUSH2 0x234 JUMPI PUSH0 DUP1 REVERT JUMPDEST POP PUSH2 0x23D PUSH2 0xA59 JUMP JUMPDEST STOP JUMPDEST CALLVALUE DUP1 ISZERO PUSH2 0x24A JUMPI PUSH0 DUP1 REVERT JUMPDEST POP PUSH2 0x265 PUSH1 0x4 DUP1 CALLDATASIZE SUB DUP2 ADD SWAP1 PUSH2 0x260 SWAP2 SWAP1 PUSH2 0x1A73 JUMP JUMPDEST PUSH2 0xA6C JUMP JUMPDEST PUSH1 0x40 MLOAD PUSH2 0x272 SWAP2 SWAP1 PUSH2 0x1D17 JUMP JUMPDEST PUSH1 0x40 MLOAD DUP1 SWAP2 SUB SWAP1 RETURN JUMPDEST CALLVALUE DUP1 ISZERO PUSH2 0x286 JUMPI PUSH0 DUP1 REVERT JUMPDEST POP PUSH2 0x2A1 PUSH1 0x4 DUP1 CALLDATASIZE SUB DUP2 ADD SWAP1 PUSH2 0x29C SWAP2 SWAP1 PUSH2 0x1D30 JUMP JUMPDEST PUSH2 0xA73 JUMP JUMPDEST PUSH1 0x40 MLOAD PUSH2 0x2AE SWAP2 SWAP1 PUSH2 0x1DBB JUMP JUMPDEST PUSH1 0x40 MLOAD DUP1 SWAP2 SUB SWAP1 RETURN JUMPDEST CALLVALUE DUP1 ISZERO PUSH2 0x2C2 JUMPI PUSH0 DUP1 REVERT JUMPDEST POP PUSH2 0x2DD PUSH1 0x4 DUP1 CALLDATASIZE SUB DUP2 ADD SWAP1 PUSH2 0x2D8 SWAP2 SWAP1 PUSH2 0x1DD4 JUMP JUMPDEST PUSH2 0xAAD JUMP JUMPDEST STOP JUMPDEST CALLVALUE DUP1 ISZERO PUSH2 0x2EA JUMPI PUSH0 DUP1 REVERT JUMPDEST POP PUSH2 0x305 PUSH1 0x4 DUP1 CALLDATASIZE SUB DUP2 ADD SWAP1 PUSH2 0x300 SWAP2 SWAP1 PUSH2 0x1F4A JUMP JUMPDEST PUSH2 0xB3C JUMP JUMPDEST PUSH1 0x40 MLOAD PUSH2 0x312 SWAP2 SWAP1 PUSH2 0x1FA0 JUMP JUMPDEST PUSH1 0x40 MLOAD DUP1 SWAP2 SUB SWAP1 RETURN JUMPDEST CALLVALUE DUP1 ISZERO PUSH2 0x326 JUMPI PUSH0 DUP1 REVERT JUMPDEST POP PUSH2 0x32F PUSH2 0xB84 JUMP JUMPDEST PUSH1 0x40 MLOAD PUSH2 0x33C SWAP2 SWAP1 PUSH2 0x1FA0 JUMP JUMPDEST PUSH1 0x40 MLOAD DUP1 SWAP2 SUB SWAP1 RETURN JUMPDEST CALLVALUE DUP1 ISZERO PUSH2 0x350 JUMPI PUSH0 DUP1 REVERT JUMPDEST POP PUSH2 0x36B PUSH1 0x4 DUP1 CALLDATASIZE SUB DUP2 ADD SWAP1 PUSH2 0x366 SWAP2 SWAP1 PUSH2 0x1FB9 JUMP JUMPDEST PUSH2 0xBAB JUMP JUMPDEST STOP JUMPDEST CALLVALUE DUP1 ISZERO PUSH2 0x378 JUMPI PUSH0 DUP1 REVERT JUMPDEST POP PUSH2 0x381 PUSH2 0xCEA JUMP JUMPDEST PUSH1 0x40 MLOAD PUSH2 0x38E SWAP2 SWAP1 PUSH2 0x2013 JUMP JUMPDEST PUSH1 0x40 MLOAD DUP1 SWAP2 SUB SWAP1 RETURN JUMPDEST CALLVALUE DUP1 ISZERO PUSH2 0x3A2 JUMPI PUSH0 DUP1 REVERT JUMPDEST POP PUSH2 0x3BD PUSH1 0x4 DUP1 CALLDATASIZE SUB DUP2 ADD SWAP1 PUSH2 0x3B8 SWAP2 SWAP1 PUSH2 0x202C JUMP JUMPDEST PUSH2 0xCFD JUMP JUMPDEST PUSH1 0x40 MLOAD PUSH2 0x3CA SWAP2 SWAP1 PUSH2 0x2066 JUMP JUMPDEST PUSH1 0x40 MLOAD DUP1 SWAP2 SUB SWAP1 RETURN JUMPDEST CALLVALUE DUP1 ISZERO PUSH2 0x3DE JUMPI PUSH0 DUP1 REVERT JUMPDEST POP PUSH2 0x3F9 PUSH1 0x4 DUP1 CALLDATASIZE SUB DUP2 ADD SWAP1 PUSH2 0x3F4 SWAP2 SWAP1 PUSH2 0x207F JUMP JUMPDEST PUSH2 0xD12 JUMP JUMPDEST STOP JUMPDEST CALLVALUE DUP1 ISZERO PUSH2 0x406 JUMPI PUSH0 DUP1 REVERT JUMPDEST POP PUSH2 0x421 PUSH1 0x4 DUP1 CALLDATASIZE SUB DUP2 ADD SWAP1 PUSH2 0x41C SWAP2 SWAP1 PUSH2 0x20AA JUMP JUMPDEST PUSH2 0xDA3 JUMP JUMPDEST STOP JUMPDEST CALLVALUE DUP1 ISZERO PUSH2 0x42E JUMPI PUSH0 DUP1 REVERT JUMPDEST POP PUSH2 0x449 PUSH1 0x4 DUP1 CALLDATASIZE SUB DUP2 ADD SWAP1 PUSH2 0x444 SWAP2 SWAP1 PUSH2 0x207F JUMP JUMPDEST PUSH2 0xE69 JUMP JUMPDEST STOP JUMPDEST CALLVALUE DUP1 ISZERO PUSH2 0x456 JUMPI PUSH0 DUP1 REVERT JUMPDEST POP PUSH2 0x471 PUSH1 0x4 DUP1 CALLDATASIZE SUB DUP2 ADD SWAP1 PUSH2 0x46C SWAP2 SWAP1 PUSH2 0x2107 JUMP JUMPDEST PUSH2 0xEED JUMP JUMPDEST PUSH1 0x40 MLOAD PUSH2 0x47E SWAP2 SWAP1 PUSH2 0x1DBB JUMP JUMPDEST PUSH1 0x40 MLOAD DUP1 SWAP2 SUB SWAP1 RETURN JUMPDEST CALLER PUSH20 0xFFFFFFFFFFFFFFFFFFFFFFFFFFFFFFFFFFFFFFFF AND PUSH32 0x0 PUSH20 0xFFFFFFFFFFFFFFFFFFFFFFFFFFFFFFFFFFFFFFFF AND EQ PUSH2 0x517 JUMPI CALLER PUSH1 0x40 MLOAD PUSH32 0x91AC5E4F00000000000000000000000000000000000000000000000000000000 DUP2 MSTORE PUSH1 0x4 ADD PUSH2 0x50E SWAP2 SWAP1 PUSH2 0x1FA0 JUMP JUMPDEST PUSH1 0x40 MLOAD DUP1 SWAP2 SUB SWAP1 REVERT JUMPDEST DUP7 PUSH1 0x20 ADD CALLDATALOAD PUSH2 0x536 DUP9 PUSH0 ADD PUSH1 0x20 DUP2 ADD SWAP1 PUSH2 0x531 SWAP2 SWAP1 PUSH2 0x202C JUMP JUMPDEST PUSH2 0xF2A JUMP JUMPDEST EQ PUSH2 0x58F JUMPI DUP7 PUSH0 ADD PUSH1 0x20 DUP2 ADD SWAP1 PUSH2 0x54D SWAP2 SWAP1 PUSH2 0x202C JUMP JUMPDEST DUP8 PUSH1 0x20 ADD CALLDATALOAD PUSH1 0x40 MLOAD PUSH32 0xC26BEBCC00000000000000000000000000000000000000000000000000000000 DUP2 MSTORE PUSH1 0x4 ADD PUSH2 0x586 SWAP3 SWAP2 SWAP1 PUSH2 0x2141 JUMP JUMPDEST PUSH1 0x40 MLOAD DUP1 SWAP2 SUB SWAP1 REVERT JUMPDEST PUSH2 0x59E DUP8 DUP8 DUP8 DUP8 DUP8 DUP8 DUP8 PUSH2 0xF9B JUMP JUMPDEST POP POP POP POP POP POP POP JUMP JUMPDEST PUSH0 DUP1 PUSH1 0x1 PUSH1 0x2 SWAP2 POP SWAP2 POP SWAP1 SWAP2 JUMP JUMPDEST PUSH2 0x5BD PUSH2 0x11F9 JUMP JUMPDEST PUSH1 0x64 DUP2 PUSH2 0xFFFF AND GT ISZERO PUSH2 0x605 JUMPI PUSH1 0x40 MLOAD PUSH32 0x8C379A000000000000000000000000000000000000000000000000000000000 DUP2 MSTORE PUSH1 0x4 ADD PUSH2 0x5FC SWAP1 PUSH2 0x21C2 JUMP JUMPDEST PUSH1 0x40 MLOAD DUP1 SWAP2 SUB SWAP1 REVERT JUMPDEST DUP1 PUSH1 0x3 PUSH0 PUSH2 0x100 EXP DUP2 SLOAD DUP2 PUSH2 0xFFFF MUL NOT AND SWAP1 DUP4 PUSH2 0xFFFF AND MUL OR SWAP1 SSTORE POP POP JUMP JUMPDEST PUSH2 0x62C PUSH2 0x11F9 JUMP JUMPDEST PUSH2 0x636 DUP3 DUP3 PUSH2 0x1280 JUMP JUMPDEST POP POP JUMP JUMPDEST PUSH2 0x642 PUSH2 0x11F9 JUMP JUMPDEST PUSH2 0x64A PUSH2 0xB84 JUMP JUMPDEST PUSH20 0xFFFFFFFFFFFFFFFFFFFFFFFFFFFFFFFFFFFFFFFF AND PUSH2 0x8FC SELFBALANCE SWAP1 DUP2 ISZERO MUL SWAP1 PUSH1 0x40 MLOAD PUSH0 PUSH1 0x40 MLOAD DUP1 DUP4 SUB DUP2 DUP6 DUP9 DUP9 CALL SWAP4 POP POP POP POP ISZERO DUP1 ISZERO PUSH2 0x68C JUMPI RETURNDATASIZE PUSH0 DUP1 RETURNDATACOPY RETURNDATASIZE PUSH0 REVERT JUMPDEST POP JUMP JUMPDEST PUSH32 0x0 DUP2 JUMP JUMPDEST PUSH2 0x6BB PUSH2 0x176D JUMP JUMPDEST PUSH0 PUSH20 0xFFFFFFFFFFFFFFFFFFFFFFFFFFFFFFFFFFFFFFFF AND DUP6 PUSH20 0xFFFFFFFFFFFFFFFFFFFFFFFFFFFFFFFFFFFFFFFF AND SUB PUSH2 0x729 JUMPI PUSH1 0x40 MLOAD PUSH32 0x8C379A000000000000000000000000000000000000000000000000000000000 DUP2 MSTORE PUSH1 0x4 ADD PUSH2 0x720 SWAP1 PUSH2 0x222A JUMP JUMPDEST PUSH1 0x40 MLOAD DUP1 SWAP2 SUB SWAP1 REVERT JUMPDEST PUSH0 PUSH20 0xFFFFFFFFFFFFFFFFFFFFFFFFFFFFFFFFFFFFFFFF AND PUSH1 0x2 DUP10 DUP10 PUSH1 0x40 MLOAD PUSH2 0x752 SWAP3 SWAP2 SWAP1 PUSH2 0x2276 JUMP JUMPDEST SWAP1 DUP2 MSTORE PUSH1 0x20 ADD PUSH1 0x40 MLOAD DUP1 SWAP2 SUB SWAP1 KECCAK256 PUSH0 SWAP1 SLOAD SWAP1 PUSH2 0x100 EXP SWAP1 DIV PUSH20 0xFFFFFFFFFFFFFFFFFFFFFFFFFFFFFFFFFFFFFFFF AND PUSH20 0xFFFFFFFFFFFFFFFFFFFFFFFFFFFFFFFFFFFFFFFF AND SUB PUSH2 0x7D6 JUMPI PUSH1 0x40 MLOAD PUSH32 0x8C379A000000000000000000000000000000000000000000000000000000000 DUP2 MSTORE PUSH1 0x4 ADD PUSH2 0x7CD SWAP1 PUSH2 0x22D8 JUMP JUMPDEST PUSH1 0x40 MLOAD DUP1 SWAP2 SUB SWAP1 REVERT JUMPDEST PUSH1 0x2 DUP9 DUP9 PUSH1 0x40 MLOAD PUSH2 0x7E8 SWAP3 SWAP2 SWAP1 PUSH2 0x2276 JUMP JUMPDEST SWAP1 DUP2 MSTORE PUSH1 0x20 ADD PUSH1 0x40 MLOAD DUP1 SWAP2 SUB SWAP1 KECCAK256 PUSH0 SWAP1 SLOAD SWAP1 PUSH2 0x100 EXP SWAP1 DIV PUSH20 0xFFFFFFFFFFFFFFFFFFFFFFFFFFFFFFFFFFFFFFFF AND PUSH20 0xFFFFFFFFFFFFFFFFFFFFFFFFFFFFFFFFFFFFFFFF AND PUSH4 0x23B872DD CALLER ADDRESS DUP10 PUSH1 0x40 MLOAD DUP5 PUSH4 0xFFFFFFFF AND PUSH1 0xE0 SHL DUP2 MSTORE PUSH1 0x4 ADD PUSH2 0x852 SWAP4 SWAP3 SWAP2 SWAP1 PUSH2 0x2305 JUMP JUMPDEST PUSH1 0x20 PUSH1 0x40 MLOAD DUP1 DUP4 SUB DUP2 PUSH0 DUP8 GAS CALL ISZERO DUP1 ISZERO PUSH2 0x86E JUMPI RETURNDATASIZE PUSH0 DUP1 RETURNDATACOPY RETURNDATASIZE PUSH0 REVERT JUMPDEST POP POP POP POP PUSH1 0x40 MLOAD RETURNDATASIZE PUSH1 0x1F NOT PUSH1 0x1F DUP3 ADD AND DUP3 ADD DUP1 PUSH1 0x40 MSTORE POP DUP2 ADD SWAP1 PUSH2 0x892 SWAP2 SWAP1 PUSH2 0x2364 JUMP JUMPDEST PUSH2 0x8D1 JUMPI PUSH1 0x40 MLOAD PUSH32 0x8C379A000000000000000000000000000000000000000000000000000000000 DUP2 MSTORE PUSH1 0x4 ADD PUSH2 0x8C8 SWAP1 PUSH2 0x23D9 JUMP JUMPDEST PUSH1 0x40 MLOAD DUP1 SWAP2 SUB SWAP1 REVERT JUMPDEST PUSH0 PUSH2 0x2710 PUSH1 0x3 PUSH0 SWAP1 SLOAD SWAP1 PUSH2 0x100 EXP SWAP1 DIV PUSH2 0xFFFF AND PUSH2 0xFFFF AND DUP9 PUSH2 0x8F4 SWAP2 SWAP1 PUSH2 0x2424 JUMP JUMPDEST PUSH2 0x8FE SWAP2 SWAP1 PUSH2 0x2492 JUMP JUMPDEST SWAP1 POP PUSH0 DUP2 DUP9 PUSH2 0x90D SWAP2 SWAP1 PUSH2 0x24C2 JUMP JUMPDEST SWAP1 POP PUSH0 DUP8 DUP12 DUP12 DUP5 PUSH1 0x40 MLOAD PUSH1 0x20 ADD PUSH2 0x927 SWAP5 SWAP4 SWAP3 SWAP2 SWAP1 PUSH2 0x2521 JUMP JUMPDEST PUSH1 0x40 MLOAD PUSH1 0x20 DUP2 DUP4 SUB SUB DUP2 MSTORE SWAP1 PUSH1 0x40 MSTORE SWAP1 POP PUSH2 0x9A0 DUP8 PUSH2 0xFFFF AND DUP3 DUP9 DUP9 DUP1 DUP1 PUSH1 0x1F ADD PUSH1 0x20 DUP1 SWAP2 DIV MUL PUSH1 0x20 ADD PUSH1 0x40 MLOAD SWAP1 DUP2 ADD PUSH1 0x40 MSTORE DUP1 SWAP4 SWAP3 SWAP2 SWAP1 DUP2 DUP2 MSTORE PUSH1 0x20 ADD DUP4 DUP4 DUP1 DUP3 DUP5 CALLDATACOPY PUSH0 DUP2 DUP5 ADD MSTORE PUSH1 0x1F NOT PUSH1 0x1F DUP3 ADD AND SWAP1 POP DUP1 DUP4 ADD SWAP3 POP POP POP POP POP POP POP PUSH1 0x40 MLOAD DUP1 PUSH1 0x40 ADD PUSH1 0x40 MSTORE DUP1 CALLVALUE DUP2 MSTORE PUSH1 0x20 ADD PUSH0 DUP2 MSTORE POP CALLER PUSH2 0x12DF JUMP JUMPDEST SWAP4 POP DUP2 PUSH1 0x2 DUP13 DUP13 PUSH1 0x40 MLOAD PUSH2 0x9B5 SWAP3 SWAP2 SWAP1 PUSH2 0x2276 JUMP JUMPDEST SWAP1 DUP2 MSTORE PUSH1 0x20 ADD PUSH1 0x40 MLOAD DUP1 SWAP2 SUB SWAP1 KECCAK256 PUSH0 SWAP1 SLOAD SWAP1 PUSH2 0x100 EXP SWAP1 DIV PUSH20 0xFFFFFFFFFFFFFFFFFFFFFFFFFFFFFFFFFFFFFFFF AND PUSH20 0xFFFFFFFFFFFFFFFFFFFFFFFFFFFFFFFFFFFFFFFF AND CALLER PUSH20 0xFFFFFFFFFFFFFFFFFFFFFFFFFFFFFFFFFFFFFFFF AND PUSH32 0x9AA0BD7524636A05D600ED870D6BBBF0A6FE436B4C0B4DFB5CFE417BE427BAC1 DUP12 DUP8 DUP13 PUSH1 0x40 MLOAD PUSH2 0xA43 SWAP4 SWAP3 SWAP2 SWAP1 PUSH2 0x255F JUMP JUMPDEST PUSH1 0x40 MLOAD DUP1 SWAP2 SUB SWAP1 LOG4 POP POP POP SWAP8 SWAP7 POP POP POP POP POP POP POP JUMP JUMPDEST PUSH2 0xA61 PUSH2 0x11F9 JUMP JUMPDEST PUSH2 0xA6A PUSH0 PUSH2 0x13F5 JUMP JUMPDEST JUMP JUMPDEST PUSH0 SWAP3 SWAP2 POP POP JUMP JUMPDEST PUSH0 ADDRESS PUSH20 0xFFFFFFFFFFFFFFFFFFFFFFFFFFFFFFFFFFFFFFFF AND DUP3 PUSH20 0xFFFFFFFFFFFFFFFFFFFFFFFFFFFFFFFFFFFFFFFF AND EQ SWAP1 POP SWAP5 SWAP4 POP POP POP POP JUMP JUMPDEST PUSH2 0xAB5 PUSH2 0x11F9 JUMP JUMPDEST DUP2 PUSH20 0xFFFFFFFFFFFFFFFFFFFFFFFFFFFFFFFFFFFFFFFF AND PUSH4 0xA9059CBB PUSH2 0xAD9 PUSH2 0xB84 JUMP JUMPDEST DUP4 PUSH1 0x40 MLOAD DUP4 PUSH4 0xFFFFFFFF AND PUSH1 0xE0 SHL DUP2 MSTORE PUSH1 0x4 ADD PUSH2 0xAF7 SWAP3 SWAP2 SWAP1 PUSH2 0x2594 JUMP JUMPDEST PUSH1 0x20 PUSH1 0x40 MLOAD DUP1 DUP4 SUB DUP2 PUSH0 DUP8 GAS CALL ISZERO DUP1 ISZERO PUSH2 0xB13 JUMPI RETURNDATASIZE PUSH0 DUP1 RETURNDATACOPY RETURNDATASIZE PUSH0 REVERT JUMPDEST POP POP POP POP PUSH1 0x40 MLOAD RETURNDATASIZE PUSH1 0x1F NOT PUSH1 0x1F DUP3 ADD AND DUP3 ADD DUP1 PUSH1 0x40 MSTORE POP DUP2 ADD SWAP1 PUSH2 0xB37 SWAP2 SWAP1 PUSH2 0x2364 JUMP JUMPDEST POP POP POP JUMP JUMPDEST PUSH1 0x2 DUP2 DUP1 MLOAD PUSH1 0x20 DUP2 ADD DUP3 ADD DUP1 MLOAD DUP5 DUP3 MSTORE PUSH1 0x20 DUP4 ADD PUSH1 0x20 DUP6 ADD KECCAK256 DUP2 DUP4 MSTORE DUP1 SWAP6 POP POP POP POP POP POP PUSH0 SWAP2 POP SLOAD SWAP1 PUSH2 0x100 EXP SWAP1 DIV PUSH20 0xFFFFFFFFFFFFFFFFFFFFFFFFFFFFFFFFFFFFFFFF AND DUP2 JUMP JUMPDEST PUSH0 DUP1 PUSH0 SWAP1 SLOAD SWAP1 PUSH2 0x100 EXP SWAP1 DIV PUSH20 0xFFFFFFFFFFFFFFFFFFFFFFFFFFFFFFFFFFFFFFFF AND SWAP1 POP SWAP1 JUMP JUMPDEST PUSH2 0xBB3 PUSH2 0x11F9 JUMP JUMPDEST PUSH0 PUSH20 0xFFFFFFFFFFFFFFFFFFFFFFFFFFFFFFFFFFFFFFFF AND PUSH1 0x2 DUP4 DUP4 PUSH1 0x40 MLOAD PUSH2 0xBDC SWAP3 SWAP2 SWAP1 PUSH2 0x2276 JUMP JUMPDEST SWAP1 DUP2 MSTORE PUSH1 0x20 ADD PUSH1 0x40 MLOAD DUP1 SWAP2 SUB SWAP1 KECCAK256 PUSH0 SWAP1 SLOAD SWAP1 PUSH2 0x100 EXP SWAP1 DIV PUSH20 0xFFFFFFFFFFFFFFFFFFFFFFFFFFFFFFFFFFFFFFFF AND PUSH20 0xFFFFFFFFFFFFFFFFFFFFFFFFFFFFFFFFFFFFFFFF AND SUB PUSH2 0xC60 JUMPI PUSH1 0x40 MLOAD PUSH32 0x8C379A000000000000000000000000000000000000000000000000000000000 DUP2 MSTORE PUSH1 0x4 ADD PUSH2 0xC57 SWAP1 PUSH2 0x22D8 JUMP JUMPDEST PUSH1 0x40 MLOAD DUP1 SWAP2 SUB SWAP1 REVERT JUMPDEST PUSH1 0x2 DUP3 DUP3 PUSH1 0x40 MLOAD PUSH2 0xC72 SWAP3 SWAP2 SWAP1 PUSH2 0x2276 JUMP JUMPDEST SWAP1 DUP2 MSTORE PUSH1 0x20 ADD PUSH1 0x40 MLOAD DUP1 SWAP2 SUB SWAP1 KECCAK256 PUSH0 PUSH2 0x100 EXP DUP2 SLOAD SWAP1 PUSH20 0xFFFFFFFFFFFFFFFFFFFFFFFFFFFFFFFFFFFFFFFF MUL NOT AND SWAP1 SSTORE DUP2 DUP2 PUSH1 0x40 MLOAD PUSH2 0xCB2 SWAP3 SWAP2 SWAP1 PUSH2 0x2276 JUMP JUMPDEST PUSH1 0x40 MLOAD DUP1 SWAP2 SUB SWAP1 KECCAK256 PUSH32 0xCDD02D37D444F381CCEA186DCDAF556989DCDEEEBAFC5CD307FE5E7609CD88C3 PUSH1 0x40 MLOAD PUSH1 0x40 MLOAD DUP1 SWAP2 SUB SWAP1 LOG2 POP POP JUMP JUMPDEST PUSH1 0x3 PUSH0 SWAP1 SLOAD SWAP1 PUSH2 0x100 EXP SWAP1 DIV PUSH2 0xFFFF AND DUP2 JUMP JUMPDEST PUSH1 0x1 PUSH1 0x20 MSTORE DUP1 PUSH0 MSTORE PUSH1 0x40 PUSH0 KECCAK256 PUSH0 SWAP2 POP SWAP1 POP SLOAD DUP2 JUMP JUMPDEST PUSH2 0xD1A PUSH2 0x11F9 JUMP JUMPDEST PUSH32 0x0 PUSH20 0xFFFFFFFFFFFFFFFFFFFFFFFFFFFFFFFFFFFFFFFF AND PUSH4 0xCA5EB5E1 DUP3 PUSH1 0x40 MLOAD DUP3 PUSH4 0xFFFFFFFF AND PUSH1 0xE0 SHL DUP2 MSTORE PUSH1 0x4 ADD PUSH2 0xD73 SWAP2 SWAP1 PUSH2 0x1FA0 JUMP JUMPDEST PUSH0 PUSH1 0x40 MLOAD DUP1 DUP4 SUB DUP2 PUSH0 DUP8 DUP1 EXTCODESIZE ISZERO DUP1 ISZERO PUSH2 0xD8A JUMPI PUSH0 DUP1 REVERT JUMPDEST POP GAS CALL ISZERO DUP1 ISZERO PUSH2 0xD9C JUMPI RETURNDATASIZE PUSH0 DUP1 RETURNDATACOPY RETURNDATASIZE PUSH0 REVERT JUMPDEST POP POP POP POP POP JUMP JUMPDEST PUSH2 0xDAB PUSH2 0x11F9 JUMP JUMPDEST DUP1 PUSH1 0x2 DUP5 DUP5 PUSH1 0x40 MLOAD PUSH2 0xDBE SWAP3 SWAP2 SWAP1 PUSH2 0x2276 JUMP JUMPDEST SWAP1 DUP2 MSTORE PUSH1 0x20 ADD PUSH1 0x40 MLOAD DUP1 SWAP2 SUB SWAP1 KECCAK256 PUSH0 PUSH2 0x100 EXP DUP2 SLOAD DUP2 PUSH20 0xFFFFFFFFFFFFFFFFFFFFFFFFFFFFFFFFFFFFFFFF MUL NOT AND SWAP1 DUP4 PUSH20 0xFFFFFFFFFFFFFFFFFFFFFFFFFFFFFFFFFFFFFFFF AND MUL OR SWAP1 SSTORE POP DUP1 PUSH20 0xFFFFFFFFFFFFFFFFFFFFFFFFFFFFFFFFFFFFFFFF AND DUP4 DUP4 PUSH1 0x40 MLOAD PUSH2 0xE30 SWAP3 SWAP2 SWAP1 PUSH2 0x2276 JUMP JUMPDEST PUSH1 0x40 MLOAD DUP1 SWAP2 SUB SWAP1 KECCAK256 PUSH32 0x6D97A31531BDB3C43D920BC996EC8B9FD7733F5F55A81CD74700F88631FC6032 PUSH1 0x40 MLOAD PUSH1 0x40 MLOAD DUP1 SWAP2 SUB SWAP1 LOG3 POP POP POP JUMP JUMPDEST PUSH2 0xE71 PUSH2 0x11F9 JUMP JUMPDEST PUSH0 PUSH20 0xFFFFFFFFFFFFFFFFFFFFFFFFFFFFFFFFFFFFFFFF AND DUP2 PUSH20 0xFFFFFFFFFFFFFFFFFFFFFFFFFFFFFFFFFFFFFFFF AND SUB PUSH2 0xEE1 JUMPI PUSH0 PUSH1 0x40 MLOAD PUSH32 0x1E4FBDF700000000000000000000000000000000000000000000000000000000 DUP2 MSTORE PUSH1 0x4 ADD PUSH2 0xED8 SWAP2 SWAP1 PUSH2 0x1FA0 JUMP JUMPDEST PUSH1 0x40 MLOAD DUP1 SWAP2 SUB SWAP1 REVERT JUMPDEST PUSH2 0xEEA DUP2 PUSH2 0x13F5 JUMP JUMPDEST POP JUMP JUMPDEST PUSH0 DUP2 PUSH1 0x20 ADD CALLDATALOAD PUSH1 0x1 PUSH0 DUP5 PUSH0 ADD PUSH1 0x20 DUP2 ADD SWAP1 PUSH2 0xF08 SWAP2 SWAP1 PUSH2 0x202C JUMP JUMPDEST PUSH4 0xFFFFFFFF AND PUSH4 0xFFFFFFFF AND DUP2 MSTORE PUSH1 0x20 ADD SWAP1 DUP2 MSTORE PUSH1 0x20 ADD PUSH0 KECCAK256 SLOAD EQ SWAP1 POP SWAP2 SWAP1 POP JUMP JUMPDEST PUSH0 DUP1 PUSH1 0x1 PUSH0 DUP5 PUSH4 0xFFFFFFFF AND PUSH4 0xFFFFFFFF AND DUP2 MSTORE PUSH1 0x20 ADD SWAP1 DUP2 MSTORE PUSH1 0x20 ADD PUSH0 KECCAK256 SLOAD SWAP1 POP PUSH0 DUP1 SHL DUP2 SUB PUSH2 0xF92 JUMPI DUP3 PUSH1 0x40 MLOAD PUSH32 0xF6FF4FB700000000000000000000000000000000000000000000000000000000 DUP2 MSTORE PUSH1 0x4 ADD PUSH2 0xF89 SWAP2 SWAP1 PUSH2 0x25BB JUMP JUMPDEST PUSH1 0x40 MLOAD DUP1 SWAP2 SUB SWAP1 REVERT JUMPDEST DUP1 SWAP2 POP POP SWAP2 SWAP1 POP JUMP JUMPDEST PUSH0 DUP1 PUSH0 DUP8 DUP8 DUP2 ADD SWAP1 PUSH2 0xFAD SWAP2 SWAP1 PUSH2 0x260F JUMP JUMPDEST SWAP3 POP SWAP3 POP SWAP3 POP PUSH0 PUSH20 0xFFFFFFFFFFFFFFFFFFFFFFFFFFFFFFFFFFFFFFFF AND PUSH1 0x2 DUP4 PUSH1 0x40 MLOAD PUSH2 0xFDA SWAP2 SWAP1 PUSH2 0x26C3 JUMP JUMPDEST SWAP1 DUP2 MSTORE PUSH1 0x20 ADD PUSH1 0x40 MLOAD DUP1 SWAP2 SUB SWAP1 KECCAK256 PUSH0 SWAP1 SLOAD SWAP1 PUSH2 0x100 EXP SWAP1 DIV PUSH20 0xFFFFFFFFFFFFFFFFFFFFFFFFFFFFFFFFFFFFFFFF AND PUSH20 0xFFFFFFFFFFFFFFFFFFFFFFFFFFFFFFFFFFFFFFFF AND SUB PUSH2 0x105E JUMPI PUSH1 0x40 MLOAD PUSH32 0x8C379A000000000000000000000000000000000000000000000000000000000 DUP2 MSTORE PUSH1 0x4 ADD PUSH2 0x1055 SWAP1 PUSH2 0x22D8 JUMP JUMPDEST PUSH1 0x40 MLOAD DUP1 SWAP2 SUB SWAP1 REVERT JUMPDEST PUSH1 0x2 DUP3 PUSH1 0x40 MLOAD PUSH2 0x106E SWAP2 SWAP1 PUSH2 0x26C3 JUMP JUMPDEST SWAP1 DUP2 MSTORE PUSH1 0x20 ADD PUSH1 0x40 MLOAD DUP1 SWAP2 SUB SWAP1 KECCAK256 PUSH0 SWAP1 SLOAD SWAP1 PUSH2 0x100 EXP SWAP1 DIV PUSH20 0xFFFFFFFFFFFFFFFFFFFFFFFFFFFFFFFFFFFFFFFF AND PUSH20 0xFFFFFFFFFFFFFFFFFFFFFFFFFFFFFFFFFFFFFFFF AND PUSH4 0xA9059CBB DUP5 DUP4 PUSH1 0x40 MLOAD DUP4 PUSH4 0xFFFFFFFF AND PUSH1 0xE0 SHL DUP2 MSTORE PUSH1 0x4 ADD PUSH2 0x10D6 SWAP3 SWAP2 SWAP1 PUSH2 0x2594 JUMP JUMPDEST PUSH1 0x20 PUSH1 0x40 MLOAD DUP1 DUP4 SUB DUP2 PUSH0 DUP8 GAS CALL ISZERO DUP1 ISZERO PUSH2 0x10F2 JUMPI RETURNDATASIZE PUSH0 DUP1 RETURNDATACOPY RETURNDATASIZE PUSH0 REVERT JUMPDEST POP POP POP POP PUSH1 0x40 MLOAD RETURNDATASIZE PUSH1 0x1F NOT PUSH1 0x1F DUP3 ADD AND DUP3 ADD DUP1 PUSH1 0x40 MSTORE POP DUP2 ADD SWAP1 PUSH2 0x1116 SWAP2 SWAP1 PUSH2 0x2364 JUMP JUMPDEST PUSH2 0x1155 JUMPI PUSH1 0x40 MLOAD PUSH32 0x8C379A000000000000000000000000000000000000000000000000000000000 DUP2 MSTORE PUSH1 0x4 ADD PUSH2 0x114C SWAP1 PUSH2 0x23D9 JUMP JUMPDEST PUSH1 0x40 MLOAD DUP1 SWAP2 SUB SWAP1 REVERT JUMPDEST DUP1 PUSH1 0x2 DUP4 PUSH1 0x40 MLOAD PUSH2 0x1166 SWAP2 SWAP1 PUSH2 0x26C3 JUMP JUMPDEST SWAP1 DUP2 MSTORE PUSH1 0x20 ADD PUSH1 0x40 MLOAD DUP1 SWAP2 SUB SWAP1 KECCAK256 PUSH0 SWAP1 SLOAD SWAP1 PUSH2 0x100 EXP SWAP1 DIV PUSH20 0xFFFFFFFFFFFFFFFFFFFFFFFFFFFFFFFFFFFFFFFF AND PUSH20 0xFFFFFFFFFFFFFFFFFFFFFFFFFFFFFFFFFFFFFFFF AND DUP5 PUSH20 0xFFFFFFFFFFFFFFFFFFFFFFFFFFFFFFFFFFFFFFFF AND PUSH32 0x3737F2A73C794DAFE53D8AEEA06810A9EBCF7167401B259406960E088E03F830 PUSH1 0x40 MLOAD PUSH1 0x40 MLOAD DUP1 SWAP2 SUB SWAP1 LOG4 POP POP POP POP POP POP POP POP POP POP JUMP JUMPDEST PUSH2 0x1201 PUSH2 0x14B6 JUMP JUMPDEST PUSH20 0xFFFFFFFFFFFFFFFFFFFFFFFFFFFFFFFFFFFFFFFF AND PUSH2 0x121F PUSH2 0xB84 JUMP JUMPDEST PUSH20 0xFFFFFFFFFFFFFFFFFFFFFFFFFFFFFFFFFFFFFFFF AND EQ PUSH2 0x127E JUMPI PUSH2 0x1242 PUSH2 0x14B6 JUMP JUMPDEST PUSH1 0x40 MLOAD PUSH32 0x118CDAA700000000000000000000000000000000000000000000000000000000 DUP2 MSTORE PUSH1 0x4 ADD PUSH2 0x1275 SWAP2 SWAP1 PUSH2 0x1FA0 JUMP JUMPDEST PUSH1 0x40 MLOAD DUP1 SWAP2 SUB SWAP1 REVERT JUMPDEST JUMP JUMPDEST DUP1 PUSH1 0x1 PUSH0 DUP5 PUSH4 0xFFFFFFFF AND PUSH4 0xFFFFFFFF AND DUP2 MSTORE PUSH1 0x20 ADD SWAP1 DUP2 MSTORE PUSH1 0x20 ADD PUSH0 KECCAK256 DUP2 SWAP1 SSTORE POP PUSH32 0x238399D427B947898EDB290F5FF0F9109849B1C3BA196A42E35F00C50A54B98B DUP3 DUP3 PUSH1 0x40 MLOAD PUSH2 0x12D3 SWAP3 SWAP2 SWAP1 PUSH2 0x2141 JUMP JUMPDEST PUSH1 0x40 MLOAD DUP1 SWAP2 SUB SWAP1 LOG1 POP POP JUMP JUMPDEST PUSH2 0x12E7 PUSH2 0x176D JUMP JUMPDEST PUSH0 PUSH2 0x12F4 DUP5 PUSH0 ADD MLOAD PUSH2 0x14BD JUMP JUMPDEST SWAP1 POP PUSH0 DUP5 PUSH1 0x20 ADD MLOAD GT ISZERO PUSH2 0x1310 JUMPI PUSH2 0x130F DUP5 PUSH1 0x20 ADD MLOAD PUSH2 0x150A JUMP JUMPDEST JUMPDEST PUSH32 0x0 PUSH20 0xFFFFFFFFFFFFFFFFFFFFFFFFFFFFFFFFFFFFFFFF AND PUSH4 0x2637A450 DUP3 PUSH1 0x40 MLOAD DUP1 PUSH1 0xA0 ADD PUSH1 0x40 MSTORE DUP1 DUP12 PUSH4 0xFFFFFFFF AND DUP2 MSTORE PUSH1 0x20 ADD PUSH2 0x136D DUP13 PUSH2 0xF2A JUMP JUMPDEST DUP2 MSTORE PUSH1 0x20 ADD DUP11 DUP2 MSTORE PUSH1 0x20 ADD DUP10 DUP2 MSTORE PUSH1 0x20 ADD PUSH0 DUP10 PUSH1 0x20 ADD MLOAD GT ISZERO ISZERO DUP2 MSTORE POP DUP7 PUSH1 0x40 MLOAD DUP5 PUSH4 0xFFFFFFFF AND PUSH1 0xE0 SHL DUP2 MSTORE PUSH1 0x4 ADD PUSH2 0x13A8 SWAP3 SWAP2 SWAP1 PUSH2 0x27C3 JUMP JUMPDEST PUSH1 0x80 PUSH1 0x40 MLOAD DUP1 DUP4 SUB DUP2 DUP6 DUP9 GAS CALL ISZERO DUP1 ISZERO PUSH2 0x13C4 JUMPI RETURNDATASIZE PUSH0 DUP1 RETURNDATACOPY RETURNDATASIZE PUSH0 REVERT JUMPDEST POP POP POP POP POP PUSH1 0x40 MLOAD RETURNDATASIZE PUSH1 0x1F NOT PUSH1 0x1F DUP3 ADD AND DUP3 ADD DUP1 PUSH1 0x40 MSTORE POP DUP2 ADD SWAP1 PUSH2 0x13E9 SWAP2 SWAP1 PUSH2 0x28F5 JUMP JUMPDEST SWAP2 POP POP SWAP6 SWAP5 POP POP POP POP POP JUMP JUMPDEST PUSH0 DUP1 PUSH0 SWAP1 SLOAD SWAP1 PUSH2 0x100 EXP SWAP1 DIV PUSH20 0xFFFFFFFFFFFFFFFFFFFFFFFFFFFFFFFFFFFFFFFF AND SWAP1 POP DUP2 PUSH0 DUP1 PUSH2 0x100 EXP DUP2 SLOAD DUP2 PUSH20 0xFFFFFFFFFFFFFFFFFFFFFFFFFFFFFFFFFFFFFFFF MUL NOT AND SWAP1 DUP4 PUSH20 0xFFFFFFFFFFFFFFFFFFFFFFFFFFFFFFFFFFFFFFFF AND MUL OR SWAP1 SSTORE POP DUP2 PUSH20 0xFFFFFFFFFFFFFFFFFFFFFFFFFFFFFFFFFFFFFFFF AND DUP2 PUSH20 0xFFFFFFFFFFFFFFFFFFFFFFFFFFFFFFFFFFFFFFFF AND PUSH32 0x8BE0079C531659141344CD1FD0A4F28419497F9722A3DAAFE3B4186F6B6457E0 PUSH1 0x40 MLOAD PUSH1 0x40 MLOAD DUP1 SWAP2 SUB SWAP1 LOG3 POP POP JUMP JUMPDEST PUSH0 CALLER SWAP1 POP SWAP1 JUMP JUMPDEST PUSH0 DUP2 CALLVALUE EQ PUSH2 0x1502 JUMPI CALLVALUE PUSH1 0x40 MLOAD PUSH32 0x9F70412000000000000000000000000000000000000000000000000000000000 DUP2 MSTORE PUSH1 0x4 ADD PUSH2 0x14F9 SWAP2 SWAP1 PUSH2 0x2920 JUMP JUMPDEST PUSH1 0x40 MLOAD DUP1 SWAP2 SUB SWAP1 REVERT JUMPDEST DUP2 SWAP1 POP SWAP2 SWAP1 POP JUMP JUMPDEST PUSH0 PUSH32 0x0 PUSH20 0xFFFFFFFFFFFFFFFFFFFFFFFFFFFFFFFFFFFFFFFF AND PUSH4 0xE4FE1D94 PUSH1 0x40 MLOAD DUP2 PUSH4 0xFFFFFFFF AND PUSH1 0xE0 SHL DUP2 MSTORE PUSH1 0x4 ADD PUSH1 0x20 PUSH1 0x40 MLOAD DUP1 DUP4 SUB DUP2 DUP7 GAS STATICCALL ISZERO DUP1 ISZERO PUSH2 0x1574 JUMPI RETURNDATASIZE PUSH0 DUP1 RETURNDATACOPY RETURNDATASIZE PUSH0 REVERT JUMPDEST POP POP POP POP PUSH1 0x40 MLOAD RETURNDATASIZE PUSH1 0x1F NOT PUSH1 0x1F DUP3 ADD AND DUP3 ADD DUP1 PUSH1 0x40 MSTORE POP DUP2 ADD SWAP1 PUSH2 0x1598 SWAP2 SWAP1 PUSH2 0x294D JUMP JUMPDEST SWAP1 POP PUSH0 PUSH20 0xFFFFFFFFFFFFFFFFFFFFFFFFFFFFFFFFFFFFFFFF AND DUP2 PUSH20 0xFFFFFFFFFFFFFFFFFFFFFFFFFFFFFFFFFFFFFFFF AND SUB PUSH2 0x15FF JUMPI PUSH1 0x40 MLOAD PUSH32 0x5373352A00000000000000000000000000000000000000000000000000000000 DUP2 MSTORE PUSH1 0x4 ADD PUSH1 0x40 MLOAD DUP1 SWAP2 SUB SWAP1 REVERT JUMPDEST PUSH2 0x164C CALLER PUSH32 0x0 DUP5 DUP5 PUSH20 0xFFFFFFFFFFFFFFFFFFFFFFFFFFFFFFFFFFFFFFFF AND PUSH2 0x1650 SWAP1 SWAP4 SWAP3 SWAP2 SWAP1 PUSH4 0xFFFFFFFF AND JUMP JUMPDEST POP POP JUMP JUMPDEST PUSH2 0x16CC DUP5 DUP6 PUSH20 0xFFFFFFFFFFFFFFFFFFFFFFFFFFFFFFFFFFFFFFFF AND PUSH4 0x23B872DD DUP7 DUP7 DUP7 PUSH1 0x40 MLOAD PUSH1 0x24 ADD PUSH2 0x1685 SWAP4 SWAP3 SWAP2 SWAP1 PUSH2 0x2305 JUMP JUMPDEST PUSH1 0x40 MLOAD PUSH1 0x20 DUP2 DUP4 SUB SUB DUP2 MSTORE SWAP1 PUSH1 0x40 MSTORE SWAP2 POP PUSH1 0xE0 SHL PUSH1 0x20 DUP3 ADD DUP1 MLOAD PUSH28 0xFFFFFFFFFFFFFFFFFFFFFFFFFFFFFFFFFFFFFFFFFFFFFFFFFFFFFFFF DUP4 DUP2 DUP4 AND OR DUP4 MSTORE POP POP POP POP PUSH2 0x16D2 JUMP JUMPDEST POP POP POP POP JUMP JUMPDEST PUSH0 DUP1 PUSH1 0x20 PUSH0 DUP5 MLOAD PUSH1 0x20 DUP7 ADD PUSH0 DUP9 GAS CALL DUP1 PUSH2 0x16F1 JUMPI PUSH1 0x40 MLOAD RETURNDATASIZE PUSH0 DUP3 RETURNDATACOPY RETURNDATASIZE DUP2 REVERT JUMPDEST RETURNDATASIZE SWAP3 POP PUSH0 MLOAD SWAP2 POP POP PUSH0 DUP3 EQ PUSH2 0x170A JUMPI PUSH1 0x1 DUP2 EQ ISZERO PUSH2 0x1725 JUMP JUMPDEST PUSH0 DUP5 PUSH20 0xFFFFFFFFFFFFFFFFFFFFFFFFFFFFFFFFFFFFFFFF AND EXTCODESIZE EQ JUMPDEST ISZERO PUSH2 0x1767 JUMPI DUP4 PUSH1 0x40 MLOAD PUSH32 0x5274AFE700000000000000000000000000000000000000000000000000000000 DUP2 MSTORE PUSH1 0x4 ADD PUSH2 0x175E SWAP2 SWAP1 PUSH2 0x1FA0 JUMP JUMPDEST PUSH1 0x40 MLOAD DUP1 SWAP2 SUB SWAP1 REVERT JUMPDEST POP POP POP POP JUMP JUMPDEST PUSH1 0x40 MLOAD DUP1 PUSH1 0x60 ADD PUSH1 0x40 MSTORE DUP1 PUSH0 DUP1 NOT AND DUP2 MSTORE PUSH1 0x20 ADD PUSH0 PUSH8 0xFFFFFFFFFFFFFFFF AND DUP2 MSTORE PUSH1 0x20 ADD PUSH2 0x1799 PUSH2 0x179F JUMP JUMPDEST DUP2 MSTORE POP SWAP1 JUMP JUMPDEST PUSH1 0x40 MLOAD DUP1 PUSH1 0x40 ADD PUSH1 0x40 MSTORE DUP1 PUSH0 DUP2 MSTORE PUSH1 0x20 ADD PUSH0 DUP2 MSTORE POP SWAP1 JUMP JUMPDEST PUSH0 PUSH1 0x40 MLOAD SWAP1 POP SWAP1 JUMP JUMPDEST PUSH0 DUP1 REVERT JUMPDEST PUSH0 DUP1 REVERT JUMPDEST PUSH0 DUP1 REVERT JUMPDEST PUSH0 PUSH1 0x60 DUP3 DUP5 SUB SLT ISZERO PUSH2 0x17E1 JUMPI PUSH2 0x17E0 PUSH2 0x17C8 JUMP JUMPDEST JUMPDEST DUP2 SWAP1 POP SWAP3 SWAP2 POP POP JUMP JUMPDEST PUSH0 DUP2 SWAP1 POP SWAP2 SWAP1 POP JUMP JUMPDEST PUSH2 0x17FC DUP2 PUSH2 0x17EA JUMP JUMPDEST DUP2 EQ PUSH2 0x1806 JUMPI PUSH0 DUP1 REVERT JUMPDEST POP JUMP JUMPDEST PUSH0 DUP2 CALLDATALOAD SWAP1 POP PUSH2 0x1817 DUP2 PUSH2 0x17F3 JUMP JUMPDEST SWAP3 SWAP2 POP POP JUMP JUMPDEST PUSH0 DUP1 REVERT JUMPDEST PUSH0 DUP1 REVERT JUMPDEST PUSH0 DUP1 REVERT JUMPDEST PUSH0 DUP1 DUP4 PUSH1 0x1F DUP5 ADD SLT PUSH2 0x183E JUMPI PUSH2 0x183D PUSH2 0x181D JUMP JUMPDEST JUMPDEST DUP3 CALLDATALOAD SWAP1 POP PUSH8 0xFFFFFFFFFFFFFFFF DUP2 GT ISZERO PUSH2 0x185B JUMPI PUSH2 0x185A PUSH2 0x1821 JUMP JUMPDEST JUMPDEST PUSH1 0x20 DUP4 ADD SWAP2 POP DUP4 PUSH1 0x1 DUP3 MUL DUP4 ADD GT ISZERO PUSH2 0x1877 JUMPI PUSH2 0x1876 PUSH2 0x1825 JUMP JUMPDEST JUMPDEST SWAP3 POP SWAP3 SWAP1 POP JUMP JUMPDEST PUSH0 PUSH20 0xFFFFFFFFFFFFFFFFFFFFFFFFFFFFFFFFFFFFFFFF DUP3 AND SWAP1 POP SWAP2 SWAP1 POP JUMP JUMPDEST PUSH0 PUSH2 0x18A7 DUP3 PUSH2 0x187E JUMP JUMPDEST SWAP1 POP SWAP2 SWAP1 POP JUMP JUMPDEST PUSH2 0x18B7 DUP2 PUSH2 0x189D JUMP JUMPDEST DUP2 EQ PUSH2 0x18C1 JUMPI PUSH0 DUP1 REVERT JUMPDEST POP JUMP JUMPDEST PUSH0 DUP2 CALLDATALOAD SWAP1 POP PUSH2 0x18D2 DUP2 PUSH2 0x18AE JUMP JUMPDEST SWAP3 SWAP2 POP POP JUMP JUMPDEST PUSH0 DUP1 PUSH0 DUP1 PUSH0 DUP1 PUSH0 PUSH1 0xE0 DUP9 DUP11 SUB SLT ISZERO PUSH2 0x18F3 JUMPI PUSH2 0x18F2 PUSH2 0x17C0 JUMP JUMPDEST JUMPDEST PUSH0 PUSH2 0x1900 DUP11 DUP3 DUP12 ADD PUSH2 0x17CC JUMP JUMPDEST SWAP8 POP POP PUSH1 0x60 PUSH2 0x1911 DUP11 DUP3 DUP12 ADD PUSH2 0x1809 JUMP JUMPDEST SWAP7 POP POP PUSH1 0x80 DUP9 ADD CALLDATALOAD PUSH8 0xFFFFFFFFFFFFFFFF DUP2 GT ISZERO PUSH2 0x1932 JUMPI PUSH2 0x1931 PUSH2 0x17C4 JUMP JUMPDEST JUMPDEST PUSH2 0x193E DUP11 DUP3 DUP12 ADD PUSH2 0x1829 JUMP JUMPDEST SWAP6 POP SWAP6 POP POP PUSH1 0xA0 PUSH2 0x1951 DUP11 DUP3 DUP12 ADD PUSH2 0x18C4 JUMP JUMPDEST SWAP4 POP POP PUSH1 0xC0 DUP9 ADD CALLDATALOAD PUSH8 0xFFFFFFFFFFFFFFFF DUP2 GT ISZERO PUSH2 0x1972 JUMPI PUSH2 0x1971 PUSH2 0x17C4 JUMP JUMPDEST JUMPDEST PUSH2 0x197E DUP11 DUP3 DUP12 ADD PUSH2 0x1829 JUMP JUMPDEST SWAP3 POP SWAP3 POP POP SWAP3 SWAP6 SWAP9 SWAP2 SWAP5 SWAP8 POP SWAP3 SWAP6 POP JUMP JUMPDEST PUSH0 PUSH8 0xFFFFFFFFFFFFFFFF DUP3 AND SWAP1 POP SWAP2 SWAP1 POP JUMP JUMPDEST PUSH2 0x19AB DUP2 PUSH2 0x198F JUMP JUMPDEST DUP3 MSTORE POP POP JUMP JUMPDEST PUSH0 PUSH1 0x40 DUP3 ADD SWAP1 POP PUSH2 0x19C4 PUSH0 DUP4 ADD DUP6 PUSH2 0x19A2 JUMP JUMPDEST PUSH2 0x19D1 PUSH1 0x20 DUP4 ADD DUP5 PUSH2 0x19A2 JUMP JUMPDEST SWAP4 SWAP3 POP POP POP JUMP JUMPDEST PUSH0 PUSH2 0xFFFF DUP3 AND SWAP1 POP SWAP2 SWAP1 POP JUMP JUMPDEST PUSH2 0x19EE DUP2 PUSH2 0x19D8 JUMP JUMPDEST DUP2 EQ PUSH2 0x19F8 JUMPI PUSH0 DUP1 REVERT JUMPDEST POP JUMP JUMPDEST PUSH0 DUP2 CALLDATALOAD SWAP1 POP PUSH2 0x1A09 DUP2 PUSH2 0x19E5 JUMP JUMPDEST SWAP3 SWAP2 POP POP JUMP JUMPDEST PUSH0 PUSH1 0x20 DUP3 DUP5 SUB SLT ISZERO PUSH2 0x1A24 JUMPI PUSH2 0x1A23 PUSH2 0x17C0 JUMP JUMPDEST JUMPDEST PUSH0 PUSH2 0x1A31 DUP5 DUP3 DUP6 ADD PUSH2 0x19FB JUMP JUMPDEST SWAP2 POP POP SWAP3 SWAP2 POP POP JUMP JUMPDEST PUSH0 PUSH4 0xFFFFFFFF DUP3 AND SWAP1 POP SWAP2 SWAP1 POP JUMP JUMPDEST PUSH2 0x1A52 DUP2 PUSH2 0x1A3A JUMP JUMPDEST DUP2 EQ PUSH2 0x1A5C JUMPI PUSH0 DUP1 REVERT JUMPDEST POP JUMP JUMPDEST PUSH0 DUP2 CALLDATALOAD SWAP1 POP PUSH2 0x1A6D DUP2 PUSH2 0x1A49 JUMP JUMPDEST SWAP3 SWAP2 POP POP JUMP JUMPDEST PUSH0 DUP1 PUSH1 0x40 DUP4 DUP6 SUB SLT ISZERO PUSH2 0x1A89 JUMPI PUSH2 0x1A88 PUSH2 0x17C0 JUMP JUMPDEST JUMPDEST PUSH0 PUSH2 0x1A96 DUP6 DUP3 DUP7 ADD PUSH2 0x1A5F JUMP JUMPDEST SWAP3 POP POP PUSH1 0x20 PUSH2 0x1AA7 DUP6 DUP3 DUP7 ADD PUSH2 0x1809 JUMP JUMPDEST SWAP2 POP POP SWAP3 POP SWAP3 SWAP1 POP JUMP JUMPDEST PUSH0 DUP2 SWAP1 POP SWAP2 SWAP1 POP JUMP JUMPDEST PUSH0 PUSH2 0x1AD4 PUSH2 0x1ACF PUSH2 0x1ACA DUP5 PUSH2 0x187E JUMP JUMPDEST PUSH2 0x1AB1 JUMP JUMPDEST PUSH2 0x187E JUMP JUMPDEST SWAP1 POP SWAP2 SWAP1 POP JUMP JUMPDEST PUSH0 PUSH2 0x1AE5 DUP3 PUSH2 0x1ABA JUMP JUMPDEST SWAP1 POP SWAP2 SWAP1 POP JUMP JUMPDEST PUSH0 PUSH2 0x1AF6 DUP3 PUSH2 0x1ADB JUMP JUMPDEST SWAP1 POP SWAP2 SWAP1 POP JUMP JUMPDEST PUSH2 0x1B06 DUP2 PUSH2 0x1AEC JUMP JUMPDEST DUP3 MSTORE POP POP JUMP JUMPDEST PUSH0 PUSH1 0x20 DUP3 ADD SWAP1 POP PUSH2 0x1B1F PUSH0 DUP4 ADD DUP5 PUSH2 0x1AFD JUMP JUMPDEST SWAP3 SWAP2 POP POP JUMP JUMPDEST PUSH0 DUP1 DUP4 PUSH1 0x1F DUP5 ADD SLT PUSH2 0x1B3A JUMPI PUSH2 0x1B39 PUSH2 0x181D JUMP JUMPDEST JUMPDEST DUP3 CALLDATALOAD SWAP1 POP PUSH8 0xFFFFFFFFFFFFFFFF DUP2 GT ISZERO PUSH2 0x1B57 JUMPI PUSH2 0x1B56 PUSH2 0x1821 JUMP JUMPDEST JUMPDEST PUSH1 0x20 DUP4 ADD SWAP2 POP DUP4 PUSH1 0x1 DUP3 MUL DUP4 ADD GT ISZERO PUSH2 0x1B73 JUMPI PUSH2 0x1B72 PUSH2 0x1825 JUMP JUMPDEST JUMPDEST SWAP3 POP SWAP3 SWAP1 POP JUMP JUMPDEST PUSH0 DUP2 SWAP1 POP SWAP2 SWAP1 POP JUMP JUMPDEST PUSH2 0x1B8C DUP2 PUSH2 0x1B7A JUMP JUMPDEST DUP2 EQ PUSH2 0x1B96 JUMPI PUSH0 DUP1 REVERT JUMPDEST POP JUMP JUMPDEST PUSH0 DUP2 CALLDATALOAD SWAP1 POP PUSH2 0x1BA7 DUP2 PUSH2 0x1B83 JUMP JUMPDEST SWAP3 SWAP2 POP POP JUMP JUMPDEST PUSH0 DUP1 PUSH0 DUP1 PUSH0 DUP1 PUSH0 PUSH1 0xA0 DUP9 DUP11 SUB SLT ISZERO PUSH2 0x1BC8 JUMPI PUSH2 0x1BC7 PUSH2 0x17C0 JUMP JUMPDEST JUMPDEST PUSH0 DUP9 ADD CALLDATALOAD PUSH8 0xFFFFFFFFFFFFFFFF DUP2 GT ISZERO PUSH2 0x1BE5 JUMPI PUSH2 0x1BE4 PUSH2 0x17C4 JUMP JUMPDEST JUMPDEST PUSH2 0x1BF1 DUP11 DUP3 DUP12 ADD PUSH2 0x1B25 JUMP JUMPDEST SWAP8 POP SWAP8 POP POP PUSH1 0x20 PUSH2 0x1C04 DUP11 DUP3 DUP12 ADD PUSH2 0x1B99 JUMP JUMPDEST SWAP6 POP POP PUSH1 0x40 PUSH2 0x1C15 DUP11 DUP3 DUP12 ADD PUSH2 0x18C4 JUMP JUMPDEST SWAP5 POP POP PUSH1 0x60 PUSH2 0x1C26 DUP11 DUP3 DUP12 ADD PUSH2 0x19FB JUMP JUMPDEST SWAP4 POP POP PUSH1 0x80 DUP9 ADD CALLDATALOAD PUSH8 0xFFFFFFFFFFFFFFFF DUP2 GT ISZERO PUSH2 0x1C47 JUMPI PUSH2 0x1C46 PUSH2 0x17C4 JUMP JUMPDEST JUMPDEST PUSH2 0x1C53 DUP11 DUP3 DUP12 ADD PUSH2 0x1829 JUMP JUMPDEST SWAP3 POP SWAP3 POP POP SWAP3 SWAP6 SWAP9 SWAP2 SWAP5 SWAP8 POP SWAP3 SWAP6 POP JUMP JUMPDEST PUSH2 0x1C6D DUP2 PUSH2 0x17EA JUMP JUMPDEST DUP3 MSTORE POP POP JUMP JUMPDEST PUSH2 0x1C7C DUP2 PUSH2 0x198F JUMP JUMPDEST DUP3 MSTORE POP POP JUMP JUMPDEST PUSH2 0x1C8B DUP2 PUSH2 0x1B7A JUMP JUMPDEST DUP3 MSTORE POP POP JUMP JUMPDEST PUSH1 0x40 DUP3 ADD PUSH0 DUP3 ADD MLOAD PUSH2 0x1CA5 PUSH0 DUP6 ADD DUP3 PUSH2 0x1C82 JUMP JUMPDEST POP PUSH1 0x20 DUP3 ADD MLOAD PUSH2 0x1CB8 PUSH1 0x20 DUP6 ADD DUP3 PUSH2 0x1C82 JUMP JUMPDEST POP POP POP POP JUMP JUMPDEST PUSH1 0x80 DUP3 ADD PUSH0 DUP3 ADD MLOAD PUSH2 0x1CD2 PUSH0 DUP6 ADD DUP3 PUSH2 0x1C64 JUMP JUMPDEST POP PUSH1 0x20 DUP3 ADD MLOAD PUSH2 0x1CE5 PUSH1 0x20 DUP6 ADD DUP3 PUSH2 0x1C73 JUMP JUMPDEST POP PUSH1 0x40 DUP3 ADD MLOAD PUSH2 0x1CF8 PUSH1 0x40 DUP6 ADD DUP3 PUSH2 0x1C91 JUMP JUMPDEST POP POP POP POP JUMP JUMPDEST PUSH0 PUSH1 0x80 DUP3 ADD SWAP1 POP PUSH2 0x1D11 PUSH0 DUP4 ADD DUP5 PUSH2 0x1CBE JUMP JUMPDEST SWAP3 SWAP2 POP POP JUMP JUMPDEST PUSH0 PUSH1 0x20 DUP3 ADD SWAP1 POP PUSH2 0x1D2A PUSH0 DUP4 ADD DUP5 PUSH2 0x19A2 JUMP JUMPDEST SWAP3 SWAP2 POP POP JUMP JUMPDEST PUSH0 DUP1 PUSH0 DUP1 PUSH1 0xA0 DUP6 DUP8 SUB SLT ISZERO PUSH2 0x1D48 JUMPI PUSH2 0x1D47 PUSH2 0x17C0 JUMP JUMPDEST JUMPDEST PUSH0 PUSH2 0x1D55 DUP8 DUP3 DUP9 ADD PUSH2 0x17CC JUMP JUMPDEST SWAP5 POP POP PUSH1 0x60 DUP6 ADD CALLDATALOAD PUSH8 0xFFFFFFFFFFFFFFFF DUP2 GT ISZERO PUSH2 0x1D76 JUMPI PUSH2 0x1D75 PUSH2 0x17C4 JUMP JUMPDEST JUMPDEST PUSH2 0x1D82 DUP8 DUP3 DUP9 ADD PUSH2 0x1829 JUMP JUMPDEST SWAP4 POP SWAP4 POP POP PUSH1 0x80 PUSH2 0x1D95 DUP8 DUP3 DUP9 ADD PUSH2 0x18C4 JUMP JUMPDEST SWAP2 POP POP SWAP3 SWAP6 SWAP2 SWAP5 POP SWAP3 POP JUMP JUMPDEST PUSH0 DUP2 ISZERO ISZERO SWAP1 POP SWAP2 SWAP1 POP JUMP JUMPDEST PUSH2 0x1DB5 DUP2 PUSH2 0x1DA1 JUMP JUMPDEST DUP3 MSTORE POP POP JUMP JUMPDEST PUSH0 PUSH1 0x20 DUP3 ADD SWAP1 POP PUSH2 0x1DCE PUSH0 DUP4 ADD DUP5 PUSH2 0x1DAC JUMP JUMPDEST SWAP3 SWAP2 POP POP JUMP JUMPDEST PUSH0 DUP1 PUSH1 0x40 DUP4 DUP6 SUB SLT ISZERO PUSH2 0x1DEA JUMPI PUSH2 0x1DE9 PUSH2 0x17C0 JUMP JUMPDEST JUMPDEST PUSH0 PUSH2 0x1DF7 DUP6 DUP3 DUP7 ADD PUSH2 0x18C4 JUMP JUMPDEST SWAP3 POP POP PUSH1 0x20 PUSH2 0x1E08 DUP6 DUP3 DUP7 ADD PUSH2 0x1B99 JUMP JUMPDEST SWAP2 POP POP SWAP3 POP SWAP3 SWAP1 POP JUMP JUMPDEST PUSH0 DUP1 REVERT JUMPDEST PUSH0 PUSH1 0x1F NOT PUSH1 0x1F DUP4 ADD AND SWAP1 POP SWAP2 SWAP1 POP JUMP JUMPDEST PUSH32 0x4E487B7100000000000000000000000000000000000000000000000000000000 PUSH0 MSTORE PUSH1 0x41 PUSH1 0x4 MSTORE PUSH1 0x24 PUSH0 REVERT JUMPDEST PUSH2 0x1E5C DUP3 PUSH2 0x1E16 JUMP JUMPDEST DUP2 ADD DUP2 DUP2 LT PUSH8 0xFFFFFFFFFFFFFFFF DUP3 GT OR ISZERO PUSH2 0x1E7B JUMPI PUSH2 0x1E7A PUSH2 0x1E26 JUMP JUMPDEST JUMPDEST DUP1 PUSH1 0x40 MSTORE POP POP POP JUMP JUMPDEST PUSH0 PUSH2 0x1E8D PUSH2 0x17B7 JUMP JUMPDEST SWAP1 POP PUSH2 0x1E99 DUP3 DUP3 PUSH2 0x1E53 JUMP JUMPDEST SWAP2 SWAP1 POP JUMP JUMPDEST PUSH0 PUSH8 0xFFFFFFFFFFFFFFFF DUP3 GT ISZERO PUSH2 0x1EB8 JUMPI PUSH2 0x1EB7 PUSH2 0x1E26 JUMP JUMPDEST JUMPDEST PUSH2 0x1EC1 DUP3 PUSH2 0x1E16 JUMP JUMPDEST SWAP1 POP PUSH1 0x20 DUP2 ADD SWAP1 POP SWAP2 SWAP1 POP JUMP JUMPDEST DUP3 DUP2 DUP4 CALLDATACOPY PUSH0 DUP4 DUP4 ADD MSTORE POP POP POP JUMP JUMPDEST PUSH0 PUSH2 0x1EEE PUSH2 0x1EE9 DUP5 PUSH2 0x1E9E JUMP JUMPDEST PUSH2 0x1E84 JUMP JUMPDEST SWAP1 POP DUP3 DUP2 MSTORE PUSH1 0x20 DUP2 ADD DUP5 DUP5 DUP5 ADD GT ISZERO PUSH2 0x1F0A JUMPI PUSH2 0x1F09 PUSH2 0x1E12 JUMP JUMPDEST JUMPDEST PUSH2 0x1F15 DUP5 DUP3 DUP6 PUSH2 0x1ECE JUMP JUMPDEST POP SWAP4 SWAP3 POP POP POP JUMP JUMPDEST PUSH0 DUP3 PUSH1 0x1F DUP4 ADD SLT PUSH2 0x1F31 JUMPI PUSH2 0x1F30 PUSH2 0x181D JUMP JUMPDEST JUMPDEST DUP2 CALLDATALOAD PUSH2 0x1F41 DUP5 DUP3 PUSH1 0x20 DUP7 ADD PUSH2 0x1EDC JUMP JUMPDEST SWAP2 POP POP SWAP3 SWAP2 POP POP JUMP JUMPDEST PUSH0 PUSH1 0x20 DUP3 DUP5 SUB SLT ISZERO PUSH2 0x1F5F JUMPI PUSH2 0x1F5E PUSH2 0x17C0 JUMP JUMPDEST JUMPDEST PUSH0 DUP3 ADD CALLDATALOAD PUSH8 0xFFFFFFFFFFFFFFFF DUP2 GT ISZERO PUSH2 0x1F7C JUMPI PUSH2 0x1F7B PUSH2 0x17C4 JUMP JUMPDEST JUMPDEST PUSH2 0x1F88 DUP5 DUP3 DUP6 ADD PUSH2 0x1F1D JUMP JUMPDEST SWAP2 POP POP SWAP3 SWAP2 POP POP JUMP JUMPDEST PUSH2 0x1F9A DUP2 PUSH2 0x189D JUMP JUMPDEST DUP3 MSTORE POP POP JUMP JUMPDEST PUSH0 PUSH1 0x20 DUP3 ADD SWAP1 POP PUSH2 0x1FB3 PUSH0 DUP4 ADD DUP5 PUSH2 0x1F91 JUMP JUMPDEST SWAP3 SWAP2 POP POP JUMP JUMPDEST PUSH0 DUP1 PUSH1 0x20 DUP4 DUP6 SUB SLT ISZERO PUSH2 0x1FCF JUMPI PUSH2 0x1FCE PUSH2 0x17C0 JUMP JUMPDEST JUMPDEST PUSH0 DUP4 ADD CALLDATALOAD PUSH8 0xFFFFFFFFFFFFFFFF DUP2 GT ISZERO PUSH2 0x1FEC JUMPI PUSH2 0x1FEB PUSH2 0x17C4 JUMP JUMPDEST JUMPDEST PUSH2 0x1FF8 DUP6 DUP3 DUP7 ADD PUSH2 0x1B25 JUMP JUMPDEST SWAP3 POP SWAP3 POP POP SWAP3 POP SWAP3 SWAP1 POP JUMP JUMPDEST PUSH2 0x200D DUP2 PUSH2 0x19D8 JUMP JUMPDEST DUP3 MSTORE POP POP JUMP JUMPDEST PUSH0 PUSH1 0x20 DUP3 ADD SWAP1 POP PUSH2 0x2026 PUSH0 DUP4 ADD DUP5 PUSH2 0x2004 JUMP JUMPDEST SWAP3 SWAP2 POP POP JUMP JUMPDEST PUSH0 PUSH1 0x20 DUP3 DUP5 SUB SLT ISZERO PUSH2 0x2041 JUMPI PUSH2 0x2040 PUSH2 0x17C0 JUMP JUMPDEST JUMPDEST PUSH0 PUSH2 0x204E DUP5 DUP3 DUP6 ADD PUSH2 0x1A5F JUMP JUMPDEST SWAP2 POP POP SWAP3 SWAP2 POP POP JUMP JUMPDEST PUSH2 0x2060 DUP2 PUSH2 0x17EA JUMP JUMPDEST DUP3 MSTORE POP POP JUMP JUMPDEST PUSH0 PUSH1 0x20 DUP3 ADD SWAP1 POP PUSH2 0x2079 PUSH0 DUP4 ADD DUP5 PUSH2 0x2057 JUMP JUMPDEST SWAP3 SWAP2 POP POP JUMP JUMPDEST PUSH0 PUSH1 0x20 DUP3 DUP5 SUB SLT ISZERO PUSH2 0x2094 JUMPI PUSH2 0x2093 PUSH2 0x17C0 JUMP JUMPDEST JUMPDEST PUSH0 PUSH2 0x20A1 DUP5 DUP3 DUP6 ADD PUSH2 0x18C4 JUMP JUMPDEST SWAP2 POP POP SWAP3 SWAP2 POP POP JUMP JUMPDEST PUSH0 DUP1 PUSH0 PUSH1 0x40 DUP5 DUP7 SUB SLT ISZERO PUSH2 0x20C1 JUMPI PUSH2 0x20C0 PUSH2 0x17C0 JUMP JUMPDEST JUMPDEST PUSH0 DUP5 ADD CALLDATALOAD PUSH8 0xFFFFFFFFFFFFFFFF DUP2 GT ISZERO PUSH2 0x20DE JUMPI PUSH2 0x20DD PUSH2 0x17C4 JUMP JUMPDEST JUMPDEST PUSH2 0x20EA DUP7 DUP3 DUP8 ADD PUSH2 0x1B25 JUMP JUMPDEST SWAP4 POP SWAP4 POP POP PUSH1 0x20 PUSH2 0x20FD DUP7 DUP3 DUP8 ADD PUSH2 0x18C4 JUMP JUMPDEST SWAP2 POP POP SWAP3 POP SWAP3 POP SWAP3 JUMP JUMPDEST PUSH0 PUSH1 0x60 DUP3 DUP5 SUB SLT ISZERO PUSH2 0x211C JUMPI PUSH2 0x211B PUSH2 0x17C0 JUMP JUMPDEST JUMPDEST PUSH0 PUSH2 0x2129 DUP5 DUP3 DUP6 ADD PUSH2 0x17CC JUMP JUMPDEST SWAP2 POP POP SWAP3 SWAP2 POP POP JUMP JUMPDEST PUSH2 0x213B DUP2 PUSH2 0x1A3A JUMP JUMPDEST DUP3 MSTORE POP POP JUMP JUMPDEST PUSH0 PUSH1 0x40 DUP3 ADD SWAP1 POP PUSH2 0x2154 PUSH0 DUP4 ADD DUP6 PUSH2 0x2132 JUMP JUMPDEST PUSH2 0x2161 PUSH1 0x20 DUP4 ADD DUP5 PUSH2 0x2057 JUMP JUMPDEST SWAP4 SWAP3 POP POP POP JUMP JUMPDEST PUSH0 DUP3 DUP3 MSTORE PUSH1 0x20 DUP3 ADD SWAP1 POP SWAP3 SWAP2 POP POP JUMP JUMPDEST PUSH32 0x4665652063616E6E6F7420657863656564203125000000000000000000000000 PUSH0 DUP3 ADD MSTORE POP JUMP JUMPDEST PUSH0 PUSH2 0x21AC PUSH1 0x14 DUP4 PUSH2 0x2168 JUMP JUMPDEST SWAP2 POP PUSH2 0x21B7 DUP3 PUSH2 0x2178 JUMP JUMPDEST PUSH1 0x20 DUP3 ADD SWAP1 POP SWAP2 SWAP1 POP JUMP JUMPDEST PUSH0 PUSH1 0x20 DUP3 ADD SWAP1 POP DUP2 DUP2 SUB PUSH0 DUP4 ADD MSTORE PUSH2 0x21D9 DUP2 PUSH2 0x21A0 JUMP JUMPDEST SWAP1 POP SWAP2 SWAP1 POP JUMP JUMPDEST PUSH32 0x496E76616C696420726563656976657220616464726573730000000000000000 PUSH0 DUP3 ADD MSTORE POP JUMP JUMPDEST PUSH0 PUSH2 0x2214 PUSH1 0x18 DUP4 PUSH2 0x2168 JUMP JUMPDEST SWAP2 POP PUSH2 0x221F DUP3 PUSH2 0x21E0 JUMP JUMPDEST PUSH1 0x20 DUP3 ADD SWAP1 POP SWAP2 SWAP1 POP JUMP JUMPDEST PUSH0 PUSH1 0x20 DUP3 ADD SWAP1 POP DUP2 DUP2 SUB PUSH0 DUP4 ADD MSTORE PUSH2 0x2241 DUP2 PUSH2 0x2208 JUMP JUMPDEST SWAP1 POP SWAP2 SWAP1 POP JUMP JUMPDEST PUSH0 DUP2 SWAP1 POP SWAP3 SWAP2 POP POP JUMP JUMPDEST PUSH0 PUSH2 0x225D DUP4 DUP6 PUSH2 0x2248 JUMP JUMPDEST SWAP4 POP PUSH2 0x226A DUP4 DUP6 DUP5 PUSH2 0x1ECE JUMP JUMPDEST DUP3 DUP5 ADD SWAP1 POP SWAP4 SWAP3 POP POP POP JUMP JUMPDEST PUSH0 PUSH2 0x2282 DUP3 DUP5 DUP7 PUSH2 0x2252 JUMP JUMPDEST SWAP2 POP DUP2 SWAP1 POP SWAP4 SWAP3 POP POP POP JUMP JUMPDEST PUSH32 0x546F6B656E206E6F7420737570706F7274656400000000000000000000000000 PUSH0 DUP3 ADD MSTORE POP JUMP JUMPDEST PUSH0 PUSH2 0x22C2 PUSH1 0x13 DUP4 PUSH2 0x2168 JUMP JUMPDEST SWAP2 POP PUSH2 0x22CD DUP3 PUSH2 0x228E JUMP JUMPDEST PUSH1 0x20 DUP3 ADD SWAP1 POP SWAP2 SWAP1 POP JUMP JUMPDEST PUSH0 PUSH1 0x20 DUP3 ADD SWAP1 POP DUP2 DUP2 SUB PUSH0 DUP4 ADD MSTORE PUSH2 0x22EF DUP2 PUSH2 0x22B6 JUMP JUMPDEST SWAP1 POP SWAP2 SWAP1 POP JUMP JUMPDEST PUSH2 0x22FF DUP2 PUSH2 0x1B7A JUMP JUMPDEST DUP3 MSTORE POP POP JUMP JUMPDEST PUSH0 PUSH1 0x60 DUP3 ADD SWAP1 POP PUSH2 0x2318 PUSH0 DUP4 ADD DUP7 PUSH2 0x1F91 JUMP JUMPDEST PUSH2 0x2325 PUSH1 0x20 DUP4 ADD DUP6 PUSH2 0x1F91 JUMP JUMPDEST PUSH2 0x2332 PUSH1 0x40 DUP4 ADD DUP5 PUSH2 0x22F6 JUMP JUMPDEST SWAP5 SWAP4 POP POP POP POP JUMP JUMPDEST PUSH2 0x2343 DUP2 PUSH2 0x1DA1 JUMP JUMPDEST DUP2 EQ PUSH2 0x234D JUMPI PUSH0 DUP1 REVERT JUMPDEST POP JUMP JUMPDEST PUSH0 DUP2 MLOAD SWAP1 POP PUSH2 0x235E DUP2 PUSH2 0x233A JUMP JUMPDEST SWAP3 SWAP2 POP POP JUMP JUMPDEST PUSH0 PUSH1 0x20 DUP3 DUP5 SUB SLT ISZERO PUSH2 0x2379 JUMPI PUSH2 0x2378 PUSH2 0x17C0 JUMP JUMPDEST JUMPDEST PUSH0 PUSH2 0x2386 DUP5 DUP3 DUP6 ADD PUSH2 0x2350 JUMP JUMPDEST SWAP2 POP POP SWAP3 SWAP2 POP POP JUMP JUMPDEST PUSH32 0x546F6B656E207472616E73666572206661696C65640000000000000000000000 PUSH0 DUP3 ADD MSTORE POP JUMP JUMPDEST PUSH0 PUSH2 0x23C3 PUSH1 0x15 DUP4 PUSH2 0x2168 JUMP JUMPDEST SWAP2 POP PUSH2 0x23CE DUP3 PUSH2 0x238F JUMP JUMPDEST PUSH1 0x20 DUP3 ADD SWAP1 POP SWAP2 SWAP1 POP JUMP JUMPDEST PUSH0 PUSH1 0x20 DUP3 ADD SWAP1 POP DUP2 DUP2 SUB PUSH0 DUP4 ADD MSTORE PUSH2 0x23F0 DUP2 PUSH2 0x23B7 JUMP JUMPDEST SWAP1 POP SWAP2 SWAP1 POP JUMP JUMPDEST PUSH32 0x4E487B7100000000000000000000000000000000000000000000000000000000 PUSH0 MSTORE PUSH1 0x11 PUSH1 0x4 MSTORE PUSH1 0x24 PUSH0 REVERT JUMPDEST PUSH0 PUSH2 0x242E DUP3 PUSH2 0x1B7A JUMP JUMPDEST SWAP2 POP PUSH2 0x2439 DUP4 PUSH2 0x1B7A JUMP JUMPDEST SWAP3 POP DUP3 DUP3 MUL PUSH2 0x2447 DUP2 PUSH2 0x1B7A JUMP JUMPDEST SWAP2 POP DUP3 DUP3 DIV DUP5 EQ DUP4 ISZERO OR PUSH2 0x245E JUMPI PUSH2 0x245D PUSH2 0x23F7 JUMP JUMPDEST JUMPDEST POP SWAP3 SWAP2 POP POP JUMP JUMPDEST PUSH32 0x4E487B7100000000000000000000000000000000000000000000000000000000 PUSH0 MSTORE PUSH1 0x12 PUSH1 0x4 MSTORE PUSH1 0x24 PUSH0 REVERT JUMPDEST PUSH0 PUSH2 0x249C DUP3 PUSH2 0x1B7A JUMP JUMPDEST SWAP2 POP PUSH2 0x24A7 DUP4 PUSH2 0x1B7A JUMP JUMPDEST SWAP3 POP DUP3 PUSH2 0x24B7 JUMPI PUSH2 0x24B6 PUSH2 0x2465 JUMP JUMPDEST JUMPDEST DUP3 DUP3 DIV SWAP1 POP SWAP3 SWAP2 POP POP JUMP JUMPDEST PUSH0 PUSH2 0x24CC DUP3 PUSH2 0x1B7A JUMP JUMPDEST SWAP2 POP PUSH2 0x24D7 DUP4 PUSH2 0x1B7A JUMP JUMPDEST SWAP3 POP DUP3 DUP3 SUB SWAP1 POP DUP2 DUP2 GT ISZERO PUSH2 0x24EF JUMPI PUSH2 0x24EE PUSH2 0x23F7 JUMP JUMPDEST JUMPDEST SWAP3 SWAP2 POP POP JUMP JUMPDEST PUSH0 PUSH2 0x2500 DUP4 DUP6 PUSH2 0x2168 JUMP JUMPDEST SWAP4 POP PUSH2 0x250D DUP4 DUP6 DUP5 PUSH2 0x1ECE JUMP JUMPDEST PUSH2 0x2516 DUP4 PUSH2 0x1E16 JUMP JUMPDEST DUP5 ADD SWAP1 POP SWAP4 SWAP3 POP POP POP JUMP JUMPDEST PUSH0 PUSH1 0x60 DUP3 ADD SWAP1 POP PUSH2 0x2534 PUSH0 DUP4 ADD DUP8 PUSH2 0x1F91 JUMP JUMPDEST DUP2 DUP2 SUB PUSH1 0x20 DUP4 ADD MSTORE PUSH2 0x2547 DUP2 DUP6 DUP8 PUSH2 0x24F5 JUMP JUMPDEST SWAP1 POP PUSH2 0x2556 PUSH1 0x40 DUP4 ADD DUP5 PUSH2 0x22F6 JUMP JUMPDEST SWAP6 SWAP5 POP POP POP POP POP JUMP JUMPDEST PUSH0 PUSH1 0x60 DUP3 ADD SWAP1 POP PUSH2 0x2572 PUSH0 DUP4 ADD DUP7 PUSH2 0x1F91 JUMP JUMPDEST PUSH2 0x257F PUSH1 0x20 DUP4 ADD DUP6 PUSH2 0x22F6 JUMP JUMPDEST PUSH2 0x258C PUSH1 0x40 DUP4 ADD DUP5 PUSH2 0x2004 JUMP JUMPDEST SWAP5 SWAP4 POP POP POP POP JUMP JUMPDEST PUSH0 PUSH1 0x40 DUP3 ADD SWAP1 POP PUSH2 0x25A7 PUSH0 DUP4 ADD DUP6 PUSH2 0x1F91 JUMP JUMPDEST PUSH2 0x25B4 PUSH1 0x20 DUP4 ADD DUP5 PUSH2 0x22F6 JUMP JUMPDEST SWAP4 SWAP3 POP POP POP JUMP JUMPDEST PUSH0 PUSH1 0x20 DUP3 ADD SWAP1 POP PUSH2 0x25CE PUSH0 DUP4 ADD DUP5 PUSH2 0x2132 JUMP JUMPDEST SWAP3 SWAP2 POP POP JUMP JUMPDEST PUSH0 PUSH2 0x25DE DUP3 PUSH2 0x187E JUMP JUMPDEST SWAP1 POP SWAP2 SWAP1 POP JUMP JUMPDEST PUSH2 0x25EE DUP2 PUSH2 0x25D4 JUMP JUMPDEST DUP2 EQ PUSH2 0x25F8 JUMPI PUSH0 DUP1 REVERT JUMPDEST POP JUMP JUMPDEST PUSH0 DUP2 CALLDATALOAD SWAP1 POP PUSH2 0x2609 DUP2 PUSH2 0x25E5 JUMP JUMPDEST SWAP3 SWAP2 POP POP JUMP JUMPDEST PUSH0 DUP1 PUSH0 PUSH1 0x60 DUP5 DUP7 SUB SLT ISZERO PUSH2 0x2626 JUMPI PUSH2 0x2625 PUSH2 0x17C0 JUMP JUMPDEST JUMPDEST PUSH0 PUSH2 0x2633 DUP7 DUP3 DUP8 ADD PUSH2 0x25FB JUMP JUMPDEST SWAP4 POP POP PUSH1 0x20 DUP5 ADD CALLDATALOAD PUSH8 0xFFFFFFFFFFFFFFFF DUP2 GT ISZERO PUSH2 0x2654 JUMPI PUSH2 0x2653 PUSH2 0x17C4 JUMP JUMPDEST JUMPDEST PUSH2 0x2660 DUP7 DUP3 DUP8 ADD PUSH2 0x1F1D JUMP JUMPDEST SWAP3 POP POP PUSH1 0x40 PUSH2 0x2671 DUP7 DUP3 DUP8 ADD PUSH2 0x1B99 JUMP JUMPDEST SWAP2 POP POP SWAP3 POP SWAP3 POP SWAP3 JUMP JUMPDEST PUSH0 DUP2 MLOAD SWAP1 POP SWAP2 SWAP1 POP JUMP JUMPDEST DUP3 DUP2 DUP4 MCOPY PUSH0 DUP4 DUP4 ADD MSTORE POP POP POP JUMP JUMPDEST PUSH0 PUSH2 0x269D DUP3 PUSH2 0x267B JUMP JUMPDEST PUSH2 0x26A7 DUP2 DUP6 PUSH2 0x2248 JUMP JUMPDEST SWAP4 POP PUSH2 0x26B7 DUP2 DUP6 PUSH1 0x20 DUP7 ADD PUSH2 0x2685 JUMP JUMPDEST DUP1 DUP5 ADD SWAP2 POP POP SWAP3 SWAP2 POP POP JUMP JUMPDEST PUSH0 PUSH2 0x26CE DUP3 DUP5 PUSH2 0x2693 JUMP JUMPDEST SWAP2 POP DUP2 SWAP1 POP SWAP3 SWAP2 POP POP JUMP JUMPDEST PUSH2 0x26E2 DUP2 PUSH2 0x1A3A JUMP JUMPDEST DUP3 MSTORE POP POP JUMP JUMPDEST PUSH0 DUP2 MLOAD SWAP1 POP SWAP2 SWAP1 POP JUMP JUMPDEST PUSH0 DUP3 DUP3 MSTORE PUSH1 0x20 DUP3 ADD SWAP1 POP SWAP3 SWAP2 POP POP JUMP JUMPDEST PUSH0 PUSH2 0x270C DUP3 PUSH2 0x26E8 JUMP JUMPDEST PUSH2 0x2716 DUP2 DUP6 PUSH2 0x26F2 JUMP JUMPDEST SWAP4 POP PUSH2 0x2726 DUP2 DUP6 PUSH1 0x20 DUP7 ADD PUSH2 0x2685 JUMP JUMPDEST PUSH2 0x272F DUP2 PUSH2 0x1E16 JUMP JUMPDEST DUP5 ADD SWAP2 POP POP SWAP3 SWAP2 POP POP JUMP JUMPDEST PUSH2 0x2743 DUP2 PUSH2 0x1DA1 JUMP JUMPDEST DUP3 MSTORE POP POP JUMP JUMPDEST PUSH0 PUSH1 0xA0 DUP4 ADD PUSH0 DUP4 ADD MLOAD PUSH2 0x275E PUSH0 DUP7 ADD DUP3 PUSH2 0x26D9 JUMP JUMPDEST POP PUSH1 0x20 DUP4 ADD MLOAD PUSH2 0x2771 PUSH1 0x20 DUP7 ADD DUP3 PUSH2 0x1C64 JUMP JUMPDEST POP PUSH1 0x40 DUP4 ADD MLOAD DUP5 DUP3 SUB PUSH1 0x40 DUP7 ADD MSTORE PUSH2 0x2789 DUP3 DUP3 PUSH2 0x2702 JUMP JUMPDEST SWAP2 POP POP PUSH1 0x60 DUP4 ADD MLOAD DUP5 DUP3 SUB PUSH1 0x60 DUP7 ADD MSTORE PUSH2 0x27A3 DUP3 DUP3 PUSH2 0x2702 JUMP JUMPDEST SWAP2 POP POP PUSH1 0x80 DUP4 ADD MLOAD PUSH2 0x27B8 PUSH1 0x80 DUP7 ADD DUP3 PUSH2 0x273A JUMP JUMPDEST POP DUP1 SWAP2 POP POP SWAP3 SWAP2 POP POP JUMP JUMPDEST PUSH0 PUSH1 0x40 DUP3 ADD SWAP1 POP DUP2 DUP2 SUB PUSH0 DUP4 ADD MSTORE PUSH2 0x27DB DUP2 DUP6 PUSH2 0x2749 JUMP JUMPDEST SWAP1 POP PUSH2 0x27EA PUSH1 0x20 DUP4 ADD DUP5 PUSH2 0x1F91 JUMP JUMPDEST SWAP4 SWAP3 POP POP POP JUMP JUMPDEST PUSH0 DUP1 REVERT JUMPDEST PUSH0 DUP2 MLOAD SWAP1 POP PUSH2 0x2803 DUP2 PUSH2 0x17F3 JUMP JUMPDEST SWAP3 SWAP2 POP POP JUMP JUMPDEST PUSH2 0x2812 DUP2 PUSH2 0x198F JUMP JUMPDEST DUP2 EQ PUSH2 0x281C JUMPI PUSH0 DUP1 REVERT JUMPDEST POP JUMP JUMPDEST PUSH0 DUP2 MLOAD SWAP1 POP PUSH2 0x282D DUP2 PUSH2 0x2809 JUMP JUMPDEST SWAP3 SWAP2 POP POP JUMP JUMPDEST PUSH0 DUP2 MLOAD SWAP1 POP PUSH2 0x2841 DUP2 PUSH2 0x1B83 JUMP JUMPDEST SWAP3 SWAP2 POP POP JUMP JUMPDEST PUSH0 PUSH1 0x40 DUP3 DUP5 SUB SLT ISZERO PUSH2 0x285C JUMPI PUSH2 0x285B PUSH2 0x27F1 JUMP JUMPDEST JUMPDEST PUSH2 0x2866 PUSH1 0x40 PUSH2 0x1E84 JUMP JUMPDEST SWAP1 POP PUSH0 PUSH2 0x2875 DUP5 DUP3 DUP6 ADD PUSH2 0x2833 JUMP JUMPDEST PUSH0 DUP4 ADD MSTORE POP PUSH1 0x20 PUSH2 0x2888 DUP5 DUP3 DUP6 ADD PUSH2 0x2833 JUMP JUMPDEST PUSH1 0x20 DUP4 ADD MSTORE POP SWAP3 SWAP2 POP POP JUMP JUMPDEST PUSH0 PUSH1 0x80 DUP3 DUP5 SUB SLT ISZERO PUSH2 0x28A9 JUMPI PUSH2 0x28A8 PUSH2 0x27F1 JUMP JUMPDEST JUMPDEST PUSH2 0x28B3 PUSH1 0x60 PUSH2 0x1E84 JUMP JUMPDEST SWAP1 POP PUSH0 PUSH2 0x28C2 DUP5 DUP3 DUP6 ADD PUSH2 0x27F5 JUMP JUMPDEST PUSH0 DUP4 ADD MSTORE POP PUSH1 0x20 PUSH2 0x28D5 DUP5 DUP3 DUP6 ADD PUSH2 0x281F JUMP JUMPDEST PUSH1 0x20 DUP4 ADD MSTORE POP PUSH1 0x40 PUSH2 0x28E9 DUP5 DUP3 DUP6 ADD PUSH2 0x2847 JUMP JUMPDEST PUSH1 0x40 DUP4 ADD MSTORE POP SWAP3 SWAP2 POP POP JUMP JUMPDEST PUSH0 PUSH1 0x80 DUP3 DUP5 SUB SLT ISZERO PUSH2 0x290A JUMPI PUSH2 0x2909 PUSH2 0x17C0 JUMP JUMPDEST JUMPDEST PUSH0 PUSH2 0x2917 DUP5 DUP3 DUP6 ADD PUSH2 0x2894 JUMP JUMPDEST SWAP2 POP POP SWAP3 SWAP2 POP POP JUMP JUMPDEST PUSH0 PUSH1 0x20 DUP3 ADD SWAP1 POP PUSH2 0x2933 PUSH0 DUP4 ADD DUP5 PUSH2 0x22F6 JUMP JUMPDEST SWAP3 SWAP2 POP POP JUMP JUMPDEST PUSH0 DUP2 MLOAD SWAP1 POP PUSH2 0x2947 DUP2 PUSH2 0x18AE JUMP JUMPDEST SWAP3 SWAP2 POP POP JUMP JUMPDEST PUSH0 PUSH1 0x20 DUP3 DUP5 SUB SLT ISZERO PUSH2 0x2962 JUMPI PUSH2 0x2961 PUSH2 0x17C0 JUMP JUMPDEST JUMPDEST PUSH0 PUSH2 0x296F DUP5 DUP3 DUP6 ADD PUSH2 0x2939 JUMP JUMPDEST SWAP2 POP POP SWAP3 SWAP2 POP POP JUMP INVALID LOG2 PUSH5 0x6970667358 0x22 SLT KECCAK256 MSTORE8 MULMOD 0xEA ADD PUSH8 0xC12CE27AFE71C08C STOP 0xBE 0xC SUB STOP 0xFB DUP9 PUSH15 0x6A5C1B5FDF74208A799C1864736F6C PUSH4 0x4300081A STOP CALLER "
		},
		"gasEstimates": {
			"creation": {
				"codeDepositCost": "2134000",
				"executionCost": "infinite",
				"totalCost": "infinite"
			},
			"external": {
				"addSupportedToken(string,address)": "infinite",
				"allowInitializePath((uint32,bytes32,uint64))": "3106",
				"bridgeTokens(string,uint256,address,uint16,bytes)": "infinite",
				"endpoint()": "infinite",
				"feeBasisPoints()": "2577",
				"isComposeMsgSender((uint32,bytes32,uint64),bytes,address)": "1120",
				"lzReceive((uint32,bytes32,uint64),bytes32,bytes,address,bytes)": "infinite",
				"nextNonce(uint32,bytes32)": "857",
				"oAppVersion()": "infinite",
				"owner()": "2582",
				"peers(uint32)": "2782",
				"recoverERC20(address,uint256)": "infinite",
				"recoverNative()": "infinite",
				"removeSupportedToken(string)": "infinite",
				"renounceOwnership()": "infinite",
				"setDelegate(address)": "infinite",
				"setPeer(uint32,bytes32)": "infinite",
				"supportedTokens(string)": "infinite",
				"transferOwnership(address)": "infinite",
				"updateFee(uint16)": "infinite"
			},
			"internal": {
				"_lzReceive(struct Origin calldata,bytes32,bytes calldata,address,bytes calldata)": "infinite"
			}
		},
		"methodIdentifiers": {
			"addSupportedToken(string,address)": "ed88ed6c",
			"allowInitializePath((uint32,bytes32,uint64))": "ff7bd03d",
			"bridgeTokens(string,uint256,address,uint16,bytes)": "6c29eb06",
			"endpoint()": "5e280f11",
			"feeBasisPoints()": "b8606eef",
			"isComposeMsgSender((uint32,bytes32,uint64),bytes,address)": "82413eac",
			"lzReceive((uint32,bytes32,uint64),bytes32,bytes,address,bytes)": "13137d65",
			"nextNonce(uint32,bytes32)": "7d25a05e",
			"oAppVersion()": "17442b70",
			"owner()": "8da5cb5b",
			"peers(uint32)": "bb0b6a53",
			"recoverERC20(address,uint256)": "8980f11f",
			"recoverNative()": "5a54db86",
			"removeSupportedToken(string)": "92543a8a",
			"renounceOwnership()": "715018a6",
			"setDelegate(address)": "ca5eb5e1",
			"setPeer(uint32,bytes32)": "3400288b",
			"supportedTokens(string)": "89919cdd",
			"transferOwnership(address)": "f2fde38b",
			"updateFee(uint16)": "2c6cda93"
		}
	},
	"abi": [
		{
			"inputs": [
				{
					"internalType": "address",
					"name": "_owner",
					"type": "address"
				},
				{
					"internalType": "address",
					"name": "_lzEndpoint",
					"type": "address"
				},
				{
					"internalType": "uint16",
					"name": "_feeBasisPoints",
					"type": "uint16"
				}
			],
			"stateMutability": "nonpayable",
			"type": "constructor"
		},
		{
			"inputs": [],
			"name": "InvalidDelegate",
			"type": "error"
		},
		{
			"inputs": [],
			"name": "InvalidEndpointCall",
			"type": "error"
		},
		{
			"inputs": [],
			"name": "LzTokenUnavailable",
			"type": "error"
		},
		{
			"inputs": [
				{
					"internalType": "uint32",
					"name": "eid",
					"type": "uint32"
				}
			],
			"name": "NoPeer",
			"type": "error"
		},
		{
			"inputs": [
				{
					"internalType": "uint256",
					"name": "msgValue",
					"type": "uint256"
				}
			],
			"name": "NotEnoughNative",
			"type": "error"
		},
		{
			"inputs": [
				{
					"internalType": "address",
					"name": "addr",
					"type": "address"
				}
			],
			"name": "OnlyEndpoint",
			"type": "error"
		},
		{
			"inputs": [
				{
					"internalType": "uint32",
					"name": "eid",
					"type": "uint32"
				},
				{
					"internalType": "bytes32",
					"name": "sender",
					"type": "bytes32"
				}
			],
			"name": "OnlyPeer",
			"type": "error"
		},
		{
			"inputs": [
				{
					"internalType": "address",
					"name": "owner",
					"type": "address"
				}
			],
			"name": "OwnableInvalidOwner",
			"type": "error"
		},
		{
			"inputs": [
				{
					"internalType": "address",
					"name": "account",
					"type": "address"
				}
			],
			"name": "OwnableUnauthorizedAccount",
			"type": "error"
		},
		{
			"inputs": [
				{
					"internalType": "address",
					"name": "token",
					"type": "address"
				}
			],
			"name": "SafeERC20FailedOperation",
			"type": "error"
		},
		{
			"anonymous": false,
			"inputs": [
				{
					"indexed": true,
					"internalType": "address",
					"name": "previousOwner",
					"type": "address"
				},
				{
					"indexed": true,
					"internalType": "address",
					"name": "newOwner",
					"type": "address"
				}
			],
			"name": "OwnershipTransferred",
			"type": "event"
		},
		{
			"anonymous": false,
			"inputs": [
				{
					"indexed": false,
					"internalType": "uint32",
					"name": "eid",
					"type": "uint32"
				},
				{
					"indexed": false,
					"internalType": "bytes32",
					"name": "peer",
					"type": "bytes32"
				}
			],
			"name": "PeerSet",
			"type": "event"
		},
		{
			"anonymous": false,
			"inputs": [
				{
					"indexed": true,
					"internalType": "string",
					"name": "symbol",
					"type": "string"
				},
				{
					"indexed": true,
					"internalType": "address",
					"name": "tokenAddress",
					"type": "address"
				}
			],
			"name": "TokenAdded",
			"type": "event"
		},
		{
			"anonymous": false,
			"inputs": [
				{
					"indexed": true,
					"internalType": "string",
					"name": "symbol",
					"type": "string"
				}
			],
			"name": "TokenRemoved",
			"type": "event"
		},
		{
			"anonymous": false,
			"inputs": [
				{
					"indexed": true,
					"internalType": "address",
					"name": "sender",
					"type": "address"
				},
				{
					"indexed": true,
					"internalType": "address",
					"name": "token",
					"type": "address"
				},
				{
					"indexed": true,
					"internalType": "uint256",
					"name": "amount",
					"type": "uint256"
				},
				{
					"indexed": false,
					"internalType": "address",
					"name": "receiver",
					"type": "address"
				},
				{
					"indexed": false,
					"internalType": "uint256",
					"name": "fee",
					"type": "uint256"
				},
				{
					"indexed": false,
					"internalType": "uint16",
					"name": "targetChainId",
					"type": "uint16"
				}
			],
			"name": "TokensBridged",
			"type": "event"
		},
		{
			"anonymous": false,
			"inputs": [
				{
					"indexed": true,
					"internalType": "address",
					"name": "receiver",
					"type": "address"
				},
				{
					"indexed": true,
					"internalType": "address",
					"name": "token",
					"type": "address"
				},
				{
					"indexed": true,
					"internalType": "uint256",
					"name": "amount",
					"type": "uint256"
				}
			],
			"name": "TokensReleased",
			"type": "event"
		},
		{
			"inputs": [
				{
					"internalType": "string",
					"name": "_symbol",
					"type": "string"
				},
				{
					"internalType": "address",
					"name": "_address",
					"type": "address"
				}
			],
			"name": "addSupportedToken",
			"outputs": [],
			"stateMutability": "nonpayable",
			"type": "function"
		},
		{
			"inputs": [
				{
					"components": [
						{
							"internalType": "uint32",
							"name": "srcEid",
							"type": "uint32"
						},
						{
							"internalType": "bytes32",
							"name": "sender",
							"type": "bytes32"
						},
						{
							"internalType": "uint64",
							"name": "nonce",
							"type": "uint64"
						}
					],
					"internalType": "struct Origin",
					"name": "origin",
					"type": "tuple"
				}
			],
			"name": "allowInitializePath",
			"outputs": [
				{
					"internalType": "bool",
					"name": "",
					"type": "bool"
				}
			],
			"stateMutability": "view",
			"type": "function"
		},
		{
			"inputs": [
				{
					"internalType": "string",
					"name": "symbol",
					"type": "string"
				},
				{
					"internalType": "uint256",
					"name": "amount",
					"type": "uint256"
				},
				{
					"internalType": "address",
					"name": "receiver",
					"type": "address"
				},
				{
					"internalType": "uint16",
					"name": "targetChainId",
					"type": "uint16"
				},
				{
					"internalType": "bytes",
					"name": "_options",
					"type": "bytes"
				}
			],
			"name": "bridgeTokens",
			"outputs": [
				{
					"components": [
						{
							"internalType": "bytes32",
							"name": "guid",
							"type": "bytes32"
						},
						{
							"internalType": "uint64",
							"name": "nonce",
							"type": "uint64"
						},
						{
							"components": [
								{
									"internalType": "uint256",
									"name": "nativeFee",
									"type": "uint256"
								},
								{
									"internalType": "uint256",
									"name": "lzTokenFee",
									"type": "uint256"
								}
							],
							"internalType": "struct MessagingFee",
							"name": "fee",
							"type": "tuple"
						}
					],
					"internalType": "struct MessagingReceipt",
					"name": "receipt",
					"type": "tuple"
				}
			],
			"stateMutability": "payable",
			"type": "function"
		},
		{
			"inputs": [],
			"name": "endpoint",
			"outputs": [
				{
					"internalType": "contract ILayerZeroEndpointV2",
					"name": "",
					"type": "address"
				}
			],
			"stateMutability": "view",
			"type": "function"
		},
		{
			"inputs": [],
			"name": "feeBasisPoints",
			"outputs": [
				{
					"internalType": "uint16",
					"name": "",
					"type": "uint16"
				}
			],
			"stateMutability": "view",
			"type": "function"
		},
		{
			"inputs": [
				{
					"components": [
						{
							"internalType": "uint32",
							"name": "srcEid",
							"type": "uint32"
						},
						{
							"internalType": "bytes32",
							"name": "sender",
							"type": "bytes32"
						},
						{
							"internalType": "uint64",
							"name": "nonce",
							"type": "uint64"
						}
					],
					"internalType": "struct Origin",
					"name": "",
					"type": "tuple"
				},
				{
					"internalType": "bytes",
					"name": "",
					"type": "bytes"
				},
				{
					"internalType": "address",
					"name": "_sender",
					"type": "address"
				}
			],
			"name": "isComposeMsgSender",
			"outputs": [
				{
					"internalType": "bool",
					"name": "",
					"type": "bool"
				}
			],
			"stateMutability": "view",
			"type": "function"
		},
		{
			"inputs": [
				{
					"components": [
						{
							"internalType": "uint32",
							"name": "srcEid",
							"type": "uint32"
						},
						{
							"internalType": "bytes32",
							"name": "sender",
							"type": "bytes32"
						},
						{
							"internalType": "uint64",
							"name": "nonce",
							"type": "uint64"
						}
					],
					"internalType": "struct Origin",
					"name": "_origin",
					"type": "tuple"
				},
				{
					"internalType": "bytes32",
					"name": "_guid",
					"type": "bytes32"
				},
				{
					"internalType": "bytes",
					"name": "_message",
					"type": "bytes"
				},
				{
					"internalType": "address",
					"name": "_executor",
					"type": "address"
				},
				{
					"internalType": "bytes",
					"name": "_extraData",
					"type": "bytes"
				}
			],
			"name": "lzReceive",
			"outputs": [],
			"stateMutability": "payable",
			"type": "function"
		},
		{
			"inputs": [
				{
					"internalType": "uint32",
					"name": "",
					"type": "uint32"
				},
				{
					"internalType": "bytes32",
					"name": "",
					"type": "bytes32"
				}
			],
			"name": "nextNonce",
			"outputs": [
				{
					"internalType": "uint64",
					"name": "nonce",
					"type": "uint64"
				}
			],
			"stateMutability": "view",
			"type": "function"
		},
		{
			"inputs": [],
			"name": "oAppVersion",
			"outputs": [
				{
					"internalType": "uint64",
					"name": "senderVersion",
					"type": "uint64"
				},
				{
					"internalType": "uint64",
					"name": "receiverVersion",
					"type": "uint64"
				}
			],
			"stateMutability": "pure",
			"type": "function"
		},
		{
			"inputs": [],
			"name": "owner",
			"outputs": [
				{
					"internalType": "address",
					"name": "",
					"type": "address"
				}
			],
			"stateMutability": "view",
			"type": "function"
		},
		{
			"inputs": [
				{
					"internalType": "uint32",
					"name": "eid",
					"type": "uint32"
				}
			],
			"name": "peers",
			"outputs": [
				{
					"internalType": "bytes32",
					"name": "peer",
					"type": "bytes32"
				}
			],
			"stateMutability": "view",
			"type": "function"
		},
		{
			"inputs": [
				{
					"internalType": "address",
					"name": "tokenAddress",
					"type": "address"
				},
				{
					"internalType": "uint256",
					"name": "amount",
					"type": "uint256"
				}
			],
			"name": "recoverERC20",
			"outputs": [],
			"stateMutability": "nonpayable",
			"type": "function"
		},
		{
			"inputs": [],
			"name": "recoverNative",
			"outputs": [],
			"stateMutability": "nonpayable",
			"type": "function"
		},
		{
			"inputs": [
				{
					"internalType": "string",
					"name": "_symbol",
					"type": "string"
				}
			],
			"name": "removeSupportedToken",
			"outputs": [],
			"stateMutability": "nonpayable",
			"type": "function"
		},
		{
			"inputs": [],
			"name": "renounceOwnership",
			"outputs": [],
			"stateMutability": "nonpayable",
			"type": "function"
		},
		{
			"inputs": [
				{
					"internalType": "address",
					"name": "_delegate",
					"type": "address"
				}
			],
			"name": "setDelegate",
			"outputs": [],
			"stateMutability": "nonpayable",
			"type": "function"
		},
		{
			"inputs": [
				{
					"internalType": "uint32",
					"name": "_eid",
					"type": "uint32"
				},
				{
					"internalType": "bytes32",
					"name": "_peer",
					"type": "bytes32"
				}
			],
			"name": "setPeer",
			"outputs": [],
			"stateMutability": "nonpayable",
			"type": "function"
		},
		{
			"inputs": [
				{
					"internalType": "string",
					"name": "",
					"type": "string"
				}
			],
			"name": "supportedTokens",
			"outputs": [
				{
					"internalType": "address",
					"name": "",
					"type": "address"
				}
			],
			"stateMutability": "view",
			"type": "function"
		},
		{
			"inputs": [
				{
					"internalType": "address",
					"name": "newOwner",
					"type": "address"
				}
			],
			"name": "transferOwnership",
			"outputs": [],
			"stateMutability": "nonpayable",
			"type": "function"
		},
		{
			"inputs": [
				{
					"internalType": "uint16",
					"name": "_feeBasisPoints",
					"type": "uint16"
				}
			],
			"name": "updateFee",
			"outputs": [],
			"stateMutability": "nonpayable",
			"type": "function"
		}
	]
}