{
	"data": {
		"bytecode": {
			"linkReferences": {},
			"object": "60e0604052670de0b6b3a764000060a090815250606461ffff1660c09061ffff1681525034801561002e575f80fd5b506040516133fc3803806133fc833981810160405281019061005091906103aa565b81838181865f73ffffffffffffffffffffffffffffffffffffffff168173ffffffffffffffffffffffffffffffffffffffff16036100c5575f6040517f1e4fbdf70000000000000000000000000000000000000000000000000000000081526004016100bc9190610409565b60405180910390fd5b6100d48161025460201b60201c565b508173ffffffffffffffffffffffffffffffffffffffff1660808173ffffffffffffffffffffffffffffffffffffffff16815250505f73ffffffffffffffffffffffffffffffffffffffff168173ffffffffffffffffffffffffffffffffffffffff160361016e576040517fb586360400000000000000000000000000000000000000000000000000000000815260040160405180910390fd5b60805173ffffffffffffffffffffffffffffffffffffffff1663ca5eb5e1826040518263ffffffff1660e01b81526004016101a99190610409565b5f604051808303815f87803b1580156101c0575f80fd5b505af11580156101d2573d5f803e3d5ffd5b5050505050505050600160028190555060648161ffff161115610230578060c0516040517f809236c6000000000000000000000000000000000000000000000000000000008152600401610227929190610431565b60405180910390fd5b8060045f6101000a81548161ffff021916908361ffff160217905550505050610458565b5f805f9054906101000a900473ffffffffffffffffffffffffffffffffffffffff169050815f806101000a81548173ffffffffffffffffffffffffffffffffffffffff021916908373ffffffffffffffffffffffffffffffffffffffff1602179055508173ffffffffffffffffffffffffffffffffffffffff168173ffffffffffffffffffffffffffffffffffffffff167f8be0079c531659141344cd1fd0a4f28419497f9722a3daafe3b4186f6b6457e060405160405180910390a35050565b5f80fd5b5f73ffffffffffffffffffffffffffffffffffffffff82169050919050565b5f61034282610319565b9050919050565b61035281610338565b811461035c575f80fd5b50565b5f8151905061036d81610349565b92915050565b5f61ffff82169050919050565b61038981610373565b8114610393575f80fd5b50565b5f815190506103a481610380565b92915050565b5f805f606084860312156103c1576103c0610315565b5b5f6103ce8682870161035f565b93505060206103df8682870161035f565b92505060406103f086828701610396565b9150509250925092565b61040381610338565b82525050565b5f60208201905061041c5f8301846103fa565b92915050565b61042b81610373565b82525050565b5f6040820190506104445f830185610422565b6104516020830184610422565b9392505050565b60805160a05160c051612f496104b35f395f61061401525f81816111ff01526115c401525f81816104e70152818161072d015281816109a50152818161164801528181611818015281816119f70152611aef0152612f495ff3fe608060405260043610610129575f3560e01c806389919cdd116100aa578063ca5eb5e11161006e578063ca5eb5e1146103ae578063e4f33b48146103d6578063e97653dd14610412578063ed88ed6c14610442578063f2fde38b1461046a578063ff7bd03d1461049257610129565b806389919cdd146102ba5780638da5cb5b146102f657806392543a8a14610320578063b8606eef14610348578063bb0b6a531461037257610129565b80635e280f11116100f15780635e280f11146101da578063715018a6146102045780637d25a05e1461021a57806382413eac146102565780638980f11f1461029257610129565b806313137d651461012d57806317442b70146101495780632c6cda93146101745780633400288b1461019c5780635a54db86146101c4575b5f80fd5b61014760048036038101906101429190611ca5565b6104ce565b005b348015610154575f80fd5b5061015d6105ee565b60405161016b929190611d7e565b60405180910390f35b34801561017f575f80fd5b5061019a60048036038101906101959190611ddc565b6105fc565b005b3480156101a7575f80fd5b506101c260048036038101906101bd9190611e40565b6106c0565b005b3480156101cf575f80fd5b506101d86106d6565b005b3480156101e5575f80fd5b506101ee61072b565b6040516101fb9190611ed9565b60405180910390f35b34801561020f575f80fd5b5061021861074f565b005b348015610225575f80fd5b50610240600480360381019061023b9190611e40565b610762565b60405161024d9190611ef2565b60405180910390f35b348015610261575f80fd5b5061027c60048036038101906102779190611f0b565b610769565b6040516102899190611f96565b60405180910390f35b34801561029d575f80fd5b506102b860048036038101906102b3919061201d565b6107a3565b005b3480156102c5575f80fd5b506102e060048036038101906102db9190612193565b6107c1565b6040516102ed91906121fa565b60405180910390f35b348015610301575f80fd5b5061030a610809565b6040516103179190612222565b60405180910390f35b34801561032b575f80fd5b5061034660048036038101906103419190612290565b610830565b005b348015610353575f80fd5b5061035c610973565b60405161036991906122ea565b60405180910390f35b34801561037d575f80fd5b5061039860048036038101906103939190612303565b610986565b6040516103a5919061233d565b60405180910390f35b3480156103b9575f80fd5b506103d460048036038101906103cf9190612356565b61099b565b005b3480156103e1575f80fd5b506103fc60048036038101906103f79190612381565b610a2c565b6040516104099190612447565b60405180910390f35b61042c60048036038101906104279190612381565b610be5565b60405161043991906124fa565b60405180910390f35b34801561044d575f80fd5b506104686004803603810190610463919061254e565b610f33565b005b348015610475575f80fd5b50610490600480360381019061048b9190612356565b610ff9565b005b34801561049d575f80fd5b506104b860048036038101906104b391906125ab565b61107d565b6040516104c59190611f96565b60405180910390f35b3373ffffffffffffffffffffffffffffffffffffffff167f000000000000000000000000000000000000000000000000000000000000000073ffffffffffffffffffffffffffffffffffffffff161461055e57336040517f91ac5e4f0000000000000000000000000000000000000000000000000000000081526004016105559190612222565b60405180910390fd5b866020013561057d885f0160208101906105789190612303565b6110ba565b146105d657865f0160208101906105949190612303565b87602001356040517fc26bebcc0000000000000000000000000000000000000000000000000000000081526004016105cd9291906125e5565b60405180910390fd5b6105e58787878787878761112b565b50505050505050565b5f8060016002915091509091565b610604611320565b60648161ffff16111561067057807f00000000000000000000000000000000000000000000000000000000000000006040517f809236c600000000000000000000000000000000000000000000000000000000815260040161066792919061260c565b60405180910390fd5b8060045f6101000a81548161ffff021916908361ffff1602179055508061ffff167fc8fcf8ee1425e7e60b8af83735e1eb516d5b9ef05bfd6eece552ebaeb7c75b4860405160405180910390a250565b6106c8611320565b6106d282826113a7565b5050565b6106de611320565b6106e6610809565b73ffffffffffffffffffffffffffffffffffffffff166108fc4790811502906040515f60405180830381858888f19350505050158015610728573d5f803e3d5ffd5b50565b7f000000000000000000000000000000000000000000000000000000000000000081565b610757611320565b6107605f611406565b565b5f92915050565b5f3073ffffffffffffffffffffffffffffffffffffffff168273ffffffffffffffffffffffffffffffffffffffff16149050949350505050565b6107ab611320565b6107bd826107b7610809565b836114c7565b5050565b6003818051602081018201805184825260208301602085012081835280955050505050505f915054906101000a900473ffffffffffffffffffffffffffffffffffffffff1681565b5f805f9054906101000a900473ffffffffffffffffffffffffffffffffffffffff16905090565b610838611320565b5f73ffffffffffffffffffffffffffffffffffffffff1660038383604051610861929190612661565b90815260200160405180910390205f9054906101000a900473ffffffffffffffffffffffffffffffffffffffff1673ffffffffffffffffffffffffffffffffffffffff16036108e95781816040517fc16fc3ad0000000000000000000000000000000000000000000000000000000081526004016108e09291906126b5565b60405180910390fd5b600382826040516108fb929190612661565b90815260200160405180910390205f6101000a81549073ffffffffffffffffffffffffffffffffffffffff0219169055818160405161093b929190612661565b60405180910390207fcdd02d37d444f381ccea186dcdaf556989dcdeeebafc5cd307fe5e7609cd88c360405160405180910390a25050565b60045f9054906101000a900461ffff1681565b6001602052805f5260405f205f915090505481565b6109a3611320565b7f000000000000000000000000000000000000000000000000000000000000000073ffffffffffffffffffffffffffffffffffffffff1663ca5eb5e1826040518263ffffffff1660e01b81526004016109fc9190612222565b5f604051808303815f87803b158015610a13575f80fd5b505af1158015610a25573d5f803e3d5ffd5b5050505050565b5f8073ffffffffffffffffffffffffffffffffffffffff168573ffffffffffffffffffffffffffffffffffffffff1603610a92576040517fa05ff47e00000000000000000000000000000000000000000000000000000000815260040160405180910390fd5b5f60038989604051610aa5929190612661565b90815260200160405180910390205f9054906101000a900473ffffffffffffffffffffffffffffffffffffffff1690505f73ffffffffffffffffffffffffffffffffffffffff168173ffffffffffffffffffffffffffffffffffffffff1603610b475788886040517fc16fc3ad000000000000000000000000000000000000000000000000000000008152600401610b3e9291906126b5565b60405180910390fd5b5f610b528289611546565b5090505f878b8b84604051602001610b6d94939291906126d7565b60405160208183030381529060405290505f610bce888389898080601f0160208091040260200160405190810160405280939291908181526020018383808284375f81840152601f19601f820116905080830192505050505050505f61163e565b9050805f0151945050505050979650505050505050565b610bed611b3a565b610bf561171f565b5f73ffffffffffffffffffffffffffffffffffffffff168573ffffffffffffffffffffffffffffffffffffffff1603610c5a576040517fa05ff47e00000000000000000000000000000000000000000000000000000000815260040160405180910390fd5b5f60038989604051610c6d929190612661565b90815260200160405180910390205f9054906101000a900473ffffffffffffffffffffffffffffffffffffffff1690505f73ffffffffffffffffffffffffffffffffffffffff168173ffffffffffffffffffffffffffffffffffffffff1603610d0f5788886040517fc16fc3ad000000000000000000000000000000000000000000000000000000008152600401610d069291906126b5565b60405180910390fd5b5f808273ffffffffffffffffffffffffffffffffffffffff166370a08231306040518263ffffffff1660e01b8152600401610d4a9190612222565b602060405180830381865afa158015610d65573d5f803e3d5ffd5b505050506040513d601f19601f82011682018060405250810190610d899190612729565b9050610d978333308c611763565b5f8373ffffffffffffffffffffffffffffffffffffffff166370a08231306040518263ffffffff1660e01b8152600401610dd19190612222565b602060405180830381865afa158015610dec573d5f803e3d5ffd5b505050506040513d601f19601f82011682018060405250810190610e109190612729565b90508181610e1e9190612781565b925050505f80610e2e8484611546565b915091505f898d8d85604051602001610e4a94939291906126d7565b6040516020818303038152906040529050610ebf89828a8a8080601f0160208091040260200160405190810160405280939291908181526020018383808284375f81840152601f19601f8201169050808301925050505050505060405180604001604052803481526020015f815250336117e5565b95503373ffffffffffffffffffffffffffffffffffffffff16865f01517fe1a7126622f5c308da3c5cc9757d65b49763c989099d8cd64171c17f51b702e287868e878f604051610f139594939291906127b4565b60405180910390a35050505050610f286118fb565b979650505050505050565b610f3b611320565b8060038484604051610f4e929190612661565b90815260200160405180910390205f6101000a81548173ffffffffffffffffffffffffffffffffffffffff021916908373ffffffffffffffffffffffffffffffffffffffff1602179055508073ffffffffffffffffffffffffffffffffffffffff168383604051610fc0929190612661565b60405180910390207f6d97a31531bdb3c43d920bc996ec8b9fd7733f5f55a81cd74700f88631fc603260405160405180910390a3505050565b611001611320565b5f73ffffffffffffffffffffffffffffffffffffffff168173ffffffffffffffffffffffffffffffffffffffff1603611071575f6040517f1e4fbdf70000000000000000000000000000000000000000000000000000000081526004016110689190612222565b60405180910390fd5b61107a81611406565b50565b5f816020013560015f845f0160208101906110989190612303565b63ffffffff1663ffffffff1681526020019081526020015f2054149050919050565b5f8060015f8463ffffffff1663ffffffff1681526020019081526020015f205490505f801b810361112257826040517ff6ff4fb70000000000000000000000000000000000000000000000000000000081526004016111199190612805565b60405180910390fd5b80915050919050565b61113361171f565b5f805f87878101906111459190612859565b9250925092505f60038360405161115c919061290d565b90815260200160405180910390205f9054906101000a900473ffffffffffffffffffffffffffffffffffffffff1690505f73ffffffffffffffffffffffffffffffffffffffff168173ffffffffffffffffffffffffffffffffffffffff16036111fc57826040517fc16fc3ad0000000000000000000000000000000000000000000000000000000081526004016111f3919061295b565b60405180910390fd5b5f7f00000000000000000000000000000000000000000000000000000000000000008273ffffffffffffffffffffffffffffffffffffffff1663313ce5676040518163ffffffff1660e01b8152600401602060405180830381865afa158015611267573d5f803e3d5ffd5b505050506040513d601f19601f8201168201806040525081019061128b91906129b1565b600a6112979190612b0b565b846112a29190612b55565b6112ac9190612bc3565b90508473ffffffffffffffffffffffffffffffffffffffff168b7f95d209edc2dd51498eb0f9b4c7fb85223de3a46f6a83e0aba5d2d0e9a0d7207784846040516112f7929190612bf3565b60405180910390a361130a8286836114c7565b50505050506113176118fb565b50505050505050565b611328611905565b73ffffffffffffffffffffffffffffffffffffffff16611346610809565b73ffffffffffffffffffffffffffffffffffffffff16146113a557611369611905565b6040517f118cdaa700000000000000000000000000000000000000000000000000000000815260040161139c9190612222565b60405180910390fd5b565b8060015f8463ffffffff1663ffffffff1681526020019081526020015f20819055507f238399d427b947898edb290f5ff0f9109849b1c3ba196a42e35f00c50a54b98b82826040516113fa9291906125e5565b60405180910390a15050565b5f805f9054906101000a900473ffffffffffffffffffffffffffffffffffffffff169050815f806101000a81548173ffffffffffffffffffffffffffffffffffffffff021916908373ffffffffffffffffffffffffffffffffffffffff1602179055508173ffffffffffffffffffffffffffffffffffffffff168173ffffffffffffffffffffffffffffffffffffffff167f8be0079c531659141344cd1fd0a4f28419497f9722a3daafe3b4186f6b6457e060405160405180910390a35050565b611541838473ffffffffffffffffffffffffffffffffffffffff1663a9059cbb85856040516024016114fa929190612c1a565b604051602081830303815290604052915060e01b6020820180517bffffffffffffffffffffffffffffffffffffffffffffffffffffffff838183161783525050505061190c565b505050565b5f805f8473ffffffffffffffffffffffffffffffffffffffff1663313ce5676040518163ffffffff1660e01b8152600401602060405180830381865afa158015611592573d5f803e3d5ffd5b505050506040513d601f19601f820116820180604052508101906115b691906129b1565b600a6115c29190612b0b565b7f0000000000000000000000000000000000000000000000000000000000000000856115ee9190612b55565b6115f89190612bc3565b905061271060045f9054906101000a900461ffff1661ffff168261161c9190612b55565b6116269190612bc3565b915081816116349190612781565b9250509250929050565b611646611b6c565b7f000000000000000000000000000000000000000000000000000000000000000073ffffffffffffffffffffffffffffffffffffffff1663ddc28c586040518060a001604052808863ffffffff1681526020016116a2896110ba565b8152602001878152602001868152602001851515815250306040518363ffffffff1660e01b81526004016116d7929190612d2b565b6040805180830381865afa1580156116f1573d5f803e3d5ffd5b505050506040513d601f19601f820116820180604052508101906117159190612daa565b9050949350505050565b600280540361175a576040517f3ee5aeb500000000000000000000000000000000000000000000000000000000815260040160405180910390fd5b60028081905550565b6117df848573ffffffffffffffffffffffffffffffffffffffff166323b872dd86868660405160240161179893929190612dd5565b604051602081830303815290604052915060e01b6020820180517bffffffffffffffffffffffffffffffffffffffffffffffffffffffff838183161783525050505061190c565b50505050565b6117ed611b3a565b5f6117fa845f01516119a7565b90505f846020015111156118165761181584602001516119f4565b5b7f000000000000000000000000000000000000000000000000000000000000000073ffffffffffffffffffffffffffffffffffffffff16632637a450826040518060a001604052808b63ffffffff1681526020016118738c6110ba565b81526020018a81526020018981526020015f8960200151111515815250866040518463ffffffff1660e01b81526004016118ae929190612d2b565b60806040518083038185885af11580156118ca573d5f803e3d5ffd5b50505050506040513d601f19601f820116820180604052508101906118ef9190612ea9565b91505095945050505050565b6001600281905550565b5f33905090565b5f8060205f8451602086015f885af18061192b576040513d5f823e3d81fd5b3d92505f519150505f821461194457600181141561195f565b5f8473ffffffffffffffffffffffffffffffffffffffff163b145b156119a157836040517f5274afe70000000000000000000000000000000000000000000000000000000081526004016119989190612222565b60405180910390fd5b50505050565b5f8134146119ec57346040517f9f7041200000000000000000000000000000000000000000000000000000000081526004016119e39190612447565b60405180910390fd5b819050919050565b5f7f000000000000000000000000000000000000000000000000000000000000000073ffffffffffffffffffffffffffffffffffffffff1663e4fe1d946040518163ffffffff1660e01b8152600401602060405180830381865afa158015611a5e573d5f803e3d5ffd5b505050506040513d601f19601f82011682018060405250810190611a829190612ee8565b90505f73ffffffffffffffffffffffffffffffffffffffff168173ffffffffffffffffffffffffffffffffffffffff1603611ae9576040517f5373352a00000000000000000000000000000000000000000000000000000000815260040160405180910390fd5b611b36337f0000000000000000000000000000000000000000000000000000000000000000848473ffffffffffffffffffffffffffffffffffffffff16611763909392919063ffffffff16565b5050565b60405180606001604052805f80191681526020015f67ffffffffffffffff168152602001611b66611b6c565b81525090565b60405180604001604052805f81526020015f81525090565b5f604051905090565b5f80fd5b5f80fd5b5f80fd5b5f60608284031215611bae57611bad611b95565b5b81905092915050565b5f819050919050565b611bc981611bb7565b8114611bd3575f80fd5b50565b5f81359050611be481611bc0565b92915050565b5f80fd5b5f80fd5b5f80fd5b5f8083601f840112611c0b57611c0a611bea565b5b8235905067ffffffffffffffff811115611c2857611c27611bee565b5b602083019150836001820283011115611c4457611c43611bf2565b5b9250929050565b5f73ffffffffffffffffffffffffffffffffffffffff82169050919050565b5f611c7482611c4b565b9050919050565b611c8481611c6a565b8114611c8e575f80fd5b50565b5f81359050611c9f81611c7b565b92915050565b5f805f805f805f60e0888a031215611cc057611cbf611b8d565b5b5f611ccd8a828b01611b99565b9750506060611cde8a828b01611bd6565b965050608088013567ffffffffffffffff811115611cff57611cfe611b91565b5b611d0b8a828b01611bf6565b955095505060a0611d1e8a828b01611c91565b93505060c088013567ffffffffffffffff811115611d3f57611d3e611b91565b5b611d4b8a828b01611bf6565b925092505092959891949750929550565b5f67ffffffffffffffff82169050919050565b611d7881611d5c565b82525050565b5f604082019050611d915f830185611d6f565b611d9e6020830184611d6f565b9392505050565b5f61ffff82169050919050565b611dbb81611da5565b8114611dc5575f80fd5b50565b5f81359050611dd681611db2565b92915050565b5f60208284031215611df157611df0611b8d565b5b5f611dfe84828501611dc8565b91505092915050565b5f63ffffffff82169050919050565b611e1f81611e07565b8114611e29575f80fd5b50565b5f81359050611e3a81611e16565b92915050565b5f8060408385031215611e5657611e55611b8d565b5b5f611e6385828601611e2c565b9250506020611e7485828601611bd6565b9150509250929050565b5f819050919050565b5f611ea1611e9c611e9784611c4b565b611e7e565b611c4b565b9050919050565b5f611eb282611e87565b9050919050565b5f611ec382611ea8565b9050919050565b611ed381611eb9565b82525050565b5f602082019050611eec5f830184611eca565b92915050565b5f602082019050611f055f830184611d6f565b92915050565b5f805f8060a08587031215611f2357611f22611b8d565b5b5f611f3087828801611b99565b945050606085013567ffffffffffffffff811115611f5157611f50611b91565b5b611f5d87828801611bf6565b93509350506080611f7087828801611c91565b91505092959194509250565b5f8115159050919050565b611f9081611f7c565b82525050565b5f602082019050611fa95f830184611f87565b92915050565b5f611fb982611c6a565b9050919050565b611fc981611faf565b8114611fd3575f80fd5b50565b5f81359050611fe481611fc0565b92915050565b5f819050919050565b611ffc81611fea565b8114612006575f80fd5b50565b5f8135905061201781611ff3565b92915050565b5f806040838503121561203357612032611b8d565b5b5f61204085828601611fd6565b925050602061205185828601612009565b9150509250929050565b5f80fd5b5f601f19601f8301169050919050565b7f4e487b71000000000000000000000000000000000000000000000000000000005f52604160045260245ffd5b6120a58261205f565b810181811067ffffffffffffffff821117156120c4576120c361206f565b5b80604052505050565b5f6120d6611b84565b90506120e2828261209c565b919050565b5f67ffffffffffffffff8211156121015761210061206f565b5b61210a8261205f565b9050602081019050919050565b828183375f83830152505050565b5f612137612132846120e7565b6120cd565b9050828152602081018484840111156121535761215261205b565b5b61215e848285612117565b509392505050565b5f82601f83011261217a57612179611bea565b5b813561218a848260208601612125565b91505092915050565b5f602082840312156121a8576121a7611b8d565b5b5f82013567ffffffffffffffff8111156121c5576121c4611b91565b5b6121d184828501612166565b91505092915050565b5f6121e482611ea8565b9050919050565b6121f4816121da565b82525050565b5f60208201905061220d5f8301846121eb565b92915050565b61221c81611c6a565b82525050565b5f6020820190506122355f830184612213565b92915050565b5f8083601f8401126122505761224f611bea565b5b8235905067ffffffffffffffff81111561226d5761226c611bee565b5b60208301915083600182028301111561228957612288611bf2565b5b9250929050565b5f80602083850312156122a6576122a5611b8d565b5b5f83013567ffffffffffffffff8111156122c3576122c2611b91565b5b6122cf8582860161223b565b92509250509250929050565b6122e481611da5565b82525050565b5f6020820190506122fd5f8301846122db565b92915050565b5f6020828403121561231857612317611b8d565b5b5f61232584828501611e2c565b91505092915050565b61233781611bb7565b82525050565b5f6020820190506123505f83018461232e565b92915050565b5f6020828403121561236b5761236a611b8d565b5b5f61237884828501611c91565b91505092915050565b5f805f805f805f60a0888a03121561239c5761239b611b8d565b5b5f88013567ffffffffffffffff8111156123b9576123b8611b91565b5b6123c58a828b0161223b565b975097505060206123d88a828b01612009565b95505060406123e98a828b01611c91565b94505060606123fa8a828b01611e2c565b935050608088013567ffffffffffffffff81111561241b5761241a611b91565b5b6124278a828b01611bf6565b925092505092959891949750929550565b61244181611fea565b82525050565b5f60208201905061245a5f830184612438565b92915050565b61246981611bb7565b82525050565b61247881611d5c565b82525050565b61248781611fea565b82525050565b604082015f8201516124a15f85018261247e565b5060208201516124b4602085018261247e565b50505050565b608082015f8201516124ce5f850182612460565b5060208201516124e1602085018261246f565b5060408201516124f4604085018261248d565b50505050565b5f60808201905061250d5f8301846124ba565b92915050565b5f61251d82611c6a565b9050919050565b61252d81612513565b8114612537575f80fd5b50565b5f8135905061254881612524565b92915050565b5f805f6040848603121561256557612564611b8d565b5b5f84013567ffffffffffffffff81111561258257612581611b91565b5b61258e8682870161223b565b935093505060206125a18682870161253a565b9150509250925092565b5f606082840312156125c0576125bf611b8d565b5b5f6125cd84828501611b99565b91505092915050565b6125df81611e07565b82525050565b5f6040820190506125f85f8301856125d6565b612605602083018461232e565b9392505050565b5f60408201905061261f5f8301856122db565b61262c60208301846122db565b9392505050565b5f81905092915050565b5f6126488385612633565b9350612655838584612117565b82840190509392505050565b5f61266d82848661263d565b91508190509392505050565b5f82825260208201905092915050565b5f6126948385612679565b93506126a1838584612117565b6126aa8361205f565b840190509392505050565b5f6020820190508181035f8301526126ce818486612689565b90509392505050565b5f6060820190506126ea5f830187612213565b81810360208301526126fd818587612689565b905061270c6040830184612438565b95945050505050565b5f8151905061272381611ff3565b92915050565b5f6020828403121561273e5761273d611b8d565b5b5f61274b84828501612715565b91505092915050565b7f4e487b71000000000000000000000000000000000000000000000000000000005f52601160045260245ffd5b5f61278b82611fea565b915061279683611fea565b92508282039050818111156127ae576127ad612754565b5b92915050565b5f60a0820190506127c75f8301886121eb565b6127d46020830187612438565b6127e16040830186612213565b6127ee6060830185612438565b6127fb60808301846125d6565b9695505050505050565b5f6020820190506128185f8301846125d6565b92915050565b5f61282882611c4b565b9050919050565b6128388161281e565b8114612842575f80fd5b50565b5f813590506128538161282f565b92915050565b5f805f606084860312156128705761286f611b8d565b5b5f61287d86828701612845565b935050602084013567ffffffffffffffff81111561289e5761289d611b91565b5b6128aa86828701612166565b92505060406128bb86828701612009565b9150509250925092565b5f81519050919050565b8281835e5f83830152505050565b5f6128e7826128c5565b6128f18185612633565b93506129018185602086016128cf565b80840191505092915050565b5f61291882846128dd565b915081905092915050565b5f61292d826128c5565b6129378185612679565b93506129478185602086016128cf565b6129508161205f565b840191505092915050565b5f6020820190508181035f8301526129738184612923565b905092915050565b5f60ff82169050919050565b6129908161297b565b811461299a575f80fd5b50565b5f815190506129ab81612987565b92915050565b5f602082840312156129c6576129c5611b8d565b5b5f6129d38482850161299d565b91505092915050565b5f8160011c9050919050565b5f808291508390505b6001851115612a3157808604811115612a0d57612a0c612754565b5b6001851615612a1c5780820291505b8081029050612a2a856129dc565b94506129f1565b94509492505050565b5f82612a495760019050612b04565b81612a56575f9050612b04565b8160018114612a6c5760028114612a7657612aa5565b6001915050612b04565b60ff841115612a8857612a87612754565b5b8360020a915084821115612a9f57612a9e612754565b5b50612b04565b5060208310610133831016604e8410600b8410161715612ada5782820a905083811115612ad557612ad4612754565b5b612b04565b612ae784848460016129e8565b92509050818404811115612afe57612afd612754565b5b81810290505b9392505050565b5f612b1582611fea565b9150612b208361297b565b9250612b4d7fffffffffffffffffffffffffffffffffffffffffffffffffffffffffffffffff8484612a3a565b905092915050565b5f612b5f82611fea565b9150612b6a83611fea565b9250828202612b7881611fea565b91508282048414831517612b8f57612b8e612754565b5b5092915050565b7f4e487b71000000000000000000000000000000000000000000000000000000005f52601260045260245ffd5b5f612bcd82611fea565b9150612bd883611fea565b925082612be857612be7612b96565b5b828204905092915050565b5f604082019050612c065f8301856121eb565b612c136020830184612438565b9392505050565b5f604082019050612c2d5f830185612213565b612c3a6020830184612438565b9392505050565b612c4a81611e07565b82525050565b5f81519050919050565b5f82825260208201905092915050565b5f612c7482612c50565b612c7e8185612c5a565b9350612c8e8185602086016128cf565b612c978161205f565b840191505092915050565b612cab81611f7c565b82525050565b5f60a083015f830151612cc65f860182612c41565b506020830151612cd96020860182612460565b5060408301518482036040860152612cf18282612c6a565b91505060608301518482036060860152612d0b8282612c6a565b9150506080830151612d206080860182612ca2565b508091505092915050565b5f6040820190508181035f830152612d438185612cb1565b9050612d526020830184612213565b9392505050565b5f80fd5b5f60408284031215612d7257612d71612d59565b5b612d7c60406120cd565b90505f612d8b84828501612715565b5f830152506020612d9e84828501612715565b60208301525092915050565b5f60408284031215612dbf57612dbe611b8d565b5b5f612dcc84828501612d5d565b91505092915050565b5f606082019050612de85f830186612213565b612df56020830185612213565b612e026040830184612438565b949350505050565b5f81519050612e1881611bc0565b92915050565b612e2781611d5c565b8114612e31575f80fd5b50565b5f81519050612e4281612e1e565b92915050565b5f60808284031215612e5d57612e5c612d59565b5b612e6760606120cd565b90505f612e7684828501612e0a565b5f830152506020612e8984828501612e34565b6020830152506040612e9d84828501612d5d565b60408301525092915050565b5f60808284031215612ebe57612ebd611b8d565b5b5f612ecb84828501612e48565b91505092915050565b5f81519050612ee281611c7b565b92915050565b5f60208284031215612efd57612efc611b8d565b5b5f612f0a84828501612ed4565b9150509291505056fea264697066735822122065f854c363cf9ab14e4c280709db47ab5702824f21efdc503d67062adcf7216964736f6c634300081a0033",
			"opcodes": "PUSH1 0xE0 PUSH1 0x40 MSTORE PUSH8 0xDE0B6B3A7640000 PUSH1 0xA0 SWAP1 DUP2 MSTORE POP PUSH1 0x64 PUSH2 0xFFFF AND PUSH1 0xC0 SWAP1 PUSH2 0xFFFF AND DUP2 MSTORE POP CALLVALUE DUP1 ISZERO PUSH2 0x2E JUMPI PUSH0 DUP1 REVERT JUMPDEST POP PUSH1 0x40 MLOAD PUSH2 0x33FC CODESIZE SUB DUP1 PUSH2 0x33FC DUP4 CODECOPY DUP2 DUP2 ADD PUSH1 0x40 MSTORE DUP2 ADD SWAP1 PUSH2 0x50 SWAP2 SWAP1 PUSH2 0x3AA JUMP JUMPDEST DUP2 DUP4 DUP2 DUP2 DUP7 PUSH0 PUSH20 0xFFFFFFFFFFFFFFFFFFFFFFFFFFFFFFFFFFFFFFFF AND DUP2 PUSH20 0xFFFFFFFFFFFFFFFFFFFFFFFFFFFFFFFFFFFFFFFF AND SUB PUSH2 0xC5 JUMPI PUSH0 PUSH1 0x40 MLOAD PUSH32 0x1E4FBDF700000000000000000000000000000000000000000000000000000000 DUP2 MSTORE PUSH1 0x4 ADD PUSH2 0xBC SWAP2 SWAP1 PUSH2 0x409 JUMP JUMPDEST PUSH1 0x40 MLOAD DUP1 SWAP2 SUB SWAP1 REVERT JUMPDEST PUSH2 0xD4 DUP2 PUSH2 0x254 PUSH1 0x20 SHL PUSH1 0x20 SHR JUMP JUMPDEST POP DUP2 PUSH20 0xFFFFFFFFFFFFFFFFFFFFFFFFFFFFFFFFFFFFFFFF AND PUSH1 0x80 DUP2 PUSH20 0xFFFFFFFFFFFFFFFFFFFFFFFFFFFFFFFFFFFFFFFF AND DUP2 MSTORE POP POP PUSH0 PUSH20 0xFFFFFFFFFFFFFFFFFFFFFFFFFFFFFFFFFFFFFFFF AND DUP2 PUSH20 0xFFFFFFFFFFFFFFFFFFFFFFFFFFFFFFFFFFFFFFFF AND SUB PUSH2 0x16E JUMPI PUSH1 0x40 MLOAD PUSH32 0xB586360400000000000000000000000000000000000000000000000000000000 DUP2 MSTORE PUSH1 0x4 ADD PUSH1 0x40 MLOAD DUP1 SWAP2 SUB SWAP1 REVERT JUMPDEST PUSH1 0x80 MLOAD PUSH20 0xFFFFFFFFFFFFFFFFFFFFFFFFFFFFFFFFFFFFFFFF AND PUSH4 0xCA5EB5E1 DUP3 PUSH1 0x40 MLOAD DUP3 PUSH4 0xFFFFFFFF AND PUSH1 0xE0 SHL DUP2 MSTORE PUSH1 0x4 ADD PUSH2 0x1A9 SWAP2 SWAP1 PUSH2 0x409 JUMP JUMPDEST PUSH0 PUSH1 0x40 MLOAD DUP1 DUP4 SUB DUP2 PUSH0 DUP8 DUP1 EXTCODESIZE ISZERO DUP1 ISZERO PUSH2 0x1C0 JUMPI PUSH0 DUP1 REVERT JUMPDEST POP GAS CALL ISZERO DUP1 ISZERO PUSH2 0x1D2 JUMPI RETURNDATASIZE PUSH0 DUP1 RETURNDATACOPY RETURNDATASIZE PUSH0 REVERT JUMPDEST POP POP POP POP POP POP POP POP PUSH1 0x1 PUSH1 0x2 DUP2 SWAP1 SSTORE POP PUSH1 0x64 DUP2 PUSH2 0xFFFF AND GT ISZERO PUSH2 0x230 JUMPI DUP1 PUSH1 0xC0 MLOAD PUSH1 0x40 MLOAD PUSH32 0x809236C600000000000000000000000000000000000000000000000000000000 DUP2 MSTORE PUSH1 0x4 ADD PUSH2 0x227 SWAP3 SWAP2 SWAP1 PUSH2 0x431 JUMP JUMPDEST PUSH1 0x40 MLOAD DUP1 SWAP2 SUB SWAP1 REVERT JUMPDEST DUP1 PUSH1 0x4 PUSH0 PUSH2 0x100 EXP DUP2 SLOAD DUP2 PUSH2 0xFFFF MUL NOT AND SWAP1 DUP4 PUSH2 0xFFFF AND MUL OR SWAP1 SSTORE POP POP POP POP PUSH2 0x458 JUMP JUMPDEST PUSH0 DUP1 PUSH0 SWAP1 SLOAD SWAP1 PUSH2 0x100 EXP SWAP1 DIV PUSH20 0xFFFFFFFFFFFFFFFFFFFFFFFFFFFFFFFFFFFFFFFF AND SWAP1 POP DUP2 PUSH0 DUP1 PUSH2 0x100 EXP DUP2 SLOAD DUP2 PUSH20 0xFFFFFFFFFFFFFFFFFFFFFFFFFFFFFFFFFFFFFFFF MUL NOT AND SWAP1 DUP4 PUSH20 0xFFFFFFFFFFFFFFFFFFFFFFFFFFFFFFFFFFFFFFFF AND MUL OR SWAP1 SSTORE POP DUP2 PUSH20 0xFFFFFFFFFFFFFFFFFFFFFFFFFFFFFFFFFFFFFFFF AND DUP2 PUSH20 0xFFFFFFFFFFFFFFFFFFFFFFFFFFFFFFFFFFFFFFFF AND PUSH32 0x8BE0079C531659141344CD1FD0A4F28419497F9722A3DAAFE3B4186F6B6457E0 PUSH1 0x40 MLOAD PUSH1 0x40 MLOAD DUP1 SWAP2 SUB SWAP1 LOG3 POP POP JUMP JUMPDEST PUSH0 DUP1 REVERT JUMPDEST PUSH0 PUSH20 0xFFFFFFFFFFFFFFFFFFFFFFFFFFFFFFFFFFFFFFFF DUP3 AND SWAP1 POP SWAP2 SWAP1 POP JUMP JUMPDEST PUSH0 PUSH2 0x342 DUP3 PUSH2 0x319 JUMP JUMPDEST SWAP1 POP SWAP2 SWAP1 POP JUMP JUMPDEST PUSH2 0x352 DUP2 PUSH2 0x338 JUMP JUMPDEST DUP2 EQ PUSH2 0x35C JUMPI PUSH0 DUP1 REVERT JUMPDEST POP JUMP JUMPDEST PUSH0 DUP2 MLOAD SWAP1 POP PUSH2 0x36D DUP2 PUSH2 0x349 JUMP JUMPDEST SWAP3 SWAP2 POP POP JUMP JUMPDEST PUSH0 PUSH2 0xFFFF DUP3 AND SWAP1 POP SWAP2 SWAP1 POP JUMP JUMPDEST PUSH2 0x389 DUP2 PUSH2 0x373 JUMP JUMPDEST DUP2 EQ PUSH2 0x393 JUMPI PUSH0 DUP1 REVERT JUMPDEST POP JUMP JUMPDEST PUSH0 DUP2 MLOAD SWAP1 POP PUSH2 0x3A4 DUP2 PUSH2 0x380 JUMP JUMPDEST SWAP3 SWAP2 POP POP JUMP JUMPDEST PUSH0 DUP1 PUSH0 PUSH1 0x60 DUP5 DUP7 SUB SLT ISZERO PUSH2 0x3C1 JUMPI PUSH2 0x3C0 PUSH2 0x315 JUMP JUMPDEST JUMPDEST PUSH0 PUSH2 0x3CE DUP7 DUP3 DUP8 ADD PUSH2 0x35F JUMP JUMPDEST SWAP4 POP POP PUSH1 0x20 PUSH2 0x3DF DUP7 DUP3 DUP8 ADD PUSH2 0x35F JUMP JUMPDEST SWAP3 POP POP PUSH1 0x40 PUSH2 0x3F0 DUP7 DUP3 DUP8 ADD PUSH2 0x396 JUMP JUMPDEST SWAP2 POP POP SWAP3 POP SWAP3 POP SWAP3 JUMP JUMPDEST PUSH2 0x403 DUP2 PUSH2 0x338 JUMP JUMPDEST DUP3 MSTORE POP POP JUMP JUMPDEST PUSH0 PUSH1 0x20 DUP3 ADD SWAP1 POP PUSH2 0x41C PUSH0 DUP4 ADD DUP5 PUSH2 0x3FA JUMP JUMPDEST SWAP3 SWAP2 POP POP JUMP JUMPDEST PUSH2 0x42B DUP2 PUSH2 0x373 JUMP JUMPDEST DUP3 MSTORE POP POP JUMP JUMPDEST PUSH0 PUSH1 0x40 DUP3 ADD SWAP1 POP PUSH2 0x444 PUSH0 DUP4 ADD DUP6 PUSH2 0x422 JUMP JUMPDEST PUSH2 0x451 PUSH1 0x20 DUP4 ADD DUP5 PUSH2 0x422 JUMP JUMPDEST SWAP4 SWAP3 POP POP POP JUMP JUMPDEST PUSH1 0x80 MLOAD PUSH1 0xA0 MLOAD PUSH1 0xC0 MLOAD PUSH2 0x2F49 PUSH2 0x4B3 PUSH0 CODECOPY PUSH0 PUSH2 0x614 ADD MSTORE PUSH0 DUP2 DUP2 PUSH2 0x11FF ADD MSTORE PUSH2 0x15C4 ADD MSTORE PUSH0 DUP2 DUP2 PUSH2 0x4E7 ADD MSTORE DUP2 DUP2 PUSH2 0x72D ADD MSTORE DUP2 DUP2 PUSH2 0x9A5 ADD MSTORE DUP2 DUP2 PUSH2 0x1648 ADD MSTORE DUP2 DUP2 PUSH2 0x1818 ADD MSTORE DUP2 DUP2 PUSH2 0x19F7 ADD MSTORE PUSH2 0x1AEF ADD MSTORE PUSH2 0x2F49 PUSH0 RETURN INVALID PUSH1 0x80 PUSH1 0x40 MSTORE PUSH1 0x4 CALLDATASIZE LT PUSH2 0x129 JUMPI PUSH0 CALLDATALOAD PUSH1 0xE0 SHR DUP1 PUSH4 0x89919CDD GT PUSH2 0xAA JUMPI DUP1 PUSH4 0xCA5EB5E1 GT PUSH2 0x6E JUMPI DUP1 PUSH4 0xCA5EB5E1 EQ PUSH2 0x3AE JUMPI DUP1 PUSH4 0xE4F33B48 EQ PUSH2 0x3D6 JUMPI DUP1 PUSH4 0xE97653DD EQ PUSH2 0x412 JUMPI DUP1 PUSH4 0xED88ED6C EQ PUSH2 0x442 JUMPI DUP1 PUSH4 0xF2FDE38B EQ PUSH2 0x46A JUMPI DUP1 PUSH4 0xFF7BD03D EQ PUSH2 0x492 JUMPI PUSH2 0x129 JUMP JUMPDEST DUP1 PUSH4 0x89919CDD EQ PUSH2 0x2BA JUMPI DUP1 PUSH4 0x8DA5CB5B EQ PUSH2 0x2F6 JUMPI DUP1 PUSH4 0x92543A8A EQ PUSH2 0x320 JUMPI DUP1 PUSH4 0xB8606EEF EQ PUSH2 0x348 JUMPI DUP1 PUSH4 0xBB0B6A53 EQ PUSH2 0x372 JUMPI PUSH2 0x129 JUMP JUMPDEST DUP1 PUSH4 0x5E280F11 GT PUSH2 0xF1 JUMPI DUP1 PUSH4 0x5E280F11 EQ PUSH2 0x1DA JUMPI DUP1 PUSH4 0x715018A6 EQ PUSH2 0x204 JUMPI DUP1 PUSH4 0x7D25A05E EQ PUSH2 0x21A JUMPI DUP1 PUSH4 0x82413EAC EQ PUSH2 0x256 JUMPI DUP1 PUSH4 0x8980F11F EQ PUSH2 0x292 JUMPI PUSH2 0x129 JUMP JUMPDEST DUP1 PUSH4 0x13137D65 EQ PUSH2 0x12D JUMPI DUP1 PUSH4 0x17442B70 EQ PUSH2 0x149 JUMPI DUP1 PUSH4 0x2C6CDA93 EQ PUSH2 0x174 JUMPI DUP1 PUSH4 0x3400288B EQ PUSH2 0x19C JUMPI DUP1 PUSH4 0x5A54DB86 EQ PUSH2 0x1C4 JUMPI JUMPDEST PUSH0 DUP1 REVERT JUMPDEST PUSH2 0x147 PUSH1 0x4 DUP1 CALLDATASIZE SUB DUP2 ADD SWAP1 PUSH2 0x142 SWAP2 SWAP1 PUSH2 0x1CA5 JUMP JUMPDEST PUSH2 0x4CE JUMP JUMPDEST STOP JUMPDEST CALLVALUE DUP1 ISZERO PUSH2 0x154 JUMPI PUSH0 DUP1 REVERT JUMPDEST POP PUSH2 0x15D PUSH2 0x5EE JUMP JUMPDEST PUSH1 0x40 MLOAD PUSH2 0x16B SWAP3 SWAP2 SWAP1 PUSH2 0x1D7E JUMP JUMPDEST PUSH1 0x40 MLOAD DUP1 SWAP2 SUB SWAP1 RETURN JUMPDEST CALLVALUE DUP1 ISZERO PUSH2 0x17F JUMPI PUSH0 DUP1 REVERT JUMPDEST POP PUSH2 0x19A PUSH1 0x4 DUP1 CALLDATASIZE SUB DUP2 ADD SWAP1 PUSH2 0x195 SWAP2 SWAP1 PUSH2 0x1DDC JUMP JUMPDEST PUSH2 0x5FC JUMP JUMPDEST STOP JUMPDEST CALLVALUE DUP1 ISZERO PUSH2 0x1A7 JUMPI PUSH0 DUP1 REVERT JUMPDEST POP PUSH2 0x1C2 PUSH1 0x4 DUP1 CALLDATASIZE SUB DUP2 ADD SWAP1 PUSH2 0x1BD SWAP2 SWAP1 PUSH2 0x1E40 JUMP JUMPDEST PUSH2 0x6C0 JUMP JUMPDEST STOP JUMPDEST CALLVALUE DUP1 ISZERO PUSH2 0x1CF JUMPI PUSH0 DUP1 REVERT JUMPDEST POP PUSH2 0x1D8 PUSH2 0x6D6 JUMP JUMPDEST STOP JUMPDEST CALLVALUE DUP1 ISZERO PUSH2 0x1E5 JUMPI PUSH0 DUP1 REVERT JUMPDEST POP PUSH2 0x1EE PUSH2 0x72B JUMP JUMPDEST PUSH1 0x40 MLOAD PUSH2 0x1FB SWAP2 SWAP1 PUSH2 0x1ED9 JUMP JUMPDEST PUSH1 0x40 MLOAD DUP1 SWAP2 SUB SWAP1 RETURN JUMPDEST CALLVALUE DUP1 ISZERO PUSH2 0x20F JUMPI PUSH0 DUP1 REVERT JUMPDEST POP PUSH2 0x218 PUSH2 0x74F JUMP JUMPDEST STOP JUMPDEST CALLVALUE DUP1 ISZERO PUSH2 0x225 JUMPI PUSH0 DUP1 REVERT JUMPDEST POP PUSH2 0x240 PUSH1 0x4 DUP1 CALLDATASIZE SUB DUP2 ADD SWAP1 PUSH2 0x23B SWAP2 SWAP1 PUSH2 0x1E40 JUMP JUMPDEST PUSH2 0x762 JUMP JUMPDEST PUSH1 0x40 MLOAD PUSH2 0x24D SWAP2 SWAP1 PUSH2 0x1EF2 JUMP JUMPDEST PUSH1 0x40 MLOAD DUP1 SWAP2 SUB SWAP1 RETURN JUMPDEST CALLVALUE DUP1 ISZERO PUSH2 0x261 JUMPI PUSH0 DUP1 REVERT JUMPDEST POP PUSH2 0x27C PUSH1 0x4 DUP1 CALLDATASIZE SUB DUP2 ADD SWAP1 PUSH2 0x277 SWAP2 SWAP1 PUSH2 0x1F0B JUMP JUMPDEST PUSH2 0x769 JUMP JUMPDEST PUSH1 0x40 MLOAD PUSH2 0x289 SWAP2 SWAP1 PUSH2 0x1F96 JUMP JUMPDEST PUSH1 0x40 MLOAD DUP1 SWAP2 SUB SWAP1 RETURN JUMPDEST CALLVALUE DUP1 ISZERO PUSH2 0x29D JUMPI PUSH0 DUP1 REVERT JUMPDEST POP PUSH2 0x2B8 PUSH1 0x4 DUP1 CALLDATASIZE SUB DUP2 ADD SWAP1 PUSH2 0x2B3 SWAP2 SWAP1 PUSH2 0x201D JUMP JUMPDEST PUSH2 0x7A3 JUMP JUMPDEST STOP JUMPDEST CALLVALUE DUP1 ISZERO PUSH2 0x2C5 JUMPI PUSH0 DUP1 REVERT JUMPDEST POP PUSH2 0x2E0 PUSH1 0x4 DUP1 CALLDATASIZE SUB DUP2 ADD SWAP1 PUSH2 0x2DB SWAP2 SWAP1 PUSH2 0x2193 JUMP JUMPDEST PUSH2 0x7C1 JUMP JUMPDEST PUSH1 0x40 MLOAD PUSH2 0x2ED SWAP2 SWAP1 PUSH2 0x21FA JUMP JUMPDEST PUSH1 0x40 MLOAD DUP1 SWAP2 SUB SWAP1 RETURN JUMPDEST CALLVALUE DUP1 ISZERO PUSH2 0x301 JUMPI PUSH0 DUP1 REVERT JUMPDEST POP PUSH2 0x30A PUSH2 0x809 JUMP JUMPDEST PUSH1 0x40 MLOAD PUSH2 0x317 SWAP2 SWAP1 PUSH2 0x2222 JUMP JUMPDEST PUSH1 0x40 MLOAD DUP1 SWAP2 SUB SWAP1 RETURN JUMPDEST CALLVALUE DUP1 ISZERO PUSH2 0x32B JUMPI PUSH0 DUP1 REVERT JUMPDEST POP PUSH2 0x346 PUSH1 0x4 DUP1 CALLDATASIZE SUB DUP2 ADD SWAP1 PUSH2 0x341 SWAP2 SWAP1 PUSH2 0x2290 JUMP JUMPDEST PUSH2 0x830 JUMP JUMPDEST STOP JUMPDEST CALLVALUE DUP1 ISZERO PUSH2 0x353 JUMPI PUSH0 DUP1 REVERT JUMPDEST POP PUSH2 0x35C PUSH2 0x973 JUMP JUMPDEST PUSH1 0x40 MLOAD PUSH2 0x369 SWAP2 SWAP1 PUSH2 0x22EA JUMP JUMPDEST PUSH1 0x40 MLOAD DUP1 SWAP2 SUB SWAP1 RETURN JUMPDEST CALLVALUE DUP1 ISZERO PUSH2 0x37D JUMPI PUSH0 DUP1 REVERT JUMPDEST POP PUSH2 0x398 PUSH1 0x4 DUP1 CALLDATASIZE SUB DUP2 ADD SWAP1 PUSH2 0x393 SWAP2 SWAP1 PUSH2 0x2303 JUMP JUMPDEST PUSH2 0x986 JUMP JUMPDEST PUSH1 0x40 MLOAD PUSH2 0x3A5 SWAP2 SWAP1 PUSH2 0x233D JUMP JUMPDEST PUSH1 0x40 MLOAD DUP1 SWAP2 SUB SWAP1 RETURN JUMPDEST CALLVALUE DUP1 ISZERO PUSH2 0x3B9 JUMPI PUSH0 DUP1 REVERT JUMPDEST POP PUSH2 0x3D4 PUSH1 0x4 DUP1 CALLDATASIZE SUB DUP2 ADD SWAP1 PUSH2 0x3CF SWAP2 SWAP1 PUSH2 0x2356 JUMP JUMPDEST PUSH2 0x99B JUMP JUMPDEST STOP JUMPDEST CALLVALUE DUP1 ISZERO PUSH2 0x3E1 JUMPI PUSH0 DUP1 REVERT JUMPDEST POP PUSH2 0x3FC PUSH1 0x4 DUP1 CALLDATASIZE SUB DUP2 ADD SWAP1 PUSH2 0x3F7 SWAP2 SWAP1 PUSH2 0x2381 JUMP JUMPDEST PUSH2 0xA2C JUMP JUMPDEST PUSH1 0x40 MLOAD PUSH2 0x409 SWAP2 SWAP1 PUSH2 0x2447 JUMP JUMPDEST PUSH1 0x40 MLOAD DUP1 SWAP2 SUB SWAP1 RETURN JUMPDEST PUSH2 0x42C PUSH1 0x4 DUP1 CALLDATASIZE SUB DUP2 ADD SWAP1 PUSH2 0x427 SWAP2 SWAP1 PUSH2 0x2381 JUMP JUMPDEST PUSH2 0xBE5 JUMP JUMPDEST PUSH1 0x40 MLOAD PUSH2 0x439 SWAP2 SWAP1 PUSH2 0x24FA JUMP JUMPDEST PUSH1 0x40 MLOAD DUP1 SWAP2 SUB SWAP1 RETURN JUMPDEST CALLVALUE DUP1 ISZERO PUSH2 0x44D JUMPI PUSH0 DUP1 REVERT JUMPDEST POP PUSH2 0x468 PUSH1 0x4 DUP1 CALLDATASIZE SUB DUP2 ADD SWAP1 PUSH2 0x463 SWAP2 SWAP1 PUSH2 0x254E JUMP JUMPDEST PUSH2 0xF33 JUMP JUMPDEST STOP JUMPDEST CALLVALUE DUP1 ISZERO PUSH2 0x475 JUMPI PUSH0 DUP1 REVERT JUMPDEST POP PUSH2 0x490 PUSH1 0x4 DUP1 CALLDATASIZE SUB DUP2 ADD SWAP1 PUSH2 0x48B SWAP2 SWAP1 PUSH2 0x2356 JUMP JUMPDEST PUSH2 0xFF9 JUMP JUMPDEST STOP JUMPDEST CALLVALUE DUP1 ISZERO PUSH2 0x49D JUMPI PUSH0 DUP1 REVERT JUMPDEST POP PUSH2 0x4B8 PUSH1 0x4 DUP1 CALLDATASIZE SUB DUP2 ADD SWAP1 PUSH2 0x4B3 SWAP2 SWAP1 PUSH2 0x25AB JUMP JUMPDEST PUSH2 0x107D JUMP JUMPDEST PUSH1 0x40 MLOAD PUSH2 0x4C5 SWAP2 SWAP1 PUSH2 0x1F96 JUMP JUMPDEST PUSH1 0x40 MLOAD DUP1 SWAP2 SUB SWAP1 RETURN JUMPDEST CALLER PUSH20 0xFFFFFFFFFFFFFFFFFFFFFFFFFFFFFFFFFFFFFFFF AND PUSH32 0x0 PUSH20 0xFFFFFFFFFFFFFFFFFFFFFFFFFFFFFFFFFFFFFFFF AND EQ PUSH2 0x55E JUMPI CALLER PUSH1 0x40 MLOAD PUSH32 0x91AC5E4F00000000000000000000000000000000000000000000000000000000 DUP2 MSTORE PUSH1 0x4 ADD PUSH2 0x555 SWAP2 SWAP1 PUSH2 0x2222 JUMP JUMPDEST PUSH1 0x40 MLOAD DUP1 SWAP2 SUB SWAP1 REVERT JUMPDEST DUP7 PUSH1 0x20 ADD CALLDATALOAD PUSH2 0x57D DUP9 PUSH0 ADD PUSH1 0x20 DUP2 ADD SWAP1 PUSH2 0x578 SWAP2 SWAP1 PUSH2 0x2303 JUMP JUMPDEST PUSH2 0x10BA JUMP JUMPDEST EQ PUSH2 0x5D6 JUMPI DUP7 PUSH0 ADD PUSH1 0x20 DUP2 ADD SWAP1 PUSH2 0x594 SWAP2 SWAP1 PUSH2 0x2303 JUMP JUMPDEST DUP8 PUSH1 0x20 ADD CALLDATALOAD PUSH1 0x40 MLOAD PUSH32 0xC26BEBCC00000000000000000000000000000000000000000000000000000000 DUP2 MSTORE PUSH1 0x4 ADD PUSH2 0x5CD SWAP3 SWAP2 SWAP1 PUSH2 0x25E5 JUMP JUMPDEST PUSH1 0x40 MLOAD DUP1 SWAP2 SUB SWAP1 REVERT JUMPDEST PUSH2 0x5E5 DUP8 DUP8 DUP8 DUP8 DUP8 DUP8 DUP8 PUSH2 0x112B JUMP JUMPDEST POP POP POP POP POP POP POP JUMP JUMPDEST PUSH0 DUP1 PUSH1 0x1 PUSH1 0x2 SWAP2 POP SWAP2 POP SWAP1 SWAP2 JUMP JUMPDEST PUSH2 0x604 PUSH2 0x1320 JUMP JUMPDEST PUSH1 0x64 DUP2 PUSH2 0xFFFF AND GT ISZERO PUSH2 0x670 JUMPI DUP1 PUSH32 0x0 PUSH1 0x40 MLOAD PUSH32 0x809236C600000000000000000000000000000000000000000000000000000000 DUP2 MSTORE PUSH1 0x4 ADD PUSH2 0x667 SWAP3 SWAP2 SWAP1 PUSH2 0x260C JUMP JUMPDEST PUSH1 0x40 MLOAD DUP1 SWAP2 SUB SWAP1 REVERT JUMPDEST DUP1 PUSH1 0x4 PUSH0 PUSH2 0x100 EXP DUP2 SLOAD DUP2 PUSH2 0xFFFF MUL NOT AND SWAP1 DUP4 PUSH2 0xFFFF AND MUL OR SWAP1 SSTORE POP DUP1 PUSH2 0xFFFF AND PUSH32 0xC8FCF8EE1425E7E60B8AF83735E1EB516D5B9EF05BFD6EECE552EBAEB7C75B48 PUSH1 0x40 MLOAD PUSH1 0x40 MLOAD DUP1 SWAP2 SUB SWAP1 LOG2 POP JUMP JUMPDEST PUSH2 0x6C8 PUSH2 0x1320 JUMP JUMPDEST PUSH2 0x6D2 DUP3 DUP3 PUSH2 0x13A7 JUMP JUMPDEST POP POP JUMP JUMPDEST PUSH2 0x6DE PUSH2 0x1320 JUMP JUMPDEST PUSH2 0x6E6 PUSH2 0x809 JUMP JUMPDEST PUSH20 0xFFFFFFFFFFFFFFFFFFFFFFFFFFFFFFFFFFFFFFFF AND PUSH2 0x8FC SELFBALANCE SWAP1 DUP2 ISZERO MUL SWAP1 PUSH1 0x40 MLOAD PUSH0 PUSH1 0x40 MLOAD DUP1 DUP4 SUB DUP2 DUP6 DUP9 DUP9 CALL SWAP4 POP POP POP POP ISZERO DUP1 ISZERO PUSH2 0x728 JUMPI RETURNDATASIZE PUSH0 DUP1 RETURNDATACOPY RETURNDATASIZE PUSH0 REVERT JUMPDEST POP JUMP JUMPDEST PUSH32 0x0 DUP2 JUMP JUMPDEST PUSH2 0x757 PUSH2 0x1320 JUMP JUMPDEST PUSH2 0x760 PUSH0 PUSH2 0x1406 JUMP JUMPDEST JUMP JUMPDEST PUSH0 SWAP3 SWAP2 POP POP JUMP JUMPDEST PUSH0 ADDRESS PUSH20 0xFFFFFFFFFFFFFFFFFFFFFFFFFFFFFFFFFFFFFFFF AND DUP3 PUSH20 0xFFFFFFFFFFFFFFFFFFFFFFFFFFFFFFFFFFFFFFFF AND EQ SWAP1 POP SWAP5 SWAP4 POP POP POP POP JUMP JUMPDEST PUSH2 0x7AB PUSH2 0x1320 JUMP JUMPDEST PUSH2 0x7BD DUP3 PUSH2 0x7B7 PUSH2 0x809 JUMP JUMPDEST DUP4 PUSH2 0x14C7 JUMP JUMPDEST POP POP JUMP JUMPDEST PUSH1 0x3 DUP2 DUP1 MLOAD PUSH1 0x20 DUP2 ADD DUP3 ADD DUP1 MLOAD DUP5 DUP3 MSTORE PUSH1 0x20 DUP4 ADD PUSH1 0x20 DUP6 ADD KECCAK256 DUP2 DUP4 MSTORE DUP1 SWAP6 POP POP POP POP POP POP PUSH0 SWAP2 POP SLOAD SWAP1 PUSH2 0x100 EXP SWAP1 DIV PUSH20 0xFFFFFFFFFFFFFFFFFFFFFFFFFFFFFFFFFFFFFFFF AND DUP2 JUMP JUMPDEST PUSH0 DUP1 PUSH0 SWAP1 SLOAD SWAP1 PUSH2 0x100 EXP SWAP1 DIV PUSH20 0xFFFFFFFFFFFFFFFFFFFFFFFFFFFFFFFFFFFFFFFF AND SWAP1 POP SWAP1 JUMP JUMPDEST PUSH2 0x838 PUSH2 0x1320 JUMP JUMPDEST PUSH0 PUSH20 0xFFFFFFFFFFFFFFFFFFFFFFFFFFFFFFFFFFFFFFFF AND PUSH1 0x3 DUP4 DUP4 PUSH1 0x40 MLOAD PUSH2 0x861 SWAP3 SWAP2 SWAP1 PUSH2 0x2661 JUMP JUMPDEST SWAP1 DUP2 MSTORE PUSH1 0x20 ADD PUSH1 0x40 MLOAD DUP1 SWAP2 SUB SWAP1 KECCAK256 PUSH0 SWAP1 SLOAD SWAP1 PUSH2 0x100 EXP SWAP1 DIV PUSH20 0xFFFFFFFFFFFFFFFFFFFFFFFFFFFFFFFFFFFFFFFF AND PUSH20 0xFFFFFFFFFFFFFFFFFFFFFFFFFFFFFFFFFFFFFFFF AND SUB PUSH2 0x8E9 JUMPI DUP2 DUP2 PUSH1 0x40 MLOAD PUSH32 0xC16FC3AD00000000000000000000000000000000000000000000000000000000 DUP2 MSTORE PUSH1 0x4 ADD PUSH2 0x8E0 SWAP3 SWAP2 SWAP1 PUSH2 0x26B5 JUMP JUMPDEST PUSH1 0x40 MLOAD DUP1 SWAP2 SUB SWAP1 REVERT JUMPDEST PUSH1 0x3 DUP3 DUP3 PUSH1 0x40 MLOAD PUSH2 0x8FB SWAP3 SWAP2 SWAP1 PUSH2 0x2661 JUMP JUMPDEST SWAP1 DUP2 MSTORE PUSH1 0x20 ADD PUSH1 0x40 MLOAD DUP1 SWAP2 SUB SWAP1 KECCAK256 PUSH0 PUSH2 0x100 EXP DUP2 SLOAD SWAP1 PUSH20 0xFFFFFFFFFFFFFFFFFFFFFFFFFFFFFFFFFFFFFFFF MUL NOT AND SWAP1 SSTORE DUP2 DUP2 PUSH1 0x40 MLOAD PUSH2 0x93B SWAP3 SWAP2 SWAP1 PUSH2 0x2661 JUMP JUMPDEST PUSH1 0x40 MLOAD DUP1 SWAP2 SUB SWAP1 KECCAK256 PUSH32 0xCDD02D37D444F381CCEA186DCDAF556989DCDEEEBAFC5CD307FE5E7609CD88C3 PUSH1 0x40 MLOAD PUSH1 0x40 MLOAD DUP1 SWAP2 SUB SWAP1 LOG2 POP POP JUMP JUMPDEST PUSH1 0x4 PUSH0 SWAP1 SLOAD SWAP1 PUSH2 0x100 EXP SWAP1 DIV PUSH2 0xFFFF AND DUP2 JUMP JUMPDEST PUSH1 0x1 PUSH1 0x20 MSTORE DUP1 PUSH0 MSTORE PUSH1 0x40 PUSH0 KECCAK256 PUSH0 SWAP2 POP SWAP1 POP SLOAD DUP2 JUMP JUMPDEST PUSH2 0x9A3 PUSH2 0x1320 JUMP JUMPDEST PUSH32 0x0 PUSH20 0xFFFFFFFFFFFFFFFFFFFFFFFFFFFFFFFFFFFFFFFF AND PUSH4 0xCA5EB5E1 DUP3 PUSH1 0x40 MLOAD DUP3 PUSH4 0xFFFFFFFF AND PUSH1 0xE0 SHL DUP2 MSTORE PUSH1 0x4 ADD PUSH2 0x9FC SWAP2 SWAP1 PUSH2 0x2222 JUMP JUMPDEST PUSH0 PUSH1 0x40 MLOAD DUP1 DUP4 SUB DUP2 PUSH0 DUP8 DUP1 EXTCODESIZE ISZERO DUP1 ISZERO PUSH2 0xA13 JUMPI PUSH0 DUP1 REVERT JUMPDEST POP GAS CALL ISZERO DUP1 ISZERO PUSH2 0xA25 JUMPI RETURNDATASIZE PUSH0 DUP1 RETURNDATACOPY RETURNDATASIZE PUSH0 REVERT JUMPDEST POP POP POP POP POP JUMP JUMPDEST PUSH0 DUP1 PUSH20 0xFFFFFFFFFFFFFFFFFFFFFFFFFFFFFFFFFFFFFFFF AND DUP6 PUSH20 0xFFFFFFFFFFFFFFFFFFFFFFFFFFFFFFFFFFFFFFFF AND SUB PUSH2 0xA92 JUMPI PUSH1 0x40 MLOAD PUSH32 0xA05FF47E00000000000000000000000000000000000000000000000000000000 DUP2 MSTORE PUSH1 0x4 ADD PUSH1 0x40 MLOAD DUP1 SWAP2 SUB SWAP1 REVERT JUMPDEST PUSH0 PUSH1 0x3 DUP10 DUP10 PUSH1 0x40 MLOAD PUSH2 0xAA5 SWAP3 SWAP2 SWAP1 PUSH2 0x2661 JUMP JUMPDEST SWAP1 DUP2 MSTORE PUSH1 0x20 ADD PUSH1 0x40 MLOAD DUP1 SWAP2 SUB SWAP1 KECCAK256 PUSH0 SWAP1 SLOAD SWAP1 PUSH2 0x100 EXP SWAP1 DIV PUSH20 0xFFFFFFFFFFFFFFFFFFFFFFFFFFFFFFFFFFFFFFFF AND SWAP1 POP PUSH0 PUSH20 0xFFFFFFFFFFFFFFFFFFFFFFFFFFFFFFFFFFFFFFFF AND DUP2 PUSH20 0xFFFFFFFFFFFFFFFFFFFFFFFFFFFFFFFFFFFFFFFF AND SUB PUSH2 0xB47 JUMPI DUP9 DUP9 PUSH1 0x40 MLOAD PUSH32 0xC16FC3AD00000000000000000000000000000000000000000000000000000000 DUP2 MSTORE PUSH1 0x4 ADD PUSH2 0xB3E SWAP3 SWAP2 SWAP1 PUSH2 0x26B5 JUMP JUMPDEST PUSH1 0x40 MLOAD DUP1 SWAP2 SUB SWAP1 REVERT JUMPDEST PUSH0 PUSH2 0xB52 DUP3 DUP10 PUSH2 0x1546 JUMP JUMPDEST POP SWAP1 POP PUSH0 DUP8 DUP12 DUP12 DUP5 PUSH1 0x40 MLOAD PUSH1 0x20 ADD PUSH2 0xB6D SWAP5 SWAP4 SWAP3 SWAP2 SWAP1 PUSH2 0x26D7 JUMP JUMPDEST PUSH1 0x40 MLOAD PUSH1 0x20 DUP2 DUP4 SUB SUB DUP2 MSTORE SWAP1 PUSH1 0x40 MSTORE SWAP1 POP PUSH0 PUSH2 0xBCE DUP9 DUP4 DUP10 DUP10 DUP1 DUP1 PUSH1 0x1F ADD PUSH1 0x20 DUP1 SWAP2 DIV MUL PUSH1 0x20 ADD PUSH1 0x40 MLOAD SWAP1 DUP2 ADD PUSH1 0x40 MSTORE DUP1 SWAP4 SWAP3 SWAP2 SWAP1 DUP2 DUP2 MSTORE PUSH1 0x20 ADD DUP4 DUP4 DUP1 DUP3 DUP5 CALLDATACOPY PUSH0 DUP2 DUP5 ADD MSTORE PUSH1 0x1F NOT PUSH1 0x1F DUP3 ADD AND SWAP1 POP DUP1 DUP4 ADD SWAP3 POP POP POP POP POP POP POP PUSH0 PUSH2 0x163E JUMP JUMPDEST SWAP1 POP DUP1 PUSH0 ADD MLOAD SWAP5 POP POP POP POP POP SWAP8 SWAP7 POP POP POP POP POP POP POP JUMP JUMPDEST PUSH2 0xBED PUSH2 0x1B3A JUMP JUMPDEST PUSH2 0xBF5 PUSH2 0x171F JUMP JUMPDEST PUSH0 PUSH20 0xFFFFFFFFFFFFFFFFFFFFFFFFFFFFFFFFFFFFFFFF AND DUP6 PUSH20 0xFFFFFFFFFFFFFFFFFFFFFFFFFFFFFFFFFFFFFFFF AND SUB PUSH2 0xC5A JUMPI PUSH1 0x40 MLOAD PUSH32 0xA05FF47E00000000000000000000000000000000000000000000000000000000 DUP2 MSTORE PUSH1 0x4 ADD PUSH1 0x40 MLOAD DUP1 SWAP2 SUB SWAP1 REVERT JUMPDEST PUSH0 PUSH1 0x3 DUP10 DUP10 PUSH1 0x40 MLOAD PUSH2 0xC6D SWAP3 SWAP2 SWAP1 PUSH2 0x2661 JUMP JUMPDEST SWAP1 DUP2 MSTORE PUSH1 0x20 ADD PUSH1 0x40 MLOAD DUP1 SWAP2 SUB SWAP1 KECCAK256 PUSH0 SWAP1 SLOAD SWAP1 PUSH2 0x100 EXP SWAP1 DIV PUSH20 0xFFFFFFFFFFFFFFFFFFFFFFFFFFFFFFFFFFFFFFFF AND SWAP1 POP PUSH0 PUSH20 0xFFFFFFFFFFFFFFFFFFFFFFFFFFFFFFFFFFFFFFFF AND DUP2 PUSH20 0xFFFFFFFFFFFFFFFFFFFFFFFFFFFFFFFFFFFFFFFF AND SUB PUSH2 0xD0F JUMPI DUP9 DUP9 PUSH1 0x40 MLOAD PUSH32 0xC16FC3AD00000000000000000000000000000000000000000000000000000000 DUP2 MSTORE PUSH1 0x4 ADD PUSH2 0xD06 SWAP3 SWAP2 SWAP1 PUSH2 0x26B5 JUMP JUMPDEST PUSH1 0x40 MLOAD DUP1 SWAP2 SUB SWAP1 REVERT JUMPDEST PUSH0 DUP1 DUP3 PUSH20 0xFFFFFFFFFFFFFFFFFFFFFFFFFFFFFFFFFFFFFFFF AND PUSH4 0x70A08231 ADDRESS PUSH1 0x40 MLOAD DUP3 PUSH4 0xFFFFFFFF AND PUSH1 0xE0 SHL DUP2 MSTORE PUSH1 0x4 ADD PUSH2 0xD4A SWAP2 SWAP1 PUSH2 0x2222 JUMP JUMPDEST PUSH1 0x20 PUSH1 0x40 MLOAD DUP1 DUP4 SUB DUP2 DUP7 GAS STATICCALL ISZERO DUP1 ISZERO PUSH2 0xD65 JUMPI RETURNDATASIZE PUSH0 DUP1 RETURNDATACOPY RETURNDATASIZE PUSH0 REVERT JUMPDEST POP POP POP POP PUSH1 0x40 MLOAD RETURNDATASIZE PUSH1 0x1F NOT PUSH1 0x1F DUP3 ADD AND DUP3 ADD DUP1 PUSH1 0x40 MSTORE POP DUP2 ADD SWAP1 PUSH2 0xD89 SWAP2 SWAP1 PUSH2 0x2729 JUMP JUMPDEST SWAP1 POP PUSH2 0xD97 DUP4 CALLER ADDRESS DUP13 PUSH2 0x1763 JUMP JUMPDEST PUSH0 DUP4 PUSH20 0xFFFFFFFFFFFFFFFFFFFFFFFFFFFFFFFFFFFFFFFF AND PUSH4 0x70A08231 ADDRESS PUSH1 0x40 MLOAD DUP3 PUSH4 0xFFFFFFFF AND PUSH1 0xE0 SHL DUP2 MSTORE PUSH1 0x4 ADD PUSH2 0xDD1 SWAP2 SWAP1 PUSH2 0x2222 JUMP JUMPDEST PUSH1 0x20 PUSH1 0x40 MLOAD DUP1 DUP4 SUB DUP2 DUP7 GAS STATICCALL ISZERO DUP1 ISZERO PUSH2 0xDEC JUMPI RETURNDATASIZE PUSH0 DUP1 RETURNDATACOPY RETURNDATASIZE PUSH0 REVERT JUMPDEST POP POP POP POP PUSH1 0x40 MLOAD RETURNDATASIZE PUSH1 0x1F NOT PUSH1 0x1F DUP3 ADD AND DUP3 ADD DUP1 PUSH1 0x40 MSTORE POP DUP2 ADD SWAP1 PUSH2 0xE10 SWAP2 SWAP1 PUSH2 0x2729 JUMP JUMPDEST SWAP1 POP DUP2 DUP2 PUSH2 0xE1E SWAP2 SWAP1 PUSH2 0x2781 JUMP JUMPDEST SWAP3 POP POP POP PUSH0 DUP1 PUSH2 0xE2E DUP5 DUP5 PUSH2 0x1546 JUMP JUMPDEST SWAP2 POP SWAP2 POP PUSH0 DUP10 DUP14 DUP14 DUP6 PUSH1 0x40 MLOAD PUSH1 0x20 ADD PUSH2 0xE4A SWAP5 SWAP4 SWAP3 SWAP2 SWAP1 PUSH2 0x26D7 JUMP JUMPDEST PUSH1 0x40 MLOAD PUSH1 0x20 DUP2 DUP4 SUB SUB DUP2 MSTORE SWAP1 PUSH1 0x40 MSTORE SWAP1 POP PUSH2 0xEBF DUP10 DUP3 DUP11 DUP11 DUP1 DUP1 PUSH1 0x1F ADD PUSH1 0x20 DUP1 SWAP2 DIV MUL PUSH1 0x20 ADD PUSH1 0x40 MLOAD SWAP1 DUP2 ADD PUSH1 0x40 MSTORE DUP1 SWAP4 SWAP3 SWAP2 SWAP1 DUP2 DUP2 MSTORE PUSH1 0x20 ADD DUP4 DUP4 DUP1 DUP3 DUP5 CALLDATACOPY PUSH0 DUP2 DUP5 ADD MSTORE PUSH1 0x1F NOT PUSH1 0x1F DUP3 ADD AND SWAP1 POP DUP1 DUP4 ADD SWAP3 POP POP POP POP POP POP POP PUSH1 0x40 MLOAD DUP1 PUSH1 0x40 ADD PUSH1 0x40 MSTORE DUP1 CALLVALUE DUP2 MSTORE PUSH1 0x20 ADD PUSH0 DUP2 MSTORE POP CALLER PUSH2 0x17E5 JUMP JUMPDEST SWAP6 POP CALLER PUSH20 0xFFFFFFFFFFFFFFFFFFFFFFFFFFFFFFFFFFFFFFFF AND DUP7 PUSH0 ADD MLOAD PUSH32 0xE1A7126622F5C308DA3C5CC9757D65B49763C989099D8CD64171C17F51B702E2 DUP8 DUP7 DUP15 DUP8 DUP16 PUSH1 0x40 MLOAD PUSH2 0xF13 SWAP6 SWAP5 SWAP4 SWAP3 SWAP2 SWAP1 PUSH2 0x27B4 JUMP JUMPDEST PUSH1 0x40 MLOAD DUP1 SWAP2 SUB SWAP1 LOG3 POP POP POP POP POP PUSH2 0xF28 PUSH2 0x18FB JUMP JUMPDEST SWAP8 SWAP7 POP POP POP POP POP POP POP JUMP JUMPDEST PUSH2 0xF3B PUSH2 0x1320 JUMP JUMPDEST DUP1 PUSH1 0x3 DUP5 DUP5 PUSH1 0x40 MLOAD PUSH2 0xF4E SWAP3 SWAP2 SWAP1 PUSH2 0x2661 JUMP JUMPDEST SWAP1 DUP2 MSTORE PUSH1 0x20 ADD PUSH1 0x40 MLOAD DUP1 SWAP2 SUB SWAP1 KECCAK256 PUSH0 PUSH2 0x100 EXP DUP2 SLOAD DUP2 PUSH20 0xFFFFFFFFFFFFFFFFFFFFFFFFFFFFFFFFFFFFFFFF MUL NOT AND SWAP1 DUP4 PUSH20 0xFFFFFFFFFFFFFFFFFFFFFFFFFFFFFFFFFFFFFFFF AND MUL OR SWAP1 SSTORE POP DUP1 PUSH20 0xFFFFFFFFFFFFFFFFFFFFFFFFFFFFFFFFFFFFFFFF AND DUP4 DUP4 PUSH1 0x40 MLOAD PUSH2 0xFC0 SWAP3 SWAP2 SWAP1 PUSH2 0x2661 JUMP JUMPDEST PUSH1 0x40 MLOAD DUP1 SWAP2 SUB SWAP1 KECCAK256 PUSH32 0x6D97A31531BDB3C43D920BC996EC8B9FD7733F5F55A81CD74700F88631FC6032 PUSH1 0x40 MLOAD PUSH1 0x40 MLOAD DUP1 SWAP2 SUB SWAP1 LOG3 POP POP POP JUMP JUMPDEST PUSH2 0x1001 PUSH2 0x1320 JUMP JUMPDEST PUSH0 PUSH20 0xFFFFFFFFFFFFFFFFFFFFFFFFFFFFFFFFFFFFFFFF AND DUP2 PUSH20 0xFFFFFFFFFFFFFFFFFFFFFFFFFFFFFFFFFFFFFFFF AND SUB PUSH2 0x1071 JUMPI PUSH0 PUSH1 0x40 MLOAD PUSH32 0x1E4FBDF700000000000000000000000000000000000000000000000000000000 DUP2 MSTORE PUSH1 0x4 ADD PUSH2 0x1068 SWAP2 SWAP1 PUSH2 0x2222 JUMP JUMPDEST PUSH1 0x40 MLOAD DUP1 SWAP2 SUB SWAP1 REVERT JUMPDEST PUSH2 0x107A DUP2 PUSH2 0x1406 JUMP JUMPDEST POP JUMP JUMPDEST PUSH0 DUP2 PUSH1 0x20 ADD CALLDATALOAD PUSH1 0x1 PUSH0 DUP5 PUSH0 ADD PUSH1 0x20 DUP2 ADD SWAP1 PUSH2 0x1098 SWAP2 SWAP1 PUSH2 0x2303 JUMP JUMPDEST PUSH4 0xFFFFFFFF AND PUSH4 0xFFFFFFFF AND DUP2 MSTORE PUSH1 0x20 ADD SWAP1 DUP2 MSTORE PUSH1 0x20 ADD PUSH0 KECCAK256 SLOAD EQ SWAP1 POP SWAP2 SWAP1 POP JUMP JUMPDEST PUSH0 DUP1 PUSH1 0x1 PUSH0 DUP5 PUSH4 0xFFFFFFFF AND PUSH4 0xFFFFFFFF AND DUP2 MSTORE PUSH1 0x20 ADD SWAP1 DUP2 MSTORE PUSH1 0x20 ADD PUSH0 KECCAK256 SLOAD SWAP1 POP PUSH0 DUP1 SHL DUP2 SUB PUSH2 0x1122 JUMPI DUP3 PUSH1 0x40 MLOAD PUSH32 0xF6FF4FB700000000000000000000000000000000000000000000000000000000 DUP2 MSTORE PUSH1 0x4 ADD PUSH2 0x1119 SWAP2 SWAP1 PUSH2 0x2805 JUMP JUMPDEST PUSH1 0x40 MLOAD DUP1 SWAP2 SUB SWAP1 REVERT JUMPDEST DUP1 SWAP2 POP POP SWAP2 SWAP1 POP JUMP JUMPDEST PUSH2 0x1133 PUSH2 0x171F JUMP JUMPDEST PUSH0 DUP1 PUSH0 DUP8 DUP8 DUP2 ADD SWAP1 PUSH2 0x1145 SWAP2 SWAP1 PUSH2 0x2859 JUMP JUMPDEST SWAP3 POP SWAP3 POP SWAP3 POP PUSH0 PUSH1 0x3 DUP4 PUSH1 0x40 MLOAD PUSH2 0x115C SWAP2 SWAP1 PUSH2 0x290D JUMP JUMPDEST SWAP1 DUP2 MSTORE PUSH1 0x20 ADD PUSH1 0x40 MLOAD DUP1 SWAP2 SUB SWAP1 KECCAK256 PUSH0 SWAP1 SLOAD SWAP1 PUSH2 0x100 EXP SWAP1 DIV PUSH20 0xFFFFFFFFFFFFFFFFFFFFFFFFFFFFFFFFFFFFFFFF AND SWAP1 POP PUSH0 PUSH20 0xFFFFFFFFFFFFFFFFFFFFFFFFFFFFFFFFFFFFFFFF AND DUP2 PUSH20 0xFFFFFFFFFFFFFFFFFFFFFFFFFFFFFFFFFFFFFFFF AND SUB PUSH2 0x11FC JUMPI DUP3 PUSH1 0x40 MLOAD PUSH32 0xC16FC3AD00000000000000000000000000000000000000000000000000000000 DUP2 MSTORE PUSH1 0x4 ADD PUSH2 0x11F3 SWAP2 SWAP1 PUSH2 0x295B JUMP JUMPDEST PUSH1 0x40 MLOAD DUP1 SWAP2 SUB SWAP1 REVERT JUMPDEST PUSH0 PUSH32 0x0 DUP3 PUSH20 0xFFFFFFFFFFFFFFFFFFFFFFFFFFFFFFFFFFFFFFFF AND PUSH4 0x313CE567 PUSH1 0x40 MLOAD DUP2 PUSH4 0xFFFFFFFF AND PUSH1 0xE0 SHL DUP2 MSTORE PUSH1 0x4 ADD PUSH1 0x20 PUSH1 0x40 MLOAD DUP1 DUP4 SUB DUP2 DUP7 GAS STATICCALL ISZERO DUP1 ISZERO PUSH2 0x1267 JUMPI RETURNDATASIZE PUSH0 DUP1 RETURNDATACOPY RETURNDATASIZE PUSH0 REVERT JUMPDEST POP POP POP POP PUSH1 0x40 MLOAD RETURNDATASIZE PUSH1 0x1F NOT PUSH1 0x1F DUP3 ADD AND DUP3 ADD DUP1 PUSH1 0x40 MSTORE POP DUP2 ADD SWAP1 PUSH2 0x128B SWAP2 SWAP1 PUSH2 0x29B1 JUMP JUMPDEST PUSH1 0xA PUSH2 0x1297 SWAP2 SWAP1 PUSH2 0x2B0B JUMP JUMPDEST DUP5 PUSH2 0x12A2 SWAP2 SWAP1 PUSH2 0x2B55 JUMP JUMPDEST PUSH2 0x12AC SWAP2 SWAP1 PUSH2 0x2BC3 JUMP JUMPDEST SWAP1 POP DUP5 PUSH20 0xFFFFFFFFFFFFFFFFFFFFFFFFFFFFFFFFFFFFFFFF AND DUP12 PUSH32 0x95D209EDC2DD51498EB0F9B4C7FB85223DE3A46F6A83E0ABA5D2D0E9A0D72077 DUP5 DUP5 PUSH1 0x40 MLOAD PUSH2 0x12F7 SWAP3 SWAP2 SWAP1 PUSH2 0x2BF3 JUMP JUMPDEST PUSH1 0x40 MLOAD DUP1 SWAP2 SUB SWAP1 LOG3 PUSH2 0x130A DUP3 DUP7 DUP4 PUSH2 0x14C7 JUMP JUMPDEST POP POP POP POP POP PUSH2 0x1317 PUSH2 0x18FB JUMP JUMPDEST POP POP POP POP POP POP POP JUMP JUMPDEST PUSH2 0x1328 PUSH2 0x1905 JUMP JUMPDEST PUSH20 0xFFFFFFFFFFFFFFFFFFFFFFFFFFFFFFFFFFFFFFFF AND PUSH2 0x1346 PUSH2 0x809 JUMP JUMPDEST PUSH20 0xFFFFFFFFFFFFFFFFFFFFFFFFFFFFFFFFFFFFFFFF AND EQ PUSH2 0x13A5 JUMPI PUSH2 0x1369 PUSH2 0x1905 JUMP JUMPDEST PUSH1 0x40 MLOAD PUSH32 0x118CDAA700000000000000000000000000000000000000000000000000000000 DUP2 MSTORE PUSH1 0x4 ADD PUSH2 0x139C SWAP2 SWAP1 PUSH2 0x2222 JUMP JUMPDEST PUSH1 0x40 MLOAD DUP1 SWAP2 SUB SWAP1 REVERT JUMPDEST JUMP JUMPDEST DUP1 PUSH1 0x1 PUSH0 DUP5 PUSH4 0xFFFFFFFF AND PUSH4 0xFFFFFFFF AND DUP2 MSTORE PUSH1 0x20 ADD SWAP1 DUP2 MSTORE PUSH1 0x20 ADD PUSH0 KECCAK256 DUP2 SWAP1 SSTORE POP PUSH32 0x238399D427B947898EDB290F5FF0F9109849B1C3BA196A42E35F00C50A54B98B DUP3 DUP3 PUSH1 0x40 MLOAD PUSH2 0x13FA SWAP3 SWAP2 SWAP1 PUSH2 0x25E5 JUMP JUMPDEST PUSH1 0x40 MLOAD DUP1 SWAP2 SUB SWAP1 LOG1 POP POP JUMP JUMPDEST PUSH0 DUP1 PUSH0 SWAP1 SLOAD SWAP1 PUSH2 0x100 EXP SWAP1 DIV PUSH20 0xFFFFFFFFFFFFFFFFFFFFFFFFFFFFFFFFFFFFFFFF AND SWAP1 POP DUP2 PUSH0 DUP1 PUSH2 0x100 EXP DUP2 SLOAD DUP2 PUSH20 0xFFFFFFFFFFFFFFFFFFFFFFFFFFFFFFFFFFFFFFFF MUL NOT AND SWAP1 DUP4 PUSH20 0xFFFFFFFFFFFFFFFFFFFFFFFFFFFFFFFFFFFFFFFF AND MUL OR SWAP1 SSTORE POP DUP2 PUSH20 0xFFFFFFFFFFFFFFFFFFFFFFFFFFFFFFFFFFFFFFFF AND DUP2 PUSH20 0xFFFFFFFFFFFFFFFFFFFFFFFFFFFFFFFFFFFFFFFF AND PUSH32 0x8BE0079C531659141344CD1FD0A4F28419497F9722A3DAAFE3B4186F6B6457E0 PUSH1 0x40 MLOAD PUSH1 0x40 MLOAD DUP1 SWAP2 SUB SWAP1 LOG3 POP POP JUMP JUMPDEST PUSH2 0x1541 DUP4 DUP5 PUSH20 0xFFFFFFFFFFFFFFFFFFFFFFFFFFFFFFFFFFFFFFFF AND PUSH4 0xA9059CBB DUP6 DUP6 PUSH1 0x40 MLOAD PUSH1 0x24 ADD PUSH2 0x14FA SWAP3 SWAP2 SWAP1 PUSH2 0x2C1A JUMP JUMPDEST PUSH1 0x40 MLOAD PUSH1 0x20 DUP2 DUP4 SUB SUB DUP2 MSTORE SWAP1 PUSH1 0x40 MSTORE SWAP2 POP PUSH1 0xE0 SHL PUSH1 0x20 DUP3 ADD DUP1 MLOAD PUSH28 0xFFFFFFFFFFFFFFFFFFFFFFFFFFFFFFFFFFFFFFFFFFFFFFFFFFFFFFFF DUP4 DUP2 DUP4 AND OR DUP4 MSTORE POP POP POP POP PUSH2 0x190C JUMP JUMPDEST POP POP POP JUMP JUMPDEST PUSH0 DUP1 PUSH0 DUP5 PUSH20 0xFFFFFFFFFFFFFFFFFFFFFFFFFFFFFFFFFFFFFFFF AND PUSH4 0x313CE567 PUSH1 0x40 MLOAD DUP2 PUSH4 0xFFFFFFFF AND PUSH1 0xE0 SHL DUP2 MSTORE PUSH1 0x4 ADD PUSH1 0x20 PUSH1 0x40 MLOAD DUP1 DUP4 SUB DUP2 DUP7 GAS STATICCALL ISZERO DUP1 ISZERO PUSH2 0x1592 JUMPI RETURNDATASIZE PUSH0 DUP1 RETURNDATACOPY RETURNDATASIZE PUSH0 REVERT JUMPDEST POP POP POP POP PUSH1 0x40 MLOAD RETURNDATASIZE PUSH1 0x1F NOT PUSH1 0x1F DUP3 ADD AND DUP3 ADD DUP1 PUSH1 0x40 MSTORE POP DUP2 ADD SWAP1 PUSH2 0x15B6 SWAP2 SWAP1 PUSH2 0x29B1 JUMP JUMPDEST PUSH1 0xA PUSH2 0x15C2 SWAP2 SWAP1 PUSH2 0x2B0B JUMP JUMPDEST PUSH32 0x0 DUP6 PUSH2 0x15EE SWAP2 SWAP1 PUSH2 0x2B55 JUMP JUMPDEST PUSH2 0x15F8 SWAP2 SWAP1 PUSH2 0x2BC3 JUMP JUMPDEST SWAP1 POP PUSH2 0x2710 PUSH1 0x4 PUSH0 SWAP1 SLOAD SWAP1 PUSH2 0x100 EXP SWAP1 DIV PUSH2 0xFFFF AND PUSH2 0xFFFF AND DUP3 PUSH2 0x161C SWAP2 SWAP1 PUSH2 0x2B55 JUMP JUMPDEST PUSH2 0x1626 SWAP2 SWAP1 PUSH2 0x2BC3 JUMP JUMPDEST SWAP2 POP DUP2 DUP2 PUSH2 0x1634 SWAP2 SWAP1 PUSH2 0x2781 JUMP JUMPDEST SWAP3 POP POP SWAP3 POP SWAP3 SWAP1 POP JUMP JUMPDEST PUSH2 0x1646 PUSH2 0x1B6C JUMP JUMPDEST PUSH32 0x0 PUSH20 0xFFFFFFFFFFFFFFFFFFFFFFFFFFFFFFFFFFFFFFFF AND PUSH4 0xDDC28C58 PUSH1 0x40 MLOAD DUP1 PUSH1 0xA0 ADD PUSH1 0x40 MSTORE DUP1 DUP9 PUSH4 0xFFFFFFFF AND DUP2 MSTORE PUSH1 0x20 ADD PUSH2 0x16A2 DUP10 PUSH2 0x10BA JUMP JUMPDEST DUP2 MSTORE PUSH1 0x20 ADD DUP8 DUP2 MSTORE PUSH1 0x20 ADD DUP7 DUP2 MSTORE PUSH1 0x20 ADD DUP6 ISZERO ISZERO DUP2 MSTORE POP ADDRESS PUSH1 0x40 MLOAD DUP4 PUSH4 0xFFFFFFFF AND PUSH1 0xE0 SHL DUP2 MSTORE PUSH1 0x4 ADD PUSH2 0x16D7 SWAP3 SWAP2 SWAP1 PUSH2 0x2D2B JUMP JUMPDEST PUSH1 0x40 DUP1 MLOAD DUP1 DUP4 SUB DUP2 DUP7 GAS STATICCALL ISZERO DUP1 ISZERO PUSH2 0x16F1 JUMPI RETURNDATASIZE PUSH0 DUP1 RETURNDATACOPY RETURNDATASIZE PUSH0 REVERT JUMPDEST POP POP POP POP PUSH1 0x40 MLOAD RETURNDATASIZE PUSH1 0x1F NOT PUSH1 0x1F DUP3 ADD AND DUP3 ADD DUP1 PUSH1 0x40 MSTORE POP DUP2 ADD SWAP1 PUSH2 0x1715 SWAP2 SWAP1 PUSH2 0x2DAA JUMP JUMPDEST SWAP1 POP SWAP5 SWAP4 POP POP POP POP JUMP JUMPDEST PUSH1 0x2 DUP1 SLOAD SUB PUSH2 0x175A JUMPI PUSH1 0x40 MLOAD PUSH32 0x3EE5AEB500000000000000000000000000000000000000000000000000000000 DUP2 MSTORE PUSH1 0x4 ADD PUSH1 0x40 MLOAD DUP1 SWAP2 SUB SWAP1 REVERT JUMPDEST PUSH1 0x2 DUP1 DUP2 SWAP1 SSTORE POP JUMP JUMPDEST PUSH2 0x17DF DUP5 DUP6 PUSH20 0xFFFFFFFFFFFFFFFFFFFFFFFFFFFFFFFFFFFFFFFF AND PUSH4 0x23B872DD DUP7 DUP7 DUP7 PUSH1 0x40 MLOAD PUSH1 0x24 ADD PUSH2 0x1798 SWAP4 SWAP3 SWAP2 SWAP1 PUSH2 0x2DD5 JUMP JUMPDEST PUSH1 0x40 MLOAD PUSH1 0x20 DUP2 DUP4 SUB SUB DUP2 MSTORE SWAP1 PUSH1 0x40 MSTORE SWAP2 POP PUSH1 0xE0 SHL PUSH1 0x20 DUP3 ADD DUP1 MLOAD PUSH28 0xFFFFFFFFFFFFFFFFFFFFFFFFFFFFFFFFFFFFFFFFFFFFFFFFFFFFFFFF DUP4 DUP2 DUP4 AND OR DUP4 MSTORE POP POP POP POP PUSH2 0x190C JUMP JUMPDEST POP POP POP POP JUMP JUMPDEST PUSH2 0x17ED PUSH2 0x1B3A JUMP JUMPDEST PUSH0 PUSH2 0x17FA DUP5 PUSH0 ADD MLOAD PUSH2 0x19A7 JUMP JUMPDEST SWAP1 POP PUSH0 DUP5 PUSH1 0x20 ADD MLOAD GT ISZERO PUSH2 0x1816 JUMPI PUSH2 0x1815 DUP5 PUSH1 0x20 ADD MLOAD PUSH2 0x19F4 JUMP JUMPDEST JUMPDEST PUSH32 0x0 PUSH20 0xFFFFFFFFFFFFFFFFFFFFFFFFFFFFFFFFFFFFFFFF AND PUSH4 0x2637A450 DUP3 PUSH1 0x40 MLOAD DUP1 PUSH1 0xA0 ADD PUSH1 0x40 MSTORE DUP1 DUP12 PUSH4 0xFFFFFFFF AND DUP2 MSTORE PUSH1 0x20 ADD PUSH2 0x1873 DUP13 PUSH2 0x10BA JUMP JUMPDEST DUP2 MSTORE PUSH1 0x20 ADD DUP11 DUP2 MSTORE PUSH1 0x20 ADD DUP10 DUP2 MSTORE PUSH1 0x20 ADD PUSH0 DUP10 PUSH1 0x20 ADD MLOAD GT ISZERO ISZERO DUP2 MSTORE POP DUP7 PUSH1 0x40 MLOAD DUP5 PUSH4 0xFFFFFFFF AND PUSH1 0xE0 SHL DUP2 MSTORE PUSH1 0x4 ADD PUSH2 0x18AE SWAP3 SWAP2 SWAP1 PUSH2 0x2D2B JUMP JUMPDEST PUSH1 0x80 PUSH1 0x40 MLOAD DUP1 DUP4 SUB DUP2 DUP6 DUP9 GAS CALL ISZERO DUP1 ISZERO PUSH2 0x18CA JUMPI RETURNDATASIZE PUSH0 DUP1 RETURNDATACOPY RETURNDATASIZE PUSH0 REVERT JUMPDEST POP POP POP POP POP PUSH1 0x40 MLOAD RETURNDATASIZE PUSH1 0x1F NOT PUSH1 0x1F DUP3 ADD AND DUP3 ADD DUP1 PUSH1 0x40 MSTORE POP DUP2 ADD SWAP1 PUSH2 0x18EF SWAP2 SWAP1 PUSH2 0x2EA9 JUMP JUMPDEST SWAP2 POP POP SWAP6 SWAP5 POP POP POP POP POP JUMP JUMPDEST PUSH1 0x1 PUSH1 0x2 DUP2 SWAP1 SSTORE POP JUMP JUMPDEST PUSH0 CALLER SWAP1 POP SWAP1 JUMP JUMPDEST PUSH0 DUP1 PUSH1 0x20 PUSH0 DUP5 MLOAD PUSH1 0x20 DUP7 ADD PUSH0 DUP9 GAS CALL DUP1 PUSH2 0x192B JUMPI PUSH1 0x40 MLOAD RETURNDATASIZE PUSH0 DUP3 RETURNDATACOPY RETURNDATASIZE DUP2 REVERT JUMPDEST RETURNDATASIZE SWAP3 POP PUSH0 MLOAD SWAP2 POP POP PUSH0 DUP3 EQ PUSH2 0x1944 JUMPI PUSH1 0x1 DUP2 EQ ISZERO PUSH2 0x195F JUMP JUMPDEST PUSH0 DUP5 PUSH20 0xFFFFFFFFFFFFFFFFFFFFFFFFFFFFFFFFFFFFFFFF AND EXTCODESIZE EQ JUMPDEST ISZERO PUSH2 0x19A1 JUMPI DUP4 PUSH1 0x40 MLOAD PUSH32 0x5274AFE700000000000000000000000000000000000000000000000000000000 DUP2 MSTORE PUSH1 0x4 ADD PUSH2 0x1998 SWAP2 SWAP1 PUSH2 0x2222 JUMP JUMPDEST PUSH1 0x40 MLOAD DUP1 SWAP2 SUB SWAP1 REVERT JUMPDEST POP POP POP POP JUMP JUMPDEST PUSH0 DUP2 CALLVALUE EQ PUSH2 0x19EC JUMPI CALLVALUE PUSH1 0x40 MLOAD PUSH32 0x9F70412000000000000000000000000000000000000000000000000000000000 DUP2 MSTORE PUSH1 0x4 ADD PUSH2 0x19E3 SWAP2 SWAP1 PUSH2 0x2447 JUMP JUMPDEST PUSH1 0x40 MLOAD DUP1 SWAP2 SUB SWAP1 REVERT JUMPDEST DUP2 SWAP1 POP SWAP2 SWAP1 POP JUMP JUMPDEST PUSH0 PUSH32 0x0 PUSH20 0xFFFFFFFFFFFFFFFFFFFFFFFFFFFFFFFFFFFFFFFF AND PUSH4 0xE4FE1D94 PUSH1 0x40 MLOAD DUP2 PUSH4 0xFFFFFFFF AND PUSH1 0xE0 SHL DUP2 MSTORE PUSH1 0x4 ADD PUSH1 0x20 PUSH1 0x40 MLOAD DUP1 DUP4 SUB DUP2 DUP7 GAS STATICCALL ISZERO DUP1 ISZERO PUSH2 0x1A5E JUMPI RETURNDATASIZE PUSH0 DUP1 RETURNDATACOPY RETURNDATASIZE PUSH0 REVERT JUMPDEST POP POP POP POP PUSH1 0x40 MLOAD RETURNDATASIZE PUSH1 0x1F NOT PUSH1 0x1F DUP3 ADD AND DUP3 ADD DUP1 PUSH1 0x40 MSTORE POP DUP2 ADD SWAP1 PUSH2 0x1A82 SWAP2 SWAP1 PUSH2 0x2EE8 JUMP JUMPDEST SWAP1 POP PUSH0 PUSH20 0xFFFFFFFFFFFFFFFFFFFFFFFFFFFFFFFFFFFFFFFF AND DUP2 PUSH20 0xFFFFFFFFFFFFFFFFFFFFFFFFFFFFFFFFFFFFFFFF AND SUB PUSH2 0x1AE9 JUMPI PUSH1 0x40 MLOAD PUSH32 0x5373352A00000000000000000000000000000000000000000000000000000000 DUP2 MSTORE PUSH1 0x4 ADD PUSH1 0x40 MLOAD DUP1 SWAP2 SUB SWAP1 REVERT JUMPDEST PUSH2 0x1B36 CALLER PUSH32 0x0 DUP5 DUP5 PUSH20 0xFFFFFFFFFFFFFFFFFFFFFFFFFFFFFFFFFFFFFFFF AND PUSH2 0x1763 SWAP1 SWAP4 SWAP3 SWAP2 SWAP1 PUSH4 0xFFFFFFFF AND JUMP JUMPDEST POP POP JUMP JUMPDEST PUSH1 0x40 MLOAD DUP1 PUSH1 0x60 ADD PUSH1 0x40 MSTORE DUP1 PUSH0 DUP1 NOT AND DUP2 MSTORE PUSH1 0x20 ADD PUSH0 PUSH8 0xFFFFFFFFFFFFFFFF AND DUP2 MSTORE PUSH1 0x20 ADD PUSH2 0x1B66 PUSH2 0x1B6C JUMP JUMPDEST DUP2 MSTORE POP SWAP1 JUMP JUMPDEST PUSH1 0x40 MLOAD DUP1 PUSH1 0x40 ADD PUSH1 0x40 MSTORE DUP1 PUSH0 DUP2 MSTORE PUSH1 0x20 ADD PUSH0 DUP2 MSTORE POP SWAP1 JUMP JUMPDEST PUSH0 PUSH1 0x40 MLOAD SWAP1 POP SWAP1 JUMP JUMPDEST PUSH0 DUP1 REVERT JUMPDEST PUSH0 DUP1 REVERT JUMPDEST PUSH0 DUP1 REVERT JUMPDEST PUSH0 PUSH1 0x60 DUP3 DUP5 SUB SLT ISZERO PUSH2 0x1BAE JUMPI PUSH2 0x1BAD PUSH2 0x1B95 JUMP JUMPDEST JUMPDEST DUP2 SWAP1 POP SWAP3 SWAP2 POP POP JUMP JUMPDEST PUSH0 DUP2 SWAP1 POP SWAP2 SWAP1 POP JUMP JUMPDEST PUSH2 0x1BC9 DUP2 PUSH2 0x1BB7 JUMP JUMPDEST DUP2 EQ PUSH2 0x1BD3 JUMPI PUSH0 DUP1 REVERT JUMPDEST POP JUMP JUMPDEST PUSH0 DUP2 CALLDATALOAD SWAP1 POP PUSH2 0x1BE4 DUP2 PUSH2 0x1BC0 JUMP JUMPDEST SWAP3 SWAP2 POP POP JUMP JUMPDEST PUSH0 DUP1 REVERT JUMPDEST PUSH0 DUP1 REVERT JUMPDEST PUSH0 DUP1 REVERT JUMPDEST PUSH0 DUP1 DUP4 PUSH1 0x1F DUP5 ADD SLT PUSH2 0x1C0B JUMPI PUSH2 0x1C0A PUSH2 0x1BEA JUMP JUMPDEST JUMPDEST DUP3 CALLDATALOAD SWAP1 POP PUSH8 0xFFFFFFFFFFFFFFFF DUP2 GT ISZERO PUSH2 0x1C28 JUMPI PUSH2 0x1C27 PUSH2 0x1BEE JUMP JUMPDEST JUMPDEST PUSH1 0x20 DUP4 ADD SWAP2 POP DUP4 PUSH1 0x1 DUP3 MUL DUP4 ADD GT ISZERO PUSH2 0x1C44 JUMPI PUSH2 0x1C43 PUSH2 0x1BF2 JUMP JUMPDEST JUMPDEST SWAP3 POP SWAP3 SWAP1 POP JUMP JUMPDEST PUSH0 PUSH20 0xFFFFFFFFFFFFFFFFFFFFFFFFFFFFFFFFFFFFFFFF DUP3 AND SWAP1 POP SWAP2 SWAP1 POP JUMP JUMPDEST PUSH0 PUSH2 0x1C74 DUP3 PUSH2 0x1C4B JUMP JUMPDEST SWAP1 POP SWAP2 SWAP1 POP JUMP JUMPDEST PUSH2 0x1C84 DUP2 PUSH2 0x1C6A JUMP JUMPDEST DUP2 EQ PUSH2 0x1C8E JUMPI PUSH0 DUP1 REVERT JUMPDEST POP JUMP JUMPDEST PUSH0 DUP2 CALLDATALOAD SWAP1 POP PUSH2 0x1C9F DUP2 PUSH2 0x1C7B JUMP JUMPDEST SWAP3 SWAP2 POP POP JUMP JUMPDEST PUSH0 DUP1 PUSH0 DUP1 PUSH0 DUP1 PUSH0 PUSH1 0xE0 DUP9 DUP11 SUB SLT ISZERO PUSH2 0x1CC0 JUMPI PUSH2 0x1CBF PUSH2 0x1B8D JUMP JUMPDEST JUMPDEST PUSH0 PUSH2 0x1CCD DUP11 DUP3 DUP12 ADD PUSH2 0x1B99 JUMP JUMPDEST SWAP8 POP POP PUSH1 0x60 PUSH2 0x1CDE DUP11 DUP3 DUP12 ADD PUSH2 0x1BD6 JUMP JUMPDEST SWAP7 POP POP PUSH1 0x80 DUP9 ADD CALLDATALOAD PUSH8 0xFFFFFFFFFFFFFFFF DUP2 GT ISZERO PUSH2 0x1CFF JUMPI PUSH2 0x1CFE PUSH2 0x1B91 JUMP JUMPDEST JUMPDEST PUSH2 0x1D0B DUP11 DUP3 DUP12 ADD PUSH2 0x1BF6 JUMP JUMPDEST SWAP6 POP SWAP6 POP POP PUSH1 0xA0 PUSH2 0x1D1E DUP11 DUP3 DUP12 ADD PUSH2 0x1C91 JUMP JUMPDEST SWAP4 POP POP PUSH1 0xC0 DUP9 ADD CALLDATALOAD PUSH8 0xFFFFFFFFFFFFFFFF DUP2 GT ISZERO PUSH2 0x1D3F JUMPI PUSH2 0x1D3E PUSH2 0x1B91 JUMP JUMPDEST JUMPDEST PUSH2 0x1D4B DUP11 DUP3 DUP12 ADD PUSH2 0x1BF6 JUMP JUMPDEST SWAP3 POP SWAP3 POP POP SWAP3 SWAP6 SWAP9 SWAP2 SWAP5 SWAP8 POP SWAP3 SWAP6 POP JUMP JUMPDEST PUSH0 PUSH8 0xFFFFFFFFFFFFFFFF DUP3 AND SWAP1 POP SWAP2 SWAP1 POP JUMP JUMPDEST PUSH2 0x1D78 DUP2 PUSH2 0x1D5C JUMP JUMPDEST DUP3 MSTORE POP POP JUMP JUMPDEST PUSH0 PUSH1 0x40 DUP3 ADD SWAP1 POP PUSH2 0x1D91 PUSH0 DUP4 ADD DUP6 PUSH2 0x1D6F JUMP JUMPDEST PUSH2 0x1D9E PUSH1 0x20 DUP4 ADD DUP5 PUSH2 0x1D6F JUMP JUMPDEST SWAP4 SWAP3 POP POP POP JUMP JUMPDEST PUSH0 PUSH2 0xFFFF DUP3 AND SWAP1 POP SWAP2 SWAP1 POP JUMP JUMPDEST PUSH2 0x1DBB DUP2 PUSH2 0x1DA5 JUMP JUMPDEST DUP2 EQ PUSH2 0x1DC5 JUMPI PUSH0 DUP1 REVERT JUMPDEST POP JUMP JUMPDEST PUSH0 DUP2 CALLDATALOAD SWAP1 POP PUSH2 0x1DD6 DUP2 PUSH2 0x1DB2 JUMP JUMPDEST SWAP3 SWAP2 POP POP JUMP JUMPDEST PUSH0 PUSH1 0x20 DUP3 DUP5 SUB SLT ISZERO PUSH2 0x1DF1 JUMPI PUSH2 0x1DF0 PUSH2 0x1B8D JUMP JUMPDEST JUMPDEST PUSH0 PUSH2 0x1DFE DUP5 DUP3 DUP6 ADD PUSH2 0x1DC8 JUMP JUMPDEST SWAP2 POP POP SWAP3 SWAP2 POP POP JUMP JUMPDEST PUSH0 PUSH4 0xFFFFFFFF DUP3 AND SWAP1 POP SWAP2 SWAP1 POP JUMP JUMPDEST PUSH2 0x1E1F DUP2 PUSH2 0x1E07 JUMP JUMPDEST DUP2 EQ PUSH2 0x1E29 JUMPI PUSH0 DUP1 REVERT JUMPDEST POP JUMP JUMPDEST PUSH0 DUP2 CALLDATALOAD SWAP1 POP PUSH2 0x1E3A DUP2 PUSH2 0x1E16 JUMP JUMPDEST SWAP3 SWAP2 POP POP JUMP JUMPDEST PUSH0 DUP1 PUSH1 0x40 DUP4 DUP6 SUB SLT ISZERO PUSH2 0x1E56 JUMPI PUSH2 0x1E55 PUSH2 0x1B8D JUMP JUMPDEST JUMPDEST PUSH0 PUSH2 0x1E63 DUP6 DUP3 DUP7 ADD PUSH2 0x1E2C JUMP JUMPDEST SWAP3 POP POP PUSH1 0x20 PUSH2 0x1E74 DUP6 DUP3 DUP7 ADD PUSH2 0x1BD6 JUMP JUMPDEST SWAP2 POP POP SWAP3 POP SWAP3 SWAP1 POP JUMP JUMPDEST PUSH0 DUP2 SWAP1 POP SWAP2 SWAP1 POP JUMP JUMPDEST PUSH0 PUSH2 0x1EA1 PUSH2 0x1E9C PUSH2 0x1E97 DUP5 PUSH2 0x1C4B JUMP JUMPDEST PUSH2 0x1E7E JUMP JUMPDEST PUSH2 0x1C4B JUMP JUMPDEST SWAP1 POP SWAP2 SWAP1 POP JUMP JUMPDEST PUSH0 PUSH2 0x1EB2 DUP3 PUSH2 0x1E87 JUMP JUMPDEST SWAP1 POP SWAP2 SWAP1 POP JUMP JUMPDEST PUSH0 PUSH2 0x1EC3 DUP3 PUSH2 0x1EA8 JUMP JUMPDEST SWAP1 POP SWAP2 SWAP1 POP JUMP JUMPDEST PUSH2 0x1ED3 DUP2 PUSH2 0x1EB9 JUMP JUMPDEST DUP3 MSTORE POP POP JUMP JUMPDEST PUSH0 PUSH1 0x20 DUP3 ADD SWAP1 POP PUSH2 0x1EEC PUSH0 DUP4 ADD DUP5 PUSH2 0x1ECA JUMP JUMPDEST SWAP3 SWAP2 POP POP JUMP JUMPDEST PUSH0 PUSH1 0x20 DUP3 ADD SWAP1 POP PUSH2 0x1F05 PUSH0 DUP4 ADD DUP5 PUSH2 0x1D6F JUMP JUMPDEST SWAP3 SWAP2 POP POP JUMP JUMPDEST PUSH0 DUP1 PUSH0 DUP1 PUSH1 0xA0 DUP6 DUP8 SUB SLT ISZERO PUSH2 0x1F23 JUMPI PUSH2 0x1F22 PUSH2 0x1B8D JUMP JUMPDEST JUMPDEST PUSH0 PUSH2 0x1F30 DUP8 DUP3 DUP9 ADD PUSH2 0x1B99 JUMP JUMPDEST SWAP5 POP POP PUSH1 0x60 DUP6 ADD CALLDATALOAD PUSH8 0xFFFFFFFFFFFFFFFF DUP2 GT ISZERO PUSH2 0x1F51 JUMPI PUSH2 0x1F50 PUSH2 0x1B91 JUMP JUMPDEST JUMPDEST PUSH2 0x1F5D DUP8 DUP3 DUP9 ADD PUSH2 0x1BF6 JUMP JUMPDEST SWAP4 POP SWAP4 POP POP PUSH1 0x80 PUSH2 0x1F70 DUP8 DUP3 DUP9 ADD PUSH2 0x1C91 JUMP JUMPDEST SWAP2 POP POP SWAP3 SWAP6 SWAP2 SWAP5 POP SWAP3 POP JUMP JUMPDEST PUSH0 DUP2 ISZERO ISZERO SWAP1 POP SWAP2 SWAP1 POP JUMP JUMPDEST PUSH2 0x1F90 DUP2 PUSH2 0x1F7C JUMP JUMPDEST DUP3 MSTORE POP POP JUMP JUMPDEST PUSH0 PUSH1 0x20 DUP3 ADD SWAP1 POP PUSH2 0x1FA9 PUSH0 DUP4 ADD DUP5 PUSH2 0x1F87 JUMP JUMPDEST SWAP3 SWAP2 POP POP JUMP JUMPDEST PUSH0 PUSH2 0x1FB9 DUP3 PUSH2 0x1C6A JUMP JUMPDEST SWAP1 POP SWAP2 SWAP1 POP JUMP JUMPDEST PUSH2 0x1FC9 DUP2 PUSH2 0x1FAF JUMP JUMPDEST DUP2 EQ PUSH2 0x1FD3 JUMPI PUSH0 DUP1 REVERT JUMPDEST POP JUMP JUMPDEST PUSH0 DUP2 CALLDATALOAD SWAP1 POP PUSH2 0x1FE4 DUP2 PUSH2 0x1FC0 JUMP JUMPDEST SWAP3 SWAP2 POP POP JUMP JUMPDEST PUSH0 DUP2 SWAP1 POP SWAP2 SWAP1 POP JUMP JUMPDEST PUSH2 0x1FFC DUP2 PUSH2 0x1FEA JUMP JUMPDEST DUP2 EQ PUSH2 0x2006 JUMPI PUSH0 DUP1 REVERT JUMPDEST POP JUMP JUMPDEST PUSH0 DUP2 CALLDATALOAD SWAP1 POP PUSH2 0x2017 DUP2 PUSH2 0x1FF3 JUMP JUMPDEST SWAP3 SWAP2 POP POP JUMP JUMPDEST PUSH0 DUP1 PUSH1 0x40 DUP4 DUP6 SUB SLT ISZERO PUSH2 0x2033 JUMPI PUSH2 0x2032 PUSH2 0x1B8D JUMP JUMPDEST JUMPDEST PUSH0 PUSH2 0x2040 DUP6 DUP3 DUP7 ADD PUSH2 0x1FD6 JUMP JUMPDEST SWAP3 POP POP PUSH1 0x20 PUSH2 0x2051 DUP6 DUP3 DUP7 ADD PUSH2 0x2009 JUMP JUMPDEST SWAP2 POP POP SWAP3 POP SWAP3 SWAP1 POP JUMP JUMPDEST PUSH0 DUP1 REVERT JUMPDEST PUSH0 PUSH1 0x1F NOT PUSH1 0x1F DUP4 ADD AND SWAP1 POP SWAP2 SWAP1 POP JUMP JUMPDEST PUSH32 0x4E487B7100000000000000000000000000000000000000000000000000000000 PUSH0 MSTORE PUSH1 0x41 PUSH1 0x4 MSTORE PUSH1 0x24 PUSH0 REVERT JUMPDEST PUSH2 0x20A5 DUP3 PUSH2 0x205F JUMP JUMPDEST DUP2 ADD DUP2 DUP2 LT PUSH8 0xFFFFFFFFFFFFFFFF DUP3 GT OR ISZERO PUSH2 0x20C4 JUMPI PUSH2 0x20C3 PUSH2 0x206F JUMP JUMPDEST JUMPDEST DUP1 PUSH1 0x40 MSTORE POP POP POP JUMP JUMPDEST PUSH0 PUSH2 0x20D6 PUSH2 0x1B84 JUMP JUMPDEST SWAP1 POP PUSH2 0x20E2 DUP3 DUP3 PUSH2 0x209C JUMP JUMPDEST SWAP2 SWAP1 POP JUMP JUMPDEST PUSH0 PUSH8 0xFFFFFFFFFFFFFFFF DUP3 GT ISZERO PUSH2 0x2101 JUMPI PUSH2 0x2100 PUSH2 0x206F JUMP JUMPDEST JUMPDEST PUSH2 0x210A DUP3 PUSH2 0x205F JUMP JUMPDEST SWAP1 POP PUSH1 0x20 DUP2 ADD SWAP1 POP SWAP2 SWAP1 POP JUMP JUMPDEST DUP3 DUP2 DUP4 CALLDATACOPY PUSH0 DUP4 DUP4 ADD MSTORE POP POP POP JUMP JUMPDEST PUSH0 PUSH2 0x2137 PUSH2 0x2132 DUP5 PUSH2 0x20E7 JUMP JUMPDEST PUSH2 0x20CD JUMP JUMPDEST SWAP1 POP DUP3 DUP2 MSTORE PUSH1 0x20 DUP2 ADD DUP5 DUP5 DUP5 ADD GT ISZERO PUSH2 0x2153 JUMPI PUSH2 0x2152 PUSH2 0x205B JUMP JUMPDEST JUMPDEST PUSH2 0x215E DUP5 DUP3 DUP6 PUSH2 0x2117 JUMP JUMPDEST POP SWAP4 SWAP3 POP POP POP JUMP JUMPDEST PUSH0 DUP3 PUSH1 0x1F DUP4 ADD SLT PUSH2 0x217A JUMPI PUSH2 0x2179 PUSH2 0x1BEA JUMP JUMPDEST JUMPDEST DUP2 CALLDATALOAD PUSH2 0x218A DUP5 DUP3 PUSH1 0x20 DUP7 ADD PUSH2 0x2125 JUMP JUMPDEST SWAP2 POP POP SWAP3 SWAP2 POP POP JUMP JUMPDEST PUSH0 PUSH1 0x20 DUP3 DUP5 SUB SLT ISZERO PUSH2 0x21A8 JUMPI PUSH2 0x21A7 PUSH2 0x1B8D JUMP JUMPDEST JUMPDEST PUSH0 DUP3 ADD CALLDATALOAD PUSH8 0xFFFFFFFFFFFFFFFF DUP2 GT ISZERO PUSH2 0x21C5 JUMPI PUSH2 0x21C4 PUSH2 0x1B91 JUMP JUMPDEST JUMPDEST PUSH2 0x21D1 DUP5 DUP3 DUP6 ADD PUSH2 0x2166 JUMP JUMPDEST SWAP2 POP POP SWAP3 SWAP2 POP POP JUMP JUMPDEST PUSH0 PUSH2 0x21E4 DUP3 PUSH2 0x1EA8 JUMP JUMPDEST SWAP1 POP SWAP2 SWAP1 POP JUMP JUMPDEST PUSH2 0x21F4 DUP2 PUSH2 0x21DA JUMP JUMPDEST DUP3 MSTORE POP POP JUMP JUMPDEST PUSH0 PUSH1 0x20 DUP3 ADD SWAP1 POP PUSH2 0x220D PUSH0 DUP4 ADD DUP5 PUSH2 0x21EB JUMP JUMPDEST SWAP3 SWAP2 POP POP JUMP JUMPDEST PUSH2 0x221C DUP2 PUSH2 0x1C6A JUMP JUMPDEST DUP3 MSTORE POP POP JUMP JUMPDEST PUSH0 PUSH1 0x20 DUP3 ADD SWAP1 POP PUSH2 0x2235 PUSH0 DUP4 ADD DUP5 PUSH2 0x2213 JUMP JUMPDEST SWAP3 SWAP2 POP POP JUMP JUMPDEST PUSH0 DUP1 DUP4 PUSH1 0x1F DUP5 ADD SLT PUSH2 0x2250 JUMPI PUSH2 0x224F PUSH2 0x1BEA JUMP JUMPDEST JUMPDEST DUP3 CALLDATALOAD SWAP1 POP PUSH8 0xFFFFFFFFFFFFFFFF DUP2 GT ISZERO PUSH2 0x226D JUMPI PUSH2 0x226C PUSH2 0x1BEE JUMP JUMPDEST JUMPDEST PUSH1 0x20 DUP4 ADD SWAP2 POP DUP4 PUSH1 0x1 DUP3 MUL DUP4 ADD GT ISZERO PUSH2 0x2289 JUMPI PUSH2 0x2288 PUSH2 0x1BF2 JUMP JUMPDEST JUMPDEST SWAP3 POP SWAP3 SWAP1 POP JUMP JUMPDEST PUSH0 DUP1 PUSH1 0x20 DUP4 DUP6 SUB SLT ISZERO PUSH2 0x22A6 JUMPI PUSH2 0x22A5 PUSH2 0x1B8D JUMP JUMPDEST JUMPDEST PUSH0 DUP4 ADD CALLDATALOAD PUSH8 0xFFFFFFFFFFFFFFFF DUP2 GT ISZERO PUSH2 0x22C3 JUMPI PUSH2 0x22C2 PUSH2 0x1B91 JUMP JUMPDEST JUMPDEST PUSH2 0x22CF DUP6 DUP3 DUP7 ADD PUSH2 0x223B JUMP JUMPDEST SWAP3 POP SWAP3 POP POP SWAP3 POP SWAP3 SWAP1 POP JUMP JUMPDEST PUSH2 0x22E4 DUP2 PUSH2 0x1DA5 JUMP JUMPDEST DUP3 MSTORE POP POP JUMP JUMPDEST PUSH0 PUSH1 0x20 DUP3 ADD SWAP1 POP PUSH2 0x22FD PUSH0 DUP4 ADD DUP5 PUSH2 0x22DB JUMP JUMPDEST SWAP3 SWAP2 POP POP JUMP JUMPDEST PUSH0 PUSH1 0x20 DUP3 DUP5 SUB SLT ISZERO PUSH2 0x2318 JUMPI PUSH2 0x2317 PUSH2 0x1B8D JUMP JUMPDEST JUMPDEST PUSH0 PUSH2 0x2325 DUP5 DUP3 DUP6 ADD PUSH2 0x1E2C JUMP JUMPDEST SWAP2 POP POP SWAP3 SWAP2 POP POP JUMP JUMPDEST PUSH2 0x2337 DUP2 PUSH2 0x1BB7 JUMP JUMPDEST DUP3 MSTORE POP POP JUMP JUMPDEST PUSH0 PUSH1 0x20 DUP3 ADD SWAP1 POP PUSH2 0x2350 PUSH0 DUP4 ADD DUP5 PUSH2 0x232E JUMP JUMPDEST SWAP3 SWAP2 POP POP JUMP JUMPDEST PUSH0 PUSH1 0x20 DUP3 DUP5 SUB SLT ISZERO PUSH2 0x236B JUMPI PUSH2 0x236A PUSH2 0x1B8D JUMP JUMPDEST JUMPDEST PUSH0 PUSH2 0x2378 DUP5 DUP3 DUP6 ADD PUSH2 0x1C91 JUMP JUMPDEST SWAP2 POP POP SWAP3 SWAP2 POP POP JUMP JUMPDEST PUSH0 DUP1 PUSH0 DUP1 PUSH0 DUP1 PUSH0 PUSH1 0xA0 DUP9 DUP11 SUB SLT ISZERO PUSH2 0x239C JUMPI PUSH2 0x239B PUSH2 0x1B8D JUMP JUMPDEST JUMPDEST PUSH0 DUP9 ADD CALLDATALOAD PUSH8 0xFFFFFFFFFFFFFFFF DUP2 GT ISZERO PUSH2 0x23B9 JUMPI PUSH2 0x23B8 PUSH2 0x1B91 JUMP JUMPDEST JUMPDEST PUSH2 0x23C5 DUP11 DUP3 DUP12 ADD PUSH2 0x223B JUMP JUMPDEST SWAP8 POP SWAP8 POP POP PUSH1 0x20 PUSH2 0x23D8 DUP11 DUP3 DUP12 ADD PUSH2 0x2009 JUMP JUMPDEST SWAP6 POP POP PUSH1 0x40 PUSH2 0x23E9 DUP11 DUP3 DUP12 ADD PUSH2 0x1C91 JUMP JUMPDEST SWAP5 POP POP PUSH1 0x60 PUSH2 0x23FA DUP11 DUP3 DUP12 ADD PUSH2 0x1E2C JUMP JUMPDEST SWAP4 POP POP PUSH1 0x80 DUP9 ADD CALLDATALOAD PUSH8 0xFFFFFFFFFFFFFFFF DUP2 GT ISZERO PUSH2 0x241B JUMPI PUSH2 0x241A PUSH2 0x1B91 JUMP JUMPDEST JUMPDEST PUSH2 0x2427 DUP11 DUP3 DUP12 ADD PUSH2 0x1BF6 JUMP JUMPDEST SWAP3 POP SWAP3 POP POP SWAP3 SWAP6 SWAP9 SWAP2 SWAP5 SWAP8 POP SWAP3 SWAP6 POP JUMP JUMPDEST PUSH2 0x2441 DUP2 PUSH2 0x1FEA JUMP JUMPDEST DUP3 MSTORE POP POP JUMP JUMPDEST PUSH0 PUSH1 0x20 DUP3 ADD SWAP1 POP PUSH2 0x245A PUSH0 DUP4 ADD DUP5 PUSH2 0x2438 JUMP JUMPDEST SWAP3 SWAP2 POP POP JUMP JUMPDEST PUSH2 0x2469 DUP2 PUSH2 0x1BB7 JUMP JUMPDEST DUP3 MSTORE POP POP JUMP JUMPDEST PUSH2 0x2478 DUP2 PUSH2 0x1D5C JUMP JUMPDEST DUP3 MSTORE POP POP JUMP JUMPDEST PUSH2 0x2487 DUP2 PUSH2 0x1FEA JUMP JUMPDEST DUP3 MSTORE POP POP JUMP JUMPDEST PUSH1 0x40 DUP3 ADD PUSH0 DUP3 ADD MLOAD PUSH2 0x24A1 PUSH0 DUP6 ADD DUP3 PUSH2 0x247E JUMP JUMPDEST POP PUSH1 0x20 DUP3 ADD MLOAD PUSH2 0x24B4 PUSH1 0x20 DUP6 ADD DUP3 PUSH2 0x247E JUMP JUMPDEST POP POP POP POP JUMP JUMPDEST PUSH1 0x80 DUP3 ADD PUSH0 DUP3 ADD MLOAD PUSH2 0x24CE PUSH0 DUP6 ADD DUP3 PUSH2 0x2460 JUMP JUMPDEST POP PUSH1 0x20 DUP3 ADD MLOAD PUSH2 0x24E1 PUSH1 0x20 DUP6 ADD DUP3 PUSH2 0x246F JUMP JUMPDEST POP PUSH1 0x40 DUP3 ADD MLOAD PUSH2 0x24F4 PUSH1 0x40 DUP6 ADD DUP3 PUSH2 0x248D JUMP JUMPDEST POP POP POP POP JUMP JUMPDEST PUSH0 PUSH1 0x80 DUP3 ADD SWAP1 POP PUSH2 0x250D PUSH0 DUP4 ADD DUP5 PUSH2 0x24BA JUMP JUMPDEST SWAP3 SWAP2 POP POP JUMP JUMPDEST PUSH0 PUSH2 0x251D DUP3 PUSH2 0x1C6A JUMP JUMPDEST SWAP1 POP SWAP2 SWAP1 POP JUMP JUMPDEST PUSH2 0x252D DUP2 PUSH2 0x2513 JUMP JUMPDEST DUP2 EQ PUSH2 0x2537 JUMPI PUSH0 DUP1 REVERT JUMPDEST POP JUMP JUMPDEST PUSH0 DUP2 CALLDATALOAD SWAP1 POP PUSH2 0x2548 DUP2 PUSH2 0x2524 JUMP JUMPDEST SWAP3 SWAP2 POP POP JUMP JUMPDEST PUSH0 DUP1 PUSH0 PUSH1 0x40 DUP5 DUP7 SUB SLT ISZERO PUSH2 0x2565 JUMPI PUSH2 0x2564 PUSH2 0x1B8D JUMP JUMPDEST JUMPDEST PUSH0 DUP5 ADD CALLDATALOAD PUSH8 0xFFFFFFFFFFFFFFFF DUP2 GT ISZERO PUSH2 0x2582 JUMPI PUSH2 0x2581 PUSH2 0x1B91 JUMP JUMPDEST JUMPDEST PUSH2 0x258E DUP7 DUP3 DUP8 ADD PUSH2 0x223B JUMP JUMPDEST SWAP4 POP SWAP4 POP POP PUSH1 0x20 PUSH2 0x25A1 DUP7 DUP3 DUP8 ADD PUSH2 0x253A JUMP JUMPDEST SWAP2 POP POP SWAP3 POP SWAP3 POP SWAP3 JUMP JUMPDEST PUSH0 PUSH1 0x60 DUP3 DUP5 SUB SLT ISZERO PUSH2 0x25C0 JUMPI PUSH2 0x25BF PUSH2 0x1B8D JUMP JUMPDEST JUMPDEST PUSH0 PUSH2 0x25CD DUP5 DUP3 DUP6 ADD PUSH2 0x1B99 JUMP JUMPDEST SWAP2 POP POP SWAP3 SWAP2 POP POP JUMP JUMPDEST PUSH2 0x25DF DUP2 PUSH2 0x1E07 JUMP JUMPDEST DUP3 MSTORE POP POP JUMP JUMPDEST PUSH0 PUSH1 0x40 DUP3 ADD SWAP1 POP PUSH2 0x25F8 PUSH0 DUP4 ADD DUP6 PUSH2 0x25D6 JUMP JUMPDEST PUSH2 0x2605 PUSH1 0x20 DUP4 ADD DUP5 PUSH2 0x232E JUMP JUMPDEST SWAP4 SWAP3 POP POP POP JUMP JUMPDEST PUSH0 PUSH1 0x40 DUP3 ADD SWAP1 POP PUSH2 0x261F PUSH0 DUP4 ADD DUP6 PUSH2 0x22DB JUMP JUMPDEST PUSH2 0x262C PUSH1 0x20 DUP4 ADD DUP5 PUSH2 0x22DB JUMP JUMPDEST SWAP4 SWAP3 POP POP POP JUMP JUMPDEST PUSH0 DUP2 SWAP1 POP SWAP3 SWAP2 POP POP JUMP JUMPDEST PUSH0 PUSH2 0x2648 DUP4 DUP6 PUSH2 0x2633 JUMP JUMPDEST SWAP4 POP PUSH2 0x2655 DUP4 DUP6 DUP5 PUSH2 0x2117 JUMP JUMPDEST DUP3 DUP5 ADD SWAP1 POP SWAP4 SWAP3 POP POP POP JUMP JUMPDEST PUSH0 PUSH2 0x266D DUP3 DUP5 DUP7 PUSH2 0x263D JUMP JUMPDEST SWAP2 POP DUP2 SWAP1 POP SWAP4 SWAP3 POP POP POP JUMP JUMPDEST PUSH0 DUP3 DUP3 MSTORE PUSH1 0x20 DUP3 ADD SWAP1 POP SWAP3 SWAP2 POP POP JUMP JUMPDEST PUSH0 PUSH2 0x2694 DUP4 DUP6 PUSH2 0x2679 JUMP JUMPDEST SWAP4 POP PUSH2 0x26A1 DUP4 DUP6 DUP5 PUSH2 0x2117 JUMP JUMPDEST PUSH2 0x26AA DUP4 PUSH2 0x205F JUMP JUMPDEST DUP5 ADD SWAP1 POP SWAP4 SWAP3 POP POP POP JUMP JUMPDEST PUSH0 PUSH1 0x20 DUP3 ADD SWAP1 POP DUP2 DUP2 SUB PUSH0 DUP4 ADD MSTORE PUSH2 0x26CE DUP2 DUP5 DUP7 PUSH2 0x2689 JUMP JUMPDEST SWAP1 POP SWAP4 SWAP3 POP POP POP JUMP JUMPDEST PUSH0 PUSH1 0x60 DUP3 ADD SWAP1 POP PUSH2 0x26EA PUSH0 DUP4 ADD DUP8 PUSH2 0x2213 JUMP JUMPDEST DUP2 DUP2 SUB PUSH1 0x20 DUP4 ADD MSTORE PUSH2 0x26FD DUP2 DUP6 DUP8 PUSH2 0x2689 JUMP JUMPDEST SWAP1 POP PUSH2 0x270C PUSH1 0x40 DUP4 ADD DUP5 PUSH2 0x2438 JUMP JUMPDEST SWAP6 SWAP5 POP POP POP POP POP JUMP JUMPDEST PUSH0 DUP2 MLOAD SWAP1 POP PUSH2 0x2723 DUP2 PUSH2 0x1FF3 JUMP JUMPDEST SWAP3 SWAP2 POP POP JUMP JUMPDEST PUSH0 PUSH1 0x20 DUP3 DUP5 SUB SLT ISZERO PUSH2 0x273E JUMPI PUSH2 0x273D PUSH2 0x1B8D JUMP JUMPDEST JUMPDEST PUSH0 PUSH2 0x274B DUP5 DUP3 DUP6 ADD PUSH2 0x2715 JUMP JUMPDEST SWAP2 POP POP SWAP3 SWAP2 POP POP JUMP JUMPDEST PUSH32 0x4E487B7100000000000000000000000000000000000000000000000000000000 PUSH0 MSTORE PUSH1 0x11 PUSH1 0x4 MSTORE PUSH1 0x24 PUSH0 REVERT JUMPDEST PUSH0 PUSH2 0x278B DUP3 PUSH2 0x1FEA JUMP JUMPDEST SWAP2 POP PUSH2 0x2796 DUP4 PUSH2 0x1FEA JUMP JUMPDEST SWAP3 POP DUP3 DUP3 SUB SWAP1 POP DUP2 DUP2 GT ISZERO PUSH2 0x27AE JUMPI PUSH2 0x27AD PUSH2 0x2754 JUMP JUMPDEST JUMPDEST SWAP3 SWAP2 POP POP JUMP JUMPDEST PUSH0 PUSH1 0xA0 DUP3 ADD SWAP1 POP PUSH2 0x27C7 PUSH0 DUP4 ADD DUP9 PUSH2 0x21EB JUMP JUMPDEST PUSH2 0x27D4 PUSH1 0x20 DUP4 ADD DUP8 PUSH2 0x2438 JUMP JUMPDEST PUSH2 0x27E1 PUSH1 0x40 DUP4 ADD DUP7 PUSH2 0x2213 JUMP JUMPDEST PUSH2 0x27EE PUSH1 0x60 DUP4 ADD DUP6 PUSH2 0x2438 JUMP JUMPDEST PUSH2 0x27FB PUSH1 0x80 DUP4 ADD DUP5 PUSH2 0x25D6 JUMP JUMPDEST SWAP7 SWAP6 POP POP POP POP POP POP JUMP JUMPDEST PUSH0 PUSH1 0x20 DUP3 ADD SWAP1 POP PUSH2 0x2818 PUSH0 DUP4 ADD DUP5 PUSH2 0x25D6 JUMP JUMPDEST SWAP3 SWAP2 POP POP JUMP JUMPDEST PUSH0 PUSH2 0x2828 DUP3 PUSH2 0x1C4B JUMP JUMPDEST SWAP1 POP SWAP2 SWAP1 POP JUMP JUMPDEST PUSH2 0x2838 DUP2 PUSH2 0x281E JUMP JUMPDEST DUP2 EQ PUSH2 0x2842 JUMPI PUSH0 DUP1 REVERT JUMPDEST POP JUMP JUMPDEST PUSH0 DUP2 CALLDATALOAD SWAP1 POP PUSH2 0x2853 DUP2 PUSH2 0x282F JUMP JUMPDEST SWAP3 SWAP2 POP POP JUMP JUMPDEST PUSH0 DUP1 PUSH0 PUSH1 0x60 DUP5 DUP7 SUB SLT ISZERO PUSH2 0x2870 JUMPI PUSH2 0x286F PUSH2 0x1B8D JUMP JUMPDEST JUMPDEST PUSH0 PUSH2 0x287D DUP7 DUP3 DUP8 ADD PUSH2 0x2845 JUMP JUMPDEST SWAP4 POP POP PUSH1 0x20 DUP5 ADD CALLDATALOAD PUSH8 0xFFFFFFFFFFFFFFFF DUP2 GT ISZERO PUSH2 0x289E JUMPI PUSH2 0x289D PUSH2 0x1B91 JUMP JUMPDEST JUMPDEST PUSH2 0x28AA DUP7 DUP3 DUP8 ADD PUSH2 0x2166 JUMP JUMPDEST SWAP3 POP POP PUSH1 0x40 PUSH2 0x28BB DUP7 DUP3 DUP8 ADD PUSH2 0x2009 JUMP JUMPDEST SWAP2 POP POP SWAP3 POP SWAP3 POP SWAP3 JUMP JUMPDEST PUSH0 DUP2 MLOAD SWAP1 POP SWAP2 SWAP1 POP JUMP JUMPDEST DUP3 DUP2 DUP4 MCOPY PUSH0 DUP4 DUP4 ADD MSTORE POP POP POP JUMP JUMPDEST PUSH0 PUSH2 0x28E7 DUP3 PUSH2 0x28C5 JUMP JUMPDEST PUSH2 0x28F1 DUP2 DUP6 PUSH2 0x2633 JUMP JUMPDEST SWAP4 POP PUSH2 0x2901 DUP2 DUP6 PUSH1 0x20 DUP7 ADD PUSH2 0x28CF JUMP JUMPDEST DUP1 DUP5 ADD SWAP2 POP POP SWAP3 SWAP2 POP POP JUMP JUMPDEST PUSH0 PUSH2 0x2918 DUP3 DUP5 PUSH2 0x28DD JUMP JUMPDEST SWAP2 POP DUP2 SWAP1 POP SWAP3 SWAP2 POP POP JUMP JUMPDEST PUSH0 PUSH2 0x292D DUP3 PUSH2 0x28C5 JUMP JUMPDEST PUSH2 0x2937 DUP2 DUP6 PUSH2 0x2679 JUMP JUMPDEST SWAP4 POP PUSH2 0x2947 DUP2 DUP6 PUSH1 0x20 DUP7 ADD PUSH2 0x28CF JUMP JUMPDEST PUSH2 0x2950 DUP2 PUSH2 0x205F JUMP JUMPDEST DUP5 ADD SWAP2 POP POP SWAP3 SWAP2 POP POP JUMP JUMPDEST PUSH0 PUSH1 0x20 DUP3 ADD SWAP1 POP DUP2 DUP2 SUB PUSH0 DUP4 ADD MSTORE PUSH2 0x2973 DUP2 DUP5 PUSH2 0x2923 JUMP JUMPDEST SWAP1 POP SWAP3 SWAP2 POP POP JUMP JUMPDEST PUSH0 PUSH1 0xFF DUP3 AND SWAP1 POP SWAP2 SWAP1 POP JUMP JUMPDEST PUSH2 0x2990 DUP2 PUSH2 0x297B JUMP JUMPDEST DUP2 EQ PUSH2 0x299A JUMPI PUSH0 DUP1 REVERT JUMPDEST POP JUMP JUMPDEST PUSH0 DUP2 MLOAD SWAP1 POP PUSH2 0x29AB DUP2 PUSH2 0x2987 JUMP JUMPDEST SWAP3 SWAP2 POP POP JUMP JUMPDEST PUSH0 PUSH1 0x20 DUP3 DUP5 SUB SLT ISZERO PUSH2 0x29C6 JUMPI PUSH2 0x29C5 PUSH2 0x1B8D JUMP JUMPDEST JUMPDEST PUSH0 PUSH2 0x29D3 DUP5 DUP3 DUP6 ADD PUSH2 0x299D JUMP JUMPDEST SWAP2 POP POP SWAP3 SWAP2 POP POP JUMP JUMPDEST PUSH0 DUP2 PUSH1 0x1 SHR SWAP1 POP SWAP2 SWAP1 POP JUMP JUMPDEST PUSH0 DUP1 DUP3 SWAP2 POP DUP4 SWAP1 POP JUMPDEST PUSH1 0x1 DUP6 GT ISZERO PUSH2 0x2A31 JUMPI DUP1 DUP7 DIV DUP2 GT ISZERO PUSH2 0x2A0D JUMPI PUSH2 0x2A0C PUSH2 0x2754 JUMP JUMPDEST JUMPDEST PUSH1 0x1 DUP6 AND ISZERO PUSH2 0x2A1C JUMPI DUP1 DUP3 MUL SWAP2 POP JUMPDEST DUP1 DUP2 MUL SWAP1 POP PUSH2 0x2A2A DUP6 PUSH2 0x29DC JUMP JUMPDEST SWAP5 POP PUSH2 0x29F1 JUMP JUMPDEST SWAP5 POP SWAP5 SWAP3 POP POP POP JUMP JUMPDEST PUSH0 DUP3 PUSH2 0x2A49 JUMPI PUSH1 0x1 SWAP1 POP PUSH2 0x2B04 JUMP JUMPDEST DUP2 PUSH2 0x2A56 JUMPI PUSH0 SWAP1 POP PUSH2 0x2B04 JUMP JUMPDEST DUP2 PUSH1 0x1 DUP2 EQ PUSH2 0x2A6C JUMPI PUSH1 0x2 DUP2 EQ PUSH2 0x2A76 JUMPI PUSH2 0x2AA5 JUMP JUMPDEST PUSH1 0x1 SWAP2 POP POP PUSH2 0x2B04 JUMP JUMPDEST PUSH1 0xFF DUP5 GT ISZERO PUSH2 0x2A88 JUMPI PUSH2 0x2A87 PUSH2 0x2754 JUMP JUMPDEST JUMPDEST DUP4 PUSH1 0x2 EXP SWAP2 POP DUP5 DUP3 GT ISZERO PUSH2 0x2A9F JUMPI PUSH2 0x2A9E PUSH2 0x2754 JUMP JUMPDEST JUMPDEST POP PUSH2 0x2B04 JUMP JUMPDEST POP PUSH1 0x20 DUP4 LT PUSH2 0x133 DUP4 LT AND PUSH1 0x4E DUP5 LT PUSH1 0xB DUP5 LT AND OR ISZERO PUSH2 0x2ADA JUMPI DUP3 DUP3 EXP SWAP1 POP DUP4 DUP2 GT ISZERO PUSH2 0x2AD5 JUMPI PUSH2 0x2AD4 PUSH2 0x2754 JUMP JUMPDEST JUMPDEST PUSH2 0x2B04 JUMP JUMPDEST PUSH2 0x2AE7 DUP5 DUP5 DUP5 PUSH1 0x1 PUSH2 0x29E8 JUMP JUMPDEST SWAP3 POP SWAP1 POP DUP2 DUP5 DIV DUP2 GT ISZERO PUSH2 0x2AFE JUMPI PUSH2 0x2AFD PUSH2 0x2754 JUMP JUMPDEST JUMPDEST DUP2 DUP2 MUL SWAP1 POP JUMPDEST SWAP4 SWAP3 POP POP POP JUMP JUMPDEST PUSH0 PUSH2 0x2B15 DUP3 PUSH2 0x1FEA JUMP JUMPDEST SWAP2 POP PUSH2 0x2B20 DUP4 PUSH2 0x297B JUMP JUMPDEST SWAP3 POP PUSH2 0x2B4D PUSH32 0xFFFFFFFFFFFFFFFFFFFFFFFFFFFFFFFFFFFFFFFFFFFFFFFFFFFFFFFFFFFFFFFF DUP5 DUP5 PUSH2 0x2A3A JUMP JUMPDEST SWAP1 POP SWAP3 SWAP2 POP POP JUMP JUMPDEST PUSH0 PUSH2 0x2B5F DUP3 PUSH2 0x1FEA JUMP JUMPDEST SWAP2 POP PUSH2 0x2B6A DUP4 PUSH2 0x1FEA JUMP JUMPDEST SWAP3 POP DUP3 DUP3 MUL PUSH2 0x2B78 DUP2 PUSH2 0x1FEA JUMP JUMPDEST SWAP2 POP DUP3 DUP3 DIV DUP5 EQ DUP4 ISZERO OR PUSH2 0x2B8F JUMPI PUSH2 0x2B8E PUSH2 0x2754 JUMP JUMPDEST JUMPDEST POP SWAP3 SWAP2 POP POP JUMP JUMPDEST PUSH32 0x4E487B7100000000000000000000000000000000000000000000000000000000 PUSH0 MSTORE PUSH1 0x12 PUSH1 0x4 MSTORE PUSH1 0x24 PUSH0 REVERT JUMPDEST PUSH0 PUSH2 0x2BCD DUP3 PUSH2 0x1FEA JUMP JUMPDEST SWAP2 POP PUSH2 0x2BD8 DUP4 PUSH2 0x1FEA JUMP JUMPDEST SWAP3 POP DUP3 PUSH2 0x2BE8 JUMPI PUSH2 0x2BE7 PUSH2 0x2B96 JUMP JUMPDEST JUMPDEST DUP3 DUP3 DIV SWAP1 POP SWAP3 SWAP2 POP POP JUMP JUMPDEST PUSH0 PUSH1 0x40 DUP3 ADD SWAP1 POP PUSH2 0x2C06 PUSH0 DUP4 ADD DUP6 PUSH2 0x21EB JUMP JUMPDEST PUSH2 0x2C13 PUSH1 0x20 DUP4 ADD DUP5 PUSH2 0x2438 JUMP JUMPDEST SWAP4 SWAP3 POP POP POP JUMP JUMPDEST PUSH0 PUSH1 0x40 DUP3 ADD SWAP1 POP PUSH2 0x2C2D PUSH0 DUP4 ADD DUP6 PUSH2 0x2213 JUMP JUMPDEST PUSH2 0x2C3A PUSH1 0x20 DUP4 ADD DUP5 PUSH2 0x2438 JUMP JUMPDEST SWAP4 SWAP3 POP POP POP JUMP JUMPDEST PUSH2 0x2C4A DUP2 PUSH2 0x1E07 JUMP JUMPDEST DUP3 MSTORE POP POP JUMP JUMPDEST PUSH0 DUP2 MLOAD SWAP1 POP SWAP2 SWAP1 POP JUMP JUMPDEST PUSH0 DUP3 DUP3 MSTORE PUSH1 0x20 DUP3 ADD SWAP1 POP SWAP3 SWAP2 POP POP JUMP JUMPDEST PUSH0 PUSH2 0x2C74 DUP3 PUSH2 0x2C50 JUMP JUMPDEST PUSH2 0x2C7E DUP2 DUP6 PUSH2 0x2C5A JUMP JUMPDEST SWAP4 POP PUSH2 0x2C8E DUP2 DUP6 PUSH1 0x20 DUP7 ADD PUSH2 0x28CF JUMP JUMPDEST PUSH2 0x2C97 DUP2 PUSH2 0x205F JUMP JUMPDEST DUP5 ADD SWAP2 POP POP SWAP3 SWAP2 POP POP JUMP JUMPDEST PUSH2 0x2CAB DUP2 PUSH2 0x1F7C JUMP JUMPDEST DUP3 MSTORE POP POP JUMP JUMPDEST PUSH0 PUSH1 0xA0 DUP4 ADD PUSH0 DUP4 ADD MLOAD PUSH2 0x2CC6 PUSH0 DUP7 ADD DUP3 PUSH2 0x2C41 JUMP JUMPDEST POP PUSH1 0x20 DUP4 ADD MLOAD PUSH2 0x2CD9 PUSH1 0x20 DUP7 ADD DUP3 PUSH2 0x2460 JUMP JUMPDEST POP PUSH1 0x40 DUP4 ADD MLOAD DUP5 DUP3 SUB PUSH1 0x40 DUP7 ADD MSTORE PUSH2 0x2CF1 DUP3 DUP3 PUSH2 0x2C6A JUMP JUMPDEST SWAP2 POP POP PUSH1 0x60 DUP4 ADD MLOAD DUP5 DUP3 SUB PUSH1 0x60 DUP7 ADD MSTORE PUSH2 0x2D0B DUP3 DUP3 PUSH2 0x2C6A JUMP JUMPDEST SWAP2 POP POP PUSH1 0x80 DUP4 ADD MLOAD PUSH2 0x2D20 PUSH1 0x80 DUP7 ADD DUP3 PUSH2 0x2CA2 JUMP JUMPDEST POP DUP1 SWAP2 POP POP SWAP3 SWAP2 POP POP JUMP JUMPDEST PUSH0 PUSH1 0x40 DUP3 ADD SWAP1 POP DUP2 DUP2 SUB PUSH0 DUP4 ADD MSTORE PUSH2 0x2D43 DUP2 DUP6 PUSH2 0x2CB1 JUMP JUMPDEST SWAP1 POP PUSH2 0x2D52 PUSH1 0x20 DUP4 ADD DUP5 PUSH2 0x2213 JUMP JUMPDEST SWAP4 SWAP3 POP POP POP JUMP JUMPDEST PUSH0 DUP1 REVERT JUMPDEST PUSH0 PUSH1 0x40 DUP3 DUP5 SUB SLT ISZERO PUSH2 0x2D72 JUMPI PUSH2 0x2D71 PUSH2 0x2D59 JUMP JUMPDEST JUMPDEST PUSH2 0x2D7C PUSH1 0x40 PUSH2 0x20CD JUMP JUMPDEST SWAP1 POP PUSH0 PUSH2 0x2D8B DUP5 DUP3 DUP6 ADD PUSH2 0x2715 JUMP JUMPDEST PUSH0 DUP4 ADD MSTORE POP PUSH1 0x20 PUSH2 0x2D9E DUP5 DUP3 DUP6 ADD PUSH2 0x2715 JUMP JUMPDEST PUSH1 0x20 DUP4 ADD MSTORE POP SWAP3 SWAP2 POP POP JUMP JUMPDEST PUSH0 PUSH1 0x40 DUP3 DUP5 SUB SLT ISZERO PUSH2 0x2DBF JUMPI PUSH2 0x2DBE PUSH2 0x1B8D JUMP JUMPDEST JUMPDEST PUSH0 PUSH2 0x2DCC DUP5 DUP3 DUP6 ADD PUSH2 0x2D5D JUMP JUMPDEST SWAP2 POP POP SWAP3 SWAP2 POP POP JUMP JUMPDEST PUSH0 PUSH1 0x60 DUP3 ADD SWAP1 POP PUSH2 0x2DE8 PUSH0 DUP4 ADD DUP7 PUSH2 0x2213 JUMP JUMPDEST PUSH2 0x2DF5 PUSH1 0x20 DUP4 ADD DUP6 PUSH2 0x2213 JUMP JUMPDEST PUSH2 0x2E02 PUSH1 0x40 DUP4 ADD DUP5 PUSH2 0x2438 JUMP JUMPDEST SWAP5 SWAP4 POP POP POP POP JUMP JUMPDEST PUSH0 DUP2 MLOAD SWAP1 POP PUSH2 0x2E18 DUP2 PUSH2 0x1BC0 JUMP JUMPDEST SWAP3 SWAP2 POP POP JUMP JUMPDEST PUSH2 0x2E27 DUP2 PUSH2 0x1D5C JUMP JUMPDEST DUP2 EQ PUSH2 0x2E31 JUMPI PUSH0 DUP1 REVERT JUMPDEST POP JUMP JUMPDEST PUSH0 DUP2 MLOAD SWAP1 POP PUSH2 0x2E42 DUP2 PUSH2 0x2E1E JUMP JUMPDEST SWAP3 SWAP2 POP POP JUMP JUMPDEST PUSH0 PUSH1 0x80 DUP3 DUP5 SUB SLT ISZERO PUSH2 0x2E5D JUMPI PUSH2 0x2E5C PUSH2 0x2D59 JUMP JUMPDEST JUMPDEST PUSH2 0x2E67 PUSH1 0x60 PUSH2 0x20CD JUMP JUMPDEST SWAP1 POP PUSH0 PUSH2 0x2E76 DUP5 DUP3 DUP6 ADD PUSH2 0x2E0A JUMP JUMPDEST PUSH0 DUP4 ADD MSTORE POP PUSH1 0x20 PUSH2 0x2E89 DUP5 DUP3 DUP6 ADD PUSH2 0x2E34 JUMP JUMPDEST PUSH1 0x20 DUP4 ADD MSTORE POP PUSH1 0x40 PUSH2 0x2E9D DUP5 DUP3 DUP6 ADD PUSH2 0x2D5D JUMP JUMPDEST PUSH1 0x40 DUP4 ADD MSTORE POP SWAP3 SWAP2 POP POP JUMP JUMPDEST PUSH0 PUSH1 0x80 DUP3 DUP5 SUB SLT ISZERO PUSH2 0x2EBE JUMPI PUSH2 0x2EBD PUSH2 0x1B8D JUMP JUMPDEST JUMPDEST PUSH0 PUSH2 0x2ECB DUP5 DUP3 DUP6 ADD PUSH2 0x2E48 JUMP JUMPDEST SWAP2 POP POP SWAP3 SWAP2 POP POP JUMP JUMPDEST PUSH0 DUP2 MLOAD SWAP1 POP PUSH2 0x2EE2 DUP2 PUSH2 0x1C7B JUMP JUMPDEST SWAP3 SWAP2 POP POP JUMP JUMPDEST PUSH0 PUSH1 0x20 DUP3 DUP5 SUB SLT ISZERO PUSH2 0x2EFD JUMPI PUSH2 0x2EFC PUSH2 0x1B8D JUMP JUMPDEST JUMPDEST PUSH0 PUSH2 0x2F0A DUP5 DUP3 DUP6 ADD PUSH2 0x2ED4 JUMP JUMPDEST SWAP2 POP POP SWAP3 SWAP2 POP POP JUMP INVALID LOG2 PUSH5 0x6970667358 0x22 SLT KECCAK256 PUSH6 0xF854C363CF9A 0xB1 0x4E 0x4C 0x28 SMOD MULMOD 0xDB SELFBALANCE 0xAB JUMPI MUL DUP3 0x4F 0x21 0xEF 0xDC POP RETURNDATASIZE PUSH8 0x62ADCF721696473 PUSH16 0x6C634300081A00330000000000000000 "
		},
		"gasEstimates": {
			"creation": {
				"codeDepositCost": "2421000",
				"executionCost": "infinite",
				"totalCost": "infinite"
			},
			"external": {
				"addSupportedToken(string,address)": "infinite",
				"allowInitializePath((uint32,bytes32,uint64))": "3128",
				"bridgeTokens(string,uint256,address,uint32,bytes)": "infinite",
				"endpoint()": "infinite",
				"feeBasisPoints()": "2555",
				"isComposeMsgSender((uint32,bytes32,uint64),bytes,address)": "1098",
				"lzReceive((uint32,bytes32,uint64),bytes32,bytes,address,bytes)": "infinite",
				"nextNonce(uint32,bytes32)": "835",
				"oAppVersion()": "infinite",
				"owner()": "2560",
				"peers(uint32)": "2871",
				"quote(string,uint256,address,uint32,bytes)": "infinite",
				"recoverERC20(address,uint256)": "infinite",
				"recoverNative()": "infinite",
				"removeSupportedToken(string)": "infinite",
				"renounceOwnership()": "infinite",
				"setDelegate(address)": "infinite",
				"setPeer(uint32,bytes32)": "infinite",
				"supportedTokens(string)": "infinite",
				"transferOwnership(address)": "infinite",
				"updateFee(uint16)": "infinite"
			},
			"internal": {
				"_calculateAmountsToSend(contract IERC20Metadata,uint256)": "infinite",
				"_lzReceive(struct Origin calldata,bytes32,bytes calldata,address,bytes calldata)": "infinite"
			}
		},
		"methodIdentifiers": {
			"addSupportedToken(string,address)": "ed88ed6c",
			"allowInitializePath((uint32,bytes32,uint64))": "ff7bd03d",
			"bridgeTokens(string,uint256,address,uint32,bytes)": "e97653dd",
			"endpoint()": "5e280f11",
			"feeBasisPoints()": "b8606eef",
			"isComposeMsgSender((uint32,bytes32,uint64),bytes,address)": "82413eac",
			"lzReceive((uint32,bytes32,uint64),bytes32,bytes,address,bytes)": "13137d65",
			"nextNonce(uint32,bytes32)": "7d25a05e",
			"oAppVersion()": "17442b70",
			"owner()": "8da5cb5b",
			"peers(uint32)": "bb0b6a53",
			"quote(string,uint256,address,uint32,bytes)": "e4f33b48",
			"recoverERC20(address,uint256)": "8980f11f",
			"recoverNative()": "5a54db86",
			"removeSupportedToken(string)": "92543a8a",
			"renounceOwnership()": "715018a6",
			"setDelegate(address)": "ca5eb5e1",
			"setPeer(uint32,bytes32)": "3400288b",
			"supportedTokens(string)": "89919cdd",
			"transferOwnership(address)": "f2fde38b",
			"updateFee(uint16)": "2c6cda93"
		}
	},
	"abi": [
		{
			"inputs": [
				{
					"internalType": "address",
					"name": "_owner",
					"type": "address"
				},
				{
					"internalType": "address",
					"name": "_lzEndpoint",
					"type": "address"
				},
				{
					"internalType": "uint16",
					"name": "_feeBasisPoints",
					"type": "uint16"
				}
			],
			"stateMutability": "nonpayable",
			"type": "constructor"
		},
		{
			"inputs": [
				{
					"internalType": "uint16",
					"name": "feeBasisPoints",
					"type": "uint16"
				},
				{
					"internalType": "uint16",
					"name": "maxFeeBasisPoints",
					"type": "uint16"
				}
			],
			"name": "FeeExceedMaximum",
			"type": "error"
		},
		{
			"inputs": [],
			"name": "InvalidDelegate",
			"type": "error"
		},
		{
			"inputs": [],
			"name": "InvalidEndpointCall",
			"type": "error"
		},
		{
			"inputs": [],
			"name": "InvalidReceiverAddress",
			"type": "error"
		},
		{
			"inputs": [],
			"name": "LzTokenUnavailable",
			"type": "error"
		},
		{
			"inputs": [
				{
					"internalType": "uint32",
					"name": "eid",
					"type": "uint32"
				}
			],
			"name": "NoPeer",
			"type": "error"
		},
		{
			"inputs": [
				{
					"internalType": "uint256",
					"name": "msgValue",
					"type": "uint256"
				}
			],
			"name": "NotEnoughNative",
			"type": "error"
		},
		{
			"inputs": [
				{
					"internalType": "address",
					"name": "addr",
					"type": "address"
				}
			],
			"name": "OnlyEndpoint",
			"type": "error"
		},
		{
			"inputs": [
				{
					"internalType": "uint32",
					"name": "eid",
					"type": "uint32"
				},
				{
					"internalType": "bytes32",
					"name": "sender",
					"type": "bytes32"
				}
			],
			"name": "OnlyPeer",
			"type": "error"
		},
		{
			"inputs": [
				{
					"internalType": "address",
					"name": "owner",
					"type": "address"
				}
			],
			"name": "OwnableInvalidOwner",
			"type": "error"
		},
		{
			"inputs": [
				{
					"internalType": "address",
					"name": "account",
					"type": "address"
				}
			],
			"name": "OwnableUnauthorizedAccount",
			"type": "error"
		},
		{
			"inputs": [],
			"name": "ReentrancyGuardReentrantCall",
			"type": "error"
		},
		{
			"inputs": [
				{
					"internalType": "address",
					"name": "token",
					"type": "address"
				}
			],
			"name": "SafeERC20FailedOperation",
			"type": "error"
		},
		{
			"inputs": [
				{
					"internalType": "string",
					"name": "symbol",
					"type": "string"
				}
			],
			"name": "TokenNotSupported",
			"type": "error"
		},
		{
			"anonymous": false,
			"inputs": [
				{
					"indexed": true,
					"internalType": "uint16",
					"name": "feeBasisPoints",
					"type": "uint16"
				}
			],
			"name": "FeeUpdated",
			"type": "event"
		},
		{
			"anonymous": false,
			"inputs": [
				{
					"indexed": true,
					"internalType": "address",
					"name": "previousOwner",
					"type": "address"
				},
				{
					"indexed": true,
					"internalType": "address",
					"name": "newOwner",
					"type": "address"
				}
			],
			"name": "OwnershipTransferred",
			"type": "event"
		},
		{
			"anonymous": false,
			"inputs": [
				{
					"indexed": false,
					"internalType": "uint32",
					"name": "eid",
					"type": "uint32"
				},
				{
					"indexed": false,
					"internalType": "bytes32",
					"name": "peer",
					"type": "bytes32"
				}
			],
			"name": "PeerSet",
			"type": "event"
		},
		{
			"anonymous": false,
			"inputs": [
				{
					"indexed": true,
					"internalType": "string",
					"name": "symbol",
					"type": "string"
				},
				{
					"indexed": true,
					"internalType": "contract IERC20Metadata",
					"name": "tokenAddress",
					"type": "address"
				}
			],
			"name": "TokenAdded",
			"type": "event"
		},
		{
			"anonymous": false,
			"inputs": [
				{
					"indexed": true,
					"internalType": "string",
					"name": "symbol",
					"type": "string"
				}
			],
			"name": "TokenRemoved",
			"type": "event"
		},
		{
			"anonymous": false,
			"inputs": [
				{
					"indexed": true,
					"internalType": "bytes32",
					"name": "guid",
					"type": "bytes32"
				},
				{
					"indexed": true,
					"internalType": "address",
					"name": "sender",
					"type": "address"
				},
				{
					"indexed": false,
					"internalType": "contract IERC20Metadata",
					"name": "token",
					"type": "address"
				},
				{
					"indexed": false,
					"internalType": "uint256",
					"name": "amount",
					"type": "uint256"
				},
				{
					"indexed": false,
					"internalType": "address",
					"name": "receiver",
					"type": "address"
				},
				{
					"indexed": false,
					"internalType": "uint256",
					"name": "fee",
					"type": "uint256"
				},
				{
					"indexed": false,
					"internalType": "uint32",
					"name": "targetChainId",
					"type": "uint32"
				}
			],
			"name": "TokensBridged",
			"type": "event"
		},
		{
			"anonymous": false,
			"inputs": [
				{
					"indexed": true,
					"internalType": "bytes32",
					"name": "guid",
					"type": "bytes32"
				},
				{
					"indexed": true,
					"internalType": "address",
					"name": "receiver",
					"type": "address"
				},
				{
					"indexed": false,
					"internalType": "contract IERC20Metadata",
					"name": "token",
					"type": "address"
				},
				{
					"indexed": false,
					"internalType": "uint256",
					"name": "amount",
					"type": "uint256"
				}
			],
			"name": "TokensReleased",
			"type": "event"
		},
		{
			"inputs": [
				{
					"internalType": "string",
					"name": "_symbol",
					"type": "string"
				},
				{
					"internalType": "contract IERC20Metadata",
					"name": "_address",
					"type": "address"
				}
			],
			"name": "addSupportedToken",
			"outputs": [],
			"stateMutability": "nonpayable",
			"type": "function"
		},
		{
			"inputs": [
				{
					"components": [
						{
							"internalType": "uint32",
							"name": "srcEid",
							"type": "uint32"
						},
						{
							"internalType": "bytes32",
							"name": "sender",
							"type": "bytes32"
						},
						{
							"internalType": "uint64",
							"name": "nonce",
							"type": "uint64"
						}
					],
					"internalType": "struct Origin",
					"name": "origin",
					"type": "tuple"
				}
			],
			"name": "allowInitializePath",
			"outputs": [
				{
					"internalType": "bool",
					"name": "",
					"type": "bool"
				}
			],
			"stateMutability": "view",
			"type": "function"
		},
		{
			"inputs": [
				{
					"internalType": "string",
					"name": "symbol",
					"type": "string"
				},
				{
					"internalType": "uint256",
					"name": "amount",
					"type": "uint256"
				},
				{
					"internalType": "address",
					"name": "receiver",
					"type": "address"
				},
				{
					"internalType": "uint32",
					"name": "targetChainId",
					"type": "uint32"
				},
				{
					"internalType": "bytes",
					"name": "_options",
					"type": "bytes"
				}
			],
			"name": "bridgeTokens",
			"outputs": [
				{
					"components": [
						{
							"internalType": "bytes32",
							"name": "guid",
							"type": "bytes32"
						},
						{
							"internalType": "uint64",
							"name": "nonce",
							"type": "uint64"
						},
						{
							"components": [
								{
									"internalType": "uint256",
									"name": "nativeFee",
									"type": "uint256"
								},
								{
									"internalType": "uint256",
									"name": "lzTokenFee",
									"type": "uint256"
								}
							],
							"internalType": "struct MessagingFee",
							"name": "fee",
							"type": "tuple"
						}
					],
					"internalType": "struct MessagingReceipt",
					"name": "receipt",
					"type": "tuple"
				}
			],
			"stateMutability": "payable",
			"type": "function"
		},
		{
			"inputs": [],
			"name": "endpoint",
			"outputs": [
				{
					"internalType": "contract ILayerZeroEndpointV2",
					"name": "",
					"type": "address"
				}
			],
			"stateMutability": "view",
			"type": "function"
		},
		{
			"inputs": [],
			"name": "feeBasisPoints",
			"outputs": [
				{
					"internalType": "uint16",
					"name": "",
					"type": "uint16"
				}
			],
			"stateMutability": "view",
			"type": "function"
		},
		{
			"inputs": [
				{
					"components": [
						{
							"internalType": "uint32",
							"name": "srcEid",
							"type": "uint32"
						},
						{
							"internalType": "bytes32",
							"name": "sender",
							"type": "bytes32"
						},
						{
							"internalType": "uint64",
							"name": "nonce",
							"type": "uint64"
						}
					],
					"internalType": "struct Origin",
					"name": "",
					"type": "tuple"
				},
				{
					"internalType": "bytes",
					"name": "",
					"type": "bytes"
				},
				{
					"internalType": "address",
					"name": "_sender",
					"type": "address"
				}
			],
			"name": "isComposeMsgSender",
			"outputs": [
				{
					"internalType": "bool",
					"name": "",
					"type": "bool"
				}
			],
			"stateMutability": "view",
			"type": "function"
		},
		{
			"inputs": [
				{
					"components": [
						{
							"internalType": "uint32",
							"name": "srcEid",
							"type": "uint32"
						},
						{
							"internalType": "bytes32",
							"name": "sender",
							"type": "bytes32"
						},
						{
							"internalType": "uint64",
							"name": "nonce",
							"type": "uint64"
						}
					],
					"internalType": "struct Origin",
					"name": "_origin",
					"type": "tuple"
				},
				{
					"internalType": "bytes32",
					"name": "_guid",
					"type": "bytes32"
				},
				{
					"internalType": "bytes",
					"name": "_message",
					"type": "bytes"
				},
				{
					"internalType": "address",
					"name": "_executor",
					"type": "address"
				},
				{
					"internalType": "bytes",
					"name": "_extraData",
					"type": "bytes"
				}
			],
			"name": "lzReceive",
			"outputs": [],
			"stateMutability": "payable",
			"type": "function"
		},
		{
			"inputs": [
				{
					"internalType": "uint32",
					"name": "",
					"type": "uint32"
				},
				{
					"internalType": "bytes32",
					"name": "",
					"type": "bytes32"
				}
			],
			"name": "nextNonce",
			"outputs": [
				{
					"internalType": "uint64",
					"name": "nonce",
					"type": "uint64"
				}
			],
			"stateMutability": "view",
			"type": "function"
		},
		{
			"inputs": [],
			"name": "oAppVersion",
			"outputs": [
				{
					"internalType": "uint64",
					"name": "senderVersion",
					"type": "uint64"
				},
				{
					"internalType": "uint64",
					"name": "receiverVersion",
					"type": "uint64"
				}
			],
			"stateMutability": "pure",
			"type": "function"
		},
		{
			"inputs": [],
			"name": "owner",
			"outputs": [
				{
					"internalType": "address",
					"name": "",
					"type": "address"
				}
			],
			"stateMutability": "view",
			"type": "function"
		},
		{
			"inputs": [
				{
					"internalType": "uint32",
					"name": "eid",
					"type": "uint32"
				}
			],
			"name": "peers",
			"outputs": [
				{
					"internalType": "bytes32",
					"name": "peer",
					"type": "bytes32"
				}
			],
			"stateMutability": "view",
			"type": "function"
		},
		{
			"inputs": [
				{
					"internalType": "string",
					"name": "symbol",
					"type": "string"
				},
				{
					"internalType": "uint256",
					"name": "amount",
					"type": "uint256"
				},
				{
					"internalType": "address",
					"name": "receiver",
					"type": "address"
				},
				{
					"internalType": "uint32",
					"name": "targetChainId",
					"type": "uint32"
				},
				{
					"internalType": "bytes",
					"name": "_options",
					"type": "bytes"
				}
			],
			"name": "quote",
			"outputs": [
				{
					"internalType": "uint256",
					"name": "nativeFee",
					"type": "uint256"
				}
			],
			"stateMutability": "view",
			"type": "function"
		},
		{
			"inputs": [
				{
					"internalType": "contract IERC20",
					"name": "tokenAddress",
					"type": "address"
				},
				{
					"internalType": "uint256",
					"name": "amount",
					"type": "uint256"
				}
			],
			"name": "recoverERC20",
			"outputs": [],
			"stateMutability": "nonpayable",
			"type": "function"
		},
		{
			"inputs": [],
			"name": "recoverNative",
			"outputs": [],
			"stateMutability": "nonpayable",
			"type": "function"
		},
		{
			"inputs": [
				{
					"internalType": "string",
					"name": "_symbol",
					"type": "string"
				}
			],
			"name": "removeSupportedToken",
			"outputs": [],
			"stateMutability": "nonpayable",
			"type": "function"
		},
		{
			"inputs": [],
			"name": "renounceOwnership",
			"outputs": [],
			"stateMutability": "nonpayable",
			"type": "function"
		},
		{
			"inputs": [
				{
					"internalType": "address",
					"name": "_delegate",
					"type": "address"
				}
			],
			"name": "setDelegate",
			"outputs": [],
			"stateMutability": "nonpayable",
			"type": "function"
		},
		{
			"inputs": [
				{
					"internalType": "uint32",
					"name": "_eid",
					"type": "uint32"
				},
				{
					"internalType": "bytes32",
					"name": "_peer",
					"type": "bytes32"
				}
			],
			"name": "setPeer",
			"outputs": [],
			"stateMutability": "nonpayable",
			"type": "function"
		},
		{
			"inputs": [
				{
					"internalType": "string",
					"name": "",
					"type": "string"
				}
			],
			"name": "supportedTokens",
			"outputs": [
				{
					"internalType": "contract IERC20Metadata",
					"name": "",
					"type": "address"
				}
			],
			"stateMutability": "view",
			"type": "function"
		},
		{
			"inputs": [
				{
					"internalType": "address",
					"name": "newOwner",
					"type": "address"
				}
			],
			"name": "transferOwnership",
			"outputs": [],
			"stateMutability": "nonpayable",
			"type": "function"
		},
		{
			"inputs": [
				{
					"internalType": "uint16",
					"name": "_feeBasisPoints",
					"type": "uint16"
				}
			],
			"name": "updateFee",
			"outputs": [],
			"stateMutability": "nonpayable",
			"type": "function"
		}
	]
}